{
	"lottery.sol": {
		"MultiPartyLottery": {
			"abi": [
				{
					"inputs": [
						{
							"internalType": "uint256",
							"name": "_maximumPlayerLimit",
							"type": "uint256"
						},
						{
							"internalType": "uint256",
							"name": "_commitLotteryStageDuration",
							"type": "uint256"
						},
						{
							"internalType": "uint256",
							"name": "_revealStageDuration",
							"type": "uint256"
						},
						{
							"internalType": "uint256",
							"name": "_awardStageDuration",
							"type": "uint256"
						}
					],
					"stateMutability": "nonpayable",
					"type": "constructor"
				},
				{
					"anonymous": false,
					"inputs": [
						{
							"indexed": false,
							"internalType": "address",
							"name": "sender",
							"type": "address"
						},
						{
							"indexed": false,
							"internalType": "uint256",
							"name": "lotteryId",
							"type": "uint256"
						},
						{
							"indexed": false,
							"internalType": "bytes32",
							"name": "dataHash",
							"type": "bytes32"
						},
						{
							"indexed": false,
							"internalType": "uint64",
							"name": "block",
							"type": "uint64"
						}
					],
					"name": "CommitHash",
					"type": "event"
				},
				{
					"anonymous": false,
					"inputs": [
						{
							"indexed": false,
							"internalType": "address",
							"name": "sender",
							"type": "address"
						},
						{
							"indexed": false,
							"internalType": "uint16",
							"name": "choice",
							"type": "uint16"
						},
						{
							"indexed": false,
							"internalType": "string",
							"name": "salt",
							"type": "string"
						}
					],
					"name": "RevealChoice",
					"type": "event"
				},
				{
					"inputs": [],
					"name": "N",
					"outputs": [
						{
							"internalType": "uint256",
							"name": "",
							"type": "uint256"
						}
					],
					"stateMutability": "view",
					"type": "function"
				},
				{
					"inputs": [],
					"name": "T1",
					"outputs": [
						{
							"internalType": "uint256",
							"name": "",
							"type": "uint256"
						}
					],
					"stateMutability": "view",
					"type": "function"
				},
				{
					"inputs": [],
					"name": "T2",
					"outputs": [
						{
							"internalType": "uint256",
							"name": "",
							"type": "uint256"
						}
					],
					"stateMutability": "view",
					"type": "function"
				},
				{
					"inputs": [],
					"name": "T3",
					"outputs": [
						{
							"internalType": "uint256",
							"name": "",
							"type": "uint256"
						}
					],
					"stateMutability": "view",
					"type": "function"
				},
				{
					"inputs": [],
					"name": "awardLottery",
					"outputs": [],
					"stateMutability": "nonpayable",
					"type": "function"
				},
				{
					"inputs": [
						{
							"internalType": "bytes32",
							"name": "_hashedLottery",
							"type": "bytes32"
						}
					],
					"name": "commitHashedLottery",
					"outputs": [
						{
							"internalType": "uint256",
							"name": "",
							"type": "uint256"
						}
					],
					"stateMutability": "payable",
					"type": "function"
				},
				{
					"inputs": [],
					"name": "getGameStage",
					"outputs": [
						{
							"internalType": "string",
							"name": "",
							"type": "string"
						},
						{
							"internalType": "uint256",
							"name": "",
							"type": "uint256"
						},
						{
							"internalType": "string",
							"name": "",
							"type": "string"
						}
					],
					"stateMutability": "view",
					"type": "function"
				},
				{
					"inputs": [
						{
							"internalType": "uint16",
							"name": "choice",
							"type": "uint16"
						},
						{
							"internalType": "string",
							"name": "salt",
							"type": "string"
						}
					],
					"name": "getSaltedHash",
					"outputs": [
						{
							"internalType": "bytes32",
							"name": "",
							"type": "bytes32"
						}
					],
					"stateMutability": "view",
					"type": "function"
				},
				{
					"inputs": [],
					"name": "isOwner",
					"outputs": [
						{
							"internalType": "bool",
							"name": "",
							"type": "bool"
						}
					],
					"stateMutability": "view",
					"type": "function"
				},
				{
					"inputs": [
						{
							"internalType": "uint256",
							"name": "",
							"type": "uint256"
						}
					],
					"name": "lotteries",
					"outputs": [
						{
							"internalType": "uint16",
							"name": "choice",
							"type": "uint16"
						},
						{
							"internalType": "bool",
							"name": "isCommitted",
							"type": "bool"
						},
						{
							"internalType": "bool",
							"name": "isRevealed",
							"type": "bool"
						},
						{
							"internalType": "bool",
							"name": "isWithdrawn",
							"type": "bool"
						},
						{
							"internalType": "address",
							"name": "addr",
							"type": "address"
						}
					],
					"stateMutability": "view",
					"type": "function"
				},
				{
					"inputs": [],
					"name": "owner",
					"outputs": [
						{
							"internalType": "address",
							"name": "",
							"type": "address"
						}
					],
					"stateMutability": "view",
					"type": "function"
				},
				{
					"inputs": [
						{
							"internalType": "uint256",
							"name": "_lotteryId",
							"type": "uint256"
						},
						{
							"internalType": "uint16",
							"name": "_choice",
							"type": "uint16"
						},
						{
							"internalType": "string",
							"name": "_salt",
							"type": "string"
						}
					],
					"name": "revealLottery",
					"outputs": [],
					"stateMutability": "nonpayable",
					"type": "function"
				},
				{
					"inputs": [],
					"name": "startStageTime",
					"outputs": [
						{
							"internalType": "uint256",
							"name": "",
							"type": "uint256"
						}
					],
					"stateMutability": "view",
					"type": "function"
				},
				{
					"inputs": [
						{
							"internalType": "uint256",
							"name": "lotteryId",
							"type": "uint256"
						}
					],
					"name": "withdraw",
					"outputs": [],
					"stateMutability": "nonpayable",
					"type": "function"
				}
			],
			"devdoc": {
				"kind": "dev",
				"methods": {},
				"version": 1
			},
			"evm": {
				"assembly": "    /* \"lottery.sol\":118:7663  contract MultiPartyLottery is Ownable, CommitReveal {... */\n  mstore(0x40, 0x80)\n    /* \"lottery.sol\":204:205  0 */\n  0x00\n    /* \"lottery.sol\":176:205  uint16 private _gameStage = 0 */\n  0x02\n  exp(0x0100, 0x00)\n  dup2\n  sload\n  dup2\n  0xffff\n  mul\n  not\n  and\n  swap1\n  dup4\n  0xffff\n  and\n  mul\n  or\n  swap1\n  sstore\n  pop\n    /* \"lottery.sol\":307:322  block.timestamp */\n  timestamp\n    /* \"lottery.sol\":275:322  uint256 public startStageTime = block.timestamp */\n  0x03\n  sstore\n    /* \"lottery.sol\":569:570  0 */\n  0x00\n    /* \"lottery.sol\":533:570  uint256 private _num_participants = 0 */\n  0x08\n  sstore\n    /* \"lottery.sol\":608:609  0 */\n  0x00\n    /* \"lottery.sol\":576:609  uint256 private _num_revealed = 0 */\n  0x09\n  sstore\n    /* \"lottery.sol\":955:1281  constructor(... */\n  callvalue\n  dup1\n  iszero\n  tag_1\n  jumpi\n  0x00\n  dup1\n  revert\ntag_1:\n  pop\n  mload(0x40)\n  sub(codesize, bytecodeSize)\n  dup1\n  bytecodeSize\n  dup4\n  codecopy\n  dup2\n  dup2\n  add\n  0x40\n  mstore\n  dup2\n  add\n  swap1\n  tag_2\n  swap2\n  swap1\n  tag_3\n  jump\t// in\ntag_2:\n    /* \"Ownable.sol\":150:160  msg.sender */\n  caller\n    /* \"Ownable.sol\":141:147  _owner */\n  0x00\n  dup1\n    /* \"Ownable.sol\":141:160  _owner = msg.sender */\n  0x0100\n  exp\n  dup2\n  sload\n  dup2\n  0xffffffffffffffffffffffffffffffffffffffff\n  mul\n  not\n  and\n  swap1\n  dup4\n  0xffffffffffffffffffffffffffffffffffffffff\n  and\n  mul\n  or\n  swap1\n  sstore\n  pop\n    /* \"lottery.sol\":1144:1163  _maximumPlayerLimit */\n  dup4\n    /* \"lottery.sol\":1140:1141  N */\n  0x07\n    /* \"lottery.sol\":1140:1163  N = _maximumPlayerLimit */\n  dup2\n  swap1\n  sstore\n  pop\n    /* \"lottery.sol\":1178:1205  _commitLotteryStageDuration */\n  dup3\n    /* \"lottery.sol\":1173:1175  T1 */\n  0x04\n    /* \"lottery.sol\":1173:1205  T1 = _commitLotteryStageDuration */\n  dup2\n  swap1\n  sstore\n  pop\n    /* \"lottery.sol\":1220:1240  _revealStageDuration */\n  dup2\n    /* \"lottery.sol\":1215:1217  T2 */\n  0x05\n    /* \"lottery.sol\":1215:1240  T2 = _revealStageDuration */\n  dup2\n  swap1\n  sstore\n  pop\n    /* \"lottery.sol\":1255:1274  _awardStageDuration */\n  dup1\n    /* \"lottery.sol\":1250:1252  T3 */\n  0x06\n    /* \"lottery.sol\":1250:1274  T3 = _awardStageDuration */\n  dup2\n  swap1\n  sstore\n  pop\n    /* \"lottery.sol\":955:1281  constructor(... */\n  pop\n  pop\n  pop\n  pop\n    /* \"lottery.sol\":118:7663  contract MultiPartyLottery is Ownable, CommitReveal {... */\n  jump(tag_8)\n    /* \"#utility.yul\":88:205   */\ntag_10:\n    /* \"#utility.yul\":197:198   */\n  0x00\n    /* \"#utility.yul\":194:195   */\n  dup1\n    /* \"#utility.yul\":187:199   */\n  revert\n    /* \"#utility.yul\":334:411   */\ntag_12:\n    /* \"#utility.yul\":371:378   */\n  0x00\n    /* \"#utility.yul\":400:405   */\n  dup2\n    /* \"#utility.yul\":389:405   */\n  swap1\n  pop\n    /* \"#utility.yul\":334:411   */\n  swap2\n  swap1\n  pop\n  jump\t// out\n    /* \"#utility.yul\":417:539   */\ntag_13:\n    /* \"#utility.yul\":490:514   */\n  tag_21\n    /* \"#utility.yul\":508:513   */\n  dup2\n    /* \"#utility.yul\":490:514   */\n  tag_12\n  jump\t// in\ntag_21:\n    /* \"#utility.yul\":483:488   */\n  dup2\n    /* \"#utility.yul\":480:515   */\n  eq\n    /* \"#utility.yul\":470:533   */\n  tag_22\n  jumpi\n    /* \"#utility.yul\":529:530   */\n  0x00\n    /* \"#utility.yul\":526:527   */\n  dup1\n    /* \"#utility.yul\":519:531   */\n  revert\n    /* \"#utility.yul\":470:533   */\ntag_22:\n    /* \"#utility.yul\":417:539   */\n  pop\n  jump\t// out\n    /* \"#utility.yul\":545:688   */\ntag_14:\n    /* \"#utility.yul\":602:607   */\n  0x00\n    /* \"#utility.yul\":633:639   */\n  dup2\n    /* \"#utility.yul\":627:640   */\n  mload\n    /* \"#utility.yul\":618:640   */\n  swap1\n  pop\n    /* \"#utility.yul\":649:682   */\n  tag_24\n    /* \"#utility.yul\":676:681   */\n  dup2\n    /* \"#utility.yul\":649:682   */\n  tag_13\n  jump\t// in\ntag_24:\n    /* \"#utility.yul\":545:688   */\n  swap3\n  swap2\n  pop\n  pop\n  jump\t// out\n    /* \"#utility.yul\":694:1514   */\ntag_3:\n    /* \"#utility.yul\":791:797   */\n  0x00\n    /* \"#utility.yul\":799:805   */\n  dup1\n    /* \"#utility.yul\":807:813   */\n  0x00\n    /* \"#utility.yul\":815:821   */\n  dup1\n    /* \"#utility.yul\":864:867   */\n  0x80\n    /* \"#utility.yul\":852:861   */\n  dup6\n    /* \"#utility.yul\":843:850   */\n  dup8\n    /* \"#utility.yul\":839:862   */\n  sub\n    /* \"#utility.yul\":835:868   */\n  slt\n    /* \"#utility.yul\":832:952   */\n  iszero\n  tag_26\n  jumpi\n    /* \"#utility.yul\":871:950   */\n  tag_27\n  tag_10\n  jump\t// in\ntag_27:\n    /* \"#utility.yul\":832:952   */\ntag_26:\n    /* \"#utility.yul\":991:992   */\n  0x00\n    /* \"#utility.yul\":1016:1080   */\n  tag_28\n    /* \"#utility.yul\":1072:1079   */\n  dup8\n    /* \"#utility.yul\":1063:1069   */\n  dup3\n    /* \"#utility.yul\":1052:1061   */\n  dup9\n    /* \"#utility.yul\":1048:1070   */\n  add\n    /* \"#utility.yul\":1016:1080   */\n  tag_14\n  jump\t// in\ntag_28:\n    /* \"#utility.yul\":1006:1080   */\n  swap5\n  pop\n    /* \"#utility.yul\":962:1090   */\n  pop\n    /* \"#utility.yul\":1129:1131   */\n  0x20\n    /* \"#utility.yul\":1155:1219   */\n  tag_29\n    /* \"#utility.yul\":1211:1218   */\n  dup8\n    /* \"#utility.yul\":1202:1208   */\n  dup3\n    /* \"#utility.yul\":1191:1200   */\n  dup9\n    /* \"#utility.yul\":1187:1209   */\n  add\n    /* \"#utility.yul\":1155:1219   */\n  tag_14\n  jump\t// in\ntag_29:\n    /* \"#utility.yul\":1145:1219   */\n  swap4\n  pop\n    /* \"#utility.yul\":1100:1229   */\n  pop\n    /* \"#utility.yul\":1268:1270   */\n  0x40\n    /* \"#utility.yul\":1294:1358   */\n  tag_30\n    /* \"#utility.yul\":1350:1357   */\n  dup8\n    /* \"#utility.yul\":1341:1347   */\n  dup3\n    /* \"#utility.yul\":1330:1339   */\n  dup9\n    /* \"#utility.yul\":1326:1348   */\n  add\n    /* \"#utility.yul\":1294:1358   */\n  tag_14\n  jump\t// in\ntag_30:\n    /* \"#utility.yul\":1284:1358   */\n  swap3\n  pop\n    /* \"#utility.yul\":1239:1368   */\n  pop\n    /* \"#utility.yul\":1407:1409   */\n  0x60\n    /* \"#utility.yul\":1433:1497   */\n  tag_31\n    /* \"#utility.yul\":1489:1496   */\n  dup8\n    /* \"#utility.yul\":1480:1486   */\n  dup3\n    /* \"#utility.yul\":1469:1478   */\n  dup9\n    /* \"#utility.yul\":1465:1487   */\n  add\n    /* \"#utility.yul\":1433:1497   */\n  tag_14\n  jump\t// in\ntag_31:\n    /* \"#utility.yul\":1423:1497   */\n  swap2\n  pop\n    /* \"#utility.yul\":1378:1507   */\n  pop\n    /* \"#utility.yul\":694:1514   */\n  swap3\n  swap6\n  swap2\n  swap5\n  pop\n  swap3\n  pop\n  jump\t// out\n    /* \"lottery.sol\":118:7663  contract MultiPartyLottery is Ownable, CommitReveal {... */\ntag_8:\n  dataSize(sub_0)\n  dup1\n  dataOffset(sub_0)\n  0x00\n  codecopy\n  0x00\n  return\nstop\n\nsub_0: assembly {\n        /* \"lottery.sol\":118:7663  contract MultiPartyLottery is Ownable, CommitReveal {... */\n      mstore(0x40, 0x80)\n      jumpi(tag_1, lt(calldatasize, 0x04))\n      shr(0xe0, calldataload(0x00))\n      dup1\n      0x84c9ad6e\n      gt\n      tag_16\n      jumpi\n      dup1\n      0x99023f1b\n      gt\n      tag_17\n      jumpi\n      dup1\n      0x99023f1b\n      eq\n      tag_12\n      jumpi\n      dup1\n      0xa11efef4\n      eq\n      tag_13\n      jumpi\n      dup1\n      0xacf1a0ac\n      eq\n      tag_14\n      jumpi\n      dup1\n      0xc9e525df\n      eq\n      tag_15\n      jumpi\n      jump(tag_1)\n    tag_17:\n      dup1\n      0x84c9ad6e\n      eq\n      tag_9\n      jumpi\n      dup1\n      0x8da5cb5b\n      eq\n      tag_10\n      jumpi\n      dup1\n      0x8f32d59b\n      eq\n      tag_11\n      jumpi\n      jump(tag_1)\n    tag_16:\n      dup1\n      0x2e1a7d4d\n      gt\n      tag_18\n      jumpi\n      dup1\n      0x2e1a7d4d\n      eq\n      tag_5\n      jumpi\n      dup1\n      0x2f0bca26\n      eq\n      tag_6\n      jumpi\n      dup1\n      0x31081d7e\n      eq\n      tag_7\n      jumpi\n      dup1\n      0x5a07ec0b\n      eq\n      tag_8\n      jumpi\n      jump(tag_1)\n    tag_18:\n      dup1\n      0x1398e076\n      eq\n      tag_2\n      jumpi\n      dup1\n      0x15753ec0\n      eq\n      tag_3\n      jumpi\n      dup1\n      0x218e8a9e\n      eq\n      tag_4\n      jumpi\n    tag_1:\n      0x00\n      dup1\n      revert\n        /* \"lottery.sol\":904:948  mapping(uint256 => Lottery) public lotteries */\n    tag_2:\n      callvalue\n      dup1\n      iszero\n      tag_19\n      jumpi\n      0x00\n      dup1\n      revert\n    tag_19:\n      pop\n      tag_20\n      0x04\n      dup1\n      calldatasize\n      sub\n      dup2\n      add\n      swap1\n      tag_21\n      swap2\n      swap1\n      tag_22\n      jump\t// in\n    tag_21:\n      tag_23\n      jump\t// in\n    tag_20:\n      mload(0x40)\n      tag_24\n      swap6\n      swap5\n      swap4\n      swap3\n      swap2\n      swap1\n      tag_25\n      jump\t// in\n    tag_24:\n      mload(0x40)\n      dup1\n      swap2\n      sub\n      swap1\n      return\n        /* \"lottery.sol\":4216:5913  function awardLottery() public onlyOwner {... */\n    tag_3:\n      callvalue\n      dup1\n      iszero\n      tag_26\n      jumpi\n      0x00\n      dup1\n      revert\n    tag_26:\n      pop\n      tag_27\n      tag_28\n      jump\t// in\n    tag_27:\n      stop\n        /* \"lottery.sol\":2451:3521  function commitHashedLottery(... */\n    tag_4:\n      tag_29\n      0x04\n      dup1\n      calldatasize\n      sub\n      dup2\n      add\n      swap1\n      tag_30\n      swap2\n      swap1\n      tag_31\n      jump\t// in\n    tag_30:\n      tag_32\n      jump\t// in\n    tag_29:\n      mload(0x40)\n      tag_33\n      swap2\n      swap1\n      tag_34\n      jump\t// in\n    tag_33:\n      mload(0x40)\n      dup1\n      swap2\n      sub\n      swap1\n      return\n        /* \"lottery.sol\":6744:7494  function withdraw(uint256 lotteryId) public {... */\n    tag_5:\n      callvalue\n      dup1\n      iszero\n      tag_35\n      jumpi\n      0x00\n      dup1\n      revert\n    tag_35:\n      pop\n      tag_36\n      0x04\n      dup1\n      calldatasize\n      sub\n      dup2\n      add\n      swap1\n      tag_37\n      swap2\n      swap1\n      tag_22\n      jump\t// in\n    tag_37:\n      tag_38\n      jump\t// in\n    tag_36:\n      stop\n        /* \"lottery.sol\":1287:2445  function getGameStage()... */\n    tag_6:\n      callvalue\n      dup1\n      iszero\n      tag_39\n      jumpi\n      0x00\n      dup1\n      revert\n    tag_39:\n      pop\n      tag_40\n      tag_41\n      jump\t// in\n    tag_40:\n      mload(0x40)\n      tag_42\n      swap4\n      swap3\n      swap2\n      swap1\n      tag_43\n      jump\t// in\n    tag_42:\n      mload(0x40)\n      dup1\n      swap2\n      sub\n      swap1\n      return\n        /* \"lottery.sol\":422:439  uint256 public T3 */\n    tag_7:\n      callvalue\n      dup1\n      iszero\n      tag_44\n      jumpi\n      0x00\n      dup1\n      revert\n    tag_44:\n      pop\n      tag_45\n      tag_46\n      jump\t// in\n    tag_45:\n      mload(0x40)\n      tag_47\n      swap2\n      swap1\n      tag_34\n      jump\t// in\n    tag_47:\n      mload(0x40)\n      dup1\n      swap2\n      sub\n      swap1\n      return\n        /* \"CommitReveal.sol\":1534:1729  function getSaltedHash(... */\n    tag_8:\n      callvalue\n      dup1\n      iszero\n      tag_48\n      jumpi\n      0x00\n      dup1\n      revert\n    tag_48:\n      pop\n      tag_49\n      0x04\n      dup1\n      calldatasize\n      sub\n      dup2\n      add\n      swap1\n      tag_50\n      swap2\n      swap1\n      tag_51\n      jump\t// in\n    tag_50:\n      tag_52\n      jump\t// in\n    tag_49:\n      mload(0x40)\n      tag_53\n      swap2\n      swap1\n      tag_54\n      jump\t// in\n    tag_53:\n      mload(0x40)\n      dup1\n      swap2\n      sub\n      swap1\n      return\n        /* \"lottery.sol\":375:392  uint256 public T2 */\n    tag_9:\n      callvalue\n      dup1\n      iszero\n      tag_55\n      jumpi\n      0x00\n      dup1\n      revert\n    tag_55:\n      pop\n      tag_56\n      tag_57\n      jump\t// in\n    tag_56:\n      mload(0x40)\n      tag_58\n      swap2\n      swap1\n      tag_34\n      jump\t// in\n    tag_58:\n      mload(0x40)\n      dup1\n      swap2\n      sub\n      swap1\n      return\n        /* \"Ownable.sol\":173:250  function owner() public view returns (address) {... */\n    tag_10:\n      callvalue\n      dup1\n      iszero\n      tag_59\n      jumpi\n      0x00\n      dup1\n      revert\n    tag_59:\n      pop\n      tag_60\n      tag_61\n      jump\t// in\n    tag_60:\n      mload(0x40)\n      tag_62\n      swap2\n      swap1\n      tag_63\n      jump\t// in\n    tag_62:\n      mload(0x40)\n      dup1\n      swap2\n      sub\n      swap1\n      return\n        /* \"Ownable.sol\":375:465  function isOwner() public view returns (bool) {... */\n    tag_11:\n      callvalue\n      dup1\n      iszero\n      tag_64\n      jumpi\n      0x00\n      dup1\n      revert\n    tag_64:\n      pop\n      tag_65\n      tag_66\n      jump\t// in\n    tag_65:\n      mload(0x40)\n      tag_67\n      swap2\n      swap1\n      tag_68\n      jump\t// in\n    tag_67:\n      mload(0x40)\n      dup1\n      swap2\n      sub\n      swap1\n      return\n        /* \"lottery.sol\":275:322  uint256 public startStageTime = block.timestamp */\n    tag_12:\n      callvalue\n      dup1\n      iszero\n      tag_69\n      jumpi\n      0x00\n      dup1\n      revert\n    tag_69:\n      pop\n      tag_70\n      tag_71\n      jump\t// in\n    tag_70:\n      mload(0x40)\n      tag_72\n      swap2\n      swap1\n      tag_34\n      jump\t// in\n    tag_72:\n      mload(0x40)\n      dup1\n      swap2\n      sub\n      swap1\n      return\n        /* \"lottery.sol\":328:345  uint256 public T1 */\n    tag_13:\n      callvalue\n      dup1\n      iszero\n      tag_73\n      jumpi\n      0x00\n      dup1\n      revert\n    tag_73:\n      pop\n      tag_74\n      tag_75\n      jump\t// in\n    tag_74:\n      mload(0x40)\n      tag_76\n      swap2\n      swap1\n      tag_34\n      jump\t// in\n    tag_76:\n      mload(0x40)\n      dup1\n      swap2\n      sub\n      swap1\n      return\n        /* \"lottery.sol\":3527:4210  function revealLottery(... */\n    tag_14:\n      callvalue\n      dup1\n      iszero\n      tag_77\n      jumpi\n      0x00\n      dup1\n      revert\n    tag_77:\n      pop\n      tag_78\n      0x04\n      dup1\n      calldatasize\n      sub\n      dup2\n      add\n      swap1\n      tag_79\n      swap2\n      swap1\n      tag_80\n      jump\t// in\n    tag_79:\n      tag_81\n      jump\t// in\n    tag_78:\n      stop\n        /* \"lottery.sol\":469:485  uint256 public N */\n    tag_15:\n      callvalue\n      dup1\n      iszero\n      tag_82\n      jumpi\n      0x00\n      dup1\n      revert\n    tag_82:\n      pop\n      tag_83\n      tag_84\n      jump\t// in\n    tag_83:\n      mload(0x40)\n      tag_85\n      swap2\n      swap1\n      tag_34\n      jump\t// in\n    tag_85:\n      mload(0x40)\n      dup1\n      swap2\n      sub\n      swap1\n      return\n        /* \"lottery.sol\":904:948  mapping(uint256 => Lottery) public lotteries */\n    tag_23:\n      mstore(0x20, 0x0a)\n      dup1\n      0x00\n      mstore\n      keccak256(0x00, 0x40)\n      0x00\n      swap2\n      pop\n      swap1\n      pop\n      dup1\n      0x00\n      add\n      0x00\n      swap1\n      sload\n      swap1\n      0x0100\n      exp\n      swap1\n      div\n      0xffff\n      and\n      swap1\n      dup1\n      0x00\n      add\n      0x02\n      swap1\n      sload\n      swap1\n      0x0100\n      exp\n      swap1\n      div\n      0xff\n      and\n      swap1\n      dup1\n      0x00\n      add\n      0x03\n      swap1\n      sload\n      swap1\n      0x0100\n      exp\n      swap1\n      div\n      0xff\n      and\n      swap1\n      dup1\n      0x00\n      add\n      0x04\n      swap1\n      sload\n      swap1\n      0x0100\n      exp\n      swap1\n      div\n      0xff\n      and\n      swap1\n      dup1\n      0x00\n      add\n      0x05\n      swap1\n      sload\n      swap1\n      0x0100\n      exp\n      swap1\n      div\n      0xffffffffffffffffffffffffffffffffffffffff\n      and\n      swap1\n      pop\n      dup6\n      jump\t// out\n        /* \"lottery.sol\":4216:5913  function awardLottery() public onlyOwner {... */\n    tag_28:\n        /* \"Ownable.sol\":295:304  isOwner() */\n      tag_87\n        /* \"Ownable.sol\":295:302  isOwner */\n      tag_66\n        /* \"Ownable.sol\":295:304  isOwner() */\n      jump\t// in\n    tag_87:\n        /* \"Ownable.sol\":287:351  require(isOwner(), \"Ownable: only owner can call this function\") */\n      tag_88\n      jumpi\n      mload(0x40)\n      0x08c379a000000000000000000000000000000000000000000000000000000000\n      dup2\n      mstore\n      0x04\n      add\n      tag_89\n      swap1\n      tag_90\n      jump\t// in\n    tag_89:\n      mload(0x40)\n      dup1\n      swap2\n      sub\n      swap1\n      revert\n    tag_88:\n        /* \"lottery.sol\":4315:4330  block.timestamp */\n      timestamp\n        /* \"lottery.sol\":4310:4312  T2 */\n      sload(0x05)\n        /* \"lottery.sol\":4305:4307  T1 */\n      sload(0x04)\n        /* \"lottery.sol\":4288:4302  startStageTime */\n      sload(0x03)\n        /* \"lottery.sol\":4288:4307  startStageTime + T1 */\n      tag_92\n      swap2\n      swap1\n      tag_93\n      jump\t// in\n    tag_92:\n        /* \"lottery.sol\":4288:4312  startStageTime + T1 + T2 */\n      tag_94\n      swap2\n      swap1\n      tag_93\n      jump\t// in\n    tag_94:\n        /* \"lottery.sol\":4288:4330  startStageTime + T1 + T2 < block.timestamp */\n      lt\n        /* \"lottery.sol\":4288:4397  startStageTime + T1 + T2 < block.timestamp &&... */\n      dup1\n      iszero\n      tag_95\n      jumpi\n      pop\n        /* \"lottery.sol\":4395:4397  T3 */\n      sload(0x06)\n        /* \"lottery.sol\":4390:4392  T2 */\n      sload(0x05)\n        /* \"lottery.sol\":4385:4387  T1 */\n      sload(0x04)\n        /* \"lottery.sol\":4368:4382  startStageTime */\n      sload(0x03)\n        /* \"lottery.sol\":4368:4387  startStageTime + T1 */\n      tag_96\n      swap2\n      swap1\n      tag_93\n      jump\t// in\n    tag_96:\n        /* \"lottery.sol\":4368:4392  startStageTime + T1 + T2 */\n      tag_97\n      swap2\n      swap1\n      tag_93\n      jump\t// in\n    tag_97:\n        /* \"lottery.sol\":4368:4397  startStageTime + T1 + T2 + T3 */\n      tag_98\n      swap2\n      swap1\n      tag_93\n      jump\t// in\n    tag_98:\n        /* \"lottery.sol\":4350:4365  block.timestamp */\n      timestamp\n        /* \"lottery.sol\":4350:4397  block.timestamp < startStageTime + T1 + T2 + T3 */\n      lt\n        /* \"lottery.sol\":4288:4397  startStageTime + T1 + T2 < block.timestamp &&... */\n    tag_95:\n        /* \"lottery.sol\":4267:4482  require(... */\n      tag_99\n      jumpi\n      mload(0x40)\n      0x08c379a000000000000000000000000000000000000000000000000000000000\n      dup2\n      mstore\n      0x04\n      add\n      tag_100\n      swap1\n      tag_101\n      jump\t// in\n    tag_100:\n      mload(0x40)\n      dup1\n      swap2\n      sub\n      swap1\n      revert\n    tag_99:\n        /* \"lottery.sol\":4493:4523  Lottery[] memory goodLotteries */\n      0x00\n        /* \"lottery.sol\":4540:4557  _num_participants */\n      sload(0x08)\n        /* \"lottery.sol\":4526:4558  new Lottery[](_num_participants) */\n      0xffffffffffffffff\n      dup2\n      gt\n      iszero\n      tag_102\n      jumpi\n      tag_103\n      tag_104\n      jump\t// in\n    tag_103:\n    tag_102:\n      mload(0x40)\n      swap1\n      dup1\n      dup3\n      mstore\n      dup1\n      0x20\n      mul\n      0x20\n      add\n      dup3\n      add\n      0x40\n      mstore\n      dup1\n      iszero\n      tag_105\n      jumpi\n      dup2\n      0x20\n      add\n    tag_106:\n      tag_107\n      tag_108\n      jump\t// in\n    tag_107:\n      dup2\n      mstore\n      0x20\n      add\n      swap1\n      0x01\n      swap1\n      sub\n      swap1\n      dup2\n      tag_106\n      jumpi\n      swap1\n      pop\n    tag_105:\n      pop\n        /* \"lottery.sol\":4493:4558  Lottery[] memory goodLotteries = new Lottery[](_num_participants) */\n      swap1\n      pop\n        /* \"lottery.sol\":4568:4594  uint256 goodLotteriesCount */\n      0x00\n        /* \"lottery.sol\":4614:4623  uint256 i */\n      dup1\n        /* \"lottery.sol\":4609:5454  for (uint256 i = 0; i < _num_participants; i++) {... */\n    tag_109:\n        /* \"lottery.sol\":4633:4650  _num_participants */\n      sload(0x08)\n        /* \"lottery.sol\":4629:4630  i */\n      dup2\n        /* \"lottery.sol\":4629:4650  i < _num_participants */\n      lt\n        /* \"lottery.sol\":4609:5454  for (uint256 i = 0; i < _num_participants; i++) {... */\n      iszero\n      tag_110\n      jumpi\n        /* \"lottery.sol\":4692:4701  lotteries */\n      0x0a\n        /* \"lottery.sol\":4692:4704  lotteries[i] */\n      0x00\n        /* \"lottery.sol\":4702:4703  i */\n      dup3\n        /* \"lottery.sol\":4692:4704  lotteries[i] */\n      dup2\n      mstore\n      0x20\n      add\n      swap1\n      dup2\n      mstore\n      0x20\n      add\n      0x00\n      keccak256\n        /* \"lottery.sol\":4692:4715  lotteries[i].isRevealed */\n      0x00\n      add\n      0x03\n      swap1\n      sload\n      swap1\n      0x0100\n      exp\n      swap1\n      div\n      0xff\n      and\n        /* \"lottery.sol\":4692:4771  lotteries[i].isRevealed &&... */\n      dup1\n      iszero\n      tag_112\n      jumpi\n      pop\n        /* \"lottery.sol\":647:648  0 */\n      0x00\n        /* \"lottery.sol\":4735:4771  lotteries[i].choice >= MinimumChoice */\n      0xffff\n      and\n        /* \"lottery.sol\":4735:4744  lotteries */\n      0x0a\n        /* \"lottery.sol\":4735:4747  lotteries[i] */\n      0x00\n        /* \"lottery.sol\":4745:4746  i */\n      dup4\n        /* \"lottery.sol\":4735:4747  lotteries[i] */\n      dup2\n      mstore\n      0x20\n      add\n      swap1\n      dup2\n      mstore\n      0x20\n      add\n      0x00\n      keccak256\n        /* \"lottery.sol\":4735:4754  lotteries[i].choice */\n      0x00\n      add\n      0x00\n      swap1\n      sload\n      swap1\n      0x0100\n      exp\n      swap1\n      div\n      0xffff\n      and\n        /* \"lottery.sol\":4735:4771  lotteries[i].choice >= MinimumChoice */\n      0xffff\n      and\n      lt\n      iszero\n        /* \"lottery.sol\":4692:4771  lotteries[i].isRevealed &&... */\n    tag_112:\n        /* \"lottery.sol\":4692:4827  lotteries[i].isRevealed &&... */\n      dup1\n      iszero\n      tag_113\n      jumpi\n      pop\n        /* \"lottery.sol\":686:689  999 */\n      0x03e7\n        /* \"lottery.sol\":4791:4827  lotteries[i].choice <= MaximumChoice */\n      0xffff\n      and\n        /* \"lottery.sol\":4791:4800  lotteries */\n      0x0a\n        /* \"lottery.sol\":4791:4803  lotteries[i] */\n      0x00\n        /* \"lottery.sol\":4801:4802  i */\n      dup4\n        /* \"lottery.sol\":4791:4803  lotteries[i] */\n      dup2\n      mstore\n      0x20\n      add\n      swap1\n      dup2\n      mstore\n      0x20\n      add\n      0x00\n      keccak256\n        /* \"lottery.sol\":4791:4810  lotteries[i].choice */\n      0x00\n      add\n      0x00\n      swap1\n      sload\n      swap1\n      0x0100\n      exp\n      swap1\n      div\n      0xffff\n      and\n        /* \"lottery.sol\":4791:4827  lotteries[i].choice <= MaximumChoice */\n      0xffff\n      and\n      gt\n      iszero\n        /* \"lottery.sol\":4692:4827  lotteries[i].isRevealed &&... */\n    tag_113:\n        /* \"lottery.sol\":4671:5444  if (... */\n      iszero\n      tag_114\n      jumpi\n        /* \"lottery.sol\":4903:4912  lotteries */\n      0x0a\n        /* \"lottery.sol\":4903:4915  lotteries[i] */\n      0x00\n        /* \"lottery.sol\":4913:4914  i */\n      dup3\n        /* \"lottery.sol\":4903:4915  lotteries[i] */\n      dup2\n      mstore\n      0x20\n      add\n      swap1\n      dup2\n      mstore\n      0x20\n      add\n      0x00\n      keccak256\n        /* \"lottery.sol\":4903:4922  lotteries[i].choice */\n      0x00\n      add\n      0x00\n      swap1\n      sload\n      swap1\n      0x0100\n      exp\n      swap1\n      div\n      0xffff\n      and\n        /* \"lottery.sol\":4860:4873  goodLotteries */\n      dup4\n        /* \"lottery.sol\":4874:4892  goodLotteriesCount */\n      dup4\n        /* \"lottery.sol\":4860:4893  goodLotteries[goodLotteriesCount] */\n      dup2\n      mload\n      dup2\n      lt\n      tag_115\n      jumpi\n      tag_116\n      tag_117\n      jump\t// in\n    tag_116:\n    tag_115:\n      0x20\n      mul\n      0x20\n      add\n      add\n      mload\n        /* \"lottery.sol\":4860:4900  goodLotteries[goodLotteriesCount].choice */\n      0x00\n      add\n        /* \"lottery.sol\":4860:4922  goodLotteries[goodLotteriesCount].choice = lotteries[i].choice */\n      swap1\n      0xffff\n      and\n      swap1\n      dup2\n      0xffff\n      and\n      dup2\n      mstore\n      pop\n      pop\n        /* \"lottery.sol\":4981:4990  lotteries */\n      0x0a\n        /* \"lottery.sol\":4981:4993  lotteries[i] */\n      0x00\n        /* \"lottery.sol\":4991:4992  i */\n      dup3\n        /* \"lottery.sol\":4981:4993  lotteries[i] */\n      dup2\n      mstore\n      0x20\n      add\n      swap1\n      dup2\n      mstore\n      0x20\n      add\n      0x00\n      keccak256\n        /* \"lottery.sol\":4981:4998  lotteries[i].addr */\n      0x00\n      add\n      0x05\n      swap1\n      sload\n      swap1\n      0x0100\n      exp\n      swap1\n      div\n      0xffffffffffffffffffffffffffffffffffffffff\n      and\n        /* \"lottery.sol\":4940:4953  goodLotteries */\n      dup4\n        /* \"lottery.sol\":4954:4972  goodLotteriesCount */\n      dup4\n        /* \"lottery.sol\":4940:4973  goodLotteries[goodLotteriesCount] */\n      dup2\n      mload\n      dup2\n      lt\n      tag_118\n      jumpi\n      tag_119\n      tag_117\n      jump\t// in\n    tag_119:\n    tag_118:\n      0x20\n      mul\n      0x20\n      add\n      add\n      mload\n        /* \"lottery.sol\":4940:4978  goodLotteries[goodLotteriesCount].addr */\n      0x80\n      add\n        /* \"lottery.sol\":4940:4998  goodLotteries[goodLotteriesCount].addr = lotteries[i].addr */\n      swap1\n      0xffffffffffffffffffffffffffffffffffffffff\n      and\n      swap1\n      dup2\n      0xffffffffffffffffffffffffffffffffffffffff\n      and\n      dup2\n      mstore\n      pop\n      pop\n        /* \"lottery.sol\":5064:5073  lotteries */\n      0x0a\n        /* \"lottery.sol\":5064:5076  lotteries[i] */\n      0x00\n        /* \"lottery.sol\":5074:5075  i */\n      dup3\n        /* \"lottery.sol\":5064:5076  lotteries[i] */\n      dup2\n      mstore\n      0x20\n      add\n      swap1\n      dup2\n      mstore\n      0x20\n      add\n      0x00\n      keccak256\n        /* \"lottery.sol\":5064:5109  lotteries[i]... */\n      0x00\n      add\n      0x02\n      swap1\n      sload\n      swap1\n      0x0100\n      exp\n      swap1\n      div\n      0xff\n      and\n        /* \"lottery.sol\":5016:5029  goodLotteries */\n      dup4\n        /* \"lottery.sol\":5030:5048  goodLotteriesCount */\n      dup4\n        /* \"lottery.sol\":5016:5049  goodLotteries[goodLotteriesCount] */\n      dup2\n      mload\n      dup2\n      lt\n      tag_120\n      jumpi\n      tag_121\n      tag_117\n      jump\t// in\n    tag_121:\n    tag_120:\n      0x20\n      mul\n      0x20\n      add\n      add\n      mload\n        /* \"lottery.sol\":5016:5061  goodLotteries[goodLotteriesCount].isCommitted */\n      0x20\n      add\n        /* \"lottery.sol\":5016:5109  goodLotteries[goodLotteriesCount].isCommitted = lotteries[i]... */\n      swap1\n      iszero\n      iszero\n      swap1\n      dup2\n      iszero\n      iszero\n      dup2\n      mstore\n      pop\n      pop\n        /* \"lottery.sol\":5174:5183  lotteries */\n      0x0a\n        /* \"lottery.sol\":5174:5186  lotteries[i] */\n      0x00\n        /* \"lottery.sol\":5184:5185  i */\n      dup3\n        /* \"lottery.sol\":5174:5186  lotteries[i] */\n      dup2\n      mstore\n      0x20\n      add\n      swap1\n      dup2\n      mstore\n      0x20\n      add\n      0x00\n      keccak256\n        /* \"lottery.sol\":5174:5218  lotteries[i]... */\n      0x00\n      add\n      0x03\n      swap1\n      sload\n      swap1\n      0x0100\n      exp\n      swap1\n      div\n      0xff\n      and\n        /* \"lottery.sol\":5127:5140  goodLotteries */\n      dup4\n        /* \"lottery.sol\":5141:5159  goodLotteriesCount */\n      dup4\n        /* \"lottery.sol\":5127:5160  goodLotteries[goodLotteriesCount] */\n      dup2\n      mload\n      dup2\n      lt\n      tag_122\n      jumpi\n      tag_123\n      tag_117\n      jump\t// in\n    tag_123:\n    tag_122:\n      0x20\n      mul\n      0x20\n      add\n      add\n      mload\n        /* \"lottery.sol\":5127:5171  goodLotteries[goodLotteriesCount].isRevealed */\n      0x40\n      add\n        /* \"lottery.sol\":5127:5218  goodLotteries[goodLotteriesCount].isRevealed = lotteries[i]... */\n      swap1\n      iszero\n      iszero\n      swap1\n      dup2\n      iszero\n      iszero\n      dup2\n      mstore\n      pop\n      pop\n        /* \"lottery.sol\":5284:5293  lotteries */\n      0x0a\n        /* \"lottery.sol\":5284:5296  lotteries[i] */\n      0x00\n        /* \"lottery.sol\":5294:5295  i */\n      dup3\n        /* \"lottery.sol\":5284:5296  lotteries[i] */\n      dup2\n      mstore\n      0x20\n      add\n      swap1\n      dup2\n      mstore\n      0x20\n      add\n      0x00\n      keccak256\n        /* \"lottery.sol\":5284:5329  lotteries[i]... */\n      0x00\n      add\n      0x04\n      swap1\n      sload\n      swap1\n      0x0100\n      exp\n      swap1\n      div\n      0xff\n      and\n        /* \"lottery.sol\":5236:5249  goodLotteries */\n      dup4\n        /* \"lottery.sol\":5250:5268  goodLotteriesCount */\n      dup4\n        /* \"lottery.sol\":5236:5269  goodLotteries[goodLotteriesCount] */\n      dup2\n      mload\n      dup2\n      lt\n      tag_124\n      jumpi\n      tag_125\n      tag_117\n      jump\t// in\n    tag_125:\n    tag_124:\n      0x20\n      mul\n      0x20\n      add\n      add\n      mload\n        /* \"lottery.sol\":5236:5281  goodLotteries[goodLotteriesCount].isWithdrawn */\n      0x60\n      add\n        /* \"lottery.sol\":5236:5329  goodLotteries[goodLotteriesCount].isWithdrawn = lotteries[i]... */\n      swap1\n      iszero\n      iszero\n      swap1\n      dup2\n      iszero\n      iszero\n      dup2\n      mstore\n      pop\n      pop\n        /* \"lottery.sol\":5348:5368  goodLotteriesCount++ */\n      dup2\n      dup1\n      tag_126\n      swap1\n      tag_127\n      jump\t// in\n    tag_126:\n      swap3\n      pop\n      pop\n        /* \"lottery.sol\":4671:5444  if (... */\n      jump(tag_128)\n    tag_114:\n        /* \"lottery.sol\":5407:5429  _withdrawBadLottery(i) */\n      tag_129\n        /* \"lottery.sol\":5427:5428  i */\n      dup2\n        /* \"lottery.sol\":5407:5426  _withdrawBadLottery */\n      tag_130\n        /* \"lottery.sol\":5407:5429  _withdrawBadLottery(i) */\n      jump\t// in\n    tag_129:\n        /* \"lottery.sol\":4671:5444  if (... */\n    tag_128:\n        /* \"lottery.sol\":4652:4655  i++ */\n      dup1\n      dup1\n      0x01\n      add\n      swap2\n      pop\n      pop\n        /* \"lottery.sol\":4609:5454  for (uint256 i = 0; i < _num_participants; i++) {... */\n      jump(tag_109)\n    tag_110:\n      pop\n        /* \"lottery.sol\":5538:5556  uint256 xorChoices */\n      0x00\n        /* \"lottery.sol\":5559:5572  goodLotteries */\n      dup3\n        /* \"lottery.sol\":5573:5574  0 */\n      0x00\n        /* \"lottery.sol\":5559:5575  goodLotteries[0] */\n      dup2\n      mload\n      dup2\n      lt\n      tag_131\n      jumpi\n      tag_132\n      tag_117\n      jump\t// in\n    tag_132:\n    tag_131:\n      0x20\n      mul\n      0x20\n      add\n      add\n      mload\n        /* \"lottery.sol\":5559:5582  goodLotteries[0].choice */\n      0x00\n      add\n      mload\n        /* \"lottery.sol\":5538:5582  uint256 xorChoices = goodLotteries[0].choice */\n      0xffff\n      and\n      swap1\n      pop\n        /* \"lottery.sol\":5597:5606  uint256 i */\n      0x00\n        /* \"lottery.sol\":5609:5610  1 */\n      0x01\n        /* \"lottery.sol\":5597:5610  uint256 i = 1 */\n      swap1\n      pop\n        /* \"lottery.sol\":5592:5715  for (uint256 i = 1; i < goodLotteriesCount; i++) {... */\n    tag_133:\n        /* \"lottery.sol\":5616:5634  goodLotteriesCount */\n      dup3\n        /* \"lottery.sol\":5612:5613  i */\n      dup2\n        /* \"lottery.sol\":5612:5634  i < goodLotteriesCount */\n      lt\n        /* \"lottery.sol\":5592:5715  for (uint256 i = 1; i < goodLotteriesCount; i++) {... */\n      iszero\n      tag_134\n      jumpi\n        /* \"lottery.sol\":5681:5694  goodLotteries */\n      dup4\n        /* \"lottery.sol\":5695:5696  i */\n      dup2\n        /* \"lottery.sol\":5681:5697  goodLotteries[i] */\n      dup2\n      mload\n      dup2\n      lt\n      tag_136\n      jumpi\n      tag_137\n      tag_117\n      jump\t// in\n    tag_137:\n    tag_136:\n      0x20\n      mul\n      0x20\n      add\n      add\n      mload\n        /* \"lottery.sol\":5681:5704  goodLotteries[i].choice */\n      0x00\n      add\n      mload\n        /* \"lottery.sol\":5668:5704  xorChoices ^ goodLotteries[i].choice */\n      0xffff\n      and\n        /* \"lottery.sol\":5668:5678  xorChoices */\n      dup3\n        /* \"lottery.sol\":5668:5704  xorChoices ^ goodLotteries[i].choice */\n      xor\n        /* \"lottery.sol\":5655:5704  xorChoices = xorChoices ^ goodLotteries[i].choice */\n      swap2\n      pop\n        /* \"lottery.sol\":5636:5639  i++ */\n      dup1\n      dup1\n      0x01\n      add\n      swap2\n      pop\n      pop\n        /* \"lottery.sol\":5592:5715  for (uint256 i = 1; i < goodLotteriesCount; i++) {... */\n      jump(tag_133)\n    tag_134:\n      pop\n        /* \"lottery.sol\":5724:5743  uint256 winnerIndex */\n      0x00\n        /* \"lottery.sol\":5809:5827  goodLotteriesCount */\n      dup3\n        /* \"lottery.sol\":5781:5791  xorChoices */\n      dup3\n        /* \"lottery.sol\":5764:5792  abi.encodePacked(xorChoices) */\n      add(0x20, mload(0x40))\n      tag_138\n      swap2\n      swap1\n      tag_139\n      jump\t// in\n    tag_138:\n      mload(0x40)\n      0x20\n      dup2\n      dup4\n      sub\n      sub\n      dup2\n      mstore\n      swap1\n      0x40\n      mstore\n        /* \"lottery.sol\":5754:5793  keccak256(abi.encodePacked(xorChoices)) */\n      dup1\n      mload\n      swap1\n      0x20\n      add\n      keccak256\n        /* \"lottery.sol\":5746:5794  uint256(keccak256(abi.encodePacked(xorChoices))) */\n      0x00\n      shr\n        /* \"lottery.sol\":5746:5827  uint256(keccak256(abi.encodePacked(xorChoices))) %... */\n      tag_140\n      swap2\n      swap1\n      tag_141\n      jump\t// in\n    tag_140:\n        /* \"lottery.sol\":5724:5827  uint256 winnerIndex = uint256(keccak256(abi.encodePacked(xorChoices))) %... */\n      swap1\n      pop\n        /* \"lottery.sol\":5838:5884  _rewardWinner(goodLotteries[winnerIndex].addr) */\n      tag_142\n        /* \"lottery.sol\":5852:5865  goodLotteries */\n      dup5\n        /* \"lottery.sol\":5866:5877  winnerIndex */\n      dup3\n        /* \"lottery.sol\":5852:5878  goodLotteries[winnerIndex] */\n      dup2\n      mload\n      dup2\n      lt\n      tag_143\n      jumpi\n      tag_144\n      tag_117\n      jump\t// in\n    tag_144:\n    tag_143:\n      0x20\n      mul\n      0x20\n      add\n      add\n      mload\n        /* \"lottery.sol\":5852:5883  goodLotteries[winnerIndex].addr */\n      0x80\n      add\n      mload\n        /* \"lottery.sol\":5838:5851  _rewardWinner */\n      tag_145\n        /* \"lottery.sol\":5838:5884  _rewardWinner(goodLotteries[winnerIndex].addr) */\n      jump\t// in\n    tag_142:\n        /* \"lottery.sol\":5894:5906  _resetGame() */\n      tag_146\n        /* \"lottery.sol\":5894:5904  _resetGame */\n      tag_147\n        /* \"lottery.sol\":5894:5906  _resetGame() */\n      jump\t// in\n    tag_146:\n        /* \"lottery.sol\":4257:5913  {... */\n      pop\n      pop\n      pop\n      pop\n        /* \"lottery.sol\":4216:5913  function awardLottery() public onlyOwner {... */\n      jump\t// out\n        /* \"lottery.sol\":2451:3521  function commitHashedLottery(... */\n    tag_32:\n        /* \"lottery.sol\":2542:2549  uint256 */\n      0x00\n        /* \"lottery.sol\":725:736  0.001 ether */\n      0x038d7ea4c68000\n        /* \"lottery.sol\":2582:2591  msg.value */\n      callvalue\n        /* \"lottery.sol\":2582:2605  msg.value == LotteryFee */\n      eq\n        /* \"lottery.sol\":2561:2678  require(... */\n      tag_149\n      jumpi\n      mload(0x40)\n      0x08c379a000000000000000000000000000000000000000000000000000000000\n      dup2\n      mstore\n      0x04\n      add\n      tag_150\n      swap1\n      tag_151\n      jump\t// in\n    tag_150:\n      mload(0x40)\n      dup1\n      swap2\n      sub\n      swap1\n      revert\n    tag_149:\n        /* \"lottery.sol\":2729:2730  N */\n      sload(0x07)\n        /* \"lottery.sol\":2709:2726  _num_participants */\n      sload(0x08)\n        /* \"lottery.sol\":2709:2730  _num_participants < N */\n      lt\n        /* \"lottery.sol\":2688:2834  require(... */\n      tag_152\n      jumpi\n      mload(0x40)\n      0x08c379a000000000000000000000000000000000000000000000000000000000\n      dup2\n      mstore\n      0x04\n      add\n      tag_153\n      swap1\n      tag_154\n      jump\t// in\n    tag_153:\n      mload(0x40)\n      dup1\n      swap2\n      sub\n      swap1\n      revert\n    tag_152:\n        /* \"lottery.sol\":2917:2918  0 */\n      0x00\n        /* \"lottery.sol\":2903:2913  _gameStage */\n      0x02\n      0x00\n      swap1\n      sload\n      swap1\n      0x0100\n      exp\n      swap1\n      div\n      0xffff\n      and\n        /* \"lottery.sol\":2903:2918  _gameStage == 0 */\n      0xffff\n      and\n      sub\n        /* \"lottery.sol\":2899:3005  if (_gameStage == 0) {... */\n      tag_155\n      jumpi\n        /* \"lottery.sol\":2947:2948  1 */\n      0x01\n        /* \"lottery.sol\":2934:2944  _gameStage */\n      0x02\n      0x00\n        /* \"lottery.sol\":2934:2948  _gameStage = 1 */\n      0x0100\n      exp\n      dup2\n      sload\n      dup2\n      0xffff\n      mul\n      not\n      and\n      swap1\n      dup4\n      0xffff\n      and\n      mul\n      or\n      swap1\n      sstore\n      pop\n        /* \"lottery.sol\":2979:2994  block.timestamp */\n      timestamp\n        /* \"lottery.sol\":2962:2976  startStageTime */\n      0x03\n        /* \"lottery.sol\":2962:2994  startStageTime = block.timestamp */\n      dup2\n      swap1\n      sstore\n      pop\n        /* \"lottery.sol\":2899:3005  if (_gameStage == 0) {... */\n    tag_155:\n        /* \"lottery.sol\":3072:3074  T1 */\n      sload(0x04)\n        /* \"lottery.sol\":3055:3069  startStageTime */\n      sload(0x03)\n        /* \"lottery.sol\":3055:3074  startStageTime + T1 */\n      tag_156\n      swap2\n      swap1\n      tag_93\n      jump\t// in\n    tag_156:\n        /* \"lottery.sol\":3036:3051  block.timestamp */\n      timestamp\n        /* \"lottery.sol\":3036:3074  block.timestamp <= startStageTime + T1 */\n      gt\n      iszero\n        /* \"lottery.sol\":3015:3165  require(... */\n      tag_157\n      jumpi\n      mload(0x40)\n      0x08c379a000000000000000000000000000000000000000000000000000000000\n      dup2\n      mstore\n      0x04\n      add\n      tag_158\n      swap1\n      tag_159\n      jump\t// in\n    tag_158:\n      mload(0x40)\n      dup1\n      swap2\n      sub\n      swap1\n      revert\n    tag_157:\n        /* \"lottery.sol\":3176:3193  uint256 lotteryId */\n      0x00\n        /* \"lottery.sol\":3196:3213  _num_participants */\n      sload(0x08)\n        /* \"lottery.sol\":3176:3213  uint256 lotteryId = _num_participants */\n      swap1\n      pop\n        /* \"lottery.sol\":3247:3413  Lottery({... */\n      mload(0x40)\n      dup1\n      0xa0\n      add\n      0x40\n      mstore\n      dup1\n        /* \"lottery.sol\":3277:3278  0 */\n      0x00\n        /* \"lottery.sol\":3247:3413  Lottery({... */\n      0xffff\n      and\n      dup2\n      mstore\n      0x20\n      add\n        /* \"lottery.sol\":3305:3309  true */\n      0x01\n        /* \"lottery.sol\":3247:3413  Lottery({... */\n      iszero\n      iszero\n      dup2\n      mstore\n      0x20\n      add\n        /* \"lottery.sol\":3335:3340  false */\n      0x00\n        /* \"lottery.sol\":3247:3413  Lottery({... */\n      iszero\n      iszero\n      dup2\n      mstore\n      0x20\n      add\n        /* \"lottery.sol\":3367:3372  false */\n      0x00\n        /* \"lottery.sol\":3247:3413  Lottery({... */\n      iszero\n      iszero\n      dup2\n      mstore\n      0x20\n      add\n        /* \"lottery.sol\":3392:3402  msg.sender */\n      caller\n        /* \"lottery.sol\":3247:3413  Lottery({... */\n      0xffffffffffffffffffffffffffffffffffffffff\n      and\n      dup2\n      mstore\n      pop\n        /* \"lottery.sol\":3224:3233  lotteries */\n      0x0a\n        /* \"lottery.sol\":3224:3244  lotteries[lotteryId] */\n      0x00\n        /* \"lottery.sol\":3234:3243  lotteryId */\n      dup4\n        /* \"lottery.sol\":3224:3244  lotteries[lotteryId] */\n      dup2\n      mstore\n      0x20\n      add\n      swap1\n      dup2\n      mstore\n      0x20\n      add\n      0x00\n      keccak256\n        /* \"lottery.sol\":3224:3413  lotteries[lotteryId] = Lottery({... */\n      0x00\n      dup3\n      add\n      mload\n      dup2\n      0x00\n      add\n      exp(0x0100, 0x00)\n      dup2\n      sload\n      dup2\n      0xffff\n      mul\n      not\n      and\n      swap1\n      dup4\n      0xffff\n      and\n      mul\n      or\n      swap1\n      sstore\n      pop\n      0x20\n      dup3\n      add\n      mload\n      dup2\n      0x00\n      add\n      exp(0x0100, 0x02)\n      dup2\n      sload\n      dup2\n      0xff\n      mul\n      not\n      and\n      swap1\n      dup4\n      iszero\n      iszero\n      mul\n      or\n      swap1\n      sstore\n      pop\n      0x40\n      dup3\n      add\n      mload\n      dup2\n      0x00\n      add\n      exp(0x0100, 0x03)\n      dup2\n      sload\n      dup2\n      0xff\n      mul\n      not\n      and\n      swap1\n      dup4\n      iszero\n      iszero\n      mul\n      or\n      swap1\n      sstore\n      pop\n      0x60\n      dup3\n      add\n      mload\n      dup2\n      0x00\n      add\n      exp(0x0100, 0x04)\n      dup2\n      sload\n      dup2\n      0xff\n      mul\n      not\n      and\n      swap1\n      dup4\n      iszero\n      iszero\n      mul\n      or\n      swap1\n      sstore\n      pop\n      0x80\n      dup3\n      add\n      mload\n      dup2\n      0x00\n      add\n      exp(0x0100, 0x05)\n      dup2\n      sload\n      dup2\n      0xffffffffffffffffffffffffffffffffffffffff\n      mul\n      not\n      and\n      swap1\n      dup4\n      0xffffffffffffffffffffffffffffffffffffffff\n      and\n      mul\n      or\n      swap1\n      sstore\n      pop\n      swap1\n      pop\n      pop\n        /* \"lottery.sol\":3424:3457  commit(lotteryId, _hashedLottery) */\n      tag_160\n        /* \"lottery.sol\":3431:3440  lotteryId */\n      dup2\n        /* \"lottery.sol\":3442:3456  _hashedLottery */\n      dup5\n        /* \"lottery.sol\":3424:3430  commit */\n      tag_161\n        /* \"lottery.sol\":3424:3457  commit(lotteryId, _hashedLottery) */\n      jump\t// in\n    tag_160:\n        /* \"lottery.sol\":3468:3485  _num_participants */\n      0x08\n      0x00\n        /* \"lottery.sol\":3468:3487  _num_participants++ */\n      dup2\n      sload\n      dup1\n      swap3\n      swap2\n      swap1\n      tag_162\n      swap1\n      tag_127\n      jump\t// in\n    tag_162:\n      swap2\n      swap1\n      pop\n      sstore\n      pop\n        /* \"lottery.sol\":3505:3514  lotteryId */\n      dup1\n        /* \"lottery.sol\":3498:3514  return lotteryId */\n      swap2\n      pop\n      pop\n        /* \"lottery.sol\":2451:3521  function commitHashedLottery(... */\n      swap2\n      swap1\n      pop\n      jump\t// out\n        /* \"lottery.sol\":6744:7494  function withdraw(uint256 lotteryId) public {... */\n    tag_38:\n        /* \"lottery.sol\":6851:6866  block.timestamp */\n      timestamp\n        /* \"lottery.sol\":6846:6848  T3 */\n      sload(0x06)\n        /* \"lottery.sol\":6841:6843  T2 */\n      sload(0x05)\n        /* \"lottery.sol\":6836:6838  T1 */\n      sload(0x04)\n        /* \"lottery.sol\":6819:6833  startStageTime */\n      sload(0x03)\n        /* \"lottery.sol\":6819:6838  startStageTime + T1 */\n      tag_164\n      swap2\n      swap1\n      tag_93\n      jump\t// in\n    tag_164:\n        /* \"lottery.sol\":6819:6843  startStageTime + T1 + T2 */\n      tag_165\n      swap2\n      swap1\n      tag_93\n      jump\t// in\n    tag_165:\n        /* \"lottery.sol\":6819:6848  startStageTime + T1 + T2 + T3 */\n      tag_166\n      swap2\n      swap1\n      tag_93\n      jump\t// in\n    tag_166:\n        /* \"lottery.sol\":6819:6866  startStageTime + T1 + T2 + T3 < block.timestamp */\n      lt\n        /* \"lottery.sol\":6798:6955  require(... */\n      tag_167\n      jumpi\n      mload(0x40)\n      0x08c379a000000000000000000000000000000000000000000000000000000000\n      dup2\n      mstore\n      0x04\n      add\n      tag_168\n      swap1\n      tag_169\n      jump\t// in\n    tag_168:\n      mload(0x40)\n      dup1\n      swap2\n      sub\n      swap1\n      revert\n    tag_167:\n        /* \"lottery.sol\":7015:7025  msg.sender */\n      caller\n        /* \"lottery.sol\":6986:7025  lotteries[lotteryId].addr == msg.sender */\n      0xffffffffffffffffffffffffffffffffffffffff\n      and\n        /* \"lottery.sol\":6986:6995  lotteries */\n      0x0a\n        /* \"lottery.sol\":6986:7006  lotteries[lotteryId] */\n      0x00\n        /* \"lottery.sol\":6996:7005  lotteryId */\n      dup4\n        /* \"lottery.sol\":6986:7006  lotteries[lotteryId] */\n      dup2\n      mstore\n      0x20\n      add\n      swap1\n      dup2\n      mstore\n      0x20\n      add\n      0x00\n      keccak256\n        /* \"lottery.sol\":6986:7011  lotteries[lotteryId].addr */\n      0x00\n      add\n      0x05\n      swap1\n      sload\n      swap1\n      0x0100\n      exp\n      swap1\n      div\n      0xffffffffffffffffffffffffffffffffffffffff\n      and\n        /* \"lottery.sol\":6986:7025  lotteries[lotteryId].addr == msg.sender */\n      0xffffffffffffffffffffffffffffffffffffffff\n      and\n      eq\n        /* \"lottery.sol\":6965:7117  require(... */\n      tag_170\n      jumpi\n      mload(0x40)\n      0x08c379a000000000000000000000000000000000000000000000000000000000\n      dup2\n      mstore\n      0x04\n      add\n      tag_171\n      swap1\n      tag_172\n      jump\t// in\n    tag_171:\n      mload(0x40)\n      dup1\n      swap2\n      sub\n      swap1\n      revert\n    tag_170:\n        /* \"lottery.sol\":7184:7189  false */\n      0x00\n        /* \"lottery.sol\":7148:7189  lotteries[lotteryId].isWithdrawn == false */\n      iszero\n      iszero\n        /* \"lottery.sol\":7148:7157  lotteries */\n      0x0a\n        /* \"lottery.sol\":7148:7168  lotteries[lotteryId] */\n      0x00\n        /* \"lottery.sol\":7158:7167  lotteryId */\n      dup4\n        /* \"lottery.sol\":7148:7168  lotteries[lotteryId] */\n      dup2\n      mstore\n      0x20\n      add\n      swap1\n      dup2\n      mstore\n      0x20\n      add\n      0x00\n      keccak256\n        /* \"lottery.sol\":7148:7180  lotteries[lotteryId].isWithdrawn */\n      0x00\n      add\n      0x04\n      swap1\n      sload\n      swap1\n      0x0100\n      exp\n      swap1\n      div\n      0xff\n      and\n        /* \"lottery.sol\":7148:7189  lotteries[lotteryId].isWithdrawn == false */\n      iszero\n      iszero\n      eq\n        /* \"lottery.sol\":7127:7283  require(... */\n      tag_173\n      jumpi\n      mload(0x40)\n      0x08c379a000000000000000000000000000000000000000000000000000000000\n      dup2\n      mstore\n      0x04\n      add\n      tag_174\n      swap1\n      tag_175\n      jump\t// in\n    tag_174:\n      mload(0x40)\n      dup1\n      swap2\n      sub\n      swap1\n      revert\n    tag_173:\n        /* \"lottery.sol\":7328:7332  true */\n      0x01\n        /* \"lottery.sol\":7293:7302  lotteries */\n      0x0a\n        /* \"lottery.sol\":7293:7313  lotteries[lotteryId] */\n      0x00\n        /* \"lottery.sol\":7303:7312  lotteryId */\n      dup4\n        /* \"lottery.sol\":7293:7313  lotteries[lotteryId] */\n      dup2\n      mstore\n      0x20\n      add\n      swap1\n      dup2\n      mstore\n      0x20\n      add\n      0x00\n      keccak256\n        /* \"lottery.sol\":7293:7325  lotteries[lotteryId].isWithdrawn */\n      0x00\n      add\n      0x04\n        /* \"lottery.sol\":7293:7332  lotteries[lotteryId].isWithdrawn = true */\n      0x0100\n      exp\n      dup2\n      sload\n      dup2\n      0xff\n      mul\n      not\n      and\n      swap1\n      dup4\n      iszero\n      iszero\n      mul\n      or\n      swap1\n      sstore\n      pop\n        /* \"lottery.sol\":7350:7360  msg.sender */\n      caller\n        /* \"lottery.sol\":7342:7370  payable(msg.sender).transfer */\n      0xffffffffffffffffffffffffffffffffffffffff\n      and\n        /* \"lottery.sol\":7342:7382  payable(msg.sender).transfer(LotteryFee) */\n      0x08fc\n        /* \"lottery.sol\":725:736  0.001 ether */\n      0x038d7ea4c68000\n        /* \"lottery.sol\":7342:7382  payable(msg.sender).transfer(LotteryFee) */\n      swap1\n      dup2\n      iszero\n      mul\n      swap1\n      mload(0x40)\n      0x00\n      mload(0x40)\n      dup1\n      dup4\n      sub\n      dup2\n      dup6\n      dup9\n      dup9\n      call\n      swap4\n      pop\n      pop\n      pop\n      pop\n      iszero\n      dup1\n      iszero\n      tag_177\n      jumpi\n      returndatasize\n      0x00\n      dup1\n      returndatacopy\n      revert(0x00, returndatasize)\n    tag_177:\n      pop\n        /* \"lottery.sol\":7393:7410  _num_participants */\n      0x08\n      0x00\n        /* \"lottery.sol\":7393:7412  _num_participants-- */\n      dup2\n      sload\n      dup1\n      swap3\n      swap2\n      swap1\n      tag_178\n      swap1\n      tag_179\n      jump\t// in\n    tag_178:\n      swap2\n      swap1\n      pop\n      sstore\n      pop\n        /* \"lottery.sol\":7448:7449  0 */\n      0x00\n        /* \"lottery.sol\":7427:7444  _num_participants */\n      sload(0x08)\n        /* \"lottery.sol\":7427:7449  _num_participants == 0 */\n      sub\n        /* \"lottery.sol\":7423:7488  if (_num_participants == 0) {... */\n      tag_180\n      jumpi\n        /* \"lottery.sol\":7465:7477  _resetGame() */\n      tag_181\n        /* \"lottery.sol\":7465:7475  _resetGame */\n      tag_147\n        /* \"lottery.sol\":7465:7477  _resetGame() */\n      jump\t// in\n    tag_181:\n        /* \"lottery.sol\":7423:7488  if (_num_participants == 0) {... */\n    tag_180:\n        /* \"lottery.sol\":6744:7494  function withdraw(uint256 lotteryId) public {... */\n      pop\n      jump\t// out\n        /* \"lottery.sol\":1287:2445  function getGameStage()... */\n    tag_41:\n        /* \"lottery.sol\":1356:1369  string memory */\n      0x60\n        /* \"lottery.sol\":1371:1375  uint */\n      0x00\n        /* \"lottery.sol\":1377:1390  string memory */\n      0x60\n        /* \"lottery.sol\":1424:1425  0 */\n      0x00\n        /* \"lottery.sol\":1410:1420  _gameStage */\n      0x02\n      0x00\n      swap1\n      sload\n      swap1\n      0x0100\n      exp\n      swap1\n      div\n      0xffff\n      and\n        /* \"lottery.sol\":1410:1425  _gameStage == 0 */\n      0xffff\n      and\n      sub\n        /* \"lottery.sol\":1406:1474  if (_gameStage == 0) {... */\n      tag_183\n      jumpi\n        /* \"lottery.sol\":1457:1458  0 */\n      0x00\n        /* \"lottery.sol\":1441:1463  return (\"Idle\", 0, \"\") */\n      mload(0x40)\n      dup1\n      0x40\n      add\n      0x40\n      mstore\n      dup1\n      0x04\n      dup2\n      mstore\n      0x20\n      add\n      0x49646c6500000000000000000000000000000000000000000000000000000000\n      dup2\n      mstore\n      pop\n      swap1\n      mload(0x40)\n      dup1\n      0x20\n      add\n      0x40\n      mstore\n      dup1\n      0x00\n      dup2\n      mstore\n      pop\n      swap3\n      pop\n      swap3\n      pop\n      swap3\n      pop\n      jump(tag_182)\n        /* \"lottery.sol\":1406:1474  if (_gameStage == 0) {... */\n    tag_183:\n        /* \"lottery.sol\":1502:1503  1 */\n      0x01\n        /* \"lottery.sol\":1488:1498  _gameStage */\n      0x02\n      0x00\n      swap1\n      sload\n      swap1\n      0x0100\n      exp\n      swap1\n      div\n      0xffff\n      and\n        /* \"lottery.sol\":1488:1503  _gameStage == 1 */\n      0xffff\n      and\n      sub\n        /* \"lottery.sol\":1484:2410  if (_gameStage == 1) {... */\n      tag_184\n      jumpi\n        /* \"lottery.sol\":1559:1561  T1 */\n      sload(0x04)\n        /* \"lottery.sol\":1542:1556  startStageTime */\n      sload(0x03)\n        /* \"lottery.sol\":1542:1561  startStageTime + T1 */\n      tag_185\n      swap2\n      swap1\n      tag_93\n      jump\t// in\n    tag_185:\n        /* \"lottery.sol\":1523:1538  block.timestamp */\n      timestamp\n        /* \"lottery.sol\":1523:1561  block.timestamp <= startStageTime + T1 */\n      gt\n        /* \"lottery.sol\":1519:2400  if (block.timestamp <= startStageTime + T1) {... */\n      tag_186\n      jumpi\n        /* \"lottery.sol\":1678:1693  block.timestamp */\n      timestamp\n        /* \"lottery.sol\":1673:1675  T1 */\n      sload(0x04)\n        /* \"lottery.sol\":1656:1670  startStageTime */\n      sload(0x03)\n        /* \"lottery.sol\":1656:1675  startStageTime + T1 */\n      tag_187\n      swap2\n      swap1\n      tag_93\n      jump\t// in\n    tag_187:\n        /* \"lottery.sol\":1656:1693  startStageTime + T1 - block.timestamp */\n      tag_188\n      swap2\n      swap1\n      tag_189\n      jump\t// in\n    tag_188:\n        /* \"lottery.sol\":1581:1743  return (... */\n      mload(0x40)\n      dup1\n      0x40\n      add\n      0x40\n      mstore\n      dup1\n      0x16\n      dup2\n      mstore\n      0x20\n      add\n      0x436f6d6d6974205374616765203a20656e6420696e2000000000000000000000\n      dup2\n      mstore\n      pop\n      swap1\n      mload(0x40)\n      dup1\n      0x40\n      add\n      0x40\n      mstore\n      dup1\n      0x08\n      dup2\n      mstore\n      0x20\n      add\n      0x207365636f6e6473000000000000000000000000000000000000000000000000\n      dup2\n      mstore\n      pop\n      swap3\n      pop\n      swap3\n      pop\n      swap3\n      pop\n      jump(tag_182)\n        /* \"lottery.sol\":1519:2400  if (block.timestamp <= startStageTime + T1) {... */\n    tag_186:\n        /* \"lottery.sol\":1809:1811  T2 */\n      sload(0x05)\n        /* \"lottery.sol\":1804:1806  T1 */\n      sload(0x04)\n        /* \"lottery.sol\":1787:1801  startStageTime */\n      sload(0x03)\n        /* \"lottery.sol\":1787:1806  startStageTime + T1 */\n      tag_191\n      swap2\n      swap1\n      tag_93\n      jump\t// in\n    tag_191:\n        /* \"lottery.sol\":1787:1811  startStageTime + T1 + T2 */\n      tag_192\n      swap2\n      swap1\n      tag_93\n      jump\t// in\n    tag_192:\n        /* \"lottery.sol\":1768:1783  block.timestamp */\n      timestamp\n        /* \"lottery.sol\":1768:1811  block.timestamp <= startStageTime + T1 + T2 */\n      gt\n        /* \"lottery.sol\":1764:2400  if (block.timestamp <= startStageTime + T1 + T2) {... */\n      tag_193\n      jumpi\n        /* \"lottery.sol\":1933:1948  block.timestamp */\n      timestamp\n        /* \"lottery.sol\":1928:1930  T2 */\n      sload(0x05)\n        /* \"lottery.sol\":1923:1925  T1 */\n      sload(0x04)\n        /* \"lottery.sol\":1906:1920  startStageTime */\n      sload(0x03)\n        /* \"lottery.sol\":1906:1925  startStageTime + T1 */\n      tag_194\n      swap2\n      swap1\n      tag_93\n      jump\t// in\n    tag_194:\n        /* \"lottery.sol\":1906:1930  startStageTime + T1 + T2 */\n      tag_195\n      swap2\n      swap1\n      tag_93\n      jump\t// in\n    tag_195:\n        /* \"lottery.sol\":1906:1948  startStageTime + T1 + T2 - block.timestamp */\n      tag_196\n      swap2\n      swap1\n      tag_189\n      jump\t// in\n    tag_196:\n        /* \"lottery.sol\":1831:1998  return (... */\n      mload(0x40)\n      dup1\n      0x40\n      add\n      0x40\n      mstore\n      dup1\n      0x16\n      dup2\n      mstore\n      0x20\n      add\n      0x52657665616c205374616765203a20656e6420696e2000000000000000000000\n      dup2\n      mstore\n      pop\n      swap1\n      mload(0x40)\n      dup1\n      0x40\n      add\n      0x40\n      mstore\n      dup1\n      0x08\n      dup2\n      mstore\n      0x20\n      add\n      0x207365636f6e6473000000000000000000000000000000000000000000000000\n      dup2\n      mstore\n      pop\n      swap3\n      pop\n      swap3\n      pop\n      swap3\n      pop\n      jump(tag_182)\n        /* \"lottery.sol\":1764:2400  if (block.timestamp <= startStageTime + T1 + T2) {... */\n    tag_193:\n        /* \"lottery.sol\":2069:2071  T3 */\n      sload(0x06)\n        /* \"lottery.sol\":2064:2066  T2 */\n      sload(0x05)\n        /* \"lottery.sol\":2059:2061  T1 */\n      sload(0x04)\n        /* \"lottery.sol\":2042:2056  startStageTime */\n      sload(0x03)\n        /* \"lottery.sol\":2042:2061  startStageTime + T1 */\n      tag_198\n      swap2\n      swap1\n      tag_93\n      jump\t// in\n    tag_198:\n        /* \"lottery.sol\":2042:2066  startStageTime + T1 + T2 */\n      tag_199\n      swap2\n      swap1\n      tag_93\n      jump\t// in\n    tag_199:\n        /* \"lottery.sol\":2042:2071  startStageTime + T1 + T2 + T3 */\n      tag_200\n      swap2\n      swap1\n      tag_93\n      jump\t// in\n    tag_200:\n        /* \"lottery.sol\":2023:2038  block.timestamp */\n      timestamp\n        /* \"lottery.sol\":2023:2071  block.timestamp <= startStageTime + T1 + T2 + T3 */\n      gt\n        /* \"lottery.sol\":2019:2400  if (block.timestamp <= startStageTime + T1 + T2 + T3) {... */\n      tag_201\n      jumpi\n        /* \"lottery.sol\":2197:2212  block.timestamp */\n      timestamp\n        /* \"lottery.sol\":2192:2194  T3 */\n      sload(0x06)\n        /* \"lottery.sol\":2187:2189  T2 */\n      sload(0x05)\n        /* \"lottery.sol\":2182:2184  T1 */\n      sload(0x04)\n        /* \"lottery.sol\":2165:2179  startStageTime */\n      sload(0x03)\n        /* \"lottery.sol\":2165:2184  startStageTime + T1 */\n      tag_202\n      swap2\n      swap1\n      tag_93\n      jump\t// in\n    tag_202:\n        /* \"lottery.sol\":2165:2189  startStageTime + T1 + T2 */\n      tag_203\n      swap2\n      swap1\n      tag_93\n      jump\t// in\n    tag_203:\n        /* \"lottery.sol\":2165:2194  startStageTime + T1 + T2 + T3 */\n      tag_204\n      swap2\n      swap1\n      tag_93\n      jump\t// in\n    tag_204:\n        /* \"lottery.sol\":2165:2212  startStageTime + T1 + T2 + T3 - block.timestamp */\n      tag_205\n      swap2\n      swap1\n      tag_189\n      jump\t// in\n    tag_205:\n        /* \"lottery.sol\":2091:2262  return (... */\n      mload(0x40)\n      dup1\n      0x40\n      add\n      0x40\n      mstore\n      dup1\n      0x15\n      dup2\n      mstore\n      0x20\n      add\n      0x4177617264205374616765203a20656e6420696e200000000000000000000000\n      dup2\n      mstore\n      pop\n      swap1\n      mload(0x40)\n      dup1\n      0x40\n      add\n      0x40\n      mstore\n      dup1\n      0x08\n      dup2\n      mstore\n      0x20\n      add\n      0x207365636f6e6473000000000000000000000000000000000000000000000000\n      dup2\n      mstore\n      pop\n      swap3\n      pop\n      swap3\n      pop\n      swap3\n      pop\n      jump(tag_182)\n        /* \"lottery.sol\":2019:2400  if (block.timestamp <= startStageTime + T1 + T2 + T3) {... */\n    tag_201:\n        /* \"lottery.sol\":2332:2334  T3 */\n      sload(0x06)\n        /* \"lottery.sol\":2327:2329  T2 */\n      sload(0x05)\n        /* \"lottery.sol\":2322:2324  T1 */\n      sload(0x04)\n        /* \"lottery.sol\":2305:2319  startStageTime */\n      sload(0x03)\n        /* \"lottery.sol\":2305:2324  startStageTime + T1 */\n      tag_207\n      swap2\n      swap1\n      tag_93\n      jump\t// in\n    tag_207:\n        /* \"lottery.sol\":2305:2329  startStageTime + T1 + T2 */\n      tag_208\n      swap2\n      swap1\n      tag_93\n      jump\t// in\n    tag_208:\n        /* \"lottery.sol\":2305:2334  startStageTime + T1 + T2 + T3 */\n      tag_209\n      swap2\n      swap1\n      tag_93\n      jump\t// in\n    tag_209:\n        /* \"lottery.sol\":2287:2302  block.timestamp */\n      timestamp\n        /* \"lottery.sol\":2287:2334  block.timestamp > startStageTime + T1 + T2 + T3 */\n      gt\n        /* \"lottery.sol\":2283:2400  if (block.timestamp > startStageTime + T1 + T2 + T3) {... */\n      iszero\n      tag_210\n      jumpi\n        /* \"lottery.sol\":2379:2380  0 */\n      0x00\n        /* \"lottery.sol\":2354:2385  return (\"Award Timeout\", 0, \"\") */\n      mload(0x40)\n      dup1\n      0x40\n      add\n      0x40\n      mstore\n      dup1\n      0x0d\n      dup2\n      mstore\n      0x20\n      add\n      0x41776172642054696d656f757400000000000000000000000000000000000000\n      dup2\n      mstore\n      pop\n      swap1\n      mload(0x40)\n      dup1\n      0x20\n      add\n      0x40\n      mstore\n      dup1\n      0x00\n      dup2\n      mstore\n      pop\n      swap3\n      pop\n      swap3\n      pop\n      swap3\n      pop\n      jump(tag_182)\n        /* \"lottery.sol\":2283:2400  if (block.timestamp > startStageTime + T1 + T2 + T3) {... */\n    tag_210:\n        /* \"lottery.sol\":1484:2410  if (_gameStage == 1) {... */\n    tag_184:\n        /* \"lottery.sol\":2432:2433  0 */\n      0x00\n        /* \"lottery.sol\":2420:2438  return (\"\", 0, \"\") */\n      mload(0x40)\n      dup1\n      0x20\n      add\n      0x40\n      mstore\n      dup1\n      0x00\n      dup2\n      mstore\n      pop\n      swap1\n      mload(0x40)\n      dup1\n      0x20\n      add\n      0x40\n      mstore\n      dup1\n      0x00\n      dup2\n      mstore\n      pop\n      swap3\n      pop\n      swap3\n      pop\n      swap3\n      pop\n        /* \"lottery.sol\":1287:2445  function getGameStage()... */\n    tag_182:\n      swap1\n      swap2\n      swap3\n      jump\t// out\n        /* \"lottery.sol\":422:439  uint256 public T3 */\n    tag_46:\n      sload(0x06)\n      dup2\n      jump\t// out\n        /* \"CommitReveal.sol\":1534:1729  function getSaltedHash(... */\n    tag_52:\n        /* \"CommitReveal.sol\":1638:1645  bytes32 */\n      0x00\n        /* \"CommitReveal.sol\":1700:1704  this */\n      address\n        /* \"CommitReveal.sol\":1707:1713  choice */\n      dup4\n        /* \"CommitReveal.sol\":1715:1719  salt */\n      dup4\n        /* \"CommitReveal.sol\":1675:1720  abi.encodePacked(address(this), choice, salt) */\n      add(0x20, mload(0x40))\n      tag_212\n      swap4\n      swap3\n      swap2\n      swap1\n      tag_213\n      jump\t// in\n    tag_212:\n      mload(0x40)\n      0x20\n      dup2\n      dup4\n      sub\n      sub\n      dup2\n      mstore\n      swap1\n      0x40\n      mstore\n        /* \"CommitReveal.sol\":1665:1721  keccak256(abi.encodePacked(address(this), choice, salt)) */\n      dup1\n      mload\n      swap1\n      0x20\n      add\n      keccak256\n        /* \"CommitReveal.sol\":1658:1721  return keccak256(abi.encodePacked(address(this), choice, salt)) */\n      swap1\n      pop\n        /* \"CommitReveal.sol\":1534:1729  function getSaltedHash(... */\n      swap3\n      swap2\n      pop\n      pop\n      jump\t// out\n        /* \"lottery.sol\":375:392  uint256 public T2 */\n    tag_57:\n      sload(0x05)\n      dup2\n      jump\t// out\n        /* \"Ownable.sol\":173:250  function owner() public view returns (address) {... */\n    tag_61:\n        /* \"Ownable.sol\":211:218  address */\n      0x00\n        /* \"Ownable.sol\":237:243  _owner */\n      dup1\n      0x00\n      swap1\n      sload\n      swap1\n      0x0100\n      exp\n      swap1\n      div\n      0xffffffffffffffffffffffffffffffffffffffff\n      and\n        /* \"Ownable.sol\":230:243  return _owner */\n      swap1\n      pop\n        /* \"Ownable.sol\":173:250  function owner() public view returns (address) {... */\n      swap1\n      jump\t// out\n        /* \"Ownable.sol\":375:465  function isOwner() public view returns (bool) {... */\n    tag_66:\n        /* \"Ownable.sol\":415:419  bool */\n      0x00\n        /* \"Ownable.sol\":452:458  _owner */\n      dup1\n      0x00\n      swap1\n      sload\n      swap1\n      0x0100\n      exp\n      swap1\n      div\n      0xffffffffffffffffffffffffffffffffffffffff\n      and\n        /* \"Ownable.sol\":438:458  msg.sender == _owner */\n      0xffffffffffffffffffffffffffffffffffffffff\n      and\n        /* \"Ownable.sol\":438:448  msg.sender */\n      caller\n        /* \"Ownable.sol\":438:458  msg.sender == _owner */\n      0xffffffffffffffffffffffffffffffffffffffff\n      and\n      eq\n        /* \"Ownable.sol\":431:458  return msg.sender == _owner */\n      swap1\n      pop\n        /* \"Ownable.sol\":375:465  function isOwner() public view returns (bool) {... */\n      swap1\n      jump\t// out\n        /* \"lottery.sol\":275:322  uint256 public startStageTime = block.timestamp */\n    tag_71:\n      sload(0x03)\n      dup2\n      jump\t// out\n        /* \"lottery.sol\":328:345  uint256 public T1 */\n    tag_75:\n      sload(0x04)\n      dup2\n      jump\t// out\n        /* \"lottery.sol\":3527:4210  function revealLottery(... */\n    tag_81:\n        /* \"lottery.sol\":3697:3712  block.timestamp */\n      timestamp\n        /* \"lottery.sol\":3692:3694  T1 */\n      sload(0x04)\n        /* \"lottery.sol\":3675:3689  startStageTime */\n      sload(0x03)\n        /* \"lottery.sol\":3675:3694  startStageTime + T1 */\n      tag_217\n      swap2\n      swap1\n      tag_93\n      jump\t// in\n    tag_217:\n        /* \"lottery.sol\":3675:3712  startStageTime + T1 < block.timestamp */\n      lt\n        /* \"lottery.sol\":3675:3774  startStageTime + T1 < block.timestamp &&... */\n      dup1\n      iszero\n      tag_218\n      jumpi\n      pop\n        /* \"lottery.sol\":3772:3774  T2 */\n      sload(0x05)\n        /* \"lottery.sol\":3767:3769  T1 */\n      sload(0x04)\n        /* \"lottery.sol\":3750:3764  startStageTime */\n      sload(0x03)\n        /* \"lottery.sol\":3750:3769  startStageTime + T1 */\n      tag_219\n      swap2\n      swap1\n      tag_93\n      jump\t// in\n    tag_219:\n        /* \"lottery.sol\":3750:3774  startStageTime + T1 + T2 */\n      tag_220\n      swap2\n      swap1\n      tag_93\n      jump\t// in\n    tag_220:\n        /* \"lottery.sol\":3732:3747  block.timestamp */\n      timestamp\n        /* \"lottery.sol\":3732:3774  block.timestamp < startStageTime + T1 + T2 */\n      lt\n        /* \"lottery.sol\":3675:3774  startStageTime + T1 < block.timestamp &&... */\n    tag_218:\n        /* \"lottery.sol\":3654:3861  require(... */\n      tag_221\n      jumpi\n      mload(0x40)\n      0x08c379a000000000000000000000000000000000000000000000000000000000\n      dup2\n      mstore\n      0x04\n      add\n      tag_222\n      swap1\n      tag_223\n      jump\t// in\n    tag_222:\n      mload(0x40)\n      dup1\n      swap2\n      sub\n      swap1\n      revert\n    tag_221:\n        /* \"lottery.sol\":3922:3932  msg.sender */\n      caller\n        /* \"lottery.sol\":3892:3932  lotteries[_lotteryId].addr == msg.sender */\n      0xffffffffffffffffffffffffffffffffffffffff\n      and\n        /* \"lottery.sol\":3892:3901  lotteries */\n      0x0a\n        /* \"lottery.sol\":3892:3913  lotteries[_lotteryId] */\n      0x00\n        /* \"lottery.sol\":3902:3912  _lotteryId */\n      dup6\n        /* \"lottery.sol\":3892:3913  lotteries[_lotteryId] */\n      dup2\n      mstore\n      0x20\n      add\n      swap1\n      dup2\n      mstore\n      0x20\n      add\n      0x00\n      keccak256\n        /* \"lottery.sol\":3892:3918  lotteries[_lotteryId].addr */\n      0x00\n      add\n      0x05\n      swap1\n      sload\n      swap1\n      0x0100\n      exp\n      swap1\n      div\n      0xffffffffffffffffffffffffffffffffffffffff\n      and\n        /* \"lottery.sol\":3892:3932  lotteries[_lotteryId].addr == msg.sender */\n      0xffffffffffffffffffffffffffffffffffffffff\n      and\n      eq\n        /* \"lottery.sol\":3871:4029  require(... */\n      tag_224\n      jumpi\n      mload(0x40)\n      0x08c379a000000000000000000000000000000000000000000000000000000000\n      dup2\n      mstore\n      0x04\n      add\n      tag_225\n      swap1\n      tag_226\n      jump\t// in\n    tag_225:\n      mload(0x40)\n      dup1\n      swap2\n      sub\n      swap1\n      revert\n    tag_224:\n        /* \"lottery.sol\":4040:4080  revealChoice(_lotteryId, _choice, _salt) */\n      tag_227\n        /* \"lottery.sol\":4053:4063  _lotteryId */\n      dup4\n        /* \"lottery.sol\":4065:4072  _choice */\n      dup4\n        /* \"lottery.sol\":4074:4079  _salt */\n      dup4\n        /* \"lottery.sol\":4040:4052  revealChoice */\n      tag_228\n        /* \"lottery.sol\":4040:4080  revealChoice(_lotteryId, _choice, _salt) */\n      jump\t// in\n    tag_227:\n        /* \"lottery.sol\":4122:4129  _choice */\n      dup2\n        /* \"lottery.sol\":4091:4100  lotteries */\n      0x0a\n        /* \"lottery.sol\":4091:4112  lotteries[_lotteryId] */\n      0x00\n        /* \"lottery.sol\":4101:4111  _lotteryId */\n      dup6\n        /* \"lottery.sol\":4091:4112  lotteries[_lotteryId] */\n      dup2\n      mstore\n      0x20\n      add\n      swap1\n      dup2\n      mstore\n      0x20\n      add\n      0x00\n      keccak256\n        /* \"lottery.sol\":4091:4119  lotteries[_lotteryId].choice */\n      0x00\n      add\n      0x00\n        /* \"lottery.sol\":4091:4129  lotteries[_lotteryId].choice = _choice */\n      0x0100\n      exp\n      dup2\n      sload\n      dup2\n      0xffff\n      mul\n      not\n      and\n      swap1\n      dup4\n      0xffff\n      and\n      mul\n      or\n      swap1\n      sstore\n      pop\n        /* \"lottery.sol\":4174:4178  true */\n      0x01\n        /* \"lottery.sol\":4139:4148  lotteries */\n      0x0a\n        /* \"lottery.sol\":4139:4160  lotteries[_lotteryId] */\n      0x00\n        /* \"lottery.sol\":4149:4159  _lotteryId */\n      dup6\n        /* \"lottery.sol\":4139:4160  lotteries[_lotteryId] */\n      dup2\n      mstore\n      0x20\n      add\n      swap1\n      dup2\n      mstore\n      0x20\n      add\n      0x00\n      keccak256\n        /* \"lottery.sol\":4139:4171  lotteries[_lotteryId].isRevealed */\n      0x00\n      add\n      0x03\n        /* \"lottery.sol\":4139:4178  lotteries[_lotteryId].isRevealed = true */\n      0x0100\n      exp\n      dup2\n      sload\n      dup2\n      0xff\n      mul\n      not\n      and\n      swap1\n      dup4\n      iszero\n      iszero\n      mul\n      or\n      swap1\n      sstore\n      pop\n        /* \"lottery.sol\":4188:4201  _num_revealed */\n      0x09\n      0x00\n        /* \"lottery.sol\":4188:4203  _num_revealed++ */\n      dup2\n      sload\n      dup1\n      swap3\n      swap2\n      swap1\n      tag_229\n      swap1\n      tag_127\n      jump\t// in\n    tag_229:\n      swap2\n      swap1\n      pop\n      sstore\n      pop\n        /* \"lottery.sol\":3527:4210  function revealLottery(... */\n      pop\n      pop\n      pop\n      jump\t// out\n        /* \"lottery.sol\":469:485  uint256 public N */\n    tag_84:\n      sload(0x07)\n      dup2\n      jump\t// out\n        /* \"lottery.sol\":6337:6738  function _withdrawBadLottery(uint256 _lotteryId) private {... */\n    tag_130:\n        /* \"lottery.sol\":6502:6528  uint256 badLotteryWithdraw */\n      0x00\n        /* \"lottery.sol\":6551:6554  100 */\n      0x64\n        /* \"lottery.sol\":6545:6547  98 */\n      0x62\n        /* \"lottery.sol\":725:736  0.001 ether */\n      0x038d7ea4c68000\n        /* \"lottery.sol\":6532:6547  LotteryFee * 98 */\n      tag_231\n      swap2\n      swap1\n      tag_232\n      jump\t// in\n    tag_231:\n        /* \"lottery.sol\":6531:6554  (LotteryFee * 98) / 100 */\n      tag_233\n      swap2\n      swap1\n      tag_234\n      jump\t// in\n    tag_233:\n        /* \"lottery.sol\":6502:6554  uint256 badLotteryWithdraw = (LotteryFee * 98) / 100 */\n      swap1\n      pop\n        /* \"lottery.sol\":6564:6583  uint256 ownerReward */\n      0x00\n        /* \"lottery.sol\":6605:6608  100 */\n      0x64\n        /* \"lottery.sol\":6600:6601  2 */\n      0x02\n        /* \"lottery.sol\":725:736  0.001 ether */\n      0x038d7ea4c68000\n        /* \"lottery.sol\":6587:6601  LotteryFee * 2 */\n      tag_235\n      swap2\n      swap1\n      tag_232\n      jump\t// in\n    tag_235:\n        /* \"lottery.sol\":6586:6608  (LotteryFee * 2) / 100 */\n      tag_236\n      swap2\n      swap1\n      tag_234\n      jump\t// in\n    tag_236:\n        /* \"lottery.sol\":6564:6608  uint256 ownerReward = (LotteryFee * 2) / 100 */\n      swap1\n      pop\n        /* \"lottery.sol\":6627:6636  lotteries */\n      0x0a\n        /* \"lottery.sol\":6627:6648  lotteries[_lotteryId] */\n      0x00\n        /* \"lottery.sol\":6637:6647  _lotteryId */\n      dup5\n        /* \"lottery.sol\":6627:6648  lotteries[_lotteryId] */\n      dup2\n      mstore\n      0x20\n      add\n      swap1\n      dup2\n      mstore\n      0x20\n      add\n      0x00\n      keccak256\n        /* \"lottery.sol\":6627:6653  lotteries[_lotteryId].addr */\n      0x00\n      add\n      0x05\n      swap1\n      sload\n      swap1\n      0x0100\n      exp\n      swap1\n      div\n      0xffffffffffffffffffffffffffffffffffffffff\n      and\n        /* \"lottery.sol\":6619:6663  payable(lotteries[_lotteryId].addr).transfer */\n      0xffffffffffffffffffffffffffffffffffffffff\n      and\n        /* \"lottery.sol\":6619:6683  payable(lotteries[_lotteryId].addr).transfer(badLotteryWithdraw) */\n      0x08fc\n        /* \"lottery.sol\":6664:6682  badLotteryWithdraw */\n      dup4\n        /* \"lottery.sol\":6619:6683  payable(lotteries[_lotteryId].addr).transfer(badLotteryWithdraw) */\n      swap1\n      dup2\n      iszero\n      mul\n      swap1\n      mload(0x40)\n      0x00\n      mload(0x40)\n      dup1\n      dup4\n      sub\n      dup2\n      dup6\n      dup9\n      dup9\n      call\n      swap4\n      pop\n      pop\n      pop\n      pop\n      iszero\n      dup1\n      iszero\n      tag_238\n      jumpi\n      returndatasize\n      0x00\n      dup1\n      returndatacopy\n      revert(0x00, returndatasize)\n    tag_238:\n      pop\n        /* \"lottery.sol\":6701:6708  owner() */\n      tag_239\n        /* \"lottery.sol\":6701:6706  owner */\n      tag_61\n        /* \"lottery.sol\":6701:6708  owner() */\n      jump\t// in\n    tag_239:\n        /* \"lottery.sol\":6693:6718  payable(owner()).transfer */\n      0xffffffffffffffffffffffffffffffffffffffff\n      and\n        /* \"lottery.sol\":6693:6731  payable(owner()).transfer(ownerReward) */\n      0x08fc\n        /* \"lottery.sol\":6719:6730  ownerReward */\n      dup3\n        /* \"lottery.sol\":6693:6731  payable(owner()).transfer(ownerReward) */\n      swap1\n      dup2\n      iszero\n      mul\n      swap1\n      mload(0x40)\n      0x00\n      mload(0x40)\n      dup1\n      dup4\n      sub\n      dup2\n      dup6\n      dup9\n      dup9\n      call\n      swap4\n      pop\n      pop\n      pop\n      pop\n      iszero\n      dup1\n      iszero\n      tag_241\n      jumpi\n      returndatasize\n      0x00\n      dup1\n      returndatacopy\n      revert(0x00, returndatasize)\n    tag_241:\n      pop\n        /* \"lottery.sol\":6394:6738  {... */\n      pop\n      pop\n        /* \"lottery.sol\":6337:6738  function _withdrawBadLottery(uint256 _lotteryId) private {... */\n      pop\n      jump\t// out\n        /* \"lottery.sol\":5919:6331  function _rewardWinner(address _winner) private {... */\n    tag_145:\n        /* \"lottery.sol\":6094:6114  uint256 winnerReward */\n      0x00\n        /* \"lottery.sol\":6153:6156  100 */\n      0x64\n        /* \"lottery.sol\":6147:6149  98 */\n      0x62\n        /* \"lottery.sol\":6131:6144  _num_revealed */\n      sload(0x09)\n        /* \"lottery.sol\":725:736  0.001 ether */\n      0x038d7ea4c68000\n        /* \"lottery.sol\":6118:6144  LotteryFee * _num_revealed */\n      tag_243\n      swap2\n      swap1\n      tag_232\n      jump\t// in\n    tag_243:\n        /* \"lottery.sol\":6118:6149  LotteryFee * _num_revealed * 98 */\n      tag_244\n      swap2\n      swap1\n      tag_232\n      jump\t// in\n    tag_244:\n        /* \"lottery.sol\":6117:6156  (LotteryFee * _num_revealed * 98) / 100 */\n      tag_245\n      swap2\n      swap1\n      tag_234\n      jump\t// in\n    tag_245:\n        /* \"lottery.sol\":6094:6156  uint256 winnerReward = (LotteryFee * _num_revealed * 98) / 100 */\n      swap1\n      pop\n        /* \"lottery.sol\":6166:6185  uint256 ownerReward */\n      0x00\n        /* \"lottery.sol\":6223:6226  100 */\n      0x64\n        /* \"lottery.sol\":6218:6219  2 */\n      0x02\n        /* \"lottery.sol\":6202:6215  _num_revealed */\n      sload(0x09)\n        /* \"lottery.sol\":725:736  0.001 ether */\n      0x038d7ea4c68000\n        /* \"lottery.sol\":6189:6215  LotteryFee * _num_revealed */\n      tag_246\n      swap2\n      swap1\n      tag_232\n      jump\t// in\n    tag_246:\n        /* \"lottery.sol\":6189:6219  LotteryFee * _num_revealed * 2 */\n      tag_247\n      swap2\n      swap1\n      tag_232\n      jump\t// in\n    tag_247:\n        /* \"lottery.sol\":6188:6226  (LotteryFee * _num_revealed * 2) / 100 */\n      tag_248\n      swap2\n      swap1\n      tag_234\n      jump\t// in\n    tag_248:\n        /* \"lottery.sol\":6166:6226  uint256 ownerReward = (LotteryFee * _num_revealed * 2) / 100 */\n      swap1\n      pop\n        /* \"lottery.sol\":6245:6252  _winner */\n      dup3\n        /* \"lottery.sol\":6237:6262  payable(_winner).transfer */\n      0xffffffffffffffffffffffffffffffffffffffff\n      and\n        /* \"lottery.sol\":6237:6276  payable(_winner).transfer(winnerReward) */\n      0x08fc\n        /* \"lottery.sol\":6263:6275  winnerReward */\n      dup4\n        /* \"lottery.sol\":6237:6276  payable(_winner).transfer(winnerReward) */\n      swap1\n      dup2\n      iszero\n      mul\n      swap1\n      mload(0x40)\n      0x00\n      mload(0x40)\n      dup1\n      dup4\n      sub\n      dup2\n      dup6\n      dup9\n      dup9\n      call\n      swap4\n      pop\n      pop\n      pop\n      pop\n      iszero\n      dup1\n      iszero\n      tag_250\n      jumpi\n      returndatasize\n      0x00\n      dup1\n      returndatacopy\n      revert(0x00, returndatasize)\n    tag_250:\n      pop\n        /* \"lottery.sol\":6294:6301  owner() */\n      tag_251\n        /* \"lottery.sol\":6294:6299  owner */\n      tag_61\n        /* \"lottery.sol\":6294:6301  owner() */\n      jump\t// in\n    tag_251:\n        /* \"lottery.sol\":6286:6311  payable(owner()).transfer */\n      0xffffffffffffffffffffffffffffffffffffffff\n      and\n        /* \"lottery.sol\":6286:6324  payable(owner()).transfer(ownerReward) */\n      0x08fc\n        /* \"lottery.sol\":6312:6323  ownerReward */\n      dup3\n        /* \"lottery.sol\":6286:6324  payable(owner()).transfer(ownerReward) */\n      swap1\n      dup2\n      iszero\n      mul\n      swap1\n      mload(0x40)\n      0x00\n      mload(0x40)\n      dup1\n      dup4\n      sub\n      dup2\n      dup6\n      dup9\n      dup9\n      call\n      swap4\n      pop\n      pop\n      pop\n      pop\n      iszero\n      dup1\n      iszero\n      tag_253\n      jumpi\n      returndatasize\n      0x00\n      dup1\n      returndatacopy\n      revert(0x00, returndatasize)\n    tag_253:\n      pop\n        /* \"lottery.sol\":5967:6331  {... */\n      pop\n      pop\n        /* \"lottery.sol\":5919:6331  function _rewardWinner(address _winner) private {... */\n      pop\n      jump\t// out\n        /* \"lottery.sol\":7500:7661  function _resetGame() private {... */\n    tag_147:\n        /* \"lottery.sol\":7553:7554  0 */\n      0x00\n        /* \"lottery.sol\":7540:7550  _gameStage */\n      0x02\n      0x00\n        /* \"lottery.sol\":7540:7554  _gameStage = 0 */\n      0x0100\n      exp\n      dup2\n      sload\n      dup2\n      0xffff\n      mul\n      not\n      and\n      swap1\n      dup4\n      0xffff\n      and\n      mul\n      or\n      swap1\n      sstore\n      pop\n        /* \"lottery.sol\":7584:7585  0 */\n      0x00\n        /* \"lottery.sol\":7564:7581  _num_participants */\n      0x08\n        /* \"lottery.sol\":7564:7585  _num_participants = 0 */\n      dup2\n      swap1\n      sstore\n      pop\n        /* \"lottery.sol\":7611:7612  0 */\n      0x00\n        /* \"lottery.sol\":7595:7608  _num_revealed */\n      0x09\n        /* \"lottery.sol\":7595:7612  _num_revealed = 0 */\n      dup2\n      swap1\n      sstore\n      pop\n        /* \"lottery.sol\":7639:7654  block.timestamp */\n      timestamp\n        /* \"lottery.sol\":7622:7636  startStageTime */\n      0x03\n        /* \"lottery.sol\":7622:7654  startStageTime = block.timestamp */\n      dup2\n      swap1\n      sstore\n      pop\n        /* \"lottery.sol\":7500:7661  function _resetGame() private {... */\n      jump\t// out\n        /* \"CommitReveal.sol\":251:637  function commit(uint256 lotteryId, bytes32 dataHash) internal {... */\n    tag_161:\n        /* \"CommitReveal.sol\":352:360  dataHash */\n      dup1\n        /* \"CommitReveal.sol\":324:331  commits */\n      0x01\n        /* \"CommitReveal.sol\":324:342  commits[lotteryId] */\n      0x00\n        /* \"CommitReveal.sol\":332:341  lotteryId */\n      dup5\n        /* \"CommitReveal.sol\":324:342  commits[lotteryId] */\n      dup2\n      mstore\n      0x20\n      add\n      swap1\n      dup2\n      mstore\n      0x20\n      add\n      0x00\n      keccak256\n        /* \"CommitReveal.sol\":324:349  commits[lotteryId].commit */\n      0x00\n      add\n        /* \"CommitReveal.sol\":324:360  commits[lotteryId].commit = dataHash */\n      dup2\n      swap1\n      sstore\n      pop\n        /* \"CommitReveal.sol\":405:417  block.number */\n      number\n        /* \"CommitReveal.sol\":371:378  commits */\n      0x01\n        /* \"CommitReveal.sol\":371:389  commits[lotteryId] */\n      0x00\n        /* \"CommitReveal.sol\":379:388  lotteryId */\n      dup5\n        /* \"CommitReveal.sol\":371:389  commits[lotteryId] */\n      dup2\n      mstore\n      0x20\n      add\n      swap1\n      dup2\n      mstore\n      0x20\n      add\n      0x00\n      keccak256\n        /* \"CommitReveal.sol\":371:395  commits[lotteryId].block */\n      0x01\n      add\n      0x00\n        /* \"CommitReveal.sol\":371:418  commits[lotteryId].block = uint64(block.number) */\n      0x0100\n      exp\n      dup2\n      sload\n      dup2\n      0xffffffffffffffff\n      mul\n      not\n      and\n      swap1\n      dup4\n      0xffffffffffffffff\n      and\n      mul\n      or\n      swap1\n      sstore\n      pop\n        /* \"CommitReveal.sol\":459:464  false */\n      0x00\n        /* \"CommitReveal.sol\":429:436  commits */\n      0x01\n        /* \"CommitReveal.sol\":429:447  commits[lotteryId] */\n      0x00\n        /* \"CommitReveal.sol\":437:446  lotteryId */\n      dup5\n        /* \"CommitReveal.sol\":429:447  commits[lotteryId] */\n      dup2\n      mstore\n      0x20\n      add\n      swap1\n      dup2\n      mstore\n      0x20\n      add\n      0x00\n      keccak256\n        /* \"CommitReveal.sol\":429:456  commits[lotteryId].revealed */\n      0x01\n      add\n      0x08\n        /* \"CommitReveal.sol\":429:464  commits[lotteryId].revealed = false */\n      0x0100\n      exp\n      dup2\n      sload\n      dup2\n      0xff\n      mul\n      not\n      and\n      swap1\n      dup4\n      iszero\n      iszero\n      mul\n      or\n      swap1\n      sstore\n      pop\n        /* \"CommitReveal.sol\":480:629  CommitHash(... */\n      0xb7ce637f0652efa186adedccc22b6809dc1c12dc3b3bf096df581f3b1fe1b3db\n        /* \"CommitReveal.sol\":505:515  msg.sender */\n      caller\n        /* \"CommitReveal.sol\":530:539  lotteryId */\n      dup4\n        /* \"CommitReveal.sol\":554:561  commits */\n      0x01\n        /* \"CommitReveal.sol\":554:572  commits[lotteryId] */\n      0x00\n        /* \"CommitReveal.sol\":562:571  lotteryId */\n      dup7\n        /* \"CommitReveal.sol\":554:572  commits[lotteryId] */\n      dup2\n      mstore\n      0x20\n      add\n      swap1\n      dup2\n      mstore\n      0x20\n      add\n      0x00\n      keccak256\n        /* \"CommitReveal.sol\":554:579  commits[lotteryId].commit */\n      0x00\n      add\n      sload\n        /* \"CommitReveal.sol\":594:601  commits */\n      0x01\n        /* \"CommitReveal.sol\":594:612  commits[lotteryId] */\n      0x00\n        /* \"CommitReveal.sol\":602:611  lotteryId */\n      dup8\n        /* \"CommitReveal.sol\":594:612  commits[lotteryId] */\n      dup2\n      mstore\n      0x20\n      add\n      swap1\n      dup2\n      mstore\n      0x20\n      add\n      0x00\n      keccak256\n        /* \"CommitReveal.sol\":594:618  commits[lotteryId].block */\n      0x01\n      add\n      0x00\n      swap1\n      sload\n      swap1\n      0x0100\n      exp\n      swap1\n      div\n      0xffffffffffffffff\n      and\n        /* \"CommitReveal.sol\":480:629  CommitHash(... */\n      mload(0x40)\n      tag_256\n      swap5\n      swap4\n      swap3\n      swap2\n      swap1\n      tag_257\n      jump\t// in\n    tag_256:\n      mload(0x40)\n      dup1\n      swap2\n      sub\n      swap1\n      log1\n        /* \"CommitReveal.sol\":251:637  function commit(uint256 lotteryId, bytes32 dataHash) internal {... */\n      pop\n      pop\n      jump\t// out\n        /* \"CommitReveal.sol\":778:1457  function revealChoice(... */\n    tag_228:\n        /* \"CommitReveal.sol\":1033:1038  false */\n      0x00\n        /* \"CommitReveal.sol\":1002:1038  commits[lotteryId].revealed == false */\n      iszero\n      iszero\n        /* \"CommitReveal.sol\":1002:1009  commits */\n      0x01\n        /* \"CommitReveal.sol\":1002:1020  commits[lotteryId] */\n      0x00\n        /* \"CommitReveal.sol\":1010:1019  lotteryId */\n      dup6\n        /* \"CommitReveal.sol\":1002:1020  commits[lotteryId] */\n      dup2\n      mstore\n      0x20\n      add\n      swap1\n      dup2\n      mstore\n      0x20\n      add\n      0x00\n      keccak256\n        /* \"CommitReveal.sol\":1002:1029  commits[lotteryId].revealed */\n      0x01\n      add\n      0x08\n      swap1\n      sload\n      swap1\n      0x0100\n      exp\n      swap1\n      div\n      0xff\n      and\n        /* \"CommitReveal.sol\":1002:1038  commits[lotteryId].revealed == false */\n      iszero\n      iszero\n      eq\n        /* \"CommitReveal.sol\":980:1110  require(... */\n      tag_259\n      jumpi\n      mload(0x40)\n      0x08c379a000000000000000000000000000000000000000000000000000000000\n      dup2\n      mstore\n      0x04\n      add\n      tag_260\n      swap1\n      tag_261\n      jump\t// in\n    tag_260:\n      mload(0x40)\n      dup1\n      swap2\n      sub\n      swap1\n      revert\n    tag_259:\n        /* \"CommitReveal.sol\":1151:1155  true */\n      0x01\n        /* \"CommitReveal.sol\":1121:1128  commits */\n      dup1\n        /* \"CommitReveal.sol\":1121:1139  commits[lotteryId] */\n      0x00\n        /* \"CommitReveal.sol\":1129:1138  lotteryId */\n      dup6\n        /* \"CommitReveal.sol\":1121:1139  commits[lotteryId] */\n      dup2\n      mstore\n      0x20\n      add\n      swap1\n      dup2\n      mstore\n      0x20\n      add\n      0x00\n      keccak256\n        /* \"CommitReveal.sol\":1121:1148  commits[lotteryId].revealed */\n      0x01\n      add\n      0x08\n        /* \"CommitReveal.sol\":1121:1155  commits[lotteryId].revealed = true */\n      0x0100\n      exp\n      dup2\n      sload\n      dup2\n      0xff\n      mul\n      not\n      and\n      swap1\n      dup4\n      iszero\n      iszero\n      mul\n      or\n      swap1\n      sstore\n      pop\n        /* \"CommitReveal.sol\":1279:1286  commits */\n      0x01\n        /* \"CommitReveal.sol\":1279:1297  commits[lotteryId] */\n      0x00\n        /* \"CommitReveal.sol\":1287:1296  lotteryId */\n      dup5\n        /* \"CommitReveal.sol\":1279:1297  commits[lotteryId] */\n      dup2\n      mstore\n      0x20\n      add\n      swap1\n      dup2\n      mstore\n      0x20\n      add\n      0x00\n      keccak256\n        /* \"CommitReveal.sol\":1279:1304  commits[lotteryId].commit */\n      0x00\n      add\n      sload\n        /* \"CommitReveal.sol\":1248:1275  getSaltedHash(choice, salt) */\n      tag_262\n        /* \"CommitReveal.sol\":1262:1268  choice */\n      dup4\n        /* \"CommitReveal.sol\":1270:1274  salt */\n      dup4\n        /* \"CommitReveal.sol\":1248:1261  getSaltedHash */\n      tag_52\n        /* \"CommitReveal.sol\":1248:1275  getSaltedHash(choice, salt) */\n      jump\t// in\n    tag_262:\n        /* \"CommitReveal.sol\":1248:1304  getSaltedHash(choice, salt) == commits[lotteryId].commit */\n      eq\n        /* \"CommitReveal.sol\":1226:1395  require(... */\n      tag_263\n      jumpi\n      mload(0x40)\n      0x08c379a000000000000000000000000000000000000000000000000000000000\n      dup2\n      mstore\n      0x04\n      add\n      tag_264\n      swap1\n      tag_265\n      jump\t// in\n    tag_264:\n      mload(0x40)\n      dup1\n      swap2\n      sub\n      swap1\n      revert\n    tag_263:\n        /* \"CommitReveal.sol\":1411:1449  RevealChoice(msg.sender, choice, salt) */\n      0xd59eb094a5bc7d37ee78628b6a471a4a62c3148908d3efdae106802c4698b134\n        /* \"CommitReveal.sol\":1424:1434  msg.sender */\n      caller\n        /* \"CommitReveal.sol\":1436:1442  choice */\n      dup4\n        /* \"CommitReveal.sol\":1444:1448  salt */\n      dup4\n        /* \"CommitReveal.sol\":1411:1449  RevealChoice(msg.sender, choice, salt) */\n      mload(0x40)\n      tag_266\n      swap4\n      swap3\n      swap2\n      swap1\n      tag_267\n      jump\t// in\n    tag_266:\n      mload(0x40)\n      dup1\n      swap2\n      sub\n      swap1\n      log1\n        /* \"CommitReveal.sol\":778:1457  function revealChoice(... */\n      pop\n      pop\n      pop\n      jump\t// out\n    tag_108:\n      mload(0x40)\n      dup1\n      0xa0\n      add\n      0x40\n      mstore\n      dup1\n      and(0xffff, 0x00)\n      dup2\n      mstore\n      0x20\n      add\n      iszero(iszero(0x00))\n      dup2\n      mstore\n      0x20\n      add\n      iszero(iszero(0x00))\n      dup2\n      mstore\n      0x20\n      add\n      iszero(iszero(0x00))\n      dup2\n      mstore\n      0x20\n      add\n      and(0xffffffffffffffffffffffffffffffffffffffff, 0x00)\n      dup2\n      mstore\n      pop\n      swap1\n      jump\t// out\n        /* \"#utility.yul\":7:82   */\n    tag_268:\n        /* \"#utility.yul\":40:46   */\n      0x00\n        /* \"#utility.yul\":73:75   */\n      0x40\n        /* \"#utility.yul\":67:76   */\n      mload\n        /* \"#utility.yul\":57:76   */\n      swap1\n      pop\n        /* \"#utility.yul\":7:82   */\n      swap1\n      jump\t// out\n        /* \"#utility.yul\":88:205   */\n    tag_269:\n        /* \"#utility.yul\":197:198   */\n      0x00\n        /* \"#utility.yul\":194:195   */\n      dup1\n        /* \"#utility.yul\":187:199   */\n      revert\n        /* \"#utility.yul\":211:328   */\n    tag_270:\n        /* \"#utility.yul\":320:321   */\n      0x00\n        /* \"#utility.yul\":317:318   */\n      dup1\n        /* \"#utility.yul\":310:322   */\n      revert\n        /* \"#utility.yul\":334:411   */\n    tag_271:\n        /* \"#utility.yul\":371:378   */\n      0x00\n        /* \"#utility.yul\":400:405   */\n      dup2\n        /* \"#utility.yul\":389:405   */\n      swap1\n      pop\n        /* \"#utility.yul\":334:411   */\n      swap2\n      swap1\n      pop\n      jump\t// out\n        /* \"#utility.yul\":417:539   */\n    tag_272:\n        /* \"#utility.yul\":490:514   */\n      tag_346\n        /* \"#utility.yul\":508:513   */\n      dup2\n        /* \"#utility.yul\":490:514   */\n      tag_271\n      jump\t// in\n    tag_346:\n        /* \"#utility.yul\":483:488   */\n      dup2\n        /* \"#utility.yul\":480:515   */\n      eq\n        /* \"#utility.yul\":470:533   */\n      tag_347\n      jumpi\n        /* \"#utility.yul\":529:530   */\n      0x00\n        /* \"#utility.yul\":526:527   */\n      dup1\n        /* \"#utility.yul\":519:531   */\n      revert\n        /* \"#utility.yul\":470:533   */\n    tag_347:\n        /* \"#utility.yul\":417:539   */\n      pop\n      jump\t// out\n        /* \"#utility.yul\":545:684   */\n    tag_273:\n        /* \"#utility.yul\":591:596   */\n      0x00\n        /* \"#utility.yul\":629:635   */\n      dup2\n        /* \"#utility.yul\":616:636   */\n      calldataload\n        /* \"#utility.yul\":607:636   */\n      swap1\n      pop\n        /* \"#utility.yul\":645:678   */\n      tag_349\n        /* \"#utility.yul\":672:677   */\n      dup2\n        /* \"#utility.yul\":645:678   */\n      tag_272\n      jump\t// in\n    tag_349:\n        /* \"#utility.yul\":545:684   */\n      swap3\n      swap2\n      pop\n      pop\n      jump\t// out\n        /* \"#utility.yul\":690:1019   */\n    tag_22:\n        /* \"#utility.yul\":749:755   */\n      0x00\n        /* \"#utility.yul\":798:800   */\n      0x20\n        /* \"#utility.yul\":786:795   */\n      dup3\n        /* \"#utility.yul\":777:784   */\n      dup5\n        /* \"#utility.yul\":773:796   */\n      sub\n        /* \"#utility.yul\":769:801   */\n      slt\n        /* \"#utility.yul\":766:885   */\n      iszero\n      tag_351\n      jumpi\n        /* \"#utility.yul\":804:883   */\n      tag_352\n      tag_269\n      jump\t// in\n    tag_352:\n        /* \"#utility.yul\":766:885   */\n    tag_351:\n        /* \"#utility.yul\":924:925   */\n      0x00\n        /* \"#utility.yul\":949:1002   */\n      tag_353\n        /* \"#utility.yul\":994:1001   */\n      dup5\n        /* \"#utility.yul\":985:991   */\n      dup3\n        /* \"#utility.yul\":974:983   */\n      dup6\n        /* \"#utility.yul\":970:992   */\n      add\n        /* \"#utility.yul\":949:1002   */\n      tag_273\n      jump\t// in\n    tag_353:\n        /* \"#utility.yul\":939:1002   */\n      swap2\n      pop\n        /* \"#utility.yul\":895:1012   */\n      pop\n        /* \"#utility.yul\":690:1019   */\n      swap3\n      swap2\n      pop\n      pop\n      jump\t// out\n        /* \"#utility.yul\":1025:1114   */\n    tag_274:\n        /* \"#utility.yul\":1061:1068   */\n      0x00\n        /* \"#utility.yul\":1101:1107   */\n      0xffff\n        /* \"#utility.yul\":1094:1099   */\n      dup3\n        /* \"#utility.yul\":1090:1108   */\n      and\n        /* \"#utility.yul\":1079:1108   */\n      swap1\n      pop\n        /* \"#utility.yul\":1025:1114   */\n      swap2\n      swap1\n      pop\n      jump\t// out\n        /* \"#utility.yul\":1120:1235   */\n    tag_275:\n        /* \"#utility.yul\":1205:1228   */\n      tag_356\n        /* \"#utility.yul\":1222:1227   */\n      dup2\n        /* \"#utility.yul\":1205:1228   */\n      tag_274\n      jump\t// in\n    tag_356:\n        /* \"#utility.yul\":1200:1203   */\n      dup3\n        /* \"#utility.yul\":1193:1229   */\n      mstore\n        /* \"#utility.yul\":1120:1235   */\n      pop\n      pop\n      jump\t// out\n        /* \"#utility.yul\":1241:1331   */\n    tag_276:\n        /* \"#utility.yul\":1275:1282   */\n      0x00\n        /* \"#utility.yul\":1318:1323   */\n      dup2\n        /* \"#utility.yul\":1311:1324   */\n      iszero\n        /* \"#utility.yul\":1304:1325   */\n      iszero\n        /* \"#utility.yul\":1293:1325   */\n      swap1\n      pop\n        /* \"#utility.yul\":1241:1331   */\n      swap2\n      swap1\n      pop\n      jump\t// out\n        /* \"#utility.yul\":1337:1446   */\n    tag_277:\n        /* \"#utility.yul\":1418:1439   */\n      tag_359\n        /* \"#utility.yul\":1433:1438   */\n      dup2\n        /* \"#utility.yul\":1418:1439   */\n      tag_276\n      jump\t// in\n    tag_359:\n        /* \"#utility.yul\":1413:1416   */\n      dup3\n        /* \"#utility.yul\":1406:1440   */\n      mstore\n        /* \"#utility.yul\":1337:1446   */\n      pop\n      pop\n      jump\t// out\n        /* \"#utility.yul\":1452:1578   */\n    tag_278:\n        /* \"#utility.yul\":1489:1496   */\n      0x00\n        /* \"#utility.yul\":1529:1571   */\n      0xffffffffffffffffffffffffffffffffffffffff\n        /* \"#utility.yul\":1522:1527   */\n      dup3\n        /* \"#utility.yul\":1518:1572   */\n      and\n        /* \"#utility.yul\":1507:1572   */\n      swap1\n      pop\n        /* \"#utility.yul\":1452:1578   */\n      swap2\n      swap1\n      pop\n      jump\t// out\n        /* \"#utility.yul\":1584:1680   */\n    tag_279:\n        /* \"#utility.yul\":1621:1628   */\n      0x00\n        /* \"#utility.yul\":1650:1674   */\n      tag_362\n        /* \"#utility.yul\":1668:1673   */\n      dup3\n        /* \"#utility.yul\":1650:1674   */\n      tag_278\n      jump\t// in\n    tag_362:\n        /* \"#utility.yul\":1639:1674   */\n      swap1\n      pop\n        /* \"#utility.yul\":1584:1680   */\n      swap2\n      swap1\n      pop\n      jump\t// out\n        /* \"#utility.yul\":1686:1804   */\n    tag_280:\n        /* \"#utility.yul\":1773:1797   */\n      tag_364\n        /* \"#utility.yul\":1791:1796   */\n      dup2\n        /* \"#utility.yul\":1773:1797   */\n      tag_279\n      jump\t// in\n    tag_364:\n        /* \"#utility.yul\":1768:1771   */\n      dup3\n        /* \"#utility.yul\":1761:1798   */\n      mstore\n        /* \"#utility.yul\":1686:1804   */\n      pop\n      pop\n      jump\t// out\n        /* \"#utility.yul\":1810:2434   */\n    tag_25:\n        /* \"#utility.yul\":1995:1999   */\n      0x00\n        /* \"#utility.yul\":2033:2036   */\n      0xa0\n        /* \"#utility.yul\":2022:2031   */\n      dup3\n        /* \"#utility.yul\":2018:2037   */\n      add\n        /* \"#utility.yul\":2010:2037   */\n      swap1\n      pop\n        /* \"#utility.yul\":2047:2116   */\n      tag_366\n        /* \"#utility.yul\":2113:2114   */\n      0x00\n        /* \"#utility.yul\":2102:2111   */\n      dup4\n        /* \"#utility.yul\":2098:2115   */\n      add\n        /* \"#utility.yul\":2089:2095   */\n      dup9\n        /* \"#utility.yul\":2047:2116   */\n      tag_275\n      jump\t// in\n    tag_366:\n        /* \"#utility.yul\":2126:2192   */\n      tag_367\n        /* \"#utility.yul\":2188:2190   */\n      0x20\n        /* \"#utility.yul\":2177:2186   */\n      dup4\n        /* \"#utility.yul\":2173:2191   */\n      add\n        /* \"#utility.yul\":2164:2170   */\n      dup8\n        /* \"#utility.yul\":2126:2192   */\n      tag_277\n      jump\t// in\n    tag_367:\n        /* \"#utility.yul\":2202:2268   */\n      tag_368\n        /* \"#utility.yul\":2264:2266   */\n      0x40\n        /* \"#utility.yul\":2253:2262   */\n      dup4\n        /* \"#utility.yul\":2249:2267   */\n      add\n        /* \"#utility.yul\":2240:2246   */\n      dup7\n        /* \"#utility.yul\":2202:2268   */\n      tag_277\n      jump\t// in\n    tag_368:\n        /* \"#utility.yul\":2278:2344   */\n      tag_369\n        /* \"#utility.yul\":2340:2342   */\n      0x60\n        /* \"#utility.yul\":2329:2338   */\n      dup4\n        /* \"#utility.yul\":2325:2343   */\n      add\n        /* \"#utility.yul\":2316:2322   */\n      dup6\n        /* \"#utility.yul\":2278:2344   */\n      tag_277\n      jump\t// in\n    tag_369:\n        /* \"#utility.yul\":2354:2427   */\n      tag_370\n        /* \"#utility.yul\":2422:2425   */\n      0x80\n        /* \"#utility.yul\":2411:2420   */\n      dup4\n        /* \"#utility.yul\":2407:2426   */\n      add\n        /* \"#utility.yul\":2398:2404   */\n      dup5\n        /* \"#utility.yul\":2354:2427   */\n      tag_280\n      jump\t// in\n    tag_370:\n        /* \"#utility.yul\":1810:2434   */\n      swap7\n      swap6\n      pop\n      pop\n      pop\n      pop\n      pop\n      pop\n      jump\t// out\n        /* \"#utility.yul\":2440:2517   */\n    tag_281:\n        /* \"#utility.yul\":2477:2484   */\n      0x00\n        /* \"#utility.yul\":2506:2511   */\n      dup2\n        /* \"#utility.yul\":2495:2511   */\n      swap1\n      pop\n        /* \"#utility.yul\":2440:2517   */\n      swap2\n      swap1\n      pop\n      jump\t// out\n        /* \"#utility.yul\":2523:2645   */\n    tag_282:\n        /* \"#utility.yul\":2596:2620   */\n      tag_373\n        /* \"#utility.yul\":2614:2619   */\n      dup2\n        /* \"#utility.yul\":2596:2620   */\n      tag_281\n      jump\t// in\n    tag_373:\n        /* \"#utility.yul\":2589:2594   */\n      dup2\n        /* \"#utility.yul\":2586:2621   */\n      eq\n        /* \"#utility.yul\":2576:2639   */\n      tag_374\n      jumpi\n        /* \"#utility.yul\":2635:2636   */\n      0x00\n        /* \"#utility.yul\":2632:2633   */\n      dup1\n        /* \"#utility.yul\":2625:2637   */\n      revert\n        /* \"#utility.yul\":2576:2639   */\n    tag_374:\n        /* \"#utility.yul\":2523:2645   */\n      pop\n      jump\t// out\n        /* \"#utility.yul\":2651:2790   */\n    tag_283:\n        /* \"#utility.yul\":2697:2702   */\n      0x00\n        /* \"#utility.yul\":2735:2741   */\n      dup2\n        /* \"#utility.yul\":2722:2742   */\n      calldataload\n        /* \"#utility.yul\":2713:2742   */\n      swap1\n      pop\n        /* \"#utility.yul\":2751:2784   */\n      tag_376\n        /* \"#utility.yul\":2778:2783   */\n      dup2\n        /* \"#utility.yul\":2751:2784   */\n      tag_282\n      jump\t// in\n    tag_376:\n        /* \"#utility.yul\":2651:2790   */\n      swap3\n      swap2\n      pop\n      pop\n      jump\t// out\n        /* \"#utility.yul\":2796:3125   */\n    tag_31:\n        /* \"#utility.yul\":2855:2861   */\n      0x00\n        /* \"#utility.yul\":2904:2906   */\n      0x20\n        /* \"#utility.yul\":2892:2901   */\n      dup3\n        /* \"#utility.yul\":2883:2890   */\n      dup5\n        /* \"#utility.yul\":2879:2902   */\n      sub\n        /* \"#utility.yul\":2875:2907   */\n      slt\n        /* \"#utility.yul\":2872:2991   */\n      iszero\n      tag_378\n      jumpi\n        /* \"#utility.yul\":2910:2989   */\n      tag_379\n      tag_269\n      jump\t// in\n    tag_379:\n        /* \"#utility.yul\":2872:2991   */\n    tag_378:\n        /* \"#utility.yul\":3030:3031   */\n      0x00\n        /* \"#utility.yul\":3055:3108   */\n      tag_380\n        /* \"#utility.yul\":3100:3107   */\n      dup5\n        /* \"#utility.yul\":3091:3097   */\n      dup3\n        /* \"#utility.yul\":3080:3089   */\n      dup6\n        /* \"#utility.yul\":3076:3098   */\n      add\n        /* \"#utility.yul\":3055:3108   */\n      tag_283\n      jump\t// in\n    tag_380:\n        /* \"#utility.yul\":3045:3108   */\n      swap2\n      pop\n        /* \"#utility.yul\":3001:3118   */\n      pop\n        /* \"#utility.yul\":2796:3125   */\n      swap3\n      swap2\n      pop\n      pop\n      jump\t// out\n        /* \"#utility.yul\":3131:3249   */\n    tag_284:\n        /* \"#utility.yul\":3218:3242   */\n      tag_382\n        /* \"#utility.yul\":3236:3241   */\n      dup2\n        /* \"#utility.yul\":3218:3242   */\n      tag_271\n      jump\t// in\n    tag_382:\n        /* \"#utility.yul\":3213:3216   */\n      dup3\n        /* \"#utility.yul\":3206:3243   */\n      mstore\n        /* \"#utility.yul\":3131:3249   */\n      pop\n      pop\n      jump\t// out\n        /* \"#utility.yul\":3255:3477   */\n    tag_34:\n        /* \"#utility.yul\":3348:3352   */\n      0x00\n        /* \"#utility.yul\":3386:3388   */\n      0x20\n        /* \"#utility.yul\":3375:3384   */\n      dup3\n        /* \"#utility.yul\":3371:3389   */\n      add\n        /* \"#utility.yul\":3363:3389   */\n      swap1\n      pop\n        /* \"#utility.yul\":3399:3470   */\n      tag_384\n        /* \"#utility.yul\":3467:3468   */\n      0x00\n        /* \"#utility.yul\":3456:3465   */\n      dup4\n        /* \"#utility.yul\":3452:3469   */\n      add\n        /* \"#utility.yul\":3443:3449   */\n      dup5\n        /* \"#utility.yul\":3399:3470   */\n      tag_284\n      jump\t// in\n    tag_384:\n        /* \"#utility.yul\":3255:3477   */\n      swap3\n      swap2\n      pop\n      pop\n      jump\t// out\n        /* \"#utility.yul\":3483:3582   */\n    tag_285:\n        /* \"#utility.yul\":3535:3541   */\n      0x00\n        /* \"#utility.yul\":3569:3574   */\n      dup2\n        /* \"#utility.yul\":3563:3575   */\n      mload\n        /* \"#utility.yul\":3553:3575   */\n      swap1\n      pop\n        /* \"#utility.yul\":3483:3582   */\n      swap2\n      swap1\n      pop\n      jump\t// out\n        /* \"#utility.yul\":3588:3757   */\n    tag_286:\n        /* \"#utility.yul\":3672:3683   */\n      0x00\n        /* \"#utility.yul\":3706:3712   */\n      dup3\n        /* \"#utility.yul\":3701:3704   */\n      dup3\n        /* \"#utility.yul\":3694:3713   */\n      mstore\n        /* \"#utility.yul\":3746:3750   */\n      0x20\n        /* \"#utility.yul\":3741:3744   */\n      dup3\n        /* \"#utility.yul\":3737:3751   */\n      add\n        /* \"#utility.yul\":3722:3751   */\n      swap1\n      pop\n        /* \"#utility.yul\":3588:3757   */\n      swap3\n      swap2\n      pop\n      pop\n      jump\t// out\n        /* \"#utility.yul\":3763:4009   */\n    tag_287:\n        /* \"#utility.yul\":3844:3845   */\n      0x00\n        /* \"#utility.yul\":3854:3967   */\n    tag_388:\n        /* \"#utility.yul\":3868:3874   */\n      dup4\n        /* \"#utility.yul\":3865:3866   */\n      dup2\n        /* \"#utility.yul\":3862:3875   */\n      lt\n        /* \"#utility.yul\":3854:3967   */\n      iszero\n      tag_390\n      jumpi\n        /* \"#utility.yul\":3953:3954   */\n      dup1\n        /* \"#utility.yul\":3948:3951   */\n      dup3\n        /* \"#utility.yul\":3944:3955   */\n      add\n        /* \"#utility.yul\":3938:3956   */\n      mload\n        /* \"#utility.yul\":3934:3935   */\n      dup2\n        /* \"#utility.yul\":3929:3932   */\n      dup5\n        /* \"#utility.yul\":3925:3936   */\n      add\n        /* \"#utility.yul\":3918:3957   */\n      mstore\n        /* \"#utility.yul\":3890:3892   */\n      0x20\n        /* \"#utility.yul\":3887:3888   */\n      dup2\n        /* \"#utility.yul\":3883:3893   */\n      add\n        /* \"#utility.yul\":3878:3893   */\n      swap1\n      pop\n        /* \"#utility.yul\":3854:3967   */\n      jump(tag_388)\n    tag_390:\n        /* \"#utility.yul\":4001:4002   */\n      0x00\n        /* \"#utility.yul\":3992:3998   */\n      dup5\n        /* \"#utility.yul\":3987:3990   */\n      dup5\n        /* \"#utility.yul\":3983:3999   */\n      add\n        /* \"#utility.yul\":3976:4003   */\n      mstore\n        /* \"#utility.yul\":3825:4009   */\n      pop\n        /* \"#utility.yul\":3763:4009   */\n      pop\n      pop\n      pop\n      jump\t// out\n        /* \"#utility.yul\":4015:4117   */\n    tag_288:\n        /* \"#utility.yul\":4056:4062   */\n      0x00\n        /* \"#utility.yul\":4107:4109   */\n      0x1f\n        /* \"#utility.yul\":4103:4110   */\n      not\n        /* \"#utility.yul\":4098:4100   */\n      0x1f\n        /* \"#utility.yul\":4091:4096   */\n      dup4\n        /* \"#utility.yul\":4087:4101   */\n      add\n        /* \"#utility.yul\":4083:4111   */\n      and\n        /* \"#utility.yul\":4073:4111   */\n      swap1\n      pop\n        /* \"#utility.yul\":4015:4117   */\n      swap2\n      swap1\n      pop\n      jump\t// out\n        /* \"#utility.yul\":4123:4500   */\n    tag_289:\n        /* \"#utility.yul\":4211:4214   */\n      0x00\n        /* \"#utility.yul\":4239:4278   */\n      tag_393\n        /* \"#utility.yul\":4272:4277   */\n      dup3\n        /* \"#utility.yul\":4239:4278   */\n      tag_285\n      jump\t// in\n    tag_393:\n        /* \"#utility.yul\":4294:4365   */\n      tag_394\n        /* \"#utility.yul\":4358:4364   */\n      dup2\n        /* \"#utility.yul\":4353:4356   */\n      dup6\n        /* \"#utility.yul\":4294:4365   */\n      tag_286\n      jump\t// in\n    tag_394:\n        /* \"#utility.yul\":4287:4365   */\n      swap4\n      pop\n        /* \"#utility.yul\":4374:4439   */\n      tag_395\n        /* \"#utility.yul\":4432:4438   */\n      dup2\n        /* \"#utility.yul\":4427:4430   */\n      dup6\n        /* \"#utility.yul\":4420:4424   */\n      0x20\n        /* \"#utility.yul\":4413:4418   */\n      dup7\n        /* \"#utility.yul\":4409:4425   */\n      add\n        /* \"#utility.yul\":4374:4439   */\n      tag_287\n      jump\t// in\n    tag_395:\n        /* \"#utility.yul\":4464:4493   */\n      tag_396\n        /* \"#utility.yul\":4486:4492   */\n      dup2\n        /* \"#utility.yul\":4464:4493   */\n      tag_288\n      jump\t// in\n    tag_396:\n        /* \"#utility.yul\":4459:4462   */\n      dup5\n        /* \"#utility.yul\":4455:4494   */\n      add\n        /* \"#utility.yul\":4448:4494   */\n      swap2\n      pop\n        /* \"#utility.yul\":4215:4500   */\n      pop\n        /* \"#utility.yul\":4123:4500   */\n      swap3\n      swap2\n      pop\n      pop\n      jump\t// out\n        /* \"#utility.yul\":4506:5130   */\n    tag_43:\n        /* \"#utility.yul\":4695:4699   */\n      0x00\n        /* \"#utility.yul\":4733:4735   */\n      0x60\n        /* \"#utility.yul\":4722:4731   */\n      dup3\n        /* \"#utility.yul\":4718:4736   */\n      add\n        /* \"#utility.yul\":4710:4736   */\n      swap1\n      pop\n        /* \"#utility.yul\":4782:4791   */\n      dup2\n        /* \"#utility.yul\":4776:4780   */\n      dup2\n        /* \"#utility.yul\":4772:4792   */\n      sub\n        /* \"#utility.yul\":4768:4769   */\n      0x00\n        /* \"#utility.yul\":4757:4766   */\n      dup4\n        /* \"#utility.yul\":4753:4770   */\n      add\n        /* \"#utility.yul\":4746:4793   */\n      mstore\n        /* \"#utility.yul\":4810:4888   */\n      tag_398\n        /* \"#utility.yul\":4883:4887   */\n      dup2\n        /* \"#utility.yul\":4874:4880   */\n      dup7\n        /* \"#utility.yul\":4810:4888   */\n      tag_289\n      jump\t// in\n    tag_398:\n        /* \"#utility.yul\":4802:4888   */\n      swap1\n      pop\n        /* \"#utility.yul\":4898:4970   */\n      tag_399\n        /* \"#utility.yul\":4966:4968   */\n      0x20\n        /* \"#utility.yul\":4955:4964   */\n      dup4\n        /* \"#utility.yul\":4951:4969   */\n      add\n        /* \"#utility.yul\":4942:4948   */\n      dup6\n        /* \"#utility.yul\":4898:4970   */\n      tag_284\n      jump\t// in\n    tag_399:\n        /* \"#utility.yul\":5017:5026   */\n      dup2\n        /* \"#utility.yul\":5011:5015   */\n      dup2\n        /* \"#utility.yul\":5007:5027   */\n      sub\n        /* \"#utility.yul\":5002:5004   */\n      0x40\n        /* \"#utility.yul\":4991:5000   */\n      dup4\n        /* \"#utility.yul\":4987:5005   */\n      add\n        /* \"#utility.yul\":4980:5028   */\n      mstore\n        /* \"#utility.yul\":5045:5123   */\n      tag_400\n        /* \"#utility.yul\":5118:5122   */\n      dup2\n        /* \"#utility.yul\":5109:5115   */\n      dup5\n        /* \"#utility.yul\":5045:5123   */\n      tag_289\n      jump\t// in\n    tag_400:\n        /* \"#utility.yul\":5037:5123   */\n      swap1\n      pop\n        /* \"#utility.yul\":4506:5130   */\n      swap5\n      swap4\n      pop\n      pop\n      pop\n      pop\n      jump\t// out\n        /* \"#utility.yul\":5136:5256   */\n    tag_290:\n        /* \"#utility.yul\":5208:5231   */\n      tag_402\n        /* \"#utility.yul\":5225:5230   */\n      dup2\n        /* \"#utility.yul\":5208:5231   */\n      tag_274\n      jump\t// in\n    tag_402:\n        /* \"#utility.yul\":5201:5206   */\n      dup2\n        /* \"#utility.yul\":5198:5232   */\n      eq\n        /* \"#utility.yul\":5188:5250   */\n      tag_403\n      jumpi\n        /* \"#utility.yul\":5246:5247   */\n      0x00\n        /* \"#utility.yul\":5243:5244   */\n      dup1\n        /* \"#utility.yul\":5236:5248   */\n      revert\n        /* \"#utility.yul\":5188:5250   */\n    tag_403:\n        /* \"#utility.yul\":5136:5256   */\n      pop\n      jump\t// out\n        /* \"#utility.yul\":5262:5399   */\n    tag_291:\n        /* \"#utility.yul\":5307:5312   */\n      0x00\n        /* \"#utility.yul\":5345:5351   */\n      dup2\n        /* \"#utility.yul\":5332:5352   */\n      calldataload\n        /* \"#utility.yul\":5323:5352   */\n      swap1\n      pop\n        /* \"#utility.yul\":5361:5393   */\n      tag_405\n        /* \"#utility.yul\":5387:5392   */\n      dup2\n        /* \"#utility.yul\":5361:5393   */\n      tag_290\n      jump\t// in\n    tag_405:\n        /* \"#utility.yul\":5262:5399   */\n      swap3\n      swap2\n      pop\n      pop\n      jump\t// out\n        /* \"#utility.yul\":5405:5522   */\n    tag_292:\n        /* \"#utility.yul\":5514:5515   */\n      0x00\n        /* \"#utility.yul\":5511:5512   */\n      dup1\n        /* \"#utility.yul\":5504:5516   */\n      revert\n        /* \"#utility.yul\":5528:5645   */\n    tag_293:\n        /* \"#utility.yul\":5637:5638   */\n      0x00\n        /* \"#utility.yul\":5634:5635   */\n      dup1\n        /* \"#utility.yul\":5627:5639   */\n      revert\n        /* \"#utility.yul\":5651:5831   */\n    tag_104:\n        /* \"#utility.yul\":5699:5776   */\n      0x4e487b7100000000000000000000000000000000000000000000000000000000\n        /* \"#utility.yul\":5696:5697   */\n      0x00\n        /* \"#utility.yul\":5689:5777   */\n      mstore\n        /* \"#utility.yul\":5796:5800   */\n      0x41\n        /* \"#utility.yul\":5793:5794   */\n      0x04\n        /* \"#utility.yul\":5786:5801   */\n      mstore\n        /* \"#utility.yul\":5820:5824   */\n      0x24\n        /* \"#utility.yul\":5817:5818   */\n      0x00\n        /* \"#utility.yul\":5810:5825   */\n      revert\n        /* \"#utility.yul\":5837:6118   */\n    tag_294:\n        /* \"#utility.yul\":5920:5947   */\n      tag_410\n        /* \"#utility.yul\":5942:5946   */\n      dup3\n        /* \"#utility.yul\":5920:5947   */\n      tag_288\n      jump\t// in\n    tag_410:\n        /* \"#utility.yul\":5912:5918   */\n      dup2\n        /* \"#utility.yul\":5908:5948   */\n      add\n        /* \"#utility.yul\":6050:6056   */\n      dup2\n        /* \"#utility.yul\":6038:6048   */\n      dup2\n        /* \"#utility.yul\":6035:6057   */\n      lt\n        /* \"#utility.yul\":6014:6032   */\n      0xffffffffffffffff\n        /* \"#utility.yul\":6002:6012   */\n      dup3\n        /* \"#utility.yul\":5999:6033   */\n      gt\n        /* \"#utility.yul\":5996:6058   */\n      or\n        /* \"#utility.yul\":5993:6081   */\n      iszero\n      tag_411\n      jumpi\n        /* \"#utility.yul\":6061:6079   */\n      tag_412\n      tag_104\n      jump\t// in\n    tag_412:\n        /* \"#utility.yul\":5993:6081   */\n    tag_411:\n        /* \"#utility.yul\":6101:6111   */\n      dup1\n        /* \"#utility.yul\":6097:6099   */\n      0x40\n        /* \"#utility.yul\":6090:6112   */\n      mstore\n        /* \"#utility.yul\":5880:6118   */\n      pop\n        /* \"#utility.yul\":5837:6118   */\n      pop\n      pop\n      jump\t// out\n        /* \"#utility.yul\":6124:6253   */\n    tag_295:\n        /* \"#utility.yul\":6158:6164   */\n      0x00\n        /* \"#utility.yul\":6185:6205   */\n      tag_414\n      tag_268\n      jump\t// in\n    tag_414:\n        /* \"#utility.yul\":6175:6205   */\n      swap1\n      pop\n        /* \"#utility.yul\":6214:6247   */\n      tag_415\n        /* \"#utility.yul\":6242:6246   */\n      dup3\n        /* \"#utility.yul\":6234:6240   */\n      dup3\n        /* \"#utility.yul\":6214:6247   */\n      tag_294\n      jump\t// in\n    tag_415:\n        /* \"#utility.yul\":6124:6253   */\n      swap2\n      swap1\n      pop\n      jump\t// out\n        /* \"#utility.yul\":6259:6567   */\n    tag_296:\n        /* \"#utility.yul\":6321:6325   */\n      0x00\n        /* \"#utility.yul\":6411:6429   */\n      0xffffffffffffffff\n        /* \"#utility.yul\":6403:6409   */\n      dup3\n        /* \"#utility.yul\":6400:6430   */\n      gt\n        /* \"#utility.yul\":6397:6453   */\n      iszero\n      tag_417\n      jumpi\n        /* \"#utility.yul\":6433:6451   */\n      tag_418\n      tag_104\n      jump\t// in\n    tag_418:\n        /* \"#utility.yul\":6397:6453   */\n    tag_417:\n        /* \"#utility.yul\":6471:6500   */\n      tag_419\n        /* \"#utility.yul\":6493:6499   */\n      dup3\n        /* \"#utility.yul\":6471:6500   */\n      tag_288\n      jump\t// in\n    tag_419:\n        /* \"#utility.yul\":6463:6500   */\n      swap1\n      pop\n        /* \"#utility.yul\":6555:6559   */\n      0x20\n        /* \"#utility.yul\":6549:6553   */\n      dup2\n        /* \"#utility.yul\":6545:6560   */\n      add\n        /* \"#utility.yul\":6537:6560   */\n      swap1\n      pop\n        /* \"#utility.yul\":6259:6567   */\n      swap2\n      swap1\n      pop\n      jump\t// out\n        /* \"#utility.yul\":6573:6719   */\n    tag_297:\n        /* \"#utility.yul\":6670:6676   */\n      dup3\n        /* \"#utility.yul\":6665:6668   */\n      dup2\n        /* \"#utility.yul\":6660:6663   */\n      dup4\n        /* \"#utility.yul\":6647:6677   */\n      calldatacopy\n        /* \"#utility.yul\":6711:6712   */\n      0x00\n        /* \"#utility.yul\":6702:6708   */\n      dup4\n        /* \"#utility.yul\":6697:6700   */\n      dup4\n        /* \"#utility.yul\":6693:6709   */\n      add\n        /* \"#utility.yul\":6686:6713   */\n      mstore\n        /* \"#utility.yul\":6573:6719   */\n      pop\n      pop\n      pop\n      jump\t// out\n        /* \"#utility.yul\":6725:7150   */\n    tag_298:\n        /* \"#utility.yul\":6803:6808   */\n      0x00\n        /* \"#utility.yul\":6828:6894   */\n      tag_422\n        /* \"#utility.yul\":6844:6893   */\n      tag_423\n        /* \"#utility.yul\":6886:6892   */\n      dup5\n        /* \"#utility.yul\":6844:6893   */\n      tag_296\n      jump\t// in\n    tag_423:\n        /* \"#utility.yul\":6828:6894   */\n      tag_295\n      jump\t// in\n    tag_422:\n        /* \"#utility.yul\":6819:6894   */\n      swap1\n      pop\n        /* \"#utility.yul\":6917:6923   */\n      dup3\n        /* \"#utility.yul\":6910:6915   */\n      dup2\n        /* \"#utility.yul\":6903:6924   */\n      mstore\n        /* \"#utility.yul\":6955:6959   */\n      0x20\n        /* \"#utility.yul\":6948:6953   */\n      dup2\n        /* \"#utility.yul\":6944:6960   */\n      add\n        /* \"#utility.yul\":6993:6996   */\n      dup5\n        /* \"#utility.yul\":6984:6990   */\n      dup5\n        /* \"#utility.yul\":6979:6982   */\n      dup5\n        /* \"#utility.yul\":6975:6991   */\n      add\n        /* \"#utility.yul\":6972:6997   */\n      gt\n        /* \"#utility.yul\":6969:7081   */\n      iszero\n      tag_424\n      jumpi\n        /* \"#utility.yul\":7000:7079   */\n      tag_425\n      tag_293\n      jump\t// in\n    tag_425:\n        /* \"#utility.yul\":6969:7081   */\n    tag_424:\n        /* \"#utility.yul\":7090:7144   */\n      tag_426\n        /* \"#utility.yul\":7137:7143   */\n      dup5\n        /* \"#utility.yul\":7132:7135   */\n      dup3\n        /* \"#utility.yul\":7127:7130   */\n      dup6\n        /* \"#utility.yul\":7090:7144   */\n      tag_297\n      jump\t// in\n    tag_426:\n        /* \"#utility.yul\":6809:7150   */\n      pop\n        /* \"#utility.yul\":6725:7150   */\n      swap4\n      swap3\n      pop\n      pop\n      pop\n      jump\t// out\n        /* \"#utility.yul\":7170:7510   */\n    tag_299:\n        /* \"#utility.yul\":7226:7231   */\n      0x00\n        /* \"#utility.yul\":7275:7278   */\n      dup3\n        /* \"#utility.yul\":7268:7272   */\n      0x1f\n        /* \"#utility.yul\":7260:7266   */\n      dup4\n        /* \"#utility.yul\":7256:7273   */\n      add\n        /* \"#utility.yul\":7252:7279   */\n      slt\n        /* \"#utility.yul\":7242:7364   */\n      tag_428\n      jumpi\n        /* \"#utility.yul\":7283:7362   */\n      tag_429\n      tag_292\n      jump\t// in\n    tag_429:\n        /* \"#utility.yul\":7242:7364   */\n    tag_428:\n        /* \"#utility.yul\":7400:7406   */\n      dup2\n        /* \"#utility.yul\":7387:7407   */\n      calldataload\n        /* \"#utility.yul\":7425:7504   */\n      tag_430\n        /* \"#utility.yul\":7500:7503   */\n      dup5\n        /* \"#utility.yul\":7492:7498   */\n      dup3\n        /* \"#utility.yul\":7485:7489   */\n      0x20\n        /* \"#utility.yul\":7477:7483   */\n      dup7\n        /* \"#utility.yul\":7473:7490   */\n      add\n        /* \"#utility.yul\":7425:7504   */\n      tag_298\n      jump\t// in\n    tag_430:\n        /* \"#utility.yul\":7416:7504   */\n      swap2\n      pop\n        /* \"#utility.yul\":7232:7510   */\n      pop\n        /* \"#utility.yul\":7170:7510   */\n      swap3\n      swap2\n      pop\n      pop\n      jump\t// out\n        /* \"#utility.yul\":7516:8168   */\n    tag_51:\n        /* \"#utility.yul\":7593:7599   */\n      0x00\n        /* \"#utility.yul\":7601:7607   */\n      dup1\n        /* \"#utility.yul\":7650:7652   */\n      0x40\n        /* \"#utility.yul\":7638:7647   */\n      dup4\n        /* \"#utility.yul\":7629:7636   */\n      dup6\n        /* \"#utility.yul\":7625:7648   */\n      sub\n        /* \"#utility.yul\":7621:7653   */\n      slt\n        /* \"#utility.yul\":7618:7737   */\n      iszero\n      tag_432\n      jumpi\n        /* \"#utility.yul\":7656:7735   */\n      tag_433\n      tag_269\n      jump\t// in\n    tag_433:\n        /* \"#utility.yul\":7618:7737   */\n    tag_432:\n        /* \"#utility.yul\":7776:7777   */\n      0x00\n        /* \"#utility.yul\":7801:7853   */\n      tag_434\n        /* \"#utility.yul\":7845:7852   */\n      dup6\n        /* \"#utility.yul\":7836:7842   */\n      dup3\n        /* \"#utility.yul\":7825:7834   */\n      dup7\n        /* \"#utility.yul\":7821:7843   */\n      add\n        /* \"#utility.yul\":7801:7853   */\n      tag_291\n      jump\t// in\n    tag_434:\n        /* \"#utility.yul\":7791:7853   */\n      swap3\n      pop\n        /* \"#utility.yul\":7747:7863   */\n      pop\n        /* \"#utility.yul\":7930:7932   */\n      0x20\n        /* \"#utility.yul\":7919:7928   */\n      dup4\n        /* \"#utility.yul\":7915:7933   */\n      add\n        /* \"#utility.yul\":7902:7934   */\n      calldataload\n        /* \"#utility.yul\":7961:7979   */\n      0xffffffffffffffff\n        /* \"#utility.yul\":7953:7959   */\n      dup2\n        /* \"#utility.yul\":7950:7980   */\n      gt\n        /* \"#utility.yul\":7947:8064   */\n      iszero\n      tag_435\n      jumpi\n        /* \"#utility.yul\":7983:8062   */\n      tag_436\n      tag_270\n      jump\t// in\n    tag_436:\n        /* \"#utility.yul\":7947:8064   */\n    tag_435:\n        /* \"#utility.yul\":8088:8151   */\n      tag_437\n        /* \"#utility.yul\":8143:8150   */\n      dup6\n        /* \"#utility.yul\":8134:8140   */\n      dup3\n        /* \"#utility.yul\":8123:8132   */\n      dup7\n        /* \"#utility.yul\":8119:8141   */\n      add\n        /* \"#utility.yul\":8088:8151   */\n      tag_299\n      jump\t// in\n    tag_437:\n        /* \"#utility.yul\":8078:8151   */\n      swap2\n      pop\n        /* \"#utility.yul\":7873:8161   */\n      pop\n        /* \"#utility.yul\":7516:8168   */\n      swap3\n      pop\n      swap3\n      swap1\n      pop\n      jump\t// out\n        /* \"#utility.yul\":8174:8292   */\n    tag_300:\n        /* \"#utility.yul\":8261:8285   */\n      tag_439\n        /* \"#utility.yul\":8279:8284   */\n      dup2\n        /* \"#utility.yul\":8261:8285   */\n      tag_281\n      jump\t// in\n    tag_439:\n        /* \"#utility.yul\":8256:8259   */\n      dup3\n        /* \"#utility.yul\":8249:8286   */\n      mstore\n        /* \"#utility.yul\":8174:8292   */\n      pop\n      pop\n      jump\t// out\n        /* \"#utility.yul\":8298:8520   */\n    tag_54:\n        /* \"#utility.yul\":8391:8395   */\n      0x00\n        /* \"#utility.yul\":8429:8431   */\n      0x20\n        /* \"#utility.yul\":8418:8427   */\n      dup3\n        /* \"#utility.yul\":8414:8432   */\n      add\n        /* \"#utility.yul\":8406:8432   */\n      swap1\n      pop\n        /* \"#utility.yul\":8442:8513   */\n      tag_441\n        /* \"#utility.yul\":8510:8511   */\n      0x00\n        /* \"#utility.yul\":8499:8508   */\n      dup4\n        /* \"#utility.yul\":8495:8512   */\n      add\n        /* \"#utility.yul\":8486:8492   */\n      dup5\n        /* \"#utility.yul\":8442:8513   */\n      tag_300\n      jump\t// in\n    tag_441:\n        /* \"#utility.yul\":8298:8520   */\n      swap3\n      swap2\n      pop\n      pop\n      jump\t// out\n        /* \"#utility.yul\":8526:8748   */\n    tag_63:\n        /* \"#utility.yul\":8619:8623   */\n      0x00\n        /* \"#utility.yul\":8657:8659   */\n      0x20\n        /* \"#utility.yul\":8646:8655   */\n      dup3\n        /* \"#utility.yul\":8642:8660   */\n      add\n        /* \"#utility.yul\":8634:8660   */\n      swap1\n      pop\n        /* \"#utility.yul\":8670:8741   */\n      tag_443\n        /* \"#utility.yul\":8738:8739   */\n      0x00\n        /* \"#utility.yul\":8727:8736   */\n      dup4\n        /* \"#utility.yul\":8723:8740   */\n      add\n        /* \"#utility.yul\":8714:8720   */\n      dup5\n        /* \"#utility.yul\":8670:8741   */\n      tag_280\n      jump\t// in\n    tag_443:\n        /* \"#utility.yul\":8526:8748   */\n      swap3\n      swap2\n      pop\n      pop\n      jump\t// out\n        /* \"#utility.yul\":8754:8964   */\n    tag_68:\n        /* \"#utility.yul\":8841:8845   */\n      0x00\n        /* \"#utility.yul\":8879:8881   */\n      0x20\n        /* \"#utility.yul\":8868:8877   */\n      dup3\n        /* \"#utility.yul\":8864:8882   */\n      add\n        /* \"#utility.yul\":8856:8882   */\n      swap1\n      pop\n        /* \"#utility.yul\":8892:8957   */\n      tag_445\n        /* \"#utility.yul\":8954:8955   */\n      0x00\n        /* \"#utility.yul\":8943:8952   */\n      dup4\n        /* \"#utility.yul\":8939:8956   */\n      add\n        /* \"#utility.yul\":8930:8936   */\n      dup5\n        /* \"#utility.yul\":8892:8957   */\n      tag_277\n      jump\t// in\n    tag_445:\n        /* \"#utility.yul\":8754:8964   */\n      swap3\n      swap2\n      pop\n      pop\n      jump\t// out\n        /* \"#utility.yul\":8970:9767   */\n    tag_80:\n        /* \"#utility.yul\":9056:9062   */\n      0x00\n        /* \"#utility.yul\":9064:9070   */\n      dup1\n        /* \"#utility.yul\":9072:9078   */\n      0x00\n        /* \"#utility.yul\":9121:9123   */\n      0x60\n        /* \"#utility.yul\":9109:9118   */\n      dup5\n        /* \"#utility.yul\":9100:9107   */\n      dup7\n        /* \"#utility.yul\":9096:9119   */\n      sub\n        /* \"#utility.yul\":9092:9124   */\n      slt\n        /* \"#utility.yul\":9089:9208   */\n      iszero\n      tag_447\n      jumpi\n        /* \"#utility.yul\":9127:9206   */\n      tag_448\n      tag_269\n      jump\t// in\n    tag_448:\n        /* \"#utility.yul\":9089:9208   */\n    tag_447:\n        /* \"#utility.yul\":9247:9248   */\n      0x00\n        /* \"#utility.yul\":9272:9325   */\n      tag_449\n        /* \"#utility.yul\":9317:9324   */\n      dup7\n        /* \"#utility.yul\":9308:9314   */\n      dup3\n        /* \"#utility.yul\":9297:9306   */\n      dup8\n        /* \"#utility.yul\":9293:9315   */\n      add\n        /* \"#utility.yul\":9272:9325   */\n      tag_273\n      jump\t// in\n    tag_449:\n        /* \"#utility.yul\":9262:9325   */\n      swap4\n      pop\n        /* \"#utility.yul\":9218:9335   */\n      pop\n        /* \"#utility.yul\":9374:9376   */\n      0x20\n        /* \"#utility.yul\":9400:9452   */\n      tag_450\n        /* \"#utility.yul\":9444:9451   */\n      dup7\n        /* \"#utility.yul\":9435:9441   */\n      dup3\n        /* \"#utility.yul\":9424:9433   */\n      dup8\n        /* \"#utility.yul\":9420:9442   */\n      add\n        /* \"#utility.yul\":9400:9452   */\n      tag_291\n      jump\t// in\n    tag_450:\n        /* \"#utility.yul\":9390:9452   */\n      swap3\n      pop\n        /* \"#utility.yul\":9345:9462   */\n      pop\n        /* \"#utility.yul\":9529:9531   */\n      0x40\n        /* \"#utility.yul\":9518:9527   */\n      dup5\n        /* \"#utility.yul\":9514:9532   */\n      add\n        /* \"#utility.yul\":9501:9533   */\n      calldataload\n        /* \"#utility.yul\":9560:9578   */\n      0xffffffffffffffff\n        /* \"#utility.yul\":9552:9558   */\n      dup2\n        /* \"#utility.yul\":9549:9579   */\n      gt\n        /* \"#utility.yul\":9546:9663   */\n      iszero\n      tag_451\n      jumpi\n        /* \"#utility.yul\":9582:9661   */\n      tag_452\n      tag_270\n      jump\t// in\n    tag_452:\n        /* \"#utility.yul\":9546:9663   */\n    tag_451:\n        /* \"#utility.yul\":9687:9750   */\n      tag_453\n        /* \"#utility.yul\":9742:9749   */\n      dup7\n        /* \"#utility.yul\":9733:9739   */\n      dup3\n        /* \"#utility.yul\":9722:9731   */\n      dup8\n        /* \"#utility.yul\":9718:9740   */\n      add\n        /* \"#utility.yul\":9687:9750   */\n      tag_299\n      jump\t// in\n    tag_453:\n        /* \"#utility.yul\":9677:9750   */\n      swap2\n      pop\n        /* \"#utility.yul\":9472:9760   */\n      pop\n        /* \"#utility.yul\":8970:9767   */\n      swap3\n      pop\n      swap3\n      pop\n      swap3\n      jump\t// out\n        /* \"#utility.yul\":9773:10002   */\n    tag_301:\n        /* \"#utility.yul\":9913:9947   */\n      0x4f776e61626c653a206f6e6c79206f776e65722063616e2063616c6c20746869\n        /* \"#utility.yul\":9909:9910   */\n      0x00\n        /* \"#utility.yul\":9901:9907   */\n      dup3\n        /* \"#utility.yul\":9897:9911   */\n      add\n        /* \"#utility.yul\":9890:9948   */\n      mstore\n        /* \"#utility.yul\":9982:9994   */\n      0x732066756e6374696f6e00000000000000000000000000000000000000000000\n        /* \"#utility.yul\":9977:9979   */\n      0x20\n        /* \"#utility.yul\":9969:9975   */\n      dup3\n        /* \"#utility.yul\":9965:9980   */\n      add\n        /* \"#utility.yul\":9958:9995   */\n      mstore\n        /* \"#utility.yul\":9773:10002   */\n      pop\n      jump\t// out\n        /* \"#utility.yul\":10008:10374   */\n    tag_302:\n        /* \"#utility.yul\":10150:10153   */\n      0x00\n        /* \"#utility.yul\":10171:10238   */\n      tag_456\n        /* \"#utility.yul\":10235:10237   */\n      0x2a\n        /* \"#utility.yul\":10230:10233   */\n      dup4\n        /* \"#utility.yul\":10171:10238   */\n      tag_286\n      jump\t// in\n    tag_456:\n        /* \"#utility.yul\":10164:10238   */\n      swap2\n      pop\n        /* \"#utility.yul\":10247:10340   */\n      tag_457\n        /* \"#utility.yul\":10336:10339   */\n      dup3\n        /* \"#utility.yul\":10247:10340   */\n      tag_301\n      jump\t// in\n    tag_457:\n        /* \"#utility.yul\":10365:10367   */\n      0x40\n        /* \"#utility.yul\":10360:10363   */\n      dup3\n        /* \"#utility.yul\":10356:10368   */\n      add\n        /* \"#utility.yul\":10349:10368   */\n      swap1\n      pop\n        /* \"#utility.yul\":10008:10374   */\n      swap2\n      swap1\n      pop\n      jump\t// out\n        /* \"#utility.yul\":10380:10799   */\n    tag_90:\n        /* \"#utility.yul\":10546:10550   */\n      0x00\n        /* \"#utility.yul\":10584:10586   */\n      0x20\n        /* \"#utility.yul\":10573:10582   */\n      dup3\n        /* \"#utility.yul\":10569:10587   */\n      add\n        /* \"#utility.yul\":10561:10587   */\n      swap1\n      pop\n        /* \"#utility.yul\":10633:10642   */\n      dup2\n        /* \"#utility.yul\":10627:10631   */\n      dup2\n        /* \"#utility.yul\":10623:10643   */\n      sub\n        /* \"#utility.yul\":10619:10620   */\n      0x00\n        /* \"#utility.yul\":10608:10617   */\n      dup4\n        /* \"#utility.yul\":10604:10621   */\n      add\n        /* \"#utility.yul\":10597:10644   */\n      mstore\n        /* \"#utility.yul\":10661:10792   */\n      tag_459\n        /* \"#utility.yul\":10787:10791   */\n      dup2\n        /* \"#utility.yul\":10661:10792   */\n      tag_302\n      jump\t// in\n    tag_459:\n        /* \"#utility.yul\":10653:10792   */\n      swap1\n      pop\n        /* \"#utility.yul\":10380:10799   */\n      swap2\n      swap1\n      pop\n      jump\t// out\n        /* \"#utility.yul\":10805:10985   */\n    tag_303:\n        /* \"#utility.yul\":10853:10930   */\n      0x4e487b7100000000000000000000000000000000000000000000000000000000\n        /* \"#utility.yul\":10850:10851   */\n      0x00\n        /* \"#utility.yul\":10843:10931   */\n      mstore\n        /* \"#utility.yul\":10950:10954   */\n      0x11\n        /* \"#utility.yul\":10947:10948   */\n      0x04\n        /* \"#utility.yul\":10940:10955   */\n      mstore\n        /* \"#utility.yul\":10974:10978   */\n      0x24\n        /* \"#utility.yul\":10971:10972   */\n      0x00\n        /* \"#utility.yul\":10964:10979   */\n      revert\n        /* \"#utility.yul\":10991:11182   */\n    tag_93:\n        /* \"#utility.yul\":11031:11034   */\n      0x00\n        /* \"#utility.yul\":11050:11070   */\n      tag_462\n        /* \"#utility.yul\":11068:11069   */\n      dup3\n        /* \"#utility.yul\":11050:11070   */\n      tag_271\n      jump\t// in\n    tag_462:\n        /* \"#utility.yul\":11045:11070   */\n      swap2\n      pop\n        /* \"#utility.yul\":11084:11104   */\n      tag_463\n        /* \"#utility.yul\":11102:11103   */\n      dup4\n        /* \"#utility.yul\":11084:11104   */\n      tag_271\n      jump\t// in\n    tag_463:\n        /* \"#utility.yul\":11079:11104   */\n      swap3\n      pop\n        /* \"#utility.yul\":11127:11128   */\n      dup3\n        /* \"#utility.yul\":11124:11125   */\n      dup3\n        /* \"#utility.yul\":11120:11129   */\n      add\n        /* \"#utility.yul\":11113:11129   */\n      swap1\n      pop\n        /* \"#utility.yul\":11148:11151   */\n      dup1\n        /* \"#utility.yul\":11145:11146   */\n      dup3\n        /* \"#utility.yul\":11142:11152   */\n      gt\n        /* \"#utility.yul\":11139:11175   */\n      iszero\n      tag_464\n      jumpi\n        /* \"#utility.yul\":11155:11173   */\n      tag_465\n      tag_303\n      jump\t// in\n    tag_465:\n        /* \"#utility.yul\":11139:11175   */\n    tag_464:\n        /* \"#utility.yul\":10991:11182   */\n      swap3\n      swap2\n      pop\n      pop\n      jump\t// out\n        /* \"#utility.yul\":11188:11434   */\n    tag_304:\n        /* \"#utility.yul\":11328:11362   */\n      0x4d756c746950617274794c6f74746572793a3a61776172644c6f74746572793a\n        /* \"#utility.yul\":11324:11325   */\n      0x00\n        /* \"#utility.yul\":11316:11322   */\n      dup3\n        /* \"#utility.yul\":11312:11326   */\n      add\n        /* \"#utility.yul\":11305:11363   */\n      mstore\n        /* \"#utility.yul\":11397:11426   */\n      0x2047616d65206973206e6f7420696e2061776172642073746167650000000000\n        /* \"#utility.yul\":11392:11394   */\n      0x20\n        /* \"#utility.yul\":11384:11390   */\n      dup3\n        /* \"#utility.yul\":11380:11395   */\n      add\n        /* \"#utility.yul\":11373:11427   */\n      mstore\n        /* \"#utility.yul\":11188:11434   */\n      pop\n      jump\t// out\n        /* \"#utility.yul\":11440:11806   */\n    tag_305:\n        /* \"#utility.yul\":11582:11585   */\n      0x00\n        /* \"#utility.yul\":11603:11670   */\n      tag_468\n        /* \"#utility.yul\":11667:11669   */\n      0x3b\n        /* \"#utility.yul\":11662:11665   */\n      dup4\n        /* \"#utility.yul\":11603:11670   */\n      tag_286\n      jump\t// in\n    tag_468:\n        /* \"#utility.yul\":11596:11670   */\n      swap2\n      pop\n        /* \"#utility.yul\":11679:11772   */\n      tag_469\n        /* \"#utility.yul\":11768:11771   */\n      dup3\n        /* \"#utility.yul\":11679:11772   */\n      tag_304\n      jump\t// in\n    tag_469:\n        /* \"#utility.yul\":11797:11799   */\n      0x40\n        /* \"#utility.yul\":11792:11795   */\n      dup3\n        /* \"#utility.yul\":11788:11800   */\n      add\n        /* \"#utility.yul\":11781:11800   */\n      swap1\n      pop\n        /* \"#utility.yul\":11440:11806   */\n      swap2\n      swap1\n      pop\n      jump\t// out\n        /* \"#utility.yul\":11812:12231   */\n    tag_101:\n        /* \"#utility.yul\":11978:11982   */\n      0x00\n        /* \"#utility.yul\":12016:12018   */\n      0x20\n        /* \"#utility.yul\":12005:12014   */\n      dup3\n        /* \"#utility.yul\":12001:12019   */\n      add\n        /* \"#utility.yul\":11993:12019   */\n      swap1\n      pop\n        /* \"#utility.yul\":12065:12074   */\n      dup2\n        /* \"#utility.yul\":12059:12063   */\n      dup2\n        /* \"#utility.yul\":12055:12075   */\n      sub\n        /* \"#utility.yul\":12051:12052   */\n      0x00\n        /* \"#utility.yul\":12040:12049   */\n      dup4\n        /* \"#utility.yul\":12036:12053   */\n      add\n        /* \"#utility.yul\":12029:12076   */\n      mstore\n        /* \"#utility.yul\":12093:12224   */\n      tag_471\n        /* \"#utility.yul\":12219:12223   */\n      dup2\n        /* \"#utility.yul\":12093:12224   */\n      tag_305\n      jump\t// in\n    tag_471:\n        /* \"#utility.yul\":12085:12224   */\n      swap1\n      pop\n        /* \"#utility.yul\":11812:12231   */\n      swap2\n      swap1\n      pop\n      jump\t// out\n        /* \"#utility.yul\":12237:12417   */\n    tag_117:\n        /* \"#utility.yul\":12285:12362   */\n      0x4e487b7100000000000000000000000000000000000000000000000000000000\n        /* \"#utility.yul\":12282:12283   */\n      0x00\n        /* \"#utility.yul\":12275:12363   */\n      mstore\n        /* \"#utility.yul\":12382:12386   */\n      0x32\n        /* \"#utility.yul\":12379:12380   */\n      0x04\n        /* \"#utility.yul\":12372:12387   */\n      mstore\n        /* \"#utility.yul\":12406:12410   */\n      0x24\n        /* \"#utility.yul\":12403:12404   */\n      0x00\n        /* \"#utility.yul\":12396:12411   */\n      revert\n        /* \"#utility.yul\":12423:12656   */\n    tag_127:\n        /* \"#utility.yul\":12462:12465   */\n      0x00\n        /* \"#utility.yul\":12485:12509   */\n      tag_474\n        /* \"#utility.yul\":12503:12508   */\n      dup3\n        /* \"#utility.yul\":12485:12509   */\n      tag_271\n      jump\t// in\n    tag_474:\n        /* \"#utility.yul\":12476:12509   */\n      swap2\n      pop\n        /* \"#utility.yul\":12531:12597   */\n      0xffffffffffffffffffffffffffffffffffffffffffffffffffffffffffffffff\n        /* \"#utility.yul\":12524:12529   */\n      dup3\n        /* \"#utility.yul\":12521:12598   */\n      sub\n        /* \"#utility.yul\":12518:12621   */\n      tag_475\n      jumpi\n        /* \"#utility.yul\":12601:12619   */\n      tag_476\n      tag_303\n      jump\t// in\n    tag_476:\n        /* \"#utility.yul\":12518:12621   */\n    tag_475:\n        /* \"#utility.yul\":12648:12649   */\n      0x01\n        /* \"#utility.yul\":12641:12646   */\n      dup3\n        /* \"#utility.yul\":12637:12650   */\n      add\n        /* \"#utility.yul\":12630:12650   */\n      swap1\n      pop\n        /* \"#utility.yul\":12423:12656   */\n      swap2\n      swap1\n      pop\n      jump\t// out\n        /* \"#utility.yul\":12662:12741   */\n    tag_306:\n        /* \"#utility.yul\":12701:12708   */\n      0x00\n        /* \"#utility.yul\":12730:12735   */\n      dup2\n        /* \"#utility.yul\":12719:12735   */\n      swap1\n      pop\n        /* \"#utility.yul\":12662:12741   */\n      swap2\n      swap1\n      pop\n      jump\t// out\n        /* \"#utility.yul\":12747:12904   */\n    tag_307:\n        /* \"#utility.yul\":12852:12897   */\n      tag_479\n        /* \"#utility.yul\":12872:12896   */\n      tag_480\n        /* \"#utility.yul\":12890:12895   */\n      dup3\n        /* \"#utility.yul\":12872:12896   */\n      tag_271\n      jump\t// in\n    tag_480:\n        /* \"#utility.yul\":12852:12897   */\n      tag_306\n      jump\t// in\n    tag_479:\n        /* \"#utility.yul\":12847:12850   */\n      dup3\n        /* \"#utility.yul\":12840:12898   */\n      mstore\n        /* \"#utility.yul\":12747:12904   */\n      pop\n      pop\n      jump\t// out\n        /* \"#utility.yul\":12910:13166   */\n    tag_139:\n        /* \"#utility.yul\":13022:13025   */\n      0x00\n        /* \"#utility.yul\":13037:13112   */\n      tag_482\n        /* \"#utility.yul\":13108:13111   */\n      dup3\n        /* \"#utility.yul\":13099:13105   */\n      dup5\n        /* \"#utility.yul\":13037:13112   */\n      tag_307\n      jump\t// in\n    tag_482:\n        /* \"#utility.yul\":13137:13139   */\n      0x20\n        /* \"#utility.yul\":13132:13135   */\n      dup3\n        /* \"#utility.yul\":13128:13140   */\n      add\n        /* \"#utility.yul\":13121:13140   */\n      swap2\n      pop\n        /* \"#utility.yul\":13157:13160   */\n      dup2\n        /* \"#utility.yul\":13150:13160   */\n      swap1\n      pop\n        /* \"#utility.yul\":12910:13166   */\n      swap3\n      swap2\n      pop\n      pop\n      jump\t// out\n        /* \"#utility.yul\":13172:13352   */\n    tag_308:\n        /* \"#utility.yul\":13220:13297   */\n      0x4e487b7100000000000000000000000000000000000000000000000000000000\n        /* \"#utility.yul\":13217:13218   */\n      0x00\n        /* \"#utility.yul\":13210:13298   */\n      mstore\n        /* \"#utility.yul\":13317:13321   */\n      0x12\n        /* \"#utility.yul\":13314:13315   */\n      0x04\n        /* \"#utility.yul\":13307:13322   */\n      mstore\n        /* \"#utility.yul\":13341:13345   */\n      0x24\n        /* \"#utility.yul\":13338:13339   */\n      0x00\n        /* \"#utility.yul\":13331:13346   */\n      revert\n        /* \"#utility.yul\":13358:13534   */\n    tag_141:\n        /* \"#utility.yul\":13390:13391   */\n      0x00\n        /* \"#utility.yul\":13407:13427   */\n      tag_485\n        /* \"#utility.yul\":13425:13426   */\n      dup3\n        /* \"#utility.yul\":13407:13427   */\n      tag_271\n      jump\t// in\n    tag_485:\n        /* \"#utility.yul\":13402:13427   */\n      swap2\n      pop\n        /* \"#utility.yul\":13441:13461   */\n      tag_486\n        /* \"#utility.yul\":13459:13460   */\n      dup4\n        /* \"#utility.yul\":13441:13461   */\n      tag_271\n      jump\t// in\n    tag_486:\n        /* \"#utility.yul\":13436:13461   */\n      swap3\n      pop\n        /* \"#utility.yul\":13480:13481   */\n      dup3\n        /* \"#utility.yul\":13470:13505   */\n      tag_487\n      jumpi\n        /* \"#utility.yul\":13485:13503   */\n      tag_488\n      tag_308\n      jump\t// in\n    tag_488:\n        /* \"#utility.yul\":13470:13505   */\n    tag_487:\n        /* \"#utility.yul\":13526:13527   */\n      dup3\n        /* \"#utility.yul\":13523:13524   */\n      dup3\n        /* \"#utility.yul\":13519:13528   */\n      mod\n        /* \"#utility.yul\":13514:13528   */\n      swap1\n      pop\n        /* \"#utility.yul\":13358:13534   */\n      swap3\n      swap2\n      pop\n      pop\n      jump\t// out\n        /* \"#utility.yul\":13540:13774   */\n    tag_309:\n        /* \"#utility.yul\":13680:13714   */\n      0x72657175697265204c6f74746572794665652028302e30303120657468657229\n        /* \"#utility.yul\":13676:13677   */\n      0x00\n        /* \"#utility.yul\":13668:13674   */\n      dup3\n        /* \"#utility.yul\":13664:13678   */\n      add\n        /* \"#utility.yul\":13657:13715   */\n      mstore\n        /* \"#utility.yul\":13749:13766   */\n      0x20746f2070617274696369706174650000000000000000000000000000000000\n        /* \"#utility.yul\":13744:13746   */\n      0x20\n        /* \"#utility.yul\":13736:13742   */\n      dup3\n        /* \"#utility.yul\":13732:13747   */\n      add\n        /* \"#utility.yul\":13725:13767   */\n      mstore\n        /* \"#utility.yul\":13540:13774   */\n      pop\n      jump\t// out\n        /* \"#utility.yul\":13780:14146   */\n    tag_310:\n        /* \"#utility.yul\":13922:13925   */\n      0x00\n        /* \"#utility.yul\":13943:14010   */\n      tag_491\n        /* \"#utility.yul\":14007:14009   */\n      0x2f\n        /* \"#utility.yul\":14002:14005   */\n      dup4\n        /* \"#utility.yul\":13943:14010   */\n      tag_286\n      jump\t// in\n    tag_491:\n        /* \"#utility.yul\":13936:14010   */\n      swap2\n      pop\n        /* \"#utility.yul\":14019:14112   */\n      tag_492\n        /* \"#utility.yul\":14108:14111   */\n      dup3\n        /* \"#utility.yul\":14019:14112   */\n      tag_309\n      jump\t// in\n    tag_492:\n        /* \"#utility.yul\":14137:14139   */\n      0x40\n        /* \"#utility.yul\":14132:14135   */\n      dup3\n        /* \"#utility.yul\":14128:14140   */\n      add\n        /* \"#utility.yul\":14121:14140   */\n      swap1\n      pop\n        /* \"#utility.yul\":13780:14146   */\n      swap2\n      swap1\n      pop\n      jump\t// out\n        /* \"#utility.yul\":14152:14571   */\n    tag_151:\n        /* \"#utility.yul\":14318:14322   */\n      0x00\n        /* \"#utility.yul\":14356:14358   */\n      0x20\n        /* \"#utility.yul\":14345:14354   */\n      dup3\n        /* \"#utility.yul\":14341:14359   */\n      add\n        /* \"#utility.yul\":14333:14359   */\n      swap1\n      pop\n        /* \"#utility.yul\":14405:14414   */\n      dup2\n        /* \"#utility.yul\":14399:14403   */\n      dup2\n        /* \"#utility.yul\":14395:14415   */\n      sub\n        /* \"#utility.yul\":14391:14392   */\n      0x00\n        /* \"#utility.yul\":14380:14389   */\n      dup4\n        /* \"#utility.yul\":14376:14393   */\n      add\n        /* \"#utility.yul\":14369:14416   */\n      mstore\n        /* \"#utility.yul\":14433:14564   */\n      tag_494\n        /* \"#utility.yul\":14559:14563   */\n      dup2\n        /* \"#utility.yul\":14433:14564   */\n      tag_310\n      jump\t// in\n    tag_494:\n        /* \"#utility.yul\":14425:14564   */\n      swap1\n      pop\n        /* \"#utility.yul\":14152:14571   */\n      swap2\n      swap1\n      pop\n      jump\t// out\n        /* \"#utility.yul\":14577:14879   */\n    tag_311:\n        /* \"#utility.yul\":14717:14751   */\n      0x4d756c746950617274794c6f74746572793a3a636f6d6d6974486173684c6f74\n        /* \"#utility.yul\":14713:14714   */\n      0x00\n        /* \"#utility.yul\":14705:14711   */\n      dup3\n        /* \"#utility.yul\":14701:14715   */\n      add\n        /* \"#utility.yul\":14694:14752   */\n      mstore\n        /* \"#utility.yul\":14786:14820   */\n      0x746572793a204d6178696d756d206e756d626572206f6620706c617965727320\n        /* \"#utility.yul\":14781:14783   */\n      0x20\n        /* \"#utility.yul\":14773:14779   */\n      dup3\n        /* \"#utility.yul\":14769:14784   */\n      add\n        /* \"#utility.yul\":14762:14821   */\n      mstore\n        /* \"#utility.yul\":14855:14871   */\n      0x6c696d6974206578636565646564000000000000000000000000000000000000\n        /* \"#utility.yul\":14850:14852   */\n      0x40\n        /* \"#utility.yul\":14842:14848   */\n      dup3\n        /* \"#utility.yul\":14838:14853   */\n      add\n        /* \"#utility.yul\":14831:14872   */\n      mstore\n        /* \"#utility.yul\":14577:14879   */\n      pop\n      jump\t// out\n        /* \"#utility.yul\":14885:15251   */\n    tag_312:\n        /* \"#utility.yul\":15027:15030   */\n      0x00\n        /* \"#utility.yul\":15048:15115   */\n      tag_497\n        /* \"#utility.yul\":15112:15114   */\n      0x4e\n        /* \"#utility.yul\":15107:15110   */\n      dup4\n        /* \"#utility.yul\":15048:15115   */\n      tag_286\n      jump\t// in\n    tag_497:\n        /* \"#utility.yul\":15041:15115   */\n      swap2\n      pop\n        /* \"#utility.yul\":15124:15217   */\n      tag_498\n        /* \"#utility.yul\":15213:15216   */\n      dup3\n        /* \"#utility.yul\":15124:15217   */\n      tag_311\n      jump\t// in\n    tag_498:\n        /* \"#utility.yul\":15242:15244   */\n      0x60\n        /* \"#utility.yul\":15237:15240   */\n      dup3\n        /* \"#utility.yul\":15233:15245   */\n      add\n        /* \"#utility.yul\":15226:15245   */\n      swap1\n      pop\n        /* \"#utility.yul\":14885:15251   */\n      swap2\n      swap1\n      pop\n      jump\t// out\n        /* \"#utility.yul\":15257:15676   */\n    tag_154:\n        /* \"#utility.yul\":15423:15427   */\n      0x00\n        /* \"#utility.yul\":15461:15463   */\n      0x20\n        /* \"#utility.yul\":15450:15459   */\n      dup3\n        /* \"#utility.yul\":15446:15464   */\n      add\n        /* \"#utility.yul\":15438:15464   */\n      swap1\n      pop\n        /* \"#utility.yul\":15510:15519   */\n      dup2\n        /* \"#utility.yul\":15504:15508   */\n      dup2\n        /* \"#utility.yul\":15500:15520   */\n      sub\n        /* \"#utility.yul\":15496:15497   */\n      0x00\n        /* \"#utility.yul\":15485:15494   */\n      dup4\n        /* \"#utility.yul\":15481:15498   */\n      add\n        /* \"#utility.yul\":15474:15521   */\n      mstore\n        /* \"#utility.yul\":15538:15669   */\n      tag_500\n        /* \"#utility.yul\":15664:15668   */\n      dup2\n        /* \"#utility.yul\":15538:15669   */\n      tag_312\n      jump\t// in\n    tag_500:\n        /* \"#utility.yul\":15530:15669   */\n      swap1\n      pop\n        /* \"#utility.yul\":15257:15676   */\n      swap2\n      swap1\n      pop\n      jump\t// out\n        /* \"#utility.yul\":15682:15971   */\n    tag_313:\n        /* \"#utility.yul\":15822:15856   */\n      0x4d756c746950617274794c6f74746572793a3a636f6d6d6974486173684c6f74\n        /* \"#utility.yul\":15818:15819   */\n      0x00\n        /* \"#utility.yul\":15810:15816   */\n      dup3\n        /* \"#utility.yul\":15806:15820   */\n      add\n        /* \"#utility.yul\":15799:15857   */\n      mstore\n        /* \"#utility.yul\":15891:15925   */\n      0x746572793a2047616d65206973206e6f7420696e20636f6d6d69742073746167\n        /* \"#utility.yul\":15886:15888   */\n      0x20\n        /* \"#utility.yul\":15878:15884   */\n      dup3\n        /* \"#utility.yul\":15874:15889   */\n      add\n        /* \"#utility.yul\":15867:15926   */\n      mstore\n        /* \"#utility.yul\":15960:15963   */\n      0x6500000000000000000000000000000000000000000000000000000000000000\n        /* \"#utility.yul\":15955:15957   */\n      0x40\n        /* \"#utility.yul\":15947:15953   */\n      dup3\n        /* \"#utility.yul\":15943:15958   */\n      add\n        /* \"#utility.yul\":15936:15964   */\n      mstore\n        /* \"#utility.yul\":15682:15971   */\n      pop\n      jump\t// out\n        /* \"#utility.yul\":15977:16343   */\n    tag_314:\n        /* \"#utility.yul\":16119:16122   */\n      0x00\n        /* \"#utility.yul\":16140:16207   */\n      tag_503\n        /* \"#utility.yul\":16204:16206   */\n      0x41\n        /* \"#utility.yul\":16199:16202   */\n      dup4\n        /* \"#utility.yul\":16140:16207   */\n      tag_286\n      jump\t// in\n    tag_503:\n        /* \"#utility.yul\":16133:16207   */\n      swap2\n      pop\n        /* \"#utility.yul\":16216:16309   */\n      tag_504\n        /* \"#utility.yul\":16305:16308   */\n      dup3\n        /* \"#utility.yul\":16216:16309   */\n      tag_313\n      jump\t// in\n    tag_504:\n        /* \"#utility.yul\":16334:16336   */\n      0x60\n        /* \"#utility.yul\":16329:16332   */\n      dup3\n        /* \"#utility.yul\":16325:16337   */\n      add\n        /* \"#utility.yul\":16318:16337   */\n      swap1\n      pop\n        /* \"#utility.yul\":15977:16343   */\n      swap2\n      swap1\n      pop\n      jump\t// out\n        /* \"#utility.yul\":16349:16768   */\n    tag_159:\n        /* \"#utility.yul\":16515:16519   */\n      0x00\n        /* \"#utility.yul\":16553:16555   */\n      0x20\n        /* \"#utility.yul\":16542:16551   */\n      dup3\n        /* \"#utility.yul\":16538:16556   */\n      add\n        /* \"#utility.yul\":16530:16556   */\n      swap1\n      pop\n        /* \"#utility.yul\":16602:16611   */\n      dup2\n        /* \"#utility.yul\":16596:16600   */\n      dup2\n        /* \"#utility.yul\":16592:16612   */\n      sub\n        /* \"#utility.yul\":16588:16589   */\n      0x00\n        /* \"#utility.yul\":16577:16586   */\n      dup4\n        /* \"#utility.yul\":16573:16590   */\n      add\n        /* \"#utility.yul\":16566:16613   */\n      mstore\n        /* \"#utility.yul\":16630:16761   */\n      tag_506\n        /* \"#utility.yul\":16756:16760   */\n      dup2\n        /* \"#utility.yul\":16630:16761   */\n      tag_314\n      jump\t// in\n    tag_506:\n        /* \"#utility.yul\":16622:16761   */\n      swap1\n      pop\n        /* \"#utility.yul\":16349:16768   */\n      swap2\n      swap1\n      pop\n      jump\t// out\n        /* \"#utility.yul\":16774:17024   */\n    tag_315:\n        /* \"#utility.yul\":16914:16948   */\n      0x4d756c746950617274794c6f74746572793a3a77697468647261773a2047616d\n        /* \"#utility.yul\":16910:16911   */\n      0x00\n        /* \"#utility.yul\":16902:16908   */\n      dup3\n        /* \"#utility.yul\":16898:16912   */\n      add\n        /* \"#utility.yul\":16891:16949   */\n      mstore\n        /* \"#utility.yul\":16983:17016   */\n      0x65206973206e6f7420696e2061776172642074696d656f757420737461676500\n        /* \"#utility.yul\":16978:16980   */\n      0x20\n        /* \"#utility.yul\":16970:16976   */\n      dup3\n        /* \"#utility.yul\":16966:16981   */\n      add\n        /* \"#utility.yul\":16959:17017   */\n      mstore\n        /* \"#utility.yul\":16774:17024   */\n      pop\n      jump\t// out\n        /* \"#utility.yul\":17030:17396   */\n    tag_316:\n        /* \"#utility.yul\":17172:17175   */\n      0x00\n        /* \"#utility.yul\":17193:17260   */\n      tag_509\n        /* \"#utility.yul\":17257:17259   */\n      0x3f\n        /* \"#utility.yul\":17252:17255   */\n      dup4\n        /* \"#utility.yul\":17193:17260   */\n      tag_286\n      jump\t// in\n    tag_509:\n        /* \"#utility.yul\":17186:17260   */\n      swap2\n      pop\n        /* \"#utility.yul\":17269:17362   */\n      tag_510\n        /* \"#utility.yul\":17358:17361   */\n      dup3\n        /* \"#utility.yul\":17269:17362   */\n      tag_315\n      jump\t// in\n    tag_510:\n        /* \"#utility.yul\":17387:17389   */\n      0x40\n        /* \"#utility.yul\":17382:17385   */\n      dup3\n        /* \"#utility.yul\":17378:17390   */\n      add\n        /* \"#utility.yul\":17371:17390   */\n      swap1\n      pop\n        /* \"#utility.yul\":17030:17396   */\n      swap2\n      swap1\n      pop\n      jump\t// out\n        /* \"#utility.yul\":17402:17821   */\n    tag_169:\n        /* \"#utility.yul\":17568:17572   */\n      0x00\n        /* \"#utility.yul\":17606:17608   */\n      0x20\n        /* \"#utility.yul\":17595:17604   */\n      dup3\n        /* \"#utility.yul\":17591:17609   */\n      add\n        /* \"#utility.yul\":17583:17609   */\n      swap1\n      pop\n        /* \"#utility.yul\":17655:17664   */\n      dup2\n        /* \"#utility.yul\":17649:17653   */\n      dup2\n        /* \"#utility.yul\":17645:17665   */\n      sub\n        /* \"#utility.yul\":17641:17642   */\n      0x00\n        /* \"#utility.yul\":17630:17639   */\n      dup4\n        /* \"#utility.yul\":17626:17643   */\n      add\n        /* \"#utility.yul\":17619:17666   */\n      mstore\n        /* \"#utility.yul\":17683:17814   */\n      tag_512\n        /* \"#utility.yul\":17809:17813   */\n      dup2\n        /* \"#utility.yul\":17683:17814   */\n      tag_316\n      jump\t// in\n    tag_512:\n        /* \"#utility.yul\":17675:17814   */\n      swap1\n      pop\n        /* \"#utility.yul\":17402:17821   */\n      swap2\n      swap1\n      pop\n      jump\t// out\n        /* \"#utility.yul\":17827:18117   */\n    tag_317:\n        /* \"#utility.yul\":17967:18001   */\n      0x4d756c746950617274794c6f74746572793a3a77697468647261773a20596f75\n        /* \"#utility.yul\":17963:17964   */\n      0x00\n        /* \"#utility.yul\":17955:17961   */\n      dup3\n        /* \"#utility.yul\":17951:17965   */\n      add\n        /* \"#utility.yul\":17944:18002   */\n      mstore\n        /* \"#utility.yul\":18036:18070   */\n      0x20617265206e6f7420746865206f776e6572206f662074686973206c6f747465\n        /* \"#utility.yul\":18031:18033   */\n      0x20\n        /* \"#utility.yul\":18023:18029   */\n      dup3\n        /* \"#utility.yul\":18019:18034   */\n      add\n        /* \"#utility.yul\":18012:18071   */\n      mstore\n        /* \"#utility.yul\":18105:18109   */\n      0x7279000000000000000000000000000000000000000000000000000000000000\n        /* \"#utility.yul\":18100:18102   */\n      0x40\n        /* \"#utility.yul\":18092:18098   */\n      dup3\n        /* \"#utility.yul\":18088:18103   */\n      add\n        /* \"#utility.yul\":18081:18110   */\n      mstore\n        /* \"#utility.yul\":17827:18117   */\n      pop\n      jump\t// out\n        /* \"#utility.yul\":18123:18489   */\n    tag_318:\n        /* \"#utility.yul\":18265:18268   */\n      0x00\n        /* \"#utility.yul\":18286:18353   */\n      tag_515\n        /* \"#utility.yul\":18350:18352   */\n      0x42\n        /* \"#utility.yul\":18345:18348   */\n      dup4\n        /* \"#utility.yul\":18286:18353   */\n      tag_286\n      jump\t// in\n    tag_515:\n        /* \"#utility.yul\":18279:18353   */\n      swap2\n      pop\n        /* \"#utility.yul\":18362:18455   */\n      tag_516\n        /* \"#utility.yul\":18451:18454   */\n      dup3\n        /* \"#utility.yul\":18362:18455   */\n      tag_317\n      jump\t// in\n    tag_516:\n        /* \"#utility.yul\":18480:18482   */\n      0x60\n        /* \"#utility.yul\":18475:18478   */\n      dup3\n        /* \"#utility.yul\":18471:18483   */\n      add\n        /* \"#utility.yul\":18464:18483   */\n      swap1\n      pop\n        /* \"#utility.yul\":18123:18489   */\n      swap2\n      swap1\n      pop\n      jump\t// out\n        /* \"#utility.yul\":18495:18914   */\n    tag_172:\n        /* \"#utility.yul\":18661:18665   */\n      0x00\n        /* \"#utility.yul\":18699:18701   */\n      0x20\n        /* \"#utility.yul\":18688:18697   */\n      dup3\n        /* \"#utility.yul\":18684:18702   */\n      add\n        /* \"#utility.yul\":18676:18702   */\n      swap1\n      pop\n        /* \"#utility.yul\":18748:18757   */\n      dup2\n        /* \"#utility.yul\":18742:18746   */\n      dup2\n        /* \"#utility.yul\":18738:18758   */\n      sub\n        /* \"#utility.yul\":18734:18735   */\n      0x00\n        /* \"#utility.yul\":18723:18732   */\n      dup4\n        /* \"#utility.yul\":18719:18736   */\n      add\n        /* \"#utility.yul\":18712:18759   */\n      mstore\n        /* \"#utility.yul\":18776:18907   */\n      tag_518\n        /* \"#utility.yul\":18902:18906   */\n      dup2\n        /* \"#utility.yul\":18776:18907   */\n      tag_318\n      jump\t// in\n    tag_518:\n        /* \"#utility.yul\":18768:18907   */\n      swap1\n      pop\n        /* \"#utility.yul\":18495:18914   */\n      swap2\n      swap1\n      pop\n      jump\t// out\n        /* \"#utility.yul\":18920:19212   */\n    tag_319:\n        /* \"#utility.yul\":19060:19094   */\n      0x4d756c746950617274794c6f74746572793a3a77697468647261773a20596f75\n        /* \"#utility.yul\":19056:19057   */\n      0x00\n        /* \"#utility.yul\":19048:19054   */\n      dup3\n        /* \"#utility.yul\":19044:19058   */\n      add\n        /* \"#utility.yul\":19037:19095   */\n      mstore\n        /* \"#utility.yul\":19129:19163   */\n      0x206861766520616c72656164792077697468647261776e2074686973206c6f74\n        /* \"#utility.yul\":19124:19126   */\n      0x20\n        /* \"#utility.yul\":19116:19122   */\n      dup3\n        /* \"#utility.yul\":19112:19127   */\n      add\n        /* \"#utility.yul\":19105:19164   */\n      mstore\n        /* \"#utility.yul\":19198:19204   */\n      0x7465727900000000000000000000000000000000000000000000000000000000\n        /* \"#utility.yul\":19193:19195   */\n      0x40\n        /* \"#utility.yul\":19185:19191   */\n      dup3\n        /* \"#utility.yul\":19181:19196   */\n      add\n        /* \"#utility.yul\":19174:19205   */\n      mstore\n        /* \"#utility.yul\":18920:19212   */\n      pop\n      jump\t// out\n        /* \"#utility.yul\":19218:19584   */\n    tag_320:\n        /* \"#utility.yul\":19360:19363   */\n      0x00\n        /* \"#utility.yul\":19381:19448   */\n      tag_521\n        /* \"#utility.yul\":19445:19447   */\n      0x44\n        /* \"#utility.yul\":19440:19443   */\n      dup4\n        /* \"#utility.yul\":19381:19448   */\n      tag_286\n      jump\t// in\n    tag_521:\n        /* \"#utility.yul\":19374:19448   */\n      swap2\n      pop\n        /* \"#utility.yul\":19457:19550   */\n      tag_522\n        /* \"#utility.yul\":19546:19549   */\n      dup3\n        /* \"#utility.yul\":19457:19550   */\n      tag_319\n      jump\t// in\n    tag_522:\n        /* \"#utility.yul\":19575:19577   */\n      0x60\n        /* \"#utility.yul\":19570:19573   */\n      dup3\n        /* \"#utility.yul\":19566:19578   */\n      add\n        /* \"#utility.yul\":19559:19578   */\n      swap1\n      pop\n        /* \"#utility.yul\":19218:19584   */\n      swap2\n      swap1\n      pop\n      jump\t// out\n        /* \"#utility.yul\":19590:20009   */\n    tag_175:\n        /* \"#utility.yul\":19756:19760   */\n      0x00\n        /* \"#utility.yul\":19794:19796   */\n      0x20\n        /* \"#utility.yul\":19783:19792   */\n      dup3\n        /* \"#utility.yul\":19779:19797   */\n      add\n        /* \"#utility.yul\":19771:19797   */\n      swap1\n      pop\n        /* \"#utility.yul\":19843:19852   */\n      dup2\n        /* \"#utility.yul\":19837:19841   */\n      dup2\n        /* \"#utility.yul\":19833:19853   */\n      sub\n        /* \"#utility.yul\":19829:19830   */\n      0x00\n        /* \"#utility.yul\":19818:19827   */\n      dup4\n        /* \"#utility.yul\":19814:19831   */\n      add\n        /* \"#utility.yul\":19807:19854   */\n      mstore\n        /* \"#utility.yul\":19871:20002   */\n      tag_524\n        /* \"#utility.yul\":19997:20001   */\n      dup2\n        /* \"#utility.yul\":19871:20002   */\n      tag_320\n      jump\t// in\n    tag_524:\n        /* \"#utility.yul\":19863:20002   */\n      swap1\n      pop\n        /* \"#utility.yul\":19590:20009   */\n      swap2\n      swap1\n      pop\n      jump\t// out\n        /* \"#utility.yul\":20015:20186   */\n    tag_179:\n        /* \"#utility.yul\":20054:20057   */\n      0x00\n        /* \"#utility.yul\":20077:20101   */\n      tag_526\n        /* \"#utility.yul\":20095:20100   */\n      dup3\n        /* \"#utility.yul\":20077:20101   */\n      tag_271\n      jump\t// in\n    tag_526:\n        /* \"#utility.yul\":20068:20101   */\n      swap2\n      pop\n        /* \"#utility.yul\":20123:20127   */\n      0x00\n        /* \"#utility.yul\":20116:20121   */\n      dup3\n        /* \"#utility.yul\":20113:20128   */\n      sub\n        /* \"#utility.yul\":20110:20151   */\n      tag_527\n      jumpi\n        /* \"#utility.yul\":20131:20149   */\n      tag_528\n      tag_303\n      jump\t// in\n    tag_528:\n        /* \"#utility.yul\":20110:20151   */\n    tag_527:\n        /* \"#utility.yul\":20178:20179   */\n      0x01\n        /* \"#utility.yul\":20171:20176   */\n      dup3\n        /* \"#utility.yul\":20167:20180   */\n      sub\n        /* \"#utility.yul\":20160:20180   */\n      swap1\n      pop\n        /* \"#utility.yul\":20015:20186   */\n      swap2\n      swap1\n      pop\n      jump\t// out\n        /* \"#utility.yul\":20192:20386   */\n    tag_189:\n        /* \"#utility.yul\":20232:20236   */\n      0x00\n        /* \"#utility.yul\":20252:20272   */\n      tag_530\n        /* \"#utility.yul\":20270:20271   */\n      dup3\n        /* \"#utility.yul\":20252:20272   */\n      tag_271\n      jump\t// in\n    tag_530:\n        /* \"#utility.yul\":20247:20272   */\n      swap2\n      pop\n        /* \"#utility.yul\":20286:20306   */\n      tag_531\n        /* \"#utility.yul\":20304:20305   */\n      dup4\n        /* \"#utility.yul\":20286:20306   */\n      tag_271\n      jump\t// in\n    tag_531:\n        /* \"#utility.yul\":20281:20306   */\n      swap3\n      pop\n        /* \"#utility.yul\":20330:20331   */\n      dup3\n        /* \"#utility.yul\":20327:20328   */\n      dup3\n        /* \"#utility.yul\":20323:20332   */\n      sub\n        /* \"#utility.yul\":20315:20332   */\n      swap1\n      pop\n        /* \"#utility.yul\":20354:20355   */\n      dup2\n        /* \"#utility.yul\":20348:20352   */\n      dup2\n        /* \"#utility.yul\":20345:20356   */\n      gt\n        /* \"#utility.yul\":20342:20379   */\n      iszero\n      tag_532\n      jumpi\n        /* \"#utility.yul\":20359:20377   */\n      tag_533\n      tag_303\n      jump\t// in\n    tag_533:\n        /* \"#utility.yul\":20342:20379   */\n    tag_532:\n        /* \"#utility.yul\":20192:20386   */\n      swap3\n      swap2\n      pop\n      pop\n      jump\t// out\n        /* \"#utility.yul\":20392:20486   */\n    tag_321:\n        /* \"#utility.yul\":20425:20433   */\n      0x00\n        /* \"#utility.yul\":20473:20478   */\n      dup2\n        /* \"#utility.yul\":20469:20471   */\n      0x60\n        /* \"#utility.yul\":20465:20479   */\n      shl\n        /* \"#utility.yul\":20444:20479   */\n      swap1\n      pop\n        /* \"#utility.yul\":20392:20486   */\n      swap2\n      swap1\n      pop\n      jump\t// out\n        /* \"#utility.yul\":20492:20586   */\n    tag_322:\n        /* \"#utility.yul\":20531:20538   */\n      0x00\n        /* \"#utility.yul\":20560:20580   */\n      tag_536\n        /* \"#utility.yul\":20574:20579   */\n      dup3\n        /* \"#utility.yul\":20560:20580   */\n      tag_321\n      jump\t// in\n    tag_536:\n        /* \"#utility.yul\":20549:20580   */\n      swap1\n      pop\n        /* \"#utility.yul\":20492:20586   */\n      swap2\n      swap1\n      pop\n      jump\t// out\n        /* \"#utility.yul\":20592:20692   */\n    tag_323:\n        /* \"#utility.yul\":20631:20638   */\n      0x00\n        /* \"#utility.yul\":20660:20686   */\n      tag_538\n        /* \"#utility.yul\":20680:20685   */\n      dup3\n        /* \"#utility.yul\":20660:20686   */\n      tag_322\n      jump\t// in\n    tag_538:\n        /* \"#utility.yul\":20649:20686   */\n      swap1\n      pop\n        /* \"#utility.yul\":20592:20692   */\n      swap2\n      swap1\n      pop\n      jump\t// out\n        /* \"#utility.yul\":20698:20855   */\n    tag_324:\n        /* \"#utility.yul\":20803:20848   */\n      tag_540\n        /* \"#utility.yul\":20823:20847   */\n      tag_541\n        /* \"#utility.yul\":20841:20846   */\n      dup3\n        /* \"#utility.yul\":20823:20847   */\n      tag_279\n      jump\t// in\n    tag_541:\n        /* \"#utility.yul\":20803:20848   */\n      tag_323\n      jump\t// in\n    tag_540:\n        /* \"#utility.yul\":20798:20801   */\n      dup3\n        /* \"#utility.yul\":20791:20849   */\n      mstore\n        /* \"#utility.yul\":20698:20855   */\n      pop\n      pop\n      jump\t// out\n        /* \"#utility.yul\":20861:20957   */\n    tag_325:\n        /* \"#utility.yul\":20895:20903   */\n      0x00\n        /* \"#utility.yul\":20944:20949   */\n      dup2\n        /* \"#utility.yul\":20939:20942   */\n      0xf0\n        /* \"#utility.yul\":20935:20950   */\n      shl\n        /* \"#utility.yul\":20914:20950   */\n      swap1\n      pop\n        /* \"#utility.yul\":20861:20957   */\n      swap2\n      swap1\n      pop\n      jump\t// out\n        /* \"#utility.yul\":20963:21057   */\n    tag_326:\n        /* \"#utility.yul\":21001:21008   */\n      0x00\n        /* \"#utility.yul\":21030:21051   */\n      tag_544\n        /* \"#utility.yul\":21045:21050   */\n      dup3\n        /* \"#utility.yul\":21030:21051   */\n      tag_325\n      jump\t// in\n    tag_544:\n        /* \"#utility.yul\":21019:21051   */\n      swap1\n      pop\n        /* \"#utility.yul\":20963:21057   */\n      swap2\n      swap1\n      pop\n      jump\t// out\n        /* \"#utility.yul\":21063:21216   */\n    tag_327:\n        /* \"#utility.yul\":21166:21209   */\n      tag_546\n        /* \"#utility.yul\":21185:21208   */\n      tag_547\n        /* \"#utility.yul\":21202:21207   */\n      dup3\n        /* \"#utility.yul\":21185:21208   */\n      tag_274\n      jump\t// in\n    tag_547:\n        /* \"#utility.yul\":21166:21209   */\n      tag_326\n      jump\t// in\n    tag_546:\n        /* \"#utility.yul\":21161:21164   */\n      dup3\n        /* \"#utility.yul\":21154:21210   */\n      mstore\n        /* \"#utility.yul\":21063:21216   */\n      pop\n      pop\n      jump\t// out\n        /* \"#utility.yul\":21222:21370   */\n    tag_328:\n        /* \"#utility.yul\":21324:21335   */\n      0x00\n        /* \"#utility.yul\":21361:21364   */\n      dup2\n        /* \"#utility.yul\":21346:21364   */\n      swap1\n      pop\n        /* \"#utility.yul\":21222:21370   */\n      swap3\n      swap2\n      pop\n      pop\n      jump\t// out\n        /* \"#utility.yul\":21376:21766   */\n    tag_329:\n        /* \"#utility.yul\":21482:21485   */\n      0x00\n        /* \"#utility.yul\":21510:21549   */\n      tag_550\n        /* \"#utility.yul\":21543:21548   */\n      dup3\n        /* \"#utility.yul\":21510:21549   */\n      tag_285\n      jump\t// in\n    tag_550:\n        /* \"#utility.yul\":21565:21654   */\n      tag_551\n        /* \"#utility.yul\":21647:21653   */\n      dup2\n        /* \"#utility.yul\":21642:21645   */\n      dup6\n        /* \"#utility.yul\":21565:21654   */\n      tag_328\n      jump\t// in\n    tag_551:\n        /* \"#utility.yul\":21558:21654   */\n      swap4\n      pop\n        /* \"#utility.yul\":21663:21728   */\n      tag_552\n        /* \"#utility.yul\":21721:21727   */\n      dup2\n        /* \"#utility.yul\":21716:21719   */\n      dup6\n        /* \"#utility.yul\":21709:21713   */\n      0x20\n        /* \"#utility.yul\":21702:21707   */\n      dup7\n        /* \"#utility.yul\":21698:21714   */\n      add\n        /* \"#utility.yul\":21663:21728   */\n      tag_287\n      jump\t// in\n    tag_552:\n        /* \"#utility.yul\":21753:21759   */\n      dup1\n        /* \"#utility.yul\":21748:21751   */\n      dup5\n        /* \"#utility.yul\":21744:21760   */\n      add\n        /* \"#utility.yul\":21737:21760   */\n      swap2\n      pop\n        /* \"#utility.yul\":21486:21766   */\n      pop\n        /* \"#utility.yul\":21376:21766   */\n      swap3\n      swap2\n      pop\n      pop\n      jump\t// out\n        /* \"#utility.yul\":21772:22324   */\n    tag_213:\n        /* \"#utility.yul\":21958:21961   */\n      0x00\n        /* \"#utility.yul\":21973:22048   */\n      tag_554\n        /* \"#utility.yul\":22044:22047   */\n      dup3\n        /* \"#utility.yul\":22035:22041   */\n      dup7\n        /* \"#utility.yul\":21973:22048   */\n      tag_324\n      jump\t// in\n    tag_554:\n        /* \"#utility.yul\":22073:22075   */\n      0x14\n        /* \"#utility.yul\":22068:22071   */\n      dup3\n        /* \"#utility.yul\":22064:22076   */\n      add\n        /* \"#utility.yul\":22057:22076   */\n      swap2\n      pop\n        /* \"#utility.yul\":22086:22159   */\n      tag_555\n        /* \"#utility.yul\":22155:22158   */\n      dup3\n        /* \"#utility.yul\":22146:22152   */\n      dup6\n        /* \"#utility.yul\":22086:22159   */\n      tag_327\n      jump\t// in\n    tag_555:\n        /* \"#utility.yul\":22184:22185   */\n      0x02\n        /* \"#utility.yul\":22179:22182   */\n      dup3\n        /* \"#utility.yul\":22175:22186   */\n      add\n        /* \"#utility.yul\":22168:22186   */\n      swap2\n      pop\n        /* \"#utility.yul\":22203:22298   */\n      tag_556\n        /* \"#utility.yul\":22294:22297   */\n      dup3\n        /* \"#utility.yul\":22285:22291   */\n      dup5\n        /* \"#utility.yul\":22203:22298   */\n      tag_329\n      jump\t// in\n    tag_556:\n        /* \"#utility.yul\":22196:22298   */\n      swap2\n      pop\n        /* \"#utility.yul\":22315:22318   */\n      dup2\n        /* \"#utility.yul\":22308:22318   */\n      swap1\n      pop\n        /* \"#utility.yul\":21772:22324   */\n      swap5\n      swap4\n      pop\n      pop\n      pop\n      pop\n      jump\t// out\n        /* \"#utility.yul\":22330:22578   */\n    tag_330:\n        /* \"#utility.yul\":22470:22504   */\n      0x4d756c746950617274794c6f74746572793a3a72657665616c4c6f7474657279\n        /* \"#utility.yul\":22466:22467   */\n      0x00\n        /* \"#utility.yul\":22458:22464   */\n      dup3\n        /* \"#utility.yul\":22454:22468   */\n      add\n        /* \"#utility.yul\":22447:22505   */\n      mstore\n        /* \"#utility.yul\":22539:22570   */\n      0x3a2047616d65206973206e6f7420696e2072657665616c207374616765000000\n        /* \"#utility.yul\":22534:22536   */\n      0x20\n        /* \"#utility.yul\":22526:22532   */\n      dup3\n        /* \"#utility.yul\":22522:22537   */\n      add\n        /* \"#utility.yul\":22515:22571   */\n      mstore\n        /* \"#utility.yul\":22330:22578   */\n      pop\n      jump\t// out\n        /* \"#utility.yul\":22584:22950   */\n    tag_331:\n        /* \"#utility.yul\":22726:22729   */\n      0x00\n        /* \"#utility.yul\":22747:22814   */\n      tag_559\n        /* \"#utility.yul\":22811:22813   */\n      0x3d\n        /* \"#utility.yul\":22806:22809   */\n      dup4\n        /* \"#utility.yul\":22747:22814   */\n      tag_286\n      jump\t// in\n    tag_559:\n        /* \"#utility.yul\":22740:22814   */\n      swap2\n      pop\n        /* \"#utility.yul\":22823:22916   */\n      tag_560\n        /* \"#utility.yul\":22912:22915   */\n      dup3\n        /* \"#utility.yul\":22823:22916   */\n      tag_330\n      jump\t// in\n    tag_560:\n        /* \"#utility.yul\":22941:22943   */\n      0x40\n        /* \"#utility.yul\":22936:22939   */\n      dup3\n        /* \"#utility.yul\":22932:22944   */\n      add\n        /* \"#utility.yul\":22925:22944   */\n      swap1\n      pop\n        /* \"#utility.yul\":22584:22950   */\n      swap2\n      swap1\n      pop\n      jump\t// out\n        /* \"#utility.yul\":22956:23375   */\n    tag_223:\n        /* \"#utility.yul\":23122:23126   */\n      0x00\n        /* \"#utility.yul\":23160:23162   */\n      0x20\n        /* \"#utility.yul\":23149:23158   */\n      dup3\n        /* \"#utility.yul\":23145:23163   */\n      add\n        /* \"#utility.yul\":23137:23163   */\n      swap1\n      pop\n        /* \"#utility.yul\":23209:23218   */\n      dup2\n        /* \"#utility.yul\":23203:23207   */\n      dup2\n        /* \"#utility.yul\":23199:23219   */\n      sub\n        /* \"#utility.yul\":23195:23196   */\n      0x00\n        /* \"#utility.yul\":23184:23193   */\n      dup4\n        /* \"#utility.yul\":23180:23197   */\n      add\n        /* \"#utility.yul\":23173:23220   */\n      mstore\n        /* \"#utility.yul\":23237:23368   */\n      tag_562\n        /* \"#utility.yul\":23363:23367   */\n      dup2\n        /* \"#utility.yul\":23237:23368   */\n      tag_331\n      jump\t// in\n    tag_562:\n        /* \"#utility.yul\":23229:23368   */\n      swap1\n      pop\n        /* \"#utility.yul\":22956:23375   */\n      swap2\n      swap1\n      pop\n      jump\t// out\n        /* \"#utility.yul\":23381:23676   */\n    tag_332:\n        /* \"#utility.yul\":23521:23555   */\n      0x4d756c746950617274794c6f74746572793a3a72657665616c4c6f7474657279\n        /* \"#utility.yul\":23517:23518   */\n      0x00\n        /* \"#utility.yul\":23509:23515   */\n      dup3\n        /* \"#utility.yul\":23505:23519   */\n      add\n        /* \"#utility.yul\":23498:23556   */\n      mstore\n        /* \"#utility.yul\":23590:23624   */\n      0x3a20596f7520617265206e6f7420746865206f776e6572206f66207468697320\n        /* \"#utility.yul\":23585:23587   */\n      0x20\n        /* \"#utility.yul\":23577:23583   */\n      dup3\n        /* \"#utility.yul\":23573:23588   */\n      add\n        /* \"#utility.yul\":23566:23625   */\n      mstore\n        /* \"#utility.yul\":23659:23668   */\n      0x6c6f747465727900000000000000000000000000000000000000000000000000\n        /* \"#utility.yul\":23654:23656   */\n      0x40\n        /* \"#utility.yul\":23646:23652   */\n      dup3\n        /* \"#utility.yul\":23642:23657   */\n      add\n        /* \"#utility.yul\":23635:23669   */\n      mstore\n        /* \"#utility.yul\":23381:23676   */\n      pop\n      jump\t// out\n        /* \"#utility.yul\":23682:24048   */\n    tag_333:\n        /* \"#utility.yul\":23824:23827   */\n      0x00\n        /* \"#utility.yul\":23845:23912   */\n      tag_565\n        /* \"#utility.yul\":23909:23911   */\n      0x47\n        /* \"#utility.yul\":23904:23907   */\n      dup4\n        /* \"#utility.yul\":23845:23912   */\n      tag_286\n      jump\t// in\n    tag_565:\n        /* \"#utility.yul\":23838:23912   */\n      swap2\n      pop\n        /* \"#utility.yul\":23921:24014   */\n      tag_566\n        /* \"#utility.yul\":24010:24013   */\n      dup3\n        /* \"#utility.yul\":23921:24014   */\n      tag_332\n      jump\t// in\n    tag_566:\n        /* \"#utility.yul\":24039:24041   */\n      0x60\n        /* \"#utility.yul\":24034:24037   */\n      dup3\n        /* \"#utility.yul\":24030:24042   */\n      add\n        /* \"#utility.yul\":24023:24042   */\n      swap1\n      pop\n        /* \"#utility.yul\":23682:24048   */\n      swap2\n      swap1\n      pop\n      jump\t// out\n        /* \"#utility.yul\":24054:24473   */\n    tag_226:\n        /* \"#utility.yul\":24220:24224   */\n      0x00\n        /* \"#utility.yul\":24258:24260   */\n      0x20\n        /* \"#utility.yul\":24247:24256   */\n      dup3\n        /* \"#utility.yul\":24243:24261   */\n      add\n        /* \"#utility.yul\":24235:24261   */\n      swap1\n      pop\n        /* \"#utility.yul\":24307:24316   */\n      dup2\n        /* \"#utility.yul\":24301:24305   */\n      dup2\n        /* \"#utility.yul\":24297:24317   */\n      sub\n        /* \"#utility.yul\":24293:24294   */\n      0x00\n        /* \"#utility.yul\":24282:24291   */\n      dup4\n        /* \"#utility.yul\":24278:24295   */\n      add\n        /* \"#utility.yul\":24271:24318   */\n      mstore\n        /* \"#utility.yul\":24335:24466   */\n      tag_568\n        /* \"#utility.yul\":24461:24465   */\n      dup2\n        /* \"#utility.yul\":24335:24466   */\n      tag_333\n      jump\t// in\n    tag_568:\n        /* \"#utility.yul\":24327:24466   */\n      swap1\n      pop\n        /* \"#utility.yul\":24054:24473   */\n      swap2\n      swap1\n      pop\n      jump\t// out\n        /* \"#utility.yul\":24479:24889   */\n    tag_232:\n        /* \"#utility.yul\":24519:24526   */\n      0x00\n        /* \"#utility.yul\":24542:24562   */\n      tag_570\n        /* \"#utility.yul\":24560:24561   */\n      dup3\n        /* \"#utility.yul\":24542:24562   */\n      tag_271\n      jump\t// in\n    tag_570:\n        /* \"#utility.yul\":24537:24562   */\n      swap2\n      pop\n        /* \"#utility.yul\":24576:24596   */\n      tag_571\n        /* \"#utility.yul\":24594:24595   */\n      dup4\n        /* \"#utility.yul\":24576:24596   */\n      tag_271\n      jump\t// in\n    tag_571:\n        /* \"#utility.yul\":24571:24596   */\n      swap3\n      pop\n        /* \"#utility.yul\":24631:24632   */\n      dup3\n        /* \"#utility.yul\":24628:24629   */\n      dup3\n        /* \"#utility.yul\":24624:24633   */\n      mul\n        /* \"#utility.yul\":24653:24683   */\n      tag_572\n        /* \"#utility.yul\":24671:24682   */\n      dup2\n        /* \"#utility.yul\":24653:24683   */\n      tag_271\n      jump\t// in\n    tag_572:\n        /* \"#utility.yul\":24642:24683   */\n      swap2\n      pop\n        /* \"#utility.yul\":24832:24833   */\n      dup3\n        /* \"#utility.yul\":24823:24830   */\n      dup3\n        /* \"#utility.yul\":24819:24834   */\n      div\n        /* \"#utility.yul\":24816:24817   */\n      dup5\n        /* \"#utility.yul\":24813:24835   */\n      eq\n        /* \"#utility.yul\":24793:24794   */\n      dup4\n        /* \"#utility.yul\":24786:24795   */\n      iszero\n        /* \"#utility.yul\":24766:24849   */\n      or\n        /* \"#utility.yul\":24743:24882   */\n      tag_573\n      jumpi\n        /* \"#utility.yul\":24862:24880   */\n      tag_574\n      tag_303\n      jump\t// in\n    tag_574:\n        /* \"#utility.yul\":24743:24882   */\n    tag_573:\n        /* \"#utility.yul\":24527:24889   */\n      pop\n        /* \"#utility.yul\":24479:24889   */\n      swap3\n      swap2\n      pop\n      pop\n      jump\t// out\n        /* \"#utility.yul\":24895:25080   */\n    tag_234:\n        /* \"#utility.yul\":24935:24936   */\n      0x00\n        /* \"#utility.yul\":24952:24972   */\n      tag_576\n        /* \"#utility.yul\":24970:24971   */\n      dup3\n        /* \"#utility.yul\":24952:24972   */\n      tag_271\n      jump\t// in\n    tag_576:\n        /* \"#utility.yul\":24947:24972   */\n      swap2\n      pop\n        /* \"#utility.yul\":24986:25006   */\n      tag_577\n        /* \"#utility.yul\":25004:25005   */\n      dup4\n        /* \"#utility.yul\":24986:25006   */\n      tag_271\n      jump\t// in\n    tag_577:\n        /* \"#utility.yul\":24981:25006   */\n      swap3\n      pop\n        /* \"#utility.yul\":25025:25026   */\n      dup3\n        /* \"#utility.yul\":25015:25050   */\n      tag_578\n      jumpi\n        /* \"#utility.yul\":25030:25048   */\n      tag_579\n      tag_308\n      jump\t// in\n    tag_579:\n        /* \"#utility.yul\":25015:25050   */\n    tag_578:\n        /* \"#utility.yul\":25072:25073   */\n      dup3\n        /* \"#utility.yul\":25069:25070   */\n      dup3\n        /* \"#utility.yul\":25065:25074   */\n      div\n        /* \"#utility.yul\":25060:25074   */\n      swap1\n      pop\n        /* \"#utility.yul\":24895:25080   */\n      swap3\n      swap2\n      pop\n      pop\n      jump\t// out\n        /* \"#utility.yul\":25086:25187   */\n    tag_334:\n        /* \"#utility.yul\":25122:25129   */\n      0x00\n        /* \"#utility.yul\":25162:25180   */\n      0xffffffffffffffff\n        /* \"#utility.yul\":25155:25160   */\n      dup3\n        /* \"#utility.yul\":25151:25181   */\n      and\n        /* \"#utility.yul\":25140:25181   */\n      swap1\n      pop\n        /* \"#utility.yul\":25086:25187   */\n      swap2\n      swap1\n      pop\n      jump\t// out\n        /* \"#utility.yul\":25193:25308   */\n    tag_335:\n        /* \"#utility.yul\":25278:25301   */\n      tag_582\n        /* \"#utility.yul\":25295:25300   */\n      dup2\n        /* \"#utility.yul\":25278:25301   */\n      tag_334\n      jump\t// in\n    tag_582:\n        /* \"#utility.yul\":25273:25276   */\n      dup3\n        /* \"#utility.yul\":25266:25302   */\n      mstore\n        /* \"#utility.yul\":25193:25308   */\n      pop\n      pop\n      jump\t// out\n        /* \"#utility.yul\":25314:25863   */\n    tag_257:\n        /* \"#utility.yul\":25489:25493   */\n      0x00\n        /* \"#utility.yul\":25527:25530   */\n      0x80\n        /* \"#utility.yul\":25516:25525   */\n      dup3\n        /* \"#utility.yul\":25512:25531   */\n      add\n        /* \"#utility.yul\":25504:25531   */\n      swap1\n      pop\n        /* \"#utility.yul\":25541:25612   */\n      tag_584\n        /* \"#utility.yul\":25609:25610   */\n      0x00\n        /* \"#utility.yul\":25598:25607   */\n      dup4\n        /* \"#utility.yul\":25594:25611   */\n      add\n        /* \"#utility.yul\":25585:25591   */\n      dup8\n        /* \"#utility.yul\":25541:25612   */\n      tag_280\n      jump\t// in\n    tag_584:\n        /* \"#utility.yul\":25622:25694   */\n      tag_585\n        /* \"#utility.yul\":25690:25692   */\n      0x20\n        /* \"#utility.yul\":25679:25688   */\n      dup4\n        /* \"#utility.yul\":25675:25693   */\n      add\n        /* \"#utility.yul\":25666:25672   */\n      dup7\n        /* \"#utility.yul\":25622:25694   */\n      tag_284\n      jump\t// in\n    tag_585:\n        /* \"#utility.yul\":25704:25776   */\n      tag_586\n        /* \"#utility.yul\":25772:25774   */\n      0x40\n        /* \"#utility.yul\":25761:25770   */\n      dup4\n        /* \"#utility.yul\":25757:25775   */\n      add\n        /* \"#utility.yul\":25748:25754   */\n      dup6\n        /* \"#utility.yul\":25704:25776   */\n      tag_300\n      jump\t// in\n    tag_586:\n        /* \"#utility.yul\":25786:25856   */\n      tag_587\n        /* \"#utility.yul\":25852:25854   */\n      0x60\n        /* \"#utility.yul\":25841:25850   */\n      dup4\n        /* \"#utility.yul\":25837:25855   */\n      add\n        /* \"#utility.yul\":25828:25834   */\n      dup5\n        /* \"#utility.yul\":25786:25856   */\n      tag_335\n      jump\t// in\n    tag_587:\n        /* \"#utility.yul\":25314:25863   */\n      swap6\n      swap5\n      pop\n      pop\n      pop\n      pop\n      pop\n      jump\t// out\n        /* \"#utility.yul\":25869:26100   */\n    tag_336:\n        /* \"#utility.yul\":26009:26043   */\n      0x436f6d6d697452657665616c3a3a72657665616c43686f6963653a20416c7265\n        /* \"#utility.yul\":26005:26006   */\n      0x00\n        /* \"#utility.yul\":25997:26003   */\n      dup3\n        /* \"#utility.yul\":25993:26007   */\n      add\n        /* \"#utility.yul\":25986:26044   */\n      mstore\n        /* \"#utility.yul\":26078:26092   */\n      0x6164792072657665616c65640000000000000000000000000000000000000000\n        /* \"#utility.yul\":26073:26075   */\n      0x20\n        /* \"#utility.yul\":26065:26071   */\n      dup3\n        /* \"#utility.yul\":26061:26076   */\n      add\n        /* \"#utility.yul\":26054:26093   */\n      mstore\n        /* \"#utility.yul\":25869:26100   */\n      pop\n      jump\t// out\n        /* \"#utility.yul\":26106:26472   */\n    tag_337:\n        /* \"#utility.yul\":26248:26251   */\n      0x00\n        /* \"#utility.yul\":26269:26336   */\n      tag_590\n        /* \"#utility.yul\":26333:26335   */\n      0x2c\n        /* \"#utility.yul\":26328:26331   */\n      dup4\n        /* \"#utility.yul\":26269:26336   */\n      tag_286\n      jump\t// in\n    tag_590:\n        /* \"#utility.yul\":26262:26336   */\n      swap2\n      pop\n        /* \"#utility.yul\":26345:26438   */\n      tag_591\n        /* \"#utility.yul\":26434:26437   */\n      dup3\n        /* \"#utility.yul\":26345:26438   */\n      tag_336\n      jump\t// in\n    tag_591:\n        /* \"#utility.yul\":26463:26465   */\n      0x40\n        /* \"#utility.yul\":26458:26461   */\n      dup3\n        /* \"#utility.yul\":26454:26466   */\n      add\n        /* \"#utility.yul\":26447:26466   */\n      swap1\n      pop\n        /* \"#utility.yul\":26106:26472   */\n      swap2\n      swap1\n      pop\n      jump\t// out\n        /* \"#utility.yul\":26478:26897   */\n    tag_261:\n        /* \"#utility.yul\":26644:26648   */\n      0x00\n        /* \"#utility.yul\":26682:26684   */\n      0x20\n        /* \"#utility.yul\":26671:26680   */\n      dup3\n        /* \"#utility.yul\":26667:26685   */\n      add\n        /* \"#utility.yul\":26659:26685   */\n      swap1\n      pop\n        /* \"#utility.yul\":26731:26740   */\n      dup2\n        /* \"#utility.yul\":26725:26729   */\n      dup2\n        /* \"#utility.yul\":26721:26741   */\n      sub\n        /* \"#utility.yul\":26717:26718   */\n      0x00\n        /* \"#utility.yul\":26706:26715   */\n      dup4\n        /* \"#utility.yul\":26702:26719   */\n      add\n        /* \"#utility.yul\":26695:26742   */\n      mstore\n        /* \"#utility.yul\":26759:26890   */\n      tag_593\n        /* \"#utility.yul\":26885:26889   */\n      dup2\n        /* \"#utility.yul\":26759:26890   */\n      tag_337\n      jump\t// in\n    tag_593:\n        /* \"#utility.yul\":26751:26890   */\n      swap1\n      pop\n        /* \"#utility.yul\":26478:26897   */\n      swap2\n      swap1\n      pop\n      jump\t// out\n        /* \"#utility.yul\":26903:27153   */\n    tag_338:\n        /* \"#utility.yul\":27043:27077   */\n      0x436f6d6d697452657665616c3a3a72657665616c43686f6963653a2052657665\n        /* \"#utility.yul\":27039:27040   */\n      0x00\n        /* \"#utility.yul\":27031:27037   */\n      dup3\n        /* \"#utility.yul\":27027:27041   */\n      add\n        /* \"#utility.yul\":27020:27078   */\n      mstore\n        /* \"#utility.yul\":27112:27145   */\n      0x616c6564206861736820646f6573206e6f74206d6174636820636f6d6d697400\n        /* \"#utility.yul\":27107:27109   */\n      0x20\n        /* \"#utility.yul\":27099:27105   */\n      dup3\n        /* \"#utility.yul\":27095:27110   */\n      add\n        /* \"#utility.yul\":27088:27146   */\n      mstore\n        /* \"#utility.yul\":26903:27153   */\n      pop\n      jump\t// out\n        /* \"#utility.yul\":27159:27525   */\n    tag_339:\n        /* \"#utility.yul\":27301:27304   */\n      0x00\n        /* \"#utility.yul\":27322:27389   */\n      tag_596\n        /* \"#utility.yul\":27386:27388   */\n      0x3f\n        /* \"#utility.yul\":27381:27384   */\n      dup4\n        /* \"#utility.yul\":27322:27389   */\n      tag_286\n      jump\t// in\n    tag_596:\n        /* \"#utility.yul\":27315:27389   */\n      swap2\n      pop\n        /* \"#utility.yul\":27398:27491   */\n      tag_597\n        /* \"#utility.yul\":27487:27490   */\n      dup3\n        /* \"#utility.yul\":27398:27491   */\n      tag_338\n      jump\t// in\n    tag_597:\n        /* \"#utility.yul\":27516:27518   */\n      0x40\n        /* \"#utility.yul\":27511:27514   */\n      dup3\n        /* \"#utility.yul\":27507:27519   */\n      add\n        /* \"#utility.yul\":27500:27519   */\n      swap1\n      pop\n        /* \"#utility.yul\":27159:27525   */\n      swap2\n      swap1\n      pop\n      jump\t// out\n        /* \"#utility.yul\":27531:27950   */\n    tag_265:\n        /* \"#utility.yul\":27697:27701   */\n      0x00\n        /* \"#utility.yul\":27735:27737   */\n      0x20\n        /* \"#utility.yul\":27724:27733   */\n      dup3\n        /* \"#utility.yul\":27720:27738   */\n      add\n        /* \"#utility.yul\":27712:27738   */\n      swap1\n      pop\n        /* \"#utility.yul\":27784:27793   */\n      dup2\n        /* \"#utility.yul\":27778:27782   */\n      dup2\n        /* \"#utility.yul\":27774:27794   */\n      sub\n        /* \"#utility.yul\":27770:27771   */\n      0x00\n        /* \"#utility.yul\":27759:27768   */\n      dup4\n        /* \"#utility.yul\":27755:27772   */\n      add\n        /* \"#utility.yul\":27748:27795   */\n      mstore\n        /* \"#utility.yul\":27812:27943   */\n      tag_599\n        /* \"#utility.yul\":27938:27942   */\n      dup2\n        /* \"#utility.yul\":27812:27943   */\n      tag_339\n      jump\t// in\n    tag_599:\n        /* \"#utility.yul\":27804:27943   */\n      swap1\n      pop\n        /* \"#utility.yul\":27531:27950   */\n      swap2\n      swap1\n      pop\n      jump\t// out\n        /* \"#utility.yul\":27956:28485   */\n    tag_267:\n        /* \"#utility.yul\":28123:28127   */\n      0x00\n        /* \"#utility.yul\":28161:28163   */\n      0x60\n        /* \"#utility.yul\":28150:28159   */\n      dup3\n        /* \"#utility.yul\":28146:28164   */\n      add\n        /* \"#utility.yul\":28138:28164   */\n      swap1\n      pop\n        /* \"#utility.yul\":28174:28245   */\n      tag_601\n        /* \"#utility.yul\":28242:28243   */\n      0x00\n        /* \"#utility.yul\":28231:28240   */\n      dup4\n        /* \"#utility.yul\":28227:28244   */\n      add\n        /* \"#utility.yul\":28218:28224   */\n      dup7\n        /* \"#utility.yul\":28174:28245   */\n      tag_280\n      jump\t// in\n    tag_601:\n        /* \"#utility.yul\":28255:28325   */\n      tag_602\n        /* \"#utility.yul\":28321:28323   */\n      0x20\n        /* \"#utility.yul\":28310:28319   */\n      dup4\n        /* \"#utility.yul\":28306:28324   */\n      add\n        /* \"#utility.yul\":28297:28303   */\n      dup6\n        /* \"#utility.yul\":28255:28325   */\n      tag_275\n      jump\t// in\n    tag_602:\n        /* \"#utility.yul\":28372:28381   */\n      dup2\n        /* \"#utility.yul\":28366:28370   */\n      dup2\n        /* \"#utility.yul\":28362:28382   */\n      sub\n        /* \"#utility.yul\":28357:28359   */\n      0x40\n        /* \"#utility.yul\":28346:28355   */\n      dup4\n        /* \"#utility.yul\":28342:28360   */\n      add\n        /* \"#utility.yul\":28335:28383   */\n      mstore\n        /* \"#utility.yul\":28400:28478   */\n      tag_603\n        /* \"#utility.yul\":28473:28477   */\n      dup2\n        /* \"#utility.yul\":28464:28470   */\n      dup5\n        /* \"#utility.yul\":28400:28478   */\n      tag_289\n      jump\t// in\n    tag_603:\n        /* \"#utility.yul\":28392:28478   */\n      swap1\n      pop\n        /* \"#utility.yul\":27956:28485   */\n      swap5\n      swap4\n      pop\n      pop\n      pop\n      pop\n      jump\t// out\n\n    auxdata: 0xa2646970667358221220dbd1f7612c0e2b1214ae17c39174a8f2fb01e1d0227604932c3d8e1ba886603164736f6c63430008160033\n}\n",
				"bytecode": {
					"linkReferences": {},
					"object": "60806040525f60025f6101000a81548161ffff021916908361ffff160217905550426003555f6008555f60095534801562000038575f80fd5b50604051620029343803806200293483398181016040528101906200005e9190620000ff565b335f806101000a81548173ffffffffffffffffffffffffffffffffffffffff021916908373ffffffffffffffffffffffffffffffffffffffff16021790555083600781905550826004819055508160058190555080600681905550505050506200016e565b5f80fd5b5f819050919050565b620000db81620000c7565b8114620000e6575f80fd5b50565b5f81519050620000f981620000d0565b92915050565b5f805f80608085870312156200011a5762000119620000c3565b5b5f6200012987828801620000e9565b94505060206200013c87828801620000e9565b93505060406200014f87828801620000e9565b92505060606200016287828801620000e9565b91505092959194509250565b6127b8806200017c5f395ff3fe6080604052600436106100dc575f3560e01c806384c9ad6e1161007e57806399023f1b1161005857806399023f1b1461029e578063a11efef4146102c8578063acf1a0ac146102f2578063c9e525df1461031a576100dc565b806384c9ad6e146102205780638da5cb5b1461024a5780638f32d59b14610274576100dc565b80632e1a7d4d116100ba5780632e1a7d4d146101665780632f0bca261461018e57806331081d7e146101ba5780635a07ec0b146101e4576100dc565b80631398e076146100e057806315753ec014610120578063218e8a9e14610136575b5f80fd5b3480156100eb575f80fd5b50610106600480360381019061010191906117a0565b610344565b604051610117959493929190611840565b60405180910390f35b34801561012b575f80fd5b506101346103c6565b005b610150600480360381019061014b91906118c4565b610843565b60405161015d91906118fe565b60405180910390f35b348015610171575f80fd5b5061018c600480360381019061018791906117a0565b610ab3565b005b348015610199575f80fd5b506101a2610cc8565b6040516101b1939291906119a1565b60405180910390f35b3480156101c5575f80fd5b506101ce61104d565b6040516101db91906118fe565b60405180910390f35b3480156101ef575f80fd5b5061020a60048036038101906102059190611b3a565b611053565b6040516102179190611ba3565b60405180910390f35b34801561022b575f80fd5b50610234611087565b60405161024191906118fe565b60405180910390f35b348015610255575f80fd5b5061025e61108d565b60405161026b9190611bbc565b60405180910390f35b34801561027f575f80fd5b506102886110b4565b6040516102959190611bd5565b60405180910390f35b3480156102a9575f80fd5b506102b2611109565b6040516102bf91906118fe565b60405180910390f35b3480156102d3575f80fd5b506102dc61110f565b6040516102e991906118fe565b60405180910390f35b3480156102fd575f80fd5b5061031860048036038101906103139190611bee565b611115565b005b348015610325575f80fd5b5061032e6112ae565b60405161033b91906118fe565b60405180910390f35b600a602052805f5260405f205f91509050805f015f9054906101000a900461ffff1690805f0160029054906101000a900460ff1690805f0160039054906101000a900460ff1690805f0160049054906101000a900460ff1690805f0160059054906101000a900473ffffffffffffffffffffffffffffffffffffffff16905085565b6103ce6110b4565b61040d576040517f08c379a000000000000000000000000000000000000000000000000000000000815260040161040490611cca565b60405180910390fd5b426005546004546003546104219190611d15565b61042b9190611d15565b10801561046057506006546005546004546003546104499190611d15565b6104539190611d15565b61045d9190611d15565b42105b61049f576040517f08c379a000000000000000000000000000000000000000000000000000000000815260040161049690611db8565b60405180910390fd5b5f60085467ffffffffffffffff8111156104bc576104bb611a16565b5b6040519080825280602002602001820160405280156104f557816020015b6104e2611712565b8152602001906001900390816104da5790505b5090505f805b60085481101561076f57600a5f8281526020019081526020015f205f0160039054906101000a900460ff16801561055a57505f61ffff16600a5f8381526020019081526020015f205f015f9054906101000a900461ffff1661ffff1610155b801561059057506103e761ffff16600a5f8381526020019081526020015f205f015f9054906101000a900461ffff1661ffff1611155b1561075857600a5f8281526020019081526020015f205f015f9054906101000a900461ffff168383815181106105c9576105c8611dd6565b5b60200260200101515f019061ffff16908161ffff1681525050600a5f8281526020019081526020015f205f0160059054906101000a900473ffffffffffffffffffffffffffffffffffffffff1683838151811061062957610628611dd6565b5b60200260200101516080019073ffffffffffffffffffffffffffffffffffffffff16908173ffffffffffffffffffffffffffffffffffffffff1681525050600a5f8281526020019081526020015f205f0160029054906101000a900460ff1683838151811061069b5761069a611dd6565b5b60200260200101516020019015159081151581525050600a5f8281526020019081526020015f205f0160039054906101000a900460ff168383815181106106e5576106e4611dd6565b5b60200260200101516040019015159081151581525050600a5f8281526020019081526020015f205f0160049054906101000a900460ff1683838151811061072f5761072e611dd6565b5b60200260200101516060019015159081151581525050818061075090611e03565b925050610762565b610761816112b4565b5b80806001019150506104fb565b505f825f8151811061078457610783611dd6565b5b60200260200101515f015161ffff1690505f600190505b828110156107d6578381815181106107b6576107b5611dd6565b5b60200260200101515f015161ffff1682189150808060010191505061079b565b505f82826040516020016107ea9190611e6a565b604051602081830303815290604052805190602001205f1c61080c9190611eb1565b905061083584828151811061082457610823611dd6565b5b6020026020010151608001516113c1565b61083d6114b5565b50505050565b5f66038d7ea4c68000341461088d576040517f08c379a000000000000000000000000000000000000000000000000000000000815260040161088490611f51565b60405180910390fd5b600754600854106108d3576040517f08c379a00000000000000000000000000000000000000000000000000000000081526004016108ca90612005565b60405180910390fd5b5f60025f9054906101000a900461ffff1661ffff160361091257600160025f6101000a81548161ffff021916908361ffff160217905550426003819055505b6004546003546109229190611d15565b421115610964576040517f08c379a000000000000000000000000000000000000000000000000000000000815260040161095b906120b9565b60405180910390fd5b5f60085490506040518060a001604052805f61ffff1681526020016001151581526020015f151581526020015f151581526020013373ffffffffffffffffffffffffffffffffffffffff16815250600a5f8381526020019081526020015f205f820151815f015f6101000a81548161ffff021916908361ffff1602179055506020820151815f0160026101000a81548160ff0219169083151502179055506040820151815f0160036101000a81548160ff0219169083151502179055506060820151815f0160046101000a81548160ff0219169083151502179055506080820151815f0160056101000a81548173ffffffffffffffffffffffffffffffffffffffff021916908373ffffffffffffffffffffffffffffffffffffffff160217905550905050610a9381846114e8565b60085f815480929190610aa590611e03565b919050555080915050919050565b42600654600554600454600354610aca9190611d15565b610ad49190611d15565b610ade9190611d15565b10610b1e576040517f08c379a0000000000000000000000000000000000000000000000000000000008152600401610b1590612147565b60405180910390fd5b3373ffffffffffffffffffffffffffffffffffffffff16600a5f8381526020019081526020015f205f0160059054906101000a900473ffffffffffffffffffffffffffffffffffffffff1673ffffffffffffffffffffffffffffffffffffffff1614610bbf576040517f08c379a0000000000000000000000000000000000000000000000000000000008152600401610bb6906121fb565b60405180910390fd5b5f1515600a5f8381526020019081526020015f205f0160049054906101000a900460ff16151514610c25576040517f08c379a0000000000000000000000000000000000000000000000000000000008152600401610c1c906122af565b60405180910390fd5b6001600a5f8381526020019081526020015f205f0160046101000a81548160ff0219169083151502179055503373ffffffffffffffffffffffffffffffffffffffff166108fc66038d7ea4c6800090811502906040515f60405180830381858888f19350505050158015610c9b573d5f803e3d5ffd5b5060085f815480929190610cae906122cd565b91905055505f60085403610cc557610cc46114b5565b5b50565b60605f60605f60025f9054906101000a900461ffff1661ffff1603610d39575f6040518060400160405280600481526020017f49646c65000000000000000000000000000000000000000000000000000000008152509060405180602001604052805f815250925092509250611048565b600160025f9054906101000a900461ffff1661ffff160361102157600454600354610d649190611d15565b4211610dfd5742600454600354610d7b9190611d15565b610d8591906122f4565b6040518060400160405280601681526020017f436f6d6d6974205374616765203a20656e6420696e2000000000000000000000815250906040518060400160405280600881526020017f207365636f6e6473000000000000000000000000000000000000000000000000815250925092509250611048565b600554600454600354610e109190611d15565b610e1a9190611d15565b4211610ec05742600554600454600354610e349190611d15565b610e3e9190611d15565b610e4891906122f4565b6040518060400160405280601681526020017f52657665616c205374616765203a20656e6420696e2000000000000000000000815250906040518060400160405280600881526020017f207365636f6e6473000000000000000000000000000000000000000000000000815250925092509250611048565b600654600554600454600354610ed69190611d15565b610ee09190611d15565b610eea9190611d15565b4211610f9d5742600654600554600454600354610f079190611d15565b610f119190611d15565b610f1b9190611d15565b610f2591906122f4565b6040518060400160405280601581526020017f4177617264205374616765203a20656e6420696e200000000000000000000000815250906040518060400160405280600881526020017f207365636f6e6473000000000000000000000000000000000000000000000000815250925092509250611048565b600654600554600454600354610fb39190611d15565b610fbd9190611d15565b610fc79190611d15565b421115611020575f6040518060400160405280600d81526020017f41776172642054696d656f7574000000000000000000000000000000000000008152509060405180602001604052805f815250925092509250611048565b5b5f60405180602001604052805f8152509060405180602001604052805f8152509250925092505b909192565b60065481565b5f308383604051602001611069939291906123da565b60405160208183030381529060405280519060200120905092915050565b60055481565b5f805f9054906101000a900473ffffffffffffffffffffffffffffffffffffffff16905090565b5f805f9054906101000a900473ffffffffffffffffffffffffffffffffffffffff1673ffffffffffffffffffffffffffffffffffffffff163373ffffffffffffffffffffffffffffffffffffffff1614905090565b60035481565b60045481565b426004546003546111269190611d15565b10801561114e57506005546004546003546111419190611d15565b61114b9190611d15565b42105b61118d576040517f08c379a000000000000000000000000000000000000000000000000000000000815260040161118490612482565b60405180910390fd5b3373ffffffffffffffffffffffffffffffffffffffff16600a5f8581526020019081526020015f205f0160059054906101000a900473ffffffffffffffffffffffffffffffffffffffff1673ffffffffffffffffffffffffffffffffffffffff161461122e576040517f08c379a000000000000000000000000000000000000000000000000000000000815260040161122590612536565b60405180910390fd5b6112398383836115e1565b81600a5f8581526020019081526020015f205f015f6101000a81548161ffff021916908361ffff1602179055506001600a5f8581526020019081526020015f205f0160036101000a81548160ff02191690831515021790555060095f8154809291906112a490611e03565b9190505550505050565b60075481565b5f6064606266038d7ea4c680006112cb9190612554565b6112d59190612595565b90505f6064600266038d7ea4c680006112ee9190612554565b6112f89190612595565b9050600a5f8481526020019081526020015f205f0160059054906101000a900473ffffffffffffffffffffffffffffffffffffffff1673ffffffffffffffffffffffffffffffffffffffff166108fc8390811502906040515f60405180830381858888f19350505050158015611370573d5f803e3d5ffd5b5061137961108d565b73ffffffffffffffffffffffffffffffffffffffff166108fc8290811502906040515f60405180830381858888f193505050501580156113bb573d5f803e3d5ffd5b50505050565b5f6064606260095466038d7ea4c680006113db9190612554565b6113e59190612554565b6113ef9190612595565b90505f6064600260095466038d7ea4c6800061140b9190612554565b6114159190612554565b61141f9190612595565b90508273ffffffffffffffffffffffffffffffffffffffff166108fc8390811502906040515f60405180830381858888f19350505050158015611464573d5f803e3d5ffd5b5061146d61108d565b73ffffffffffffffffffffffffffffffffffffffff166108fc8290811502906040515f60405180830381858888f193505050501580156114af573d5f803e3d5ffd5b50505050565b5f60025f6101000a81548161ffff021916908361ffff1602179055505f6008819055505f60098190555042600381905550565b8060015f8481526020019081526020015f205f01819055504360015f8481526020019081526020015f206001015f6101000a81548167ffffffffffffffff021916908367ffffffffffffffff1602179055505f60015f8481526020019081526020015f2060010160086101000a81548160ff0219169083151502179055507fb7ce637f0652efa186adedccc22b6809dc1c12dc3b3bf096df581f3b1fe1b3db338360015f8681526020019081526020015f205f015460015f8781526020019081526020015f206001015f9054906101000a900467ffffffffffffffff166040516115d594939291906125e7565b60405180910390a15050565b5f151560015f8581526020019081526020015f2060010160089054906101000a900460ff16151514611648576040517f08c379a000000000000000000000000000000000000000000000000000000000815260040161163f9061269a565b60405180910390fd5b6001805f8581526020019081526020015f2060010160086101000a81548160ff02191690831515021790555060015f8481526020019081526020015f205f01546116928383611053565b146116d2576040517f08c379a00000000000000000000000000000000000000000000000000000000081526004016116c990612728565b60405180910390fd5b7fd59eb094a5bc7d37ee78628b6a471a4a62c3148908d3efdae106802c4698b13433838360405161170593929190612746565b60405180910390a1505050565b6040518060a001604052805f61ffff1681526020015f151581526020015f151581526020015f151581526020015f73ffffffffffffffffffffffffffffffffffffffff1681525090565b5f604051905090565b5f80fd5b5f80fd5b5f819050919050565b61177f8161176d565b8114611789575f80fd5b50565b5f8135905061179a81611776565b92915050565b5f602082840312156117b5576117b4611765565b5b5f6117c28482850161178c565b91505092915050565b5f61ffff82169050919050565b6117e1816117cb565b82525050565b5f8115159050919050565b6117fb816117e7565b82525050565b5f73ffffffffffffffffffffffffffffffffffffffff82169050919050565b5f61182a82611801565b9050919050565b61183a81611820565b82525050565b5f60a0820190506118535f8301886117d8565b61186060208301876117f2565b61186d60408301866117f2565b61187a60608301856117f2565b6118876080830184611831565b9695505050505050565b5f819050919050565b6118a381611891565b81146118ad575f80fd5b50565b5f813590506118be8161189a565b92915050565b5f602082840312156118d9576118d8611765565b5b5f6118e6848285016118b0565b91505092915050565b6118f88161176d565b82525050565b5f6020820190506119115f8301846118ef565b92915050565b5f81519050919050565b5f82825260208201905092915050565b5f5b8381101561194e578082015181840152602081019050611933565b5f8484015250505050565b5f601f19601f8301169050919050565b5f61197382611917565b61197d8185611921565b935061198d818560208601611931565b61199681611959565b840191505092915050565b5f6060820190508181035f8301526119b98186611969565b90506119c860208301856118ef565b81810360408301526119da8184611969565b9050949350505050565b6119ed816117cb565b81146119f7575f80fd5b50565b5f81359050611a08816119e4565b92915050565b5f80fd5b5f80fd5b7f4e487b71000000000000000000000000000000000000000000000000000000005f52604160045260245ffd5b611a4c82611959565b810181811067ffffffffffffffff82111715611a6b57611a6a611a16565b5b80604052505050565b5f611a7d61175c565b9050611a898282611a43565b919050565b5f67ffffffffffffffff821115611aa857611aa7611a16565b5b611ab182611959565b9050602081019050919050565b828183375f83830152505050565b5f611ade611ad984611a8e565b611a74565b905082815260208101848484011115611afa57611af9611a12565b5b611b05848285611abe565b509392505050565b5f82601f830112611b2157611b20611a0e565b5b8135611b31848260208601611acc565b91505092915050565b5f8060408385031215611b5057611b4f611765565b5b5f611b5d858286016119fa565b925050602083013567ffffffffffffffff811115611b7e57611b7d611769565b5b611b8a85828601611b0d565b9150509250929050565b611b9d81611891565b82525050565b5f602082019050611bb65f830184611b94565b92915050565b5f602082019050611bcf5f830184611831565b92915050565b5f602082019050611be85f8301846117f2565b92915050565b5f805f60608486031215611c0557611c04611765565b5b5f611c128682870161178c565b9350506020611c23868287016119fa565b925050604084013567ffffffffffffffff811115611c4457611c43611769565b5b611c5086828701611b0d565b9150509250925092565b7f4f776e61626c653a206f6e6c79206f776e65722063616e2063616c6c207468695f8201527f732066756e6374696f6e00000000000000000000000000000000000000000000602082015250565b5f611cb4602a83611921565b9150611cbf82611c5a565b604082019050919050565b5f6020820190508181035f830152611ce181611ca8565b9050919050565b7f4e487b71000000000000000000000000000000000000000000000000000000005f52601160045260245ffd5b5f611d1f8261176d565b9150611d2a8361176d565b9250828201905080821115611d4257611d41611ce8565b5b92915050565b7f4d756c746950617274794c6f74746572793a3a61776172644c6f74746572793a5f8201527f2047616d65206973206e6f7420696e2061776172642073746167650000000000602082015250565b5f611da2603b83611921565b9150611dad82611d48565b604082019050919050565b5f6020820190508181035f830152611dcf81611d96565b9050919050565b7f4e487b71000000000000000000000000000000000000000000000000000000005f52603260045260245ffd5b5f611e0d8261176d565b91507fffffffffffffffffffffffffffffffffffffffffffffffffffffffffffffffff8203611e3f57611e3e611ce8565b5b600182019050919050565b5f819050919050565b611e64611e5f8261176d565b611e4a565b82525050565b5f611e758284611e53565b60208201915081905092915050565b7f4e487b71000000000000000000000000000000000000000000000000000000005f52601260045260245ffd5b5f611ebb8261176d565b9150611ec68361176d565b925082611ed657611ed5611e84565b5b828206905092915050565b7f72657175697265204c6f74746572794665652028302e303031206574686572295f8201527f20746f2070617274696369706174650000000000000000000000000000000000602082015250565b5f611f3b602f83611921565b9150611f4682611ee1565b604082019050919050565b5f6020820190508181035f830152611f6881611f2f565b9050919050565b7f4d756c746950617274794c6f74746572793a3a636f6d6d6974486173684c6f745f8201527f746572793a204d6178696d756d206e756d626572206f6620706c61796572732060208201527f6c696d6974206578636565646564000000000000000000000000000000000000604082015250565b5f611fef604e83611921565b9150611ffa82611f6f565b606082019050919050565b5f6020820190508181035f83015261201c81611fe3565b9050919050565b7f4d756c746950617274794c6f74746572793a3a636f6d6d6974486173684c6f745f8201527f746572793a2047616d65206973206e6f7420696e20636f6d6d6974207374616760208201527f6500000000000000000000000000000000000000000000000000000000000000604082015250565b5f6120a3604183611921565b91506120ae82612023565b606082019050919050565b5f6020820190508181035f8301526120d081612097565b9050919050565b7f4d756c746950617274794c6f74746572793a3a77697468647261773a2047616d5f8201527f65206973206e6f7420696e2061776172642074696d656f757420737461676500602082015250565b5f612131603f83611921565b915061213c826120d7565b604082019050919050565b5f6020820190508181035f83015261215e81612125565b9050919050565b7f4d756c746950617274794c6f74746572793a3a77697468647261773a20596f755f8201527f20617265206e6f7420746865206f776e6572206f662074686973206c6f74746560208201527f7279000000000000000000000000000000000000000000000000000000000000604082015250565b5f6121e5604283611921565b91506121f082612165565b606082019050919050565b5f6020820190508181035f830152612212816121d9565b9050919050565b7f4d756c746950617274794c6f74746572793a3a77697468647261773a20596f755f8201527f206861766520616c72656164792077697468647261776e2074686973206c6f7460208201527f7465727900000000000000000000000000000000000000000000000000000000604082015250565b5f612299604483611921565b91506122a482612219565b606082019050919050565b5f6020820190508181035f8301526122c68161228d565b9050919050565b5f6122d78261176d565b91505f82036122e9576122e8611ce8565b5b600182039050919050565b5f6122fe8261176d565b91506123098361176d565b925082820390508181111561232157612320611ce8565b5b92915050565b5f8160601b9050919050565b5f61233d82612327565b9050919050565b5f61234e82612333565b9050919050565b61236661236182611820565b612344565b82525050565b5f8160f01b9050919050565b5f6123828261236c565b9050919050565b61239a612395826117cb565b612378565b82525050565b5f81905092915050565b5f6123b482611917565b6123be81856123a0565b93506123ce818560208601611931565b80840191505092915050565b5f6123e58286612355565b6014820191506123f58285612389565b60028201915061240582846123aa565b9150819050949350505050565b7f4d756c746950617274794c6f74746572793a3a72657665616c4c6f74746572795f8201527f3a2047616d65206973206e6f7420696e2072657665616c207374616765000000602082015250565b5f61246c603d83611921565b915061247782612412565b604082019050919050565b5f6020820190508181035f83015261249981612460565b9050919050565b7f4d756c746950617274794c6f74746572793a3a72657665616c4c6f74746572795f8201527f3a20596f7520617265206e6f7420746865206f776e6572206f6620746869732060208201527f6c6f747465727900000000000000000000000000000000000000000000000000604082015250565b5f612520604783611921565b915061252b826124a0565b606082019050919050565b5f6020820190508181035f83015261254d81612514565b9050919050565b5f61255e8261176d565b91506125698361176d565b92508282026125778161176d565b9150828204841483151761258e5761258d611ce8565b5b5092915050565b5f61259f8261176d565b91506125aa8361176d565b9250826125ba576125b9611e84565b5b828204905092915050565b5f67ffffffffffffffff82169050919050565b6125e1816125c5565b82525050565b5f6080820190506125fa5f830187611831565b61260760208301866118ef565b6126146040830185611b94565b61262160608301846125d8565b95945050505050565b7f436f6d6d697452657665616c3a3a72657665616c43686f6963653a20416c72655f8201527f6164792072657665616c65640000000000000000000000000000000000000000602082015250565b5f612684602c83611921565b915061268f8261262a565b604082019050919050565b5f6020820190508181035f8301526126b181612678565b9050919050565b7f436f6d6d697452657665616c3a3a72657665616c43686f6963653a20526576655f8201527f616c6564206861736820646f6573206e6f74206d6174636820636f6d6d697400602082015250565b5f612712603f83611921565b915061271d826126b8565b604082019050919050565b5f6020820190508181035f83015261273f81612706565b9050919050565b5f6060820190506127595f830186611831565b61276660208301856117d8565b81810360408301526127788184611969565b905094935050505056fea2646970667358221220dbd1f7612c0e2b1214ae17c39174a8f2fb01e1d0227604932c3d8e1ba886603164736f6c63430008160033",
					"opcodes": "PUSH1 0x80 PUSH1 0x40 MSTORE PUSH0 PUSH1 0x2 PUSH0 PUSH2 0x100 EXP DUP2 SLOAD DUP2 PUSH2 0xFFFF MUL NOT AND SWAP1 DUP4 PUSH2 0xFFFF AND MUL OR SWAP1 SSTORE POP TIMESTAMP PUSH1 0x3 SSTORE PUSH0 PUSH1 0x8 SSTORE PUSH0 PUSH1 0x9 SSTORE CALLVALUE DUP1 ISZERO PUSH3 0x38 JUMPI PUSH0 DUP1 REVERT JUMPDEST POP PUSH1 0x40 MLOAD PUSH3 0x2934 CODESIZE SUB DUP1 PUSH3 0x2934 DUP4 CODECOPY DUP2 DUP2 ADD PUSH1 0x40 MSTORE DUP2 ADD SWAP1 PUSH3 0x5E SWAP2 SWAP1 PUSH3 0xFF JUMP JUMPDEST CALLER PUSH0 DUP1 PUSH2 0x100 EXP DUP2 SLOAD DUP2 PUSH20 0xFFFFFFFFFFFFFFFFFFFFFFFFFFFFFFFFFFFFFFFF MUL NOT AND SWAP1 DUP4 PUSH20 0xFFFFFFFFFFFFFFFFFFFFFFFFFFFFFFFFFFFFFFFF AND MUL OR SWAP1 SSTORE POP DUP4 PUSH1 0x7 DUP2 SWAP1 SSTORE POP DUP3 PUSH1 0x4 DUP2 SWAP1 SSTORE POP DUP2 PUSH1 0x5 DUP2 SWAP1 SSTORE POP DUP1 PUSH1 0x6 DUP2 SWAP1 SSTORE POP POP POP POP POP PUSH3 0x16E JUMP JUMPDEST PUSH0 DUP1 REVERT JUMPDEST PUSH0 DUP2 SWAP1 POP SWAP2 SWAP1 POP JUMP JUMPDEST PUSH3 0xDB DUP2 PUSH3 0xC7 JUMP JUMPDEST DUP2 EQ PUSH3 0xE6 JUMPI PUSH0 DUP1 REVERT JUMPDEST POP JUMP JUMPDEST PUSH0 DUP2 MLOAD SWAP1 POP PUSH3 0xF9 DUP2 PUSH3 0xD0 JUMP JUMPDEST SWAP3 SWAP2 POP POP JUMP JUMPDEST PUSH0 DUP1 PUSH0 DUP1 PUSH1 0x80 DUP6 DUP8 SUB SLT ISZERO PUSH3 0x11A JUMPI PUSH3 0x119 PUSH3 0xC3 JUMP JUMPDEST JUMPDEST PUSH0 PUSH3 0x129 DUP8 DUP3 DUP9 ADD PUSH3 0xE9 JUMP JUMPDEST SWAP5 POP POP PUSH1 0x20 PUSH3 0x13C DUP8 DUP3 DUP9 ADD PUSH3 0xE9 JUMP JUMPDEST SWAP4 POP POP PUSH1 0x40 PUSH3 0x14F DUP8 DUP3 DUP9 ADD PUSH3 0xE9 JUMP JUMPDEST SWAP3 POP POP PUSH1 0x60 PUSH3 0x162 DUP8 DUP3 DUP9 ADD PUSH3 0xE9 JUMP JUMPDEST SWAP2 POP POP SWAP3 SWAP6 SWAP2 SWAP5 POP SWAP3 POP JUMP JUMPDEST PUSH2 0x27B8 DUP1 PUSH3 0x17C PUSH0 CODECOPY PUSH0 RETURN INVALID PUSH1 0x80 PUSH1 0x40 MSTORE PUSH1 0x4 CALLDATASIZE LT PUSH2 0xDC JUMPI PUSH0 CALLDATALOAD PUSH1 0xE0 SHR DUP1 PUSH4 0x84C9AD6E GT PUSH2 0x7E JUMPI DUP1 PUSH4 0x99023F1B GT PUSH2 0x58 JUMPI DUP1 PUSH4 0x99023F1B EQ PUSH2 0x29E JUMPI DUP1 PUSH4 0xA11EFEF4 EQ PUSH2 0x2C8 JUMPI DUP1 PUSH4 0xACF1A0AC EQ PUSH2 0x2F2 JUMPI DUP1 PUSH4 0xC9E525DF EQ PUSH2 0x31A JUMPI PUSH2 0xDC JUMP JUMPDEST DUP1 PUSH4 0x84C9AD6E EQ PUSH2 0x220 JUMPI DUP1 PUSH4 0x8DA5CB5B EQ PUSH2 0x24A JUMPI DUP1 PUSH4 0x8F32D59B EQ PUSH2 0x274 JUMPI PUSH2 0xDC JUMP JUMPDEST DUP1 PUSH4 0x2E1A7D4D GT PUSH2 0xBA JUMPI DUP1 PUSH4 0x2E1A7D4D EQ PUSH2 0x166 JUMPI DUP1 PUSH4 0x2F0BCA26 EQ PUSH2 0x18E JUMPI DUP1 PUSH4 0x31081D7E EQ PUSH2 0x1BA JUMPI DUP1 PUSH4 0x5A07EC0B EQ PUSH2 0x1E4 JUMPI PUSH2 0xDC JUMP JUMPDEST DUP1 PUSH4 0x1398E076 EQ PUSH2 0xE0 JUMPI DUP1 PUSH4 0x15753EC0 EQ PUSH2 0x120 JUMPI DUP1 PUSH4 0x218E8A9E EQ PUSH2 0x136 JUMPI JUMPDEST PUSH0 DUP1 REVERT JUMPDEST CALLVALUE DUP1 ISZERO PUSH2 0xEB JUMPI PUSH0 DUP1 REVERT JUMPDEST POP PUSH2 0x106 PUSH1 0x4 DUP1 CALLDATASIZE SUB DUP2 ADD SWAP1 PUSH2 0x101 SWAP2 SWAP1 PUSH2 0x17A0 JUMP JUMPDEST PUSH2 0x344 JUMP JUMPDEST PUSH1 0x40 MLOAD PUSH2 0x117 SWAP6 SWAP5 SWAP4 SWAP3 SWAP2 SWAP1 PUSH2 0x1840 JUMP JUMPDEST PUSH1 0x40 MLOAD DUP1 SWAP2 SUB SWAP1 RETURN JUMPDEST CALLVALUE DUP1 ISZERO PUSH2 0x12B JUMPI PUSH0 DUP1 REVERT JUMPDEST POP PUSH2 0x134 PUSH2 0x3C6 JUMP JUMPDEST STOP JUMPDEST PUSH2 0x150 PUSH1 0x4 DUP1 CALLDATASIZE SUB DUP2 ADD SWAP1 PUSH2 0x14B SWAP2 SWAP1 PUSH2 0x18C4 JUMP JUMPDEST PUSH2 0x843 JUMP JUMPDEST PUSH1 0x40 MLOAD PUSH2 0x15D SWAP2 SWAP1 PUSH2 0x18FE JUMP JUMPDEST PUSH1 0x40 MLOAD DUP1 SWAP2 SUB SWAP1 RETURN JUMPDEST CALLVALUE DUP1 ISZERO PUSH2 0x171 JUMPI PUSH0 DUP1 REVERT JUMPDEST POP PUSH2 0x18C PUSH1 0x4 DUP1 CALLDATASIZE SUB DUP2 ADD SWAP1 PUSH2 0x187 SWAP2 SWAP1 PUSH2 0x17A0 JUMP JUMPDEST PUSH2 0xAB3 JUMP JUMPDEST STOP JUMPDEST CALLVALUE DUP1 ISZERO PUSH2 0x199 JUMPI PUSH0 DUP1 REVERT JUMPDEST POP PUSH2 0x1A2 PUSH2 0xCC8 JUMP JUMPDEST PUSH1 0x40 MLOAD PUSH2 0x1B1 SWAP4 SWAP3 SWAP2 SWAP1 PUSH2 0x19A1 JUMP JUMPDEST PUSH1 0x40 MLOAD DUP1 SWAP2 SUB SWAP1 RETURN JUMPDEST CALLVALUE DUP1 ISZERO PUSH2 0x1C5 JUMPI PUSH0 DUP1 REVERT JUMPDEST POP PUSH2 0x1CE PUSH2 0x104D JUMP JUMPDEST PUSH1 0x40 MLOAD PUSH2 0x1DB SWAP2 SWAP1 PUSH2 0x18FE JUMP JUMPDEST PUSH1 0x40 MLOAD DUP1 SWAP2 SUB SWAP1 RETURN JUMPDEST CALLVALUE DUP1 ISZERO PUSH2 0x1EF JUMPI PUSH0 DUP1 REVERT JUMPDEST POP PUSH2 0x20A PUSH1 0x4 DUP1 CALLDATASIZE SUB DUP2 ADD SWAP1 PUSH2 0x205 SWAP2 SWAP1 PUSH2 0x1B3A JUMP JUMPDEST PUSH2 0x1053 JUMP JUMPDEST PUSH1 0x40 MLOAD PUSH2 0x217 SWAP2 SWAP1 PUSH2 0x1BA3 JUMP JUMPDEST PUSH1 0x40 MLOAD DUP1 SWAP2 SUB SWAP1 RETURN JUMPDEST CALLVALUE DUP1 ISZERO PUSH2 0x22B JUMPI PUSH0 DUP1 REVERT JUMPDEST POP PUSH2 0x234 PUSH2 0x1087 JUMP JUMPDEST PUSH1 0x40 MLOAD PUSH2 0x241 SWAP2 SWAP1 PUSH2 0x18FE JUMP JUMPDEST PUSH1 0x40 MLOAD DUP1 SWAP2 SUB SWAP1 RETURN JUMPDEST CALLVALUE DUP1 ISZERO PUSH2 0x255 JUMPI PUSH0 DUP1 REVERT JUMPDEST POP PUSH2 0x25E PUSH2 0x108D JUMP JUMPDEST PUSH1 0x40 MLOAD PUSH2 0x26B SWAP2 SWAP1 PUSH2 0x1BBC JUMP JUMPDEST PUSH1 0x40 MLOAD DUP1 SWAP2 SUB SWAP1 RETURN JUMPDEST CALLVALUE DUP1 ISZERO PUSH2 0x27F JUMPI PUSH0 DUP1 REVERT JUMPDEST POP PUSH2 0x288 PUSH2 0x10B4 JUMP JUMPDEST PUSH1 0x40 MLOAD PUSH2 0x295 SWAP2 SWAP1 PUSH2 0x1BD5 JUMP JUMPDEST PUSH1 0x40 MLOAD DUP1 SWAP2 SUB SWAP1 RETURN JUMPDEST CALLVALUE DUP1 ISZERO PUSH2 0x2A9 JUMPI PUSH0 DUP1 REVERT JUMPDEST POP PUSH2 0x2B2 PUSH2 0x1109 JUMP JUMPDEST PUSH1 0x40 MLOAD PUSH2 0x2BF SWAP2 SWAP1 PUSH2 0x18FE JUMP JUMPDEST PUSH1 0x40 MLOAD DUP1 SWAP2 SUB SWAP1 RETURN JUMPDEST CALLVALUE DUP1 ISZERO PUSH2 0x2D3 JUMPI PUSH0 DUP1 REVERT JUMPDEST POP PUSH2 0x2DC PUSH2 0x110F JUMP JUMPDEST PUSH1 0x40 MLOAD PUSH2 0x2E9 SWAP2 SWAP1 PUSH2 0x18FE JUMP JUMPDEST PUSH1 0x40 MLOAD DUP1 SWAP2 SUB SWAP1 RETURN JUMPDEST CALLVALUE DUP1 ISZERO PUSH2 0x2FD JUMPI PUSH0 DUP1 REVERT JUMPDEST POP PUSH2 0x318 PUSH1 0x4 DUP1 CALLDATASIZE SUB DUP2 ADD SWAP1 PUSH2 0x313 SWAP2 SWAP1 PUSH2 0x1BEE JUMP JUMPDEST PUSH2 0x1115 JUMP JUMPDEST STOP JUMPDEST CALLVALUE DUP1 ISZERO PUSH2 0x325 JUMPI PUSH0 DUP1 REVERT JUMPDEST POP PUSH2 0x32E PUSH2 0x12AE JUMP JUMPDEST PUSH1 0x40 MLOAD PUSH2 0x33B SWAP2 SWAP1 PUSH2 0x18FE JUMP JUMPDEST PUSH1 0x40 MLOAD DUP1 SWAP2 SUB SWAP1 RETURN JUMPDEST PUSH1 0xA PUSH1 0x20 MSTORE DUP1 PUSH0 MSTORE PUSH1 0x40 PUSH0 KECCAK256 PUSH0 SWAP2 POP SWAP1 POP DUP1 PUSH0 ADD PUSH0 SWAP1 SLOAD SWAP1 PUSH2 0x100 EXP SWAP1 DIV PUSH2 0xFFFF AND SWAP1 DUP1 PUSH0 ADD PUSH1 0x2 SWAP1 SLOAD SWAP1 PUSH2 0x100 EXP SWAP1 DIV PUSH1 0xFF AND SWAP1 DUP1 PUSH0 ADD PUSH1 0x3 SWAP1 SLOAD SWAP1 PUSH2 0x100 EXP SWAP1 DIV PUSH1 0xFF AND SWAP1 DUP1 PUSH0 ADD PUSH1 0x4 SWAP1 SLOAD SWAP1 PUSH2 0x100 EXP SWAP1 DIV PUSH1 0xFF AND SWAP1 DUP1 PUSH0 ADD PUSH1 0x5 SWAP1 SLOAD SWAP1 PUSH2 0x100 EXP SWAP1 DIV PUSH20 0xFFFFFFFFFFFFFFFFFFFFFFFFFFFFFFFFFFFFFFFF AND SWAP1 POP DUP6 JUMP JUMPDEST PUSH2 0x3CE PUSH2 0x10B4 JUMP JUMPDEST PUSH2 0x40D JUMPI PUSH1 0x40 MLOAD PUSH32 0x8C379A000000000000000000000000000000000000000000000000000000000 DUP2 MSTORE PUSH1 0x4 ADD PUSH2 0x404 SWAP1 PUSH2 0x1CCA JUMP JUMPDEST PUSH1 0x40 MLOAD DUP1 SWAP2 SUB SWAP1 REVERT JUMPDEST TIMESTAMP PUSH1 0x5 SLOAD PUSH1 0x4 SLOAD PUSH1 0x3 SLOAD PUSH2 0x421 SWAP2 SWAP1 PUSH2 0x1D15 JUMP JUMPDEST PUSH2 0x42B SWAP2 SWAP1 PUSH2 0x1D15 JUMP JUMPDEST LT DUP1 ISZERO PUSH2 0x460 JUMPI POP PUSH1 0x6 SLOAD PUSH1 0x5 SLOAD PUSH1 0x4 SLOAD PUSH1 0x3 SLOAD PUSH2 0x449 SWAP2 SWAP1 PUSH2 0x1D15 JUMP JUMPDEST PUSH2 0x453 SWAP2 SWAP1 PUSH2 0x1D15 JUMP JUMPDEST PUSH2 0x45D SWAP2 SWAP1 PUSH2 0x1D15 JUMP JUMPDEST TIMESTAMP LT JUMPDEST PUSH2 0x49F JUMPI PUSH1 0x40 MLOAD PUSH32 0x8C379A000000000000000000000000000000000000000000000000000000000 DUP2 MSTORE PUSH1 0x4 ADD PUSH2 0x496 SWAP1 PUSH2 0x1DB8 JUMP JUMPDEST PUSH1 0x40 MLOAD DUP1 SWAP2 SUB SWAP1 REVERT JUMPDEST PUSH0 PUSH1 0x8 SLOAD PUSH8 0xFFFFFFFFFFFFFFFF DUP2 GT ISZERO PUSH2 0x4BC JUMPI PUSH2 0x4BB PUSH2 0x1A16 JUMP JUMPDEST JUMPDEST PUSH1 0x40 MLOAD SWAP1 DUP1 DUP3 MSTORE DUP1 PUSH1 0x20 MUL PUSH1 0x20 ADD DUP3 ADD PUSH1 0x40 MSTORE DUP1 ISZERO PUSH2 0x4F5 JUMPI DUP2 PUSH1 0x20 ADD JUMPDEST PUSH2 0x4E2 PUSH2 0x1712 JUMP JUMPDEST DUP2 MSTORE PUSH1 0x20 ADD SWAP1 PUSH1 0x1 SWAP1 SUB SWAP1 DUP2 PUSH2 0x4DA JUMPI SWAP1 POP JUMPDEST POP SWAP1 POP PUSH0 DUP1 JUMPDEST PUSH1 0x8 SLOAD DUP2 LT ISZERO PUSH2 0x76F JUMPI PUSH1 0xA PUSH0 DUP3 DUP2 MSTORE PUSH1 0x20 ADD SWAP1 DUP2 MSTORE PUSH1 0x20 ADD PUSH0 KECCAK256 PUSH0 ADD PUSH1 0x3 SWAP1 SLOAD SWAP1 PUSH2 0x100 EXP SWAP1 DIV PUSH1 0xFF AND DUP1 ISZERO PUSH2 0x55A JUMPI POP PUSH0 PUSH2 0xFFFF AND PUSH1 0xA PUSH0 DUP4 DUP2 MSTORE PUSH1 0x20 ADD SWAP1 DUP2 MSTORE PUSH1 0x20 ADD PUSH0 KECCAK256 PUSH0 ADD PUSH0 SWAP1 SLOAD SWAP1 PUSH2 0x100 EXP SWAP1 DIV PUSH2 0xFFFF AND PUSH2 0xFFFF AND LT ISZERO JUMPDEST DUP1 ISZERO PUSH2 0x590 JUMPI POP PUSH2 0x3E7 PUSH2 0xFFFF AND PUSH1 0xA PUSH0 DUP4 DUP2 MSTORE PUSH1 0x20 ADD SWAP1 DUP2 MSTORE PUSH1 0x20 ADD PUSH0 KECCAK256 PUSH0 ADD PUSH0 SWAP1 SLOAD SWAP1 PUSH2 0x100 EXP SWAP1 DIV PUSH2 0xFFFF AND PUSH2 0xFFFF AND GT ISZERO JUMPDEST ISZERO PUSH2 0x758 JUMPI PUSH1 0xA PUSH0 DUP3 DUP2 MSTORE PUSH1 0x20 ADD SWAP1 DUP2 MSTORE PUSH1 0x20 ADD PUSH0 KECCAK256 PUSH0 ADD PUSH0 SWAP1 SLOAD SWAP1 PUSH2 0x100 EXP SWAP1 DIV PUSH2 0xFFFF AND DUP4 DUP4 DUP2 MLOAD DUP2 LT PUSH2 0x5C9 JUMPI PUSH2 0x5C8 PUSH2 0x1DD6 JUMP JUMPDEST JUMPDEST PUSH1 0x20 MUL PUSH1 0x20 ADD ADD MLOAD PUSH0 ADD SWAP1 PUSH2 0xFFFF AND SWAP1 DUP2 PUSH2 0xFFFF AND DUP2 MSTORE POP POP PUSH1 0xA PUSH0 DUP3 DUP2 MSTORE PUSH1 0x20 ADD SWAP1 DUP2 MSTORE PUSH1 0x20 ADD PUSH0 KECCAK256 PUSH0 ADD PUSH1 0x5 SWAP1 SLOAD SWAP1 PUSH2 0x100 EXP SWAP1 DIV PUSH20 0xFFFFFFFFFFFFFFFFFFFFFFFFFFFFFFFFFFFFFFFF AND DUP4 DUP4 DUP2 MLOAD DUP2 LT PUSH2 0x629 JUMPI PUSH2 0x628 PUSH2 0x1DD6 JUMP JUMPDEST JUMPDEST PUSH1 0x20 MUL PUSH1 0x20 ADD ADD MLOAD PUSH1 0x80 ADD SWAP1 PUSH20 0xFFFFFFFFFFFFFFFFFFFFFFFFFFFFFFFFFFFFFFFF AND SWAP1 DUP2 PUSH20 0xFFFFFFFFFFFFFFFFFFFFFFFFFFFFFFFFFFFFFFFF AND DUP2 MSTORE POP POP PUSH1 0xA PUSH0 DUP3 DUP2 MSTORE PUSH1 0x20 ADD SWAP1 DUP2 MSTORE PUSH1 0x20 ADD PUSH0 KECCAK256 PUSH0 ADD PUSH1 0x2 SWAP1 SLOAD SWAP1 PUSH2 0x100 EXP SWAP1 DIV PUSH1 0xFF AND DUP4 DUP4 DUP2 MLOAD DUP2 LT PUSH2 0x69B JUMPI PUSH2 0x69A PUSH2 0x1DD6 JUMP JUMPDEST JUMPDEST PUSH1 0x20 MUL PUSH1 0x20 ADD ADD MLOAD PUSH1 0x20 ADD SWAP1 ISZERO ISZERO SWAP1 DUP2 ISZERO ISZERO DUP2 MSTORE POP POP PUSH1 0xA PUSH0 DUP3 DUP2 MSTORE PUSH1 0x20 ADD SWAP1 DUP2 MSTORE PUSH1 0x20 ADD PUSH0 KECCAK256 PUSH0 ADD PUSH1 0x3 SWAP1 SLOAD SWAP1 PUSH2 0x100 EXP SWAP1 DIV PUSH1 0xFF AND DUP4 DUP4 DUP2 MLOAD DUP2 LT PUSH2 0x6E5 JUMPI PUSH2 0x6E4 PUSH2 0x1DD6 JUMP JUMPDEST JUMPDEST PUSH1 0x20 MUL PUSH1 0x20 ADD ADD MLOAD PUSH1 0x40 ADD SWAP1 ISZERO ISZERO SWAP1 DUP2 ISZERO ISZERO DUP2 MSTORE POP POP PUSH1 0xA PUSH0 DUP3 DUP2 MSTORE PUSH1 0x20 ADD SWAP1 DUP2 MSTORE PUSH1 0x20 ADD PUSH0 KECCAK256 PUSH0 ADD PUSH1 0x4 SWAP1 SLOAD SWAP1 PUSH2 0x100 EXP SWAP1 DIV PUSH1 0xFF AND DUP4 DUP4 DUP2 MLOAD DUP2 LT PUSH2 0x72F JUMPI PUSH2 0x72E PUSH2 0x1DD6 JUMP JUMPDEST JUMPDEST PUSH1 0x20 MUL PUSH1 0x20 ADD ADD MLOAD PUSH1 0x60 ADD SWAP1 ISZERO ISZERO SWAP1 DUP2 ISZERO ISZERO DUP2 MSTORE POP POP DUP2 DUP1 PUSH2 0x750 SWAP1 PUSH2 0x1E03 JUMP JUMPDEST SWAP3 POP POP PUSH2 0x762 JUMP JUMPDEST PUSH2 0x761 DUP2 PUSH2 0x12B4 JUMP JUMPDEST JUMPDEST DUP1 DUP1 PUSH1 0x1 ADD SWAP2 POP POP PUSH2 0x4FB JUMP JUMPDEST POP PUSH0 DUP3 PUSH0 DUP2 MLOAD DUP2 LT PUSH2 0x784 JUMPI PUSH2 0x783 PUSH2 0x1DD6 JUMP JUMPDEST JUMPDEST PUSH1 0x20 MUL PUSH1 0x20 ADD ADD MLOAD PUSH0 ADD MLOAD PUSH2 0xFFFF AND SWAP1 POP PUSH0 PUSH1 0x1 SWAP1 POP JUMPDEST DUP3 DUP2 LT ISZERO PUSH2 0x7D6 JUMPI DUP4 DUP2 DUP2 MLOAD DUP2 LT PUSH2 0x7B6 JUMPI PUSH2 0x7B5 PUSH2 0x1DD6 JUMP JUMPDEST JUMPDEST PUSH1 0x20 MUL PUSH1 0x20 ADD ADD MLOAD PUSH0 ADD MLOAD PUSH2 0xFFFF AND DUP3 XOR SWAP2 POP DUP1 DUP1 PUSH1 0x1 ADD SWAP2 POP POP PUSH2 0x79B JUMP JUMPDEST POP PUSH0 DUP3 DUP3 PUSH1 0x40 MLOAD PUSH1 0x20 ADD PUSH2 0x7EA SWAP2 SWAP1 PUSH2 0x1E6A JUMP JUMPDEST PUSH1 0x40 MLOAD PUSH1 0x20 DUP2 DUP4 SUB SUB DUP2 MSTORE SWAP1 PUSH1 0x40 MSTORE DUP1 MLOAD SWAP1 PUSH1 0x20 ADD KECCAK256 PUSH0 SHR PUSH2 0x80C SWAP2 SWAP1 PUSH2 0x1EB1 JUMP JUMPDEST SWAP1 POP PUSH2 0x835 DUP5 DUP3 DUP2 MLOAD DUP2 LT PUSH2 0x824 JUMPI PUSH2 0x823 PUSH2 0x1DD6 JUMP JUMPDEST JUMPDEST PUSH1 0x20 MUL PUSH1 0x20 ADD ADD MLOAD PUSH1 0x80 ADD MLOAD PUSH2 0x13C1 JUMP JUMPDEST PUSH2 0x83D PUSH2 0x14B5 JUMP JUMPDEST POP POP POP POP JUMP JUMPDEST PUSH0 PUSH7 0x38D7EA4C68000 CALLVALUE EQ PUSH2 0x88D JUMPI PUSH1 0x40 MLOAD PUSH32 0x8C379A000000000000000000000000000000000000000000000000000000000 DUP2 MSTORE PUSH1 0x4 ADD PUSH2 0x884 SWAP1 PUSH2 0x1F51 JUMP JUMPDEST PUSH1 0x40 MLOAD DUP1 SWAP2 SUB SWAP1 REVERT JUMPDEST PUSH1 0x7 SLOAD PUSH1 0x8 SLOAD LT PUSH2 0x8D3 JUMPI PUSH1 0x40 MLOAD PUSH32 0x8C379A000000000000000000000000000000000000000000000000000000000 DUP2 MSTORE PUSH1 0x4 ADD PUSH2 0x8CA SWAP1 PUSH2 0x2005 JUMP JUMPDEST PUSH1 0x40 MLOAD DUP1 SWAP2 SUB SWAP1 REVERT JUMPDEST PUSH0 PUSH1 0x2 PUSH0 SWAP1 SLOAD SWAP1 PUSH2 0x100 EXP SWAP1 DIV PUSH2 0xFFFF AND PUSH2 0xFFFF AND SUB PUSH2 0x912 JUMPI PUSH1 0x1 PUSH1 0x2 PUSH0 PUSH2 0x100 EXP DUP2 SLOAD DUP2 PUSH2 0xFFFF MUL NOT AND SWAP1 DUP4 PUSH2 0xFFFF AND MUL OR SWAP1 SSTORE POP TIMESTAMP PUSH1 0x3 DUP2 SWAP1 SSTORE POP JUMPDEST PUSH1 0x4 SLOAD PUSH1 0x3 SLOAD PUSH2 0x922 SWAP2 SWAP1 PUSH2 0x1D15 JUMP JUMPDEST TIMESTAMP GT ISZERO PUSH2 0x964 JUMPI PUSH1 0x40 MLOAD PUSH32 0x8C379A000000000000000000000000000000000000000000000000000000000 DUP2 MSTORE PUSH1 0x4 ADD PUSH2 0x95B SWAP1 PUSH2 0x20B9 JUMP JUMPDEST PUSH1 0x40 MLOAD DUP1 SWAP2 SUB SWAP1 REVERT JUMPDEST PUSH0 PUSH1 0x8 SLOAD SWAP1 POP PUSH1 0x40 MLOAD DUP1 PUSH1 0xA0 ADD PUSH1 0x40 MSTORE DUP1 PUSH0 PUSH2 0xFFFF AND DUP2 MSTORE PUSH1 0x20 ADD PUSH1 0x1 ISZERO ISZERO DUP2 MSTORE PUSH1 0x20 ADD PUSH0 ISZERO ISZERO DUP2 MSTORE PUSH1 0x20 ADD PUSH0 ISZERO ISZERO DUP2 MSTORE PUSH1 0x20 ADD CALLER PUSH20 0xFFFFFFFFFFFFFFFFFFFFFFFFFFFFFFFFFFFFFFFF AND DUP2 MSTORE POP PUSH1 0xA PUSH0 DUP4 DUP2 MSTORE PUSH1 0x20 ADD SWAP1 DUP2 MSTORE PUSH1 0x20 ADD PUSH0 KECCAK256 PUSH0 DUP3 ADD MLOAD DUP2 PUSH0 ADD PUSH0 PUSH2 0x100 EXP DUP2 SLOAD DUP2 PUSH2 0xFFFF MUL NOT AND SWAP1 DUP4 PUSH2 0xFFFF AND MUL OR SWAP1 SSTORE POP PUSH1 0x20 DUP3 ADD MLOAD DUP2 PUSH0 ADD PUSH1 0x2 PUSH2 0x100 EXP DUP2 SLOAD DUP2 PUSH1 0xFF MUL NOT AND SWAP1 DUP4 ISZERO ISZERO MUL OR SWAP1 SSTORE POP PUSH1 0x40 DUP3 ADD MLOAD DUP2 PUSH0 ADD PUSH1 0x3 PUSH2 0x100 EXP DUP2 SLOAD DUP2 PUSH1 0xFF MUL NOT AND SWAP1 DUP4 ISZERO ISZERO MUL OR SWAP1 SSTORE POP PUSH1 0x60 DUP3 ADD MLOAD DUP2 PUSH0 ADD PUSH1 0x4 PUSH2 0x100 EXP DUP2 SLOAD DUP2 PUSH1 0xFF MUL NOT AND SWAP1 DUP4 ISZERO ISZERO MUL OR SWAP1 SSTORE POP PUSH1 0x80 DUP3 ADD MLOAD DUP2 PUSH0 ADD PUSH1 0x5 PUSH2 0x100 EXP DUP2 SLOAD DUP2 PUSH20 0xFFFFFFFFFFFFFFFFFFFFFFFFFFFFFFFFFFFFFFFF MUL NOT AND SWAP1 DUP4 PUSH20 0xFFFFFFFFFFFFFFFFFFFFFFFFFFFFFFFFFFFFFFFF AND MUL OR SWAP1 SSTORE POP SWAP1 POP POP PUSH2 0xA93 DUP2 DUP5 PUSH2 0x14E8 JUMP JUMPDEST PUSH1 0x8 PUSH0 DUP2 SLOAD DUP1 SWAP3 SWAP2 SWAP1 PUSH2 0xAA5 SWAP1 PUSH2 0x1E03 JUMP JUMPDEST SWAP2 SWAP1 POP SSTORE POP DUP1 SWAP2 POP POP SWAP2 SWAP1 POP JUMP JUMPDEST TIMESTAMP PUSH1 0x6 SLOAD PUSH1 0x5 SLOAD PUSH1 0x4 SLOAD PUSH1 0x3 SLOAD PUSH2 0xACA SWAP2 SWAP1 PUSH2 0x1D15 JUMP JUMPDEST PUSH2 0xAD4 SWAP2 SWAP1 PUSH2 0x1D15 JUMP JUMPDEST PUSH2 0xADE SWAP2 SWAP1 PUSH2 0x1D15 JUMP JUMPDEST LT PUSH2 0xB1E JUMPI PUSH1 0x40 MLOAD PUSH32 0x8C379A000000000000000000000000000000000000000000000000000000000 DUP2 MSTORE PUSH1 0x4 ADD PUSH2 0xB15 SWAP1 PUSH2 0x2147 JUMP JUMPDEST PUSH1 0x40 MLOAD DUP1 SWAP2 SUB SWAP1 REVERT JUMPDEST CALLER PUSH20 0xFFFFFFFFFFFFFFFFFFFFFFFFFFFFFFFFFFFFFFFF AND PUSH1 0xA PUSH0 DUP4 DUP2 MSTORE PUSH1 0x20 ADD SWAP1 DUP2 MSTORE PUSH1 0x20 ADD PUSH0 KECCAK256 PUSH0 ADD PUSH1 0x5 SWAP1 SLOAD SWAP1 PUSH2 0x100 EXP SWAP1 DIV PUSH20 0xFFFFFFFFFFFFFFFFFFFFFFFFFFFFFFFFFFFFFFFF AND PUSH20 0xFFFFFFFFFFFFFFFFFFFFFFFFFFFFFFFFFFFFFFFF AND EQ PUSH2 0xBBF JUMPI PUSH1 0x40 MLOAD PUSH32 0x8C379A000000000000000000000000000000000000000000000000000000000 DUP2 MSTORE PUSH1 0x4 ADD PUSH2 0xBB6 SWAP1 PUSH2 0x21FB JUMP JUMPDEST PUSH1 0x40 MLOAD DUP1 SWAP2 SUB SWAP1 REVERT JUMPDEST PUSH0 ISZERO ISZERO PUSH1 0xA PUSH0 DUP4 DUP2 MSTORE PUSH1 0x20 ADD SWAP1 DUP2 MSTORE PUSH1 0x20 ADD PUSH0 KECCAK256 PUSH0 ADD PUSH1 0x4 SWAP1 SLOAD SWAP1 PUSH2 0x100 EXP SWAP1 DIV PUSH1 0xFF AND ISZERO ISZERO EQ PUSH2 0xC25 JUMPI PUSH1 0x40 MLOAD PUSH32 0x8C379A000000000000000000000000000000000000000000000000000000000 DUP2 MSTORE PUSH1 0x4 ADD PUSH2 0xC1C SWAP1 PUSH2 0x22AF JUMP JUMPDEST PUSH1 0x40 MLOAD DUP1 SWAP2 SUB SWAP1 REVERT JUMPDEST PUSH1 0x1 PUSH1 0xA PUSH0 DUP4 DUP2 MSTORE PUSH1 0x20 ADD SWAP1 DUP2 MSTORE PUSH1 0x20 ADD PUSH0 KECCAK256 PUSH0 ADD PUSH1 0x4 PUSH2 0x100 EXP DUP2 SLOAD DUP2 PUSH1 0xFF MUL NOT AND SWAP1 DUP4 ISZERO ISZERO MUL OR SWAP1 SSTORE POP CALLER PUSH20 0xFFFFFFFFFFFFFFFFFFFFFFFFFFFFFFFFFFFFFFFF AND PUSH2 0x8FC PUSH7 0x38D7EA4C68000 SWAP1 DUP2 ISZERO MUL SWAP1 PUSH1 0x40 MLOAD PUSH0 PUSH1 0x40 MLOAD DUP1 DUP4 SUB DUP2 DUP6 DUP9 DUP9 CALL SWAP4 POP POP POP POP ISZERO DUP1 ISZERO PUSH2 0xC9B JUMPI RETURNDATASIZE PUSH0 DUP1 RETURNDATACOPY RETURNDATASIZE PUSH0 REVERT JUMPDEST POP PUSH1 0x8 PUSH0 DUP2 SLOAD DUP1 SWAP3 SWAP2 SWAP1 PUSH2 0xCAE SWAP1 PUSH2 0x22CD JUMP JUMPDEST SWAP2 SWAP1 POP SSTORE POP PUSH0 PUSH1 0x8 SLOAD SUB PUSH2 0xCC5 JUMPI PUSH2 0xCC4 PUSH2 0x14B5 JUMP JUMPDEST JUMPDEST POP JUMP JUMPDEST PUSH1 0x60 PUSH0 PUSH1 0x60 PUSH0 PUSH1 0x2 PUSH0 SWAP1 SLOAD SWAP1 PUSH2 0x100 EXP SWAP1 DIV PUSH2 0xFFFF AND PUSH2 0xFFFF AND SUB PUSH2 0xD39 JUMPI PUSH0 PUSH1 0x40 MLOAD DUP1 PUSH1 0x40 ADD PUSH1 0x40 MSTORE DUP1 PUSH1 0x4 DUP2 MSTORE PUSH1 0x20 ADD PUSH32 0x49646C6500000000000000000000000000000000000000000000000000000000 DUP2 MSTORE POP SWAP1 PUSH1 0x40 MLOAD DUP1 PUSH1 0x20 ADD PUSH1 0x40 MSTORE DUP1 PUSH0 DUP2 MSTORE POP SWAP3 POP SWAP3 POP SWAP3 POP PUSH2 0x1048 JUMP JUMPDEST PUSH1 0x1 PUSH1 0x2 PUSH0 SWAP1 SLOAD SWAP1 PUSH2 0x100 EXP SWAP1 DIV PUSH2 0xFFFF AND PUSH2 0xFFFF AND SUB PUSH2 0x1021 JUMPI PUSH1 0x4 SLOAD PUSH1 0x3 SLOAD PUSH2 0xD64 SWAP2 SWAP1 PUSH2 0x1D15 JUMP JUMPDEST TIMESTAMP GT PUSH2 0xDFD JUMPI TIMESTAMP PUSH1 0x4 SLOAD PUSH1 0x3 SLOAD PUSH2 0xD7B SWAP2 SWAP1 PUSH2 0x1D15 JUMP JUMPDEST PUSH2 0xD85 SWAP2 SWAP1 PUSH2 0x22F4 JUMP JUMPDEST PUSH1 0x40 MLOAD DUP1 PUSH1 0x40 ADD PUSH1 0x40 MSTORE DUP1 PUSH1 0x16 DUP2 MSTORE PUSH1 0x20 ADD PUSH32 0x436F6D6D6974205374616765203A20656E6420696E2000000000000000000000 DUP2 MSTORE POP SWAP1 PUSH1 0x40 MLOAD DUP1 PUSH1 0x40 ADD PUSH1 0x40 MSTORE DUP1 PUSH1 0x8 DUP2 MSTORE PUSH1 0x20 ADD PUSH32 0x207365636F6E6473000000000000000000000000000000000000000000000000 DUP2 MSTORE POP SWAP3 POP SWAP3 POP SWAP3 POP PUSH2 0x1048 JUMP JUMPDEST PUSH1 0x5 SLOAD PUSH1 0x4 SLOAD PUSH1 0x3 SLOAD PUSH2 0xE10 SWAP2 SWAP1 PUSH2 0x1D15 JUMP JUMPDEST PUSH2 0xE1A SWAP2 SWAP1 PUSH2 0x1D15 JUMP JUMPDEST TIMESTAMP GT PUSH2 0xEC0 JUMPI TIMESTAMP PUSH1 0x5 SLOAD PUSH1 0x4 SLOAD PUSH1 0x3 SLOAD PUSH2 0xE34 SWAP2 SWAP1 PUSH2 0x1D15 JUMP JUMPDEST PUSH2 0xE3E SWAP2 SWAP1 PUSH2 0x1D15 JUMP JUMPDEST PUSH2 0xE48 SWAP2 SWAP1 PUSH2 0x22F4 JUMP JUMPDEST PUSH1 0x40 MLOAD DUP1 PUSH1 0x40 ADD PUSH1 0x40 MSTORE DUP1 PUSH1 0x16 DUP2 MSTORE PUSH1 0x20 ADD PUSH32 0x52657665616C205374616765203A20656E6420696E2000000000000000000000 DUP2 MSTORE POP SWAP1 PUSH1 0x40 MLOAD DUP1 PUSH1 0x40 ADD PUSH1 0x40 MSTORE DUP1 PUSH1 0x8 DUP2 MSTORE PUSH1 0x20 ADD PUSH32 0x207365636F6E6473000000000000000000000000000000000000000000000000 DUP2 MSTORE POP SWAP3 POP SWAP3 POP SWAP3 POP PUSH2 0x1048 JUMP JUMPDEST PUSH1 0x6 SLOAD PUSH1 0x5 SLOAD PUSH1 0x4 SLOAD PUSH1 0x3 SLOAD PUSH2 0xED6 SWAP2 SWAP1 PUSH2 0x1D15 JUMP JUMPDEST PUSH2 0xEE0 SWAP2 SWAP1 PUSH2 0x1D15 JUMP JUMPDEST PUSH2 0xEEA SWAP2 SWAP1 PUSH2 0x1D15 JUMP JUMPDEST TIMESTAMP GT PUSH2 0xF9D JUMPI TIMESTAMP PUSH1 0x6 SLOAD PUSH1 0x5 SLOAD PUSH1 0x4 SLOAD PUSH1 0x3 SLOAD PUSH2 0xF07 SWAP2 SWAP1 PUSH2 0x1D15 JUMP JUMPDEST PUSH2 0xF11 SWAP2 SWAP1 PUSH2 0x1D15 JUMP JUMPDEST PUSH2 0xF1B SWAP2 SWAP1 PUSH2 0x1D15 JUMP JUMPDEST PUSH2 0xF25 SWAP2 SWAP1 PUSH2 0x22F4 JUMP JUMPDEST PUSH1 0x40 MLOAD DUP1 PUSH1 0x40 ADD PUSH1 0x40 MSTORE DUP1 PUSH1 0x15 DUP2 MSTORE PUSH1 0x20 ADD PUSH32 0x4177617264205374616765203A20656E6420696E200000000000000000000000 DUP2 MSTORE POP SWAP1 PUSH1 0x40 MLOAD DUP1 PUSH1 0x40 ADD PUSH1 0x40 MSTORE DUP1 PUSH1 0x8 DUP2 MSTORE PUSH1 0x20 ADD PUSH32 0x207365636F6E6473000000000000000000000000000000000000000000000000 DUP2 MSTORE POP SWAP3 POP SWAP3 POP SWAP3 POP PUSH2 0x1048 JUMP JUMPDEST PUSH1 0x6 SLOAD PUSH1 0x5 SLOAD PUSH1 0x4 SLOAD PUSH1 0x3 SLOAD PUSH2 0xFB3 SWAP2 SWAP1 PUSH2 0x1D15 JUMP JUMPDEST PUSH2 0xFBD SWAP2 SWAP1 PUSH2 0x1D15 JUMP JUMPDEST PUSH2 0xFC7 SWAP2 SWAP1 PUSH2 0x1D15 JUMP JUMPDEST TIMESTAMP GT ISZERO PUSH2 0x1020 JUMPI PUSH0 PUSH1 0x40 MLOAD DUP1 PUSH1 0x40 ADD PUSH1 0x40 MSTORE DUP1 PUSH1 0xD DUP2 MSTORE PUSH1 0x20 ADD PUSH32 0x41776172642054696D656F757400000000000000000000000000000000000000 DUP2 MSTORE POP SWAP1 PUSH1 0x40 MLOAD DUP1 PUSH1 0x20 ADD PUSH1 0x40 MSTORE DUP1 PUSH0 DUP2 MSTORE POP SWAP3 POP SWAP3 POP SWAP3 POP PUSH2 0x1048 JUMP JUMPDEST JUMPDEST PUSH0 PUSH1 0x40 MLOAD DUP1 PUSH1 0x20 ADD PUSH1 0x40 MSTORE DUP1 PUSH0 DUP2 MSTORE POP SWAP1 PUSH1 0x40 MLOAD DUP1 PUSH1 0x20 ADD PUSH1 0x40 MSTORE DUP1 PUSH0 DUP2 MSTORE POP SWAP3 POP SWAP3 POP SWAP3 POP JUMPDEST SWAP1 SWAP2 SWAP3 JUMP JUMPDEST PUSH1 0x6 SLOAD DUP2 JUMP JUMPDEST PUSH0 ADDRESS DUP4 DUP4 PUSH1 0x40 MLOAD PUSH1 0x20 ADD PUSH2 0x1069 SWAP4 SWAP3 SWAP2 SWAP1 PUSH2 0x23DA JUMP JUMPDEST PUSH1 0x40 MLOAD PUSH1 0x20 DUP2 DUP4 SUB SUB DUP2 MSTORE SWAP1 PUSH1 0x40 MSTORE DUP1 MLOAD SWAP1 PUSH1 0x20 ADD KECCAK256 SWAP1 POP SWAP3 SWAP2 POP POP JUMP JUMPDEST PUSH1 0x5 SLOAD DUP2 JUMP JUMPDEST PUSH0 DUP1 PUSH0 SWAP1 SLOAD SWAP1 PUSH2 0x100 EXP SWAP1 DIV PUSH20 0xFFFFFFFFFFFFFFFFFFFFFFFFFFFFFFFFFFFFFFFF AND SWAP1 POP SWAP1 JUMP JUMPDEST PUSH0 DUP1 PUSH0 SWAP1 SLOAD SWAP1 PUSH2 0x100 EXP SWAP1 DIV PUSH20 0xFFFFFFFFFFFFFFFFFFFFFFFFFFFFFFFFFFFFFFFF AND PUSH20 0xFFFFFFFFFFFFFFFFFFFFFFFFFFFFFFFFFFFFFFFF AND CALLER PUSH20 0xFFFFFFFFFFFFFFFFFFFFFFFFFFFFFFFFFFFFFFFF AND EQ SWAP1 POP SWAP1 JUMP JUMPDEST PUSH1 0x3 SLOAD DUP2 JUMP JUMPDEST PUSH1 0x4 SLOAD DUP2 JUMP JUMPDEST TIMESTAMP PUSH1 0x4 SLOAD PUSH1 0x3 SLOAD PUSH2 0x1126 SWAP2 SWAP1 PUSH2 0x1D15 JUMP JUMPDEST LT DUP1 ISZERO PUSH2 0x114E JUMPI POP PUSH1 0x5 SLOAD PUSH1 0x4 SLOAD PUSH1 0x3 SLOAD PUSH2 0x1141 SWAP2 SWAP1 PUSH2 0x1D15 JUMP JUMPDEST PUSH2 0x114B SWAP2 SWAP1 PUSH2 0x1D15 JUMP JUMPDEST TIMESTAMP LT JUMPDEST PUSH2 0x118D JUMPI PUSH1 0x40 MLOAD PUSH32 0x8C379A000000000000000000000000000000000000000000000000000000000 DUP2 MSTORE PUSH1 0x4 ADD PUSH2 0x1184 SWAP1 PUSH2 0x2482 JUMP JUMPDEST PUSH1 0x40 MLOAD DUP1 SWAP2 SUB SWAP1 REVERT JUMPDEST CALLER PUSH20 0xFFFFFFFFFFFFFFFFFFFFFFFFFFFFFFFFFFFFFFFF AND PUSH1 0xA PUSH0 DUP6 DUP2 MSTORE PUSH1 0x20 ADD SWAP1 DUP2 MSTORE PUSH1 0x20 ADD PUSH0 KECCAK256 PUSH0 ADD PUSH1 0x5 SWAP1 SLOAD SWAP1 PUSH2 0x100 EXP SWAP1 DIV PUSH20 0xFFFFFFFFFFFFFFFFFFFFFFFFFFFFFFFFFFFFFFFF AND PUSH20 0xFFFFFFFFFFFFFFFFFFFFFFFFFFFFFFFFFFFFFFFF AND EQ PUSH2 0x122E JUMPI PUSH1 0x40 MLOAD PUSH32 0x8C379A000000000000000000000000000000000000000000000000000000000 DUP2 MSTORE PUSH1 0x4 ADD PUSH2 0x1225 SWAP1 PUSH2 0x2536 JUMP JUMPDEST PUSH1 0x40 MLOAD DUP1 SWAP2 SUB SWAP1 REVERT JUMPDEST PUSH2 0x1239 DUP4 DUP4 DUP4 PUSH2 0x15E1 JUMP JUMPDEST DUP2 PUSH1 0xA PUSH0 DUP6 DUP2 MSTORE PUSH1 0x20 ADD SWAP1 DUP2 MSTORE PUSH1 0x20 ADD PUSH0 KECCAK256 PUSH0 ADD PUSH0 PUSH2 0x100 EXP DUP2 SLOAD DUP2 PUSH2 0xFFFF MUL NOT AND SWAP1 DUP4 PUSH2 0xFFFF AND MUL OR SWAP1 SSTORE POP PUSH1 0x1 PUSH1 0xA PUSH0 DUP6 DUP2 MSTORE PUSH1 0x20 ADD SWAP1 DUP2 MSTORE PUSH1 0x20 ADD PUSH0 KECCAK256 PUSH0 ADD PUSH1 0x3 PUSH2 0x100 EXP DUP2 SLOAD DUP2 PUSH1 0xFF MUL NOT AND SWAP1 DUP4 ISZERO ISZERO MUL OR SWAP1 SSTORE POP PUSH1 0x9 PUSH0 DUP2 SLOAD DUP1 SWAP3 SWAP2 SWAP1 PUSH2 0x12A4 SWAP1 PUSH2 0x1E03 JUMP JUMPDEST SWAP2 SWAP1 POP SSTORE POP POP POP POP JUMP JUMPDEST PUSH1 0x7 SLOAD DUP2 JUMP JUMPDEST PUSH0 PUSH1 0x64 PUSH1 0x62 PUSH7 0x38D7EA4C68000 PUSH2 0x12CB SWAP2 SWAP1 PUSH2 0x2554 JUMP JUMPDEST PUSH2 0x12D5 SWAP2 SWAP1 PUSH2 0x2595 JUMP JUMPDEST SWAP1 POP PUSH0 PUSH1 0x64 PUSH1 0x2 PUSH7 0x38D7EA4C68000 PUSH2 0x12EE SWAP2 SWAP1 PUSH2 0x2554 JUMP JUMPDEST PUSH2 0x12F8 SWAP2 SWAP1 PUSH2 0x2595 JUMP JUMPDEST SWAP1 POP PUSH1 0xA PUSH0 DUP5 DUP2 MSTORE PUSH1 0x20 ADD SWAP1 DUP2 MSTORE PUSH1 0x20 ADD PUSH0 KECCAK256 PUSH0 ADD PUSH1 0x5 SWAP1 SLOAD SWAP1 PUSH2 0x100 EXP SWAP1 DIV PUSH20 0xFFFFFFFFFFFFFFFFFFFFFFFFFFFFFFFFFFFFFFFF AND PUSH20 0xFFFFFFFFFFFFFFFFFFFFFFFFFFFFFFFFFFFFFFFF AND PUSH2 0x8FC DUP4 SWAP1 DUP2 ISZERO MUL SWAP1 PUSH1 0x40 MLOAD PUSH0 PUSH1 0x40 MLOAD DUP1 DUP4 SUB DUP2 DUP6 DUP9 DUP9 CALL SWAP4 POP POP POP POP ISZERO DUP1 ISZERO PUSH2 0x1370 JUMPI RETURNDATASIZE PUSH0 DUP1 RETURNDATACOPY RETURNDATASIZE PUSH0 REVERT JUMPDEST POP PUSH2 0x1379 PUSH2 0x108D JUMP JUMPDEST PUSH20 0xFFFFFFFFFFFFFFFFFFFFFFFFFFFFFFFFFFFFFFFF AND PUSH2 0x8FC DUP3 SWAP1 DUP2 ISZERO MUL SWAP1 PUSH1 0x40 MLOAD PUSH0 PUSH1 0x40 MLOAD DUP1 DUP4 SUB DUP2 DUP6 DUP9 DUP9 CALL SWAP4 POP POP POP POP ISZERO DUP1 ISZERO PUSH2 0x13BB JUMPI RETURNDATASIZE PUSH0 DUP1 RETURNDATACOPY RETURNDATASIZE PUSH0 REVERT JUMPDEST POP POP POP POP JUMP JUMPDEST PUSH0 PUSH1 0x64 PUSH1 0x62 PUSH1 0x9 SLOAD PUSH7 0x38D7EA4C68000 PUSH2 0x13DB SWAP2 SWAP1 PUSH2 0x2554 JUMP JUMPDEST PUSH2 0x13E5 SWAP2 SWAP1 PUSH2 0x2554 JUMP JUMPDEST PUSH2 0x13EF SWAP2 SWAP1 PUSH2 0x2595 JUMP JUMPDEST SWAP1 POP PUSH0 PUSH1 0x64 PUSH1 0x2 PUSH1 0x9 SLOAD PUSH7 0x38D7EA4C68000 PUSH2 0x140B SWAP2 SWAP1 PUSH2 0x2554 JUMP JUMPDEST PUSH2 0x1415 SWAP2 SWAP1 PUSH2 0x2554 JUMP JUMPDEST PUSH2 0x141F SWAP2 SWAP1 PUSH2 0x2595 JUMP JUMPDEST SWAP1 POP DUP3 PUSH20 0xFFFFFFFFFFFFFFFFFFFFFFFFFFFFFFFFFFFFFFFF AND PUSH2 0x8FC DUP4 SWAP1 DUP2 ISZERO MUL SWAP1 PUSH1 0x40 MLOAD PUSH0 PUSH1 0x40 MLOAD DUP1 DUP4 SUB DUP2 DUP6 DUP9 DUP9 CALL SWAP4 POP POP POP POP ISZERO DUP1 ISZERO PUSH2 0x1464 JUMPI RETURNDATASIZE PUSH0 DUP1 RETURNDATACOPY RETURNDATASIZE PUSH0 REVERT JUMPDEST POP PUSH2 0x146D PUSH2 0x108D JUMP JUMPDEST PUSH20 0xFFFFFFFFFFFFFFFFFFFFFFFFFFFFFFFFFFFFFFFF AND PUSH2 0x8FC DUP3 SWAP1 DUP2 ISZERO MUL SWAP1 PUSH1 0x40 MLOAD PUSH0 PUSH1 0x40 MLOAD DUP1 DUP4 SUB DUP2 DUP6 DUP9 DUP9 CALL SWAP4 POP POP POP POP ISZERO DUP1 ISZERO PUSH2 0x14AF JUMPI RETURNDATASIZE PUSH0 DUP1 RETURNDATACOPY RETURNDATASIZE PUSH0 REVERT JUMPDEST POP POP POP POP JUMP JUMPDEST PUSH0 PUSH1 0x2 PUSH0 PUSH2 0x100 EXP DUP2 SLOAD DUP2 PUSH2 0xFFFF MUL NOT AND SWAP1 DUP4 PUSH2 0xFFFF AND MUL OR SWAP1 SSTORE POP PUSH0 PUSH1 0x8 DUP2 SWAP1 SSTORE POP PUSH0 PUSH1 0x9 DUP2 SWAP1 SSTORE POP TIMESTAMP PUSH1 0x3 DUP2 SWAP1 SSTORE POP JUMP JUMPDEST DUP1 PUSH1 0x1 PUSH0 DUP5 DUP2 MSTORE PUSH1 0x20 ADD SWAP1 DUP2 MSTORE PUSH1 0x20 ADD PUSH0 KECCAK256 PUSH0 ADD DUP2 SWAP1 SSTORE POP NUMBER PUSH1 0x1 PUSH0 DUP5 DUP2 MSTORE PUSH1 0x20 ADD SWAP1 DUP2 MSTORE PUSH1 0x20 ADD PUSH0 KECCAK256 PUSH1 0x1 ADD PUSH0 PUSH2 0x100 EXP DUP2 SLOAD DUP2 PUSH8 0xFFFFFFFFFFFFFFFF MUL NOT AND SWAP1 DUP4 PUSH8 0xFFFFFFFFFFFFFFFF AND MUL OR SWAP1 SSTORE POP PUSH0 PUSH1 0x1 PUSH0 DUP5 DUP2 MSTORE PUSH1 0x20 ADD SWAP1 DUP2 MSTORE PUSH1 0x20 ADD PUSH0 KECCAK256 PUSH1 0x1 ADD PUSH1 0x8 PUSH2 0x100 EXP DUP2 SLOAD DUP2 PUSH1 0xFF MUL NOT AND SWAP1 DUP4 ISZERO ISZERO MUL OR SWAP1 SSTORE POP PUSH32 0xB7CE637F0652EFA186ADEDCCC22B6809DC1C12DC3B3BF096DF581F3B1FE1B3DB CALLER DUP4 PUSH1 0x1 PUSH0 DUP7 DUP2 MSTORE PUSH1 0x20 ADD SWAP1 DUP2 MSTORE PUSH1 0x20 ADD PUSH0 KECCAK256 PUSH0 ADD SLOAD PUSH1 0x1 PUSH0 DUP8 DUP2 MSTORE PUSH1 0x20 ADD SWAP1 DUP2 MSTORE PUSH1 0x20 ADD PUSH0 KECCAK256 PUSH1 0x1 ADD PUSH0 SWAP1 SLOAD SWAP1 PUSH2 0x100 EXP SWAP1 DIV PUSH8 0xFFFFFFFFFFFFFFFF AND PUSH1 0x40 MLOAD PUSH2 0x15D5 SWAP5 SWAP4 SWAP3 SWAP2 SWAP1 PUSH2 0x25E7 JUMP JUMPDEST PUSH1 0x40 MLOAD DUP1 SWAP2 SUB SWAP1 LOG1 POP POP JUMP JUMPDEST PUSH0 ISZERO ISZERO PUSH1 0x1 PUSH0 DUP6 DUP2 MSTORE PUSH1 0x20 ADD SWAP1 DUP2 MSTORE PUSH1 0x20 ADD PUSH0 KECCAK256 PUSH1 0x1 ADD PUSH1 0x8 SWAP1 SLOAD SWAP1 PUSH2 0x100 EXP SWAP1 DIV PUSH1 0xFF AND ISZERO ISZERO EQ PUSH2 0x1648 JUMPI PUSH1 0x40 MLOAD PUSH32 0x8C379A000000000000000000000000000000000000000000000000000000000 DUP2 MSTORE PUSH1 0x4 ADD PUSH2 0x163F SWAP1 PUSH2 0x269A JUMP JUMPDEST PUSH1 0x40 MLOAD DUP1 SWAP2 SUB SWAP1 REVERT JUMPDEST PUSH1 0x1 DUP1 PUSH0 DUP6 DUP2 MSTORE PUSH1 0x20 ADD SWAP1 DUP2 MSTORE PUSH1 0x20 ADD PUSH0 KECCAK256 PUSH1 0x1 ADD PUSH1 0x8 PUSH2 0x100 EXP DUP2 SLOAD DUP2 PUSH1 0xFF MUL NOT AND SWAP1 DUP4 ISZERO ISZERO MUL OR SWAP1 SSTORE POP PUSH1 0x1 PUSH0 DUP5 DUP2 MSTORE PUSH1 0x20 ADD SWAP1 DUP2 MSTORE PUSH1 0x20 ADD PUSH0 KECCAK256 PUSH0 ADD SLOAD PUSH2 0x1692 DUP4 DUP4 PUSH2 0x1053 JUMP JUMPDEST EQ PUSH2 0x16D2 JUMPI PUSH1 0x40 MLOAD PUSH32 0x8C379A000000000000000000000000000000000000000000000000000000000 DUP2 MSTORE PUSH1 0x4 ADD PUSH2 0x16C9 SWAP1 PUSH2 0x2728 JUMP JUMPDEST PUSH1 0x40 MLOAD DUP1 SWAP2 SUB SWAP1 REVERT JUMPDEST PUSH32 0xD59EB094A5BC7D37EE78628B6A471A4A62C3148908D3EFDAE106802C4698B134 CALLER DUP4 DUP4 PUSH1 0x40 MLOAD PUSH2 0x1705 SWAP4 SWAP3 SWAP2 SWAP1 PUSH2 0x2746 JUMP JUMPDEST PUSH1 0x40 MLOAD DUP1 SWAP2 SUB SWAP1 LOG1 POP POP POP JUMP JUMPDEST PUSH1 0x40 MLOAD DUP1 PUSH1 0xA0 ADD PUSH1 0x40 MSTORE DUP1 PUSH0 PUSH2 0xFFFF AND DUP2 MSTORE PUSH1 0x20 ADD PUSH0 ISZERO ISZERO DUP2 MSTORE PUSH1 0x20 ADD PUSH0 ISZERO ISZERO DUP2 MSTORE PUSH1 0x20 ADD PUSH0 ISZERO ISZERO DUP2 MSTORE PUSH1 0x20 ADD PUSH0 PUSH20 0xFFFFFFFFFFFFFFFFFFFFFFFFFFFFFFFFFFFFFFFF AND DUP2 MSTORE POP SWAP1 JUMP JUMPDEST PUSH0 PUSH1 0x40 MLOAD SWAP1 POP SWAP1 JUMP JUMPDEST PUSH0 DUP1 REVERT JUMPDEST PUSH0 DUP1 REVERT JUMPDEST PUSH0 DUP2 SWAP1 POP SWAP2 SWAP1 POP JUMP JUMPDEST PUSH2 0x177F DUP2 PUSH2 0x176D JUMP JUMPDEST DUP2 EQ PUSH2 0x1789 JUMPI PUSH0 DUP1 REVERT JUMPDEST POP JUMP JUMPDEST PUSH0 DUP2 CALLDATALOAD SWAP1 POP PUSH2 0x179A DUP2 PUSH2 0x1776 JUMP JUMPDEST SWAP3 SWAP2 POP POP JUMP JUMPDEST PUSH0 PUSH1 0x20 DUP3 DUP5 SUB SLT ISZERO PUSH2 0x17B5 JUMPI PUSH2 0x17B4 PUSH2 0x1765 JUMP JUMPDEST JUMPDEST PUSH0 PUSH2 0x17C2 DUP5 DUP3 DUP6 ADD PUSH2 0x178C JUMP JUMPDEST SWAP2 POP POP SWAP3 SWAP2 POP POP JUMP JUMPDEST PUSH0 PUSH2 0xFFFF DUP3 AND SWAP1 POP SWAP2 SWAP1 POP JUMP JUMPDEST PUSH2 0x17E1 DUP2 PUSH2 0x17CB JUMP JUMPDEST DUP3 MSTORE POP POP JUMP JUMPDEST PUSH0 DUP2 ISZERO ISZERO SWAP1 POP SWAP2 SWAP1 POP JUMP JUMPDEST PUSH2 0x17FB DUP2 PUSH2 0x17E7 JUMP JUMPDEST DUP3 MSTORE POP POP JUMP JUMPDEST PUSH0 PUSH20 0xFFFFFFFFFFFFFFFFFFFFFFFFFFFFFFFFFFFFFFFF DUP3 AND SWAP1 POP SWAP2 SWAP1 POP JUMP JUMPDEST PUSH0 PUSH2 0x182A DUP3 PUSH2 0x1801 JUMP JUMPDEST SWAP1 POP SWAP2 SWAP1 POP JUMP JUMPDEST PUSH2 0x183A DUP2 PUSH2 0x1820 JUMP JUMPDEST DUP3 MSTORE POP POP JUMP JUMPDEST PUSH0 PUSH1 0xA0 DUP3 ADD SWAP1 POP PUSH2 0x1853 PUSH0 DUP4 ADD DUP9 PUSH2 0x17D8 JUMP JUMPDEST PUSH2 0x1860 PUSH1 0x20 DUP4 ADD DUP8 PUSH2 0x17F2 JUMP JUMPDEST PUSH2 0x186D PUSH1 0x40 DUP4 ADD DUP7 PUSH2 0x17F2 JUMP JUMPDEST PUSH2 0x187A PUSH1 0x60 DUP4 ADD DUP6 PUSH2 0x17F2 JUMP JUMPDEST PUSH2 0x1887 PUSH1 0x80 DUP4 ADD DUP5 PUSH2 0x1831 JUMP JUMPDEST SWAP7 SWAP6 POP POP POP POP POP POP JUMP JUMPDEST PUSH0 DUP2 SWAP1 POP SWAP2 SWAP1 POP JUMP JUMPDEST PUSH2 0x18A3 DUP2 PUSH2 0x1891 JUMP JUMPDEST DUP2 EQ PUSH2 0x18AD JUMPI PUSH0 DUP1 REVERT JUMPDEST POP JUMP JUMPDEST PUSH0 DUP2 CALLDATALOAD SWAP1 POP PUSH2 0x18BE DUP2 PUSH2 0x189A JUMP JUMPDEST SWAP3 SWAP2 POP POP JUMP JUMPDEST PUSH0 PUSH1 0x20 DUP3 DUP5 SUB SLT ISZERO PUSH2 0x18D9 JUMPI PUSH2 0x18D8 PUSH2 0x1765 JUMP JUMPDEST JUMPDEST PUSH0 PUSH2 0x18E6 DUP5 DUP3 DUP6 ADD PUSH2 0x18B0 JUMP JUMPDEST SWAP2 POP POP SWAP3 SWAP2 POP POP JUMP JUMPDEST PUSH2 0x18F8 DUP2 PUSH2 0x176D JUMP JUMPDEST DUP3 MSTORE POP POP JUMP JUMPDEST PUSH0 PUSH1 0x20 DUP3 ADD SWAP1 POP PUSH2 0x1911 PUSH0 DUP4 ADD DUP5 PUSH2 0x18EF JUMP JUMPDEST SWAP3 SWAP2 POP POP JUMP JUMPDEST PUSH0 DUP2 MLOAD SWAP1 POP SWAP2 SWAP1 POP JUMP JUMPDEST PUSH0 DUP3 DUP3 MSTORE PUSH1 0x20 DUP3 ADD SWAP1 POP SWAP3 SWAP2 POP POP JUMP JUMPDEST PUSH0 JUMPDEST DUP4 DUP2 LT ISZERO PUSH2 0x194E JUMPI DUP1 DUP3 ADD MLOAD DUP2 DUP5 ADD MSTORE PUSH1 0x20 DUP2 ADD SWAP1 POP PUSH2 0x1933 JUMP JUMPDEST PUSH0 DUP5 DUP5 ADD MSTORE POP POP POP POP JUMP JUMPDEST PUSH0 PUSH1 0x1F NOT PUSH1 0x1F DUP4 ADD AND SWAP1 POP SWAP2 SWAP1 POP JUMP JUMPDEST PUSH0 PUSH2 0x1973 DUP3 PUSH2 0x1917 JUMP JUMPDEST PUSH2 0x197D DUP2 DUP6 PUSH2 0x1921 JUMP JUMPDEST SWAP4 POP PUSH2 0x198D DUP2 DUP6 PUSH1 0x20 DUP7 ADD PUSH2 0x1931 JUMP JUMPDEST PUSH2 0x1996 DUP2 PUSH2 0x1959 JUMP JUMPDEST DUP5 ADD SWAP2 POP POP SWAP3 SWAP2 POP POP JUMP JUMPDEST PUSH0 PUSH1 0x60 DUP3 ADD SWAP1 POP DUP2 DUP2 SUB PUSH0 DUP4 ADD MSTORE PUSH2 0x19B9 DUP2 DUP7 PUSH2 0x1969 JUMP JUMPDEST SWAP1 POP PUSH2 0x19C8 PUSH1 0x20 DUP4 ADD DUP6 PUSH2 0x18EF JUMP JUMPDEST DUP2 DUP2 SUB PUSH1 0x40 DUP4 ADD MSTORE PUSH2 0x19DA DUP2 DUP5 PUSH2 0x1969 JUMP JUMPDEST SWAP1 POP SWAP5 SWAP4 POP POP POP POP JUMP JUMPDEST PUSH2 0x19ED DUP2 PUSH2 0x17CB JUMP JUMPDEST DUP2 EQ PUSH2 0x19F7 JUMPI PUSH0 DUP1 REVERT JUMPDEST POP JUMP JUMPDEST PUSH0 DUP2 CALLDATALOAD SWAP1 POP PUSH2 0x1A08 DUP2 PUSH2 0x19E4 JUMP JUMPDEST SWAP3 SWAP2 POP POP JUMP JUMPDEST PUSH0 DUP1 REVERT JUMPDEST PUSH0 DUP1 REVERT JUMPDEST PUSH32 0x4E487B7100000000000000000000000000000000000000000000000000000000 PUSH0 MSTORE PUSH1 0x41 PUSH1 0x4 MSTORE PUSH1 0x24 PUSH0 REVERT JUMPDEST PUSH2 0x1A4C DUP3 PUSH2 0x1959 JUMP JUMPDEST DUP2 ADD DUP2 DUP2 LT PUSH8 0xFFFFFFFFFFFFFFFF DUP3 GT OR ISZERO PUSH2 0x1A6B JUMPI PUSH2 0x1A6A PUSH2 0x1A16 JUMP JUMPDEST JUMPDEST DUP1 PUSH1 0x40 MSTORE POP POP POP JUMP JUMPDEST PUSH0 PUSH2 0x1A7D PUSH2 0x175C JUMP JUMPDEST SWAP1 POP PUSH2 0x1A89 DUP3 DUP3 PUSH2 0x1A43 JUMP JUMPDEST SWAP2 SWAP1 POP JUMP JUMPDEST PUSH0 PUSH8 0xFFFFFFFFFFFFFFFF DUP3 GT ISZERO PUSH2 0x1AA8 JUMPI PUSH2 0x1AA7 PUSH2 0x1A16 JUMP JUMPDEST JUMPDEST PUSH2 0x1AB1 DUP3 PUSH2 0x1959 JUMP JUMPDEST SWAP1 POP PUSH1 0x20 DUP2 ADD SWAP1 POP SWAP2 SWAP1 POP JUMP JUMPDEST DUP3 DUP2 DUP4 CALLDATACOPY PUSH0 DUP4 DUP4 ADD MSTORE POP POP POP JUMP JUMPDEST PUSH0 PUSH2 0x1ADE PUSH2 0x1AD9 DUP5 PUSH2 0x1A8E JUMP JUMPDEST PUSH2 0x1A74 JUMP JUMPDEST SWAP1 POP DUP3 DUP2 MSTORE PUSH1 0x20 DUP2 ADD DUP5 DUP5 DUP5 ADD GT ISZERO PUSH2 0x1AFA JUMPI PUSH2 0x1AF9 PUSH2 0x1A12 JUMP JUMPDEST JUMPDEST PUSH2 0x1B05 DUP5 DUP3 DUP6 PUSH2 0x1ABE JUMP JUMPDEST POP SWAP4 SWAP3 POP POP POP JUMP JUMPDEST PUSH0 DUP3 PUSH1 0x1F DUP4 ADD SLT PUSH2 0x1B21 JUMPI PUSH2 0x1B20 PUSH2 0x1A0E JUMP JUMPDEST JUMPDEST DUP2 CALLDATALOAD PUSH2 0x1B31 DUP5 DUP3 PUSH1 0x20 DUP7 ADD PUSH2 0x1ACC JUMP JUMPDEST SWAP2 POP POP SWAP3 SWAP2 POP POP JUMP JUMPDEST PUSH0 DUP1 PUSH1 0x40 DUP4 DUP6 SUB SLT ISZERO PUSH2 0x1B50 JUMPI PUSH2 0x1B4F PUSH2 0x1765 JUMP JUMPDEST JUMPDEST PUSH0 PUSH2 0x1B5D DUP6 DUP3 DUP7 ADD PUSH2 0x19FA JUMP JUMPDEST SWAP3 POP POP PUSH1 0x20 DUP4 ADD CALLDATALOAD PUSH8 0xFFFFFFFFFFFFFFFF DUP2 GT ISZERO PUSH2 0x1B7E JUMPI PUSH2 0x1B7D PUSH2 0x1769 JUMP JUMPDEST JUMPDEST PUSH2 0x1B8A DUP6 DUP3 DUP7 ADD PUSH2 0x1B0D JUMP JUMPDEST SWAP2 POP POP SWAP3 POP SWAP3 SWAP1 POP JUMP JUMPDEST PUSH2 0x1B9D DUP2 PUSH2 0x1891 JUMP JUMPDEST DUP3 MSTORE POP POP JUMP JUMPDEST PUSH0 PUSH1 0x20 DUP3 ADD SWAP1 POP PUSH2 0x1BB6 PUSH0 DUP4 ADD DUP5 PUSH2 0x1B94 JUMP JUMPDEST SWAP3 SWAP2 POP POP JUMP JUMPDEST PUSH0 PUSH1 0x20 DUP3 ADD SWAP1 POP PUSH2 0x1BCF PUSH0 DUP4 ADD DUP5 PUSH2 0x1831 JUMP JUMPDEST SWAP3 SWAP2 POP POP JUMP JUMPDEST PUSH0 PUSH1 0x20 DUP3 ADD SWAP1 POP PUSH2 0x1BE8 PUSH0 DUP4 ADD DUP5 PUSH2 0x17F2 JUMP JUMPDEST SWAP3 SWAP2 POP POP JUMP JUMPDEST PUSH0 DUP1 PUSH0 PUSH1 0x60 DUP5 DUP7 SUB SLT ISZERO PUSH2 0x1C05 JUMPI PUSH2 0x1C04 PUSH2 0x1765 JUMP JUMPDEST JUMPDEST PUSH0 PUSH2 0x1C12 DUP7 DUP3 DUP8 ADD PUSH2 0x178C JUMP JUMPDEST SWAP4 POP POP PUSH1 0x20 PUSH2 0x1C23 DUP7 DUP3 DUP8 ADD PUSH2 0x19FA JUMP JUMPDEST SWAP3 POP POP PUSH1 0x40 DUP5 ADD CALLDATALOAD PUSH8 0xFFFFFFFFFFFFFFFF DUP2 GT ISZERO PUSH2 0x1C44 JUMPI PUSH2 0x1C43 PUSH2 0x1769 JUMP JUMPDEST JUMPDEST PUSH2 0x1C50 DUP7 DUP3 DUP8 ADD PUSH2 0x1B0D JUMP JUMPDEST SWAP2 POP POP SWAP3 POP SWAP3 POP SWAP3 JUMP JUMPDEST PUSH32 0x4F776E61626C653A206F6E6C79206F776E65722063616E2063616C6C20746869 PUSH0 DUP3 ADD MSTORE PUSH32 0x732066756E6374696F6E00000000000000000000000000000000000000000000 PUSH1 0x20 DUP3 ADD MSTORE POP JUMP JUMPDEST PUSH0 PUSH2 0x1CB4 PUSH1 0x2A DUP4 PUSH2 0x1921 JUMP JUMPDEST SWAP2 POP PUSH2 0x1CBF DUP3 PUSH2 0x1C5A JUMP JUMPDEST PUSH1 0x40 DUP3 ADD SWAP1 POP SWAP2 SWAP1 POP JUMP JUMPDEST PUSH0 PUSH1 0x20 DUP3 ADD SWAP1 POP DUP2 DUP2 SUB PUSH0 DUP4 ADD MSTORE PUSH2 0x1CE1 DUP2 PUSH2 0x1CA8 JUMP JUMPDEST SWAP1 POP SWAP2 SWAP1 POP JUMP JUMPDEST PUSH32 0x4E487B7100000000000000000000000000000000000000000000000000000000 PUSH0 MSTORE PUSH1 0x11 PUSH1 0x4 MSTORE PUSH1 0x24 PUSH0 REVERT JUMPDEST PUSH0 PUSH2 0x1D1F DUP3 PUSH2 0x176D JUMP JUMPDEST SWAP2 POP PUSH2 0x1D2A DUP4 PUSH2 0x176D JUMP JUMPDEST SWAP3 POP DUP3 DUP3 ADD SWAP1 POP DUP1 DUP3 GT ISZERO PUSH2 0x1D42 JUMPI PUSH2 0x1D41 PUSH2 0x1CE8 JUMP JUMPDEST JUMPDEST SWAP3 SWAP2 POP POP JUMP JUMPDEST PUSH32 0x4D756C746950617274794C6F74746572793A3A61776172644C6F74746572793A PUSH0 DUP3 ADD MSTORE PUSH32 0x2047616D65206973206E6F7420696E2061776172642073746167650000000000 PUSH1 0x20 DUP3 ADD MSTORE POP JUMP JUMPDEST PUSH0 PUSH2 0x1DA2 PUSH1 0x3B DUP4 PUSH2 0x1921 JUMP JUMPDEST SWAP2 POP PUSH2 0x1DAD DUP3 PUSH2 0x1D48 JUMP JUMPDEST PUSH1 0x40 DUP3 ADD SWAP1 POP SWAP2 SWAP1 POP JUMP JUMPDEST PUSH0 PUSH1 0x20 DUP3 ADD SWAP1 POP DUP2 DUP2 SUB PUSH0 DUP4 ADD MSTORE PUSH2 0x1DCF DUP2 PUSH2 0x1D96 JUMP JUMPDEST SWAP1 POP SWAP2 SWAP1 POP JUMP JUMPDEST PUSH32 0x4E487B7100000000000000000000000000000000000000000000000000000000 PUSH0 MSTORE PUSH1 0x32 PUSH1 0x4 MSTORE PUSH1 0x24 PUSH0 REVERT JUMPDEST PUSH0 PUSH2 0x1E0D DUP3 PUSH2 0x176D JUMP JUMPDEST SWAP2 POP PUSH32 0xFFFFFFFFFFFFFFFFFFFFFFFFFFFFFFFFFFFFFFFFFFFFFFFFFFFFFFFFFFFFFFFF DUP3 SUB PUSH2 0x1E3F JUMPI PUSH2 0x1E3E PUSH2 0x1CE8 JUMP JUMPDEST JUMPDEST PUSH1 0x1 DUP3 ADD SWAP1 POP SWAP2 SWAP1 POP JUMP JUMPDEST PUSH0 DUP2 SWAP1 POP SWAP2 SWAP1 POP JUMP JUMPDEST PUSH2 0x1E64 PUSH2 0x1E5F DUP3 PUSH2 0x176D JUMP JUMPDEST PUSH2 0x1E4A JUMP JUMPDEST DUP3 MSTORE POP POP JUMP JUMPDEST PUSH0 PUSH2 0x1E75 DUP3 DUP5 PUSH2 0x1E53 JUMP JUMPDEST PUSH1 0x20 DUP3 ADD SWAP2 POP DUP2 SWAP1 POP SWAP3 SWAP2 POP POP JUMP JUMPDEST PUSH32 0x4E487B7100000000000000000000000000000000000000000000000000000000 PUSH0 MSTORE PUSH1 0x12 PUSH1 0x4 MSTORE PUSH1 0x24 PUSH0 REVERT JUMPDEST PUSH0 PUSH2 0x1EBB DUP3 PUSH2 0x176D JUMP JUMPDEST SWAP2 POP PUSH2 0x1EC6 DUP4 PUSH2 0x176D JUMP JUMPDEST SWAP3 POP DUP3 PUSH2 0x1ED6 JUMPI PUSH2 0x1ED5 PUSH2 0x1E84 JUMP JUMPDEST JUMPDEST DUP3 DUP3 MOD SWAP1 POP SWAP3 SWAP2 POP POP JUMP JUMPDEST PUSH32 0x72657175697265204C6F74746572794665652028302E30303120657468657229 PUSH0 DUP3 ADD MSTORE PUSH32 0x20746F2070617274696369706174650000000000000000000000000000000000 PUSH1 0x20 DUP3 ADD MSTORE POP JUMP JUMPDEST PUSH0 PUSH2 0x1F3B PUSH1 0x2F DUP4 PUSH2 0x1921 JUMP JUMPDEST SWAP2 POP PUSH2 0x1F46 DUP3 PUSH2 0x1EE1 JUMP JUMPDEST PUSH1 0x40 DUP3 ADD SWAP1 POP SWAP2 SWAP1 POP JUMP JUMPDEST PUSH0 PUSH1 0x20 DUP3 ADD SWAP1 POP DUP2 DUP2 SUB PUSH0 DUP4 ADD MSTORE PUSH2 0x1F68 DUP2 PUSH2 0x1F2F JUMP JUMPDEST SWAP1 POP SWAP2 SWAP1 POP JUMP JUMPDEST PUSH32 0x4D756C746950617274794C6F74746572793A3A636F6D6D6974486173684C6F74 PUSH0 DUP3 ADD MSTORE PUSH32 0x746572793A204D6178696D756D206E756D626572206F6620706C617965727320 PUSH1 0x20 DUP3 ADD MSTORE PUSH32 0x6C696D6974206578636565646564000000000000000000000000000000000000 PUSH1 0x40 DUP3 ADD MSTORE POP JUMP JUMPDEST PUSH0 PUSH2 0x1FEF PUSH1 0x4E DUP4 PUSH2 0x1921 JUMP JUMPDEST SWAP2 POP PUSH2 0x1FFA DUP3 PUSH2 0x1F6F JUMP JUMPDEST PUSH1 0x60 DUP3 ADD SWAP1 POP SWAP2 SWAP1 POP JUMP JUMPDEST PUSH0 PUSH1 0x20 DUP3 ADD SWAP1 POP DUP2 DUP2 SUB PUSH0 DUP4 ADD MSTORE PUSH2 0x201C DUP2 PUSH2 0x1FE3 JUMP JUMPDEST SWAP1 POP SWAP2 SWAP1 POP JUMP JUMPDEST PUSH32 0x4D756C746950617274794C6F74746572793A3A636F6D6D6974486173684C6F74 PUSH0 DUP3 ADD MSTORE PUSH32 0x746572793A2047616D65206973206E6F7420696E20636F6D6D69742073746167 PUSH1 0x20 DUP3 ADD MSTORE PUSH32 0x6500000000000000000000000000000000000000000000000000000000000000 PUSH1 0x40 DUP3 ADD MSTORE POP JUMP JUMPDEST PUSH0 PUSH2 0x20A3 PUSH1 0x41 DUP4 PUSH2 0x1921 JUMP JUMPDEST SWAP2 POP PUSH2 0x20AE DUP3 PUSH2 0x2023 JUMP JUMPDEST PUSH1 0x60 DUP3 ADD SWAP1 POP SWAP2 SWAP1 POP JUMP JUMPDEST PUSH0 PUSH1 0x20 DUP3 ADD SWAP1 POP DUP2 DUP2 SUB PUSH0 DUP4 ADD MSTORE PUSH2 0x20D0 DUP2 PUSH2 0x2097 JUMP JUMPDEST SWAP1 POP SWAP2 SWAP1 POP JUMP JUMPDEST PUSH32 0x4D756C746950617274794C6F74746572793A3A77697468647261773A2047616D PUSH0 DUP3 ADD MSTORE PUSH32 0x65206973206E6F7420696E2061776172642074696D656F757420737461676500 PUSH1 0x20 DUP3 ADD MSTORE POP JUMP JUMPDEST PUSH0 PUSH2 0x2131 PUSH1 0x3F DUP4 PUSH2 0x1921 JUMP JUMPDEST SWAP2 POP PUSH2 0x213C DUP3 PUSH2 0x20D7 JUMP JUMPDEST PUSH1 0x40 DUP3 ADD SWAP1 POP SWAP2 SWAP1 POP JUMP JUMPDEST PUSH0 PUSH1 0x20 DUP3 ADD SWAP1 POP DUP2 DUP2 SUB PUSH0 DUP4 ADD MSTORE PUSH2 0x215E DUP2 PUSH2 0x2125 JUMP JUMPDEST SWAP1 POP SWAP2 SWAP1 POP JUMP JUMPDEST PUSH32 0x4D756C746950617274794C6F74746572793A3A77697468647261773A20596F75 PUSH0 DUP3 ADD MSTORE PUSH32 0x20617265206E6F7420746865206F776E6572206F662074686973206C6F747465 PUSH1 0x20 DUP3 ADD MSTORE PUSH32 0x7279000000000000000000000000000000000000000000000000000000000000 PUSH1 0x40 DUP3 ADD MSTORE POP JUMP JUMPDEST PUSH0 PUSH2 0x21E5 PUSH1 0x42 DUP4 PUSH2 0x1921 JUMP JUMPDEST SWAP2 POP PUSH2 0x21F0 DUP3 PUSH2 0x2165 JUMP JUMPDEST PUSH1 0x60 DUP3 ADD SWAP1 POP SWAP2 SWAP1 POP JUMP JUMPDEST PUSH0 PUSH1 0x20 DUP3 ADD SWAP1 POP DUP2 DUP2 SUB PUSH0 DUP4 ADD MSTORE PUSH2 0x2212 DUP2 PUSH2 0x21D9 JUMP JUMPDEST SWAP1 POP SWAP2 SWAP1 POP JUMP JUMPDEST PUSH32 0x4D756C746950617274794C6F74746572793A3A77697468647261773A20596F75 PUSH0 DUP3 ADD MSTORE PUSH32 0x206861766520616C72656164792077697468647261776E2074686973206C6F74 PUSH1 0x20 DUP3 ADD MSTORE PUSH32 0x7465727900000000000000000000000000000000000000000000000000000000 PUSH1 0x40 DUP3 ADD MSTORE POP JUMP JUMPDEST PUSH0 PUSH2 0x2299 PUSH1 0x44 DUP4 PUSH2 0x1921 JUMP JUMPDEST SWAP2 POP PUSH2 0x22A4 DUP3 PUSH2 0x2219 JUMP JUMPDEST PUSH1 0x60 DUP3 ADD SWAP1 POP SWAP2 SWAP1 POP JUMP JUMPDEST PUSH0 PUSH1 0x20 DUP3 ADD SWAP1 POP DUP2 DUP2 SUB PUSH0 DUP4 ADD MSTORE PUSH2 0x22C6 DUP2 PUSH2 0x228D JUMP JUMPDEST SWAP1 POP SWAP2 SWAP1 POP JUMP JUMPDEST PUSH0 PUSH2 0x22D7 DUP3 PUSH2 0x176D JUMP JUMPDEST SWAP2 POP PUSH0 DUP3 SUB PUSH2 0x22E9 JUMPI PUSH2 0x22E8 PUSH2 0x1CE8 JUMP JUMPDEST JUMPDEST PUSH1 0x1 DUP3 SUB SWAP1 POP SWAP2 SWAP1 POP JUMP JUMPDEST PUSH0 PUSH2 0x22FE DUP3 PUSH2 0x176D JUMP JUMPDEST SWAP2 POP PUSH2 0x2309 DUP4 PUSH2 0x176D JUMP JUMPDEST SWAP3 POP DUP3 DUP3 SUB SWAP1 POP DUP2 DUP2 GT ISZERO PUSH2 0x2321 JUMPI PUSH2 0x2320 PUSH2 0x1CE8 JUMP JUMPDEST JUMPDEST SWAP3 SWAP2 POP POP JUMP JUMPDEST PUSH0 DUP2 PUSH1 0x60 SHL SWAP1 POP SWAP2 SWAP1 POP JUMP JUMPDEST PUSH0 PUSH2 0x233D DUP3 PUSH2 0x2327 JUMP JUMPDEST SWAP1 POP SWAP2 SWAP1 POP JUMP JUMPDEST PUSH0 PUSH2 0x234E DUP3 PUSH2 0x2333 JUMP JUMPDEST SWAP1 POP SWAP2 SWAP1 POP JUMP JUMPDEST PUSH2 0x2366 PUSH2 0x2361 DUP3 PUSH2 0x1820 JUMP JUMPDEST PUSH2 0x2344 JUMP JUMPDEST DUP3 MSTORE POP POP JUMP JUMPDEST PUSH0 DUP2 PUSH1 0xF0 SHL SWAP1 POP SWAP2 SWAP1 POP JUMP JUMPDEST PUSH0 PUSH2 0x2382 DUP3 PUSH2 0x236C JUMP JUMPDEST SWAP1 POP SWAP2 SWAP1 POP JUMP JUMPDEST PUSH2 0x239A PUSH2 0x2395 DUP3 PUSH2 0x17CB JUMP JUMPDEST PUSH2 0x2378 JUMP JUMPDEST DUP3 MSTORE POP POP JUMP JUMPDEST PUSH0 DUP2 SWAP1 POP SWAP3 SWAP2 POP POP JUMP JUMPDEST PUSH0 PUSH2 0x23B4 DUP3 PUSH2 0x1917 JUMP JUMPDEST PUSH2 0x23BE DUP2 DUP6 PUSH2 0x23A0 JUMP JUMPDEST SWAP4 POP PUSH2 0x23CE DUP2 DUP6 PUSH1 0x20 DUP7 ADD PUSH2 0x1931 JUMP JUMPDEST DUP1 DUP5 ADD SWAP2 POP POP SWAP3 SWAP2 POP POP JUMP JUMPDEST PUSH0 PUSH2 0x23E5 DUP3 DUP7 PUSH2 0x2355 JUMP JUMPDEST PUSH1 0x14 DUP3 ADD SWAP2 POP PUSH2 0x23F5 DUP3 DUP6 PUSH2 0x2389 JUMP JUMPDEST PUSH1 0x2 DUP3 ADD SWAP2 POP PUSH2 0x2405 DUP3 DUP5 PUSH2 0x23AA JUMP JUMPDEST SWAP2 POP DUP2 SWAP1 POP SWAP5 SWAP4 POP POP POP POP JUMP JUMPDEST PUSH32 0x4D756C746950617274794C6F74746572793A3A72657665616C4C6F7474657279 PUSH0 DUP3 ADD MSTORE PUSH32 0x3A2047616D65206973206E6F7420696E2072657665616C207374616765000000 PUSH1 0x20 DUP3 ADD MSTORE POP JUMP JUMPDEST PUSH0 PUSH2 0x246C PUSH1 0x3D DUP4 PUSH2 0x1921 JUMP JUMPDEST SWAP2 POP PUSH2 0x2477 DUP3 PUSH2 0x2412 JUMP JUMPDEST PUSH1 0x40 DUP3 ADD SWAP1 POP SWAP2 SWAP1 POP JUMP JUMPDEST PUSH0 PUSH1 0x20 DUP3 ADD SWAP1 POP DUP2 DUP2 SUB PUSH0 DUP4 ADD MSTORE PUSH2 0x2499 DUP2 PUSH2 0x2460 JUMP JUMPDEST SWAP1 POP SWAP2 SWAP1 POP JUMP JUMPDEST PUSH32 0x4D756C746950617274794C6F74746572793A3A72657665616C4C6F7474657279 PUSH0 DUP3 ADD MSTORE PUSH32 0x3A20596F7520617265206E6F7420746865206F776E6572206F66207468697320 PUSH1 0x20 DUP3 ADD MSTORE PUSH32 0x6C6F747465727900000000000000000000000000000000000000000000000000 PUSH1 0x40 DUP3 ADD MSTORE POP JUMP JUMPDEST PUSH0 PUSH2 0x2520 PUSH1 0x47 DUP4 PUSH2 0x1921 JUMP JUMPDEST SWAP2 POP PUSH2 0x252B DUP3 PUSH2 0x24A0 JUMP JUMPDEST PUSH1 0x60 DUP3 ADD SWAP1 POP SWAP2 SWAP1 POP JUMP JUMPDEST PUSH0 PUSH1 0x20 DUP3 ADD SWAP1 POP DUP2 DUP2 SUB PUSH0 DUP4 ADD MSTORE PUSH2 0x254D DUP2 PUSH2 0x2514 JUMP JUMPDEST SWAP1 POP SWAP2 SWAP1 POP JUMP JUMPDEST PUSH0 PUSH2 0x255E DUP3 PUSH2 0x176D JUMP JUMPDEST SWAP2 POP PUSH2 0x2569 DUP4 PUSH2 0x176D JUMP JUMPDEST SWAP3 POP DUP3 DUP3 MUL PUSH2 0x2577 DUP2 PUSH2 0x176D JUMP JUMPDEST SWAP2 POP DUP3 DUP3 DIV DUP5 EQ DUP4 ISZERO OR PUSH2 0x258E JUMPI PUSH2 0x258D PUSH2 0x1CE8 JUMP JUMPDEST JUMPDEST POP SWAP3 SWAP2 POP POP JUMP JUMPDEST PUSH0 PUSH2 0x259F DUP3 PUSH2 0x176D JUMP JUMPDEST SWAP2 POP PUSH2 0x25AA DUP4 PUSH2 0x176D JUMP JUMPDEST SWAP3 POP DUP3 PUSH2 0x25BA JUMPI PUSH2 0x25B9 PUSH2 0x1E84 JUMP JUMPDEST JUMPDEST DUP3 DUP3 DIV SWAP1 POP SWAP3 SWAP2 POP POP JUMP JUMPDEST PUSH0 PUSH8 0xFFFFFFFFFFFFFFFF DUP3 AND SWAP1 POP SWAP2 SWAP1 POP JUMP JUMPDEST PUSH2 0x25E1 DUP2 PUSH2 0x25C5 JUMP JUMPDEST DUP3 MSTORE POP POP JUMP JUMPDEST PUSH0 PUSH1 0x80 DUP3 ADD SWAP1 POP PUSH2 0x25FA PUSH0 DUP4 ADD DUP8 PUSH2 0x1831 JUMP JUMPDEST PUSH2 0x2607 PUSH1 0x20 DUP4 ADD DUP7 PUSH2 0x18EF JUMP JUMPDEST PUSH2 0x2614 PUSH1 0x40 DUP4 ADD DUP6 PUSH2 0x1B94 JUMP JUMPDEST PUSH2 0x2621 PUSH1 0x60 DUP4 ADD DUP5 PUSH2 0x25D8 JUMP JUMPDEST SWAP6 SWAP5 POP POP POP POP POP JUMP JUMPDEST PUSH32 0x436F6D6D697452657665616C3A3A72657665616C43686F6963653A20416C7265 PUSH0 DUP3 ADD MSTORE PUSH32 0x6164792072657665616C65640000000000000000000000000000000000000000 PUSH1 0x20 DUP3 ADD MSTORE POP JUMP JUMPDEST PUSH0 PUSH2 0x2684 PUSH1 0x2C DUP4 PUSH2 0x1921 JUMP JUMPDEST SWAP2 POP PUSH2 0x268F DUP3 PUSH2 0x262A JUMP JUMPDEST PUSH1 0x40 DUP3 ADD SWAP1 POP SWAP2 SWAP1 POP JUMP JUMPDEST PUSH0 PUSH1 0x20 DUP3 ADD SWAP1 POP DUP2 DUP2 SUB PUSH0 DUP4 ADD MSTORE PUSH2 0x26B1 DUP2 PUSH2 0x2678 JUMP JUMPDEST SWAP1 POP SWAP2 SWAP1 POP JUMP JUMPDEST PUSH32 0x436F6D6D697452657665616C3A3A72657665616C43686F6963653A2052657665 PUSH0 DUP3 ADD MSTORE PUSH32 0x616C6564206861736820646F6573206E6F74206D6174636820636F6D6D697400 PUSH1 0x20 DUP3 ADD MSTORE POP JUMP JUMPDEST PUSH0 PUSH2 0x2712 PUSH1 0x3F DUP4 PUSH2 0x1921 JUMP JUMPDEST SWAP2 POP PUSH2 0x271D DUP3 PUSH2 0x26B8 JUMP JUMPDEST PUSH1 0x40 DUP3 ADD SWAP1 POP SWAP2 SWAP1 POP JUMP JUMPDEST PUSH0 PUSH1 0x20 DUP3 ADD SWAP1 POP DUP2 DUP2 SUB PUSH0 DUP4 ADD MSTORE PUSH2 0x273F DUP2 PUSH2 0x2706 JUMP JUMPDEST SWAP1 POP SWAP2 SWAP1 POP JUMP JUMPDEST PUSH0 PUSH1 0x60 DUP3 ADD SWAP1 POP PUSH2 0x2759 PUSH0 DUP4 ADD DUP7 PUSH2 0x1831 JUMP JUMPDEST PUSH2 0x2766 PUSH1 0x20 DUP4 ADD DUP6 PUSH2 0x17D8 JUMP JUMPDEST DUP2 DUP2 SUB PUSH1 0x40 DUP4 ADD MSTORE PUSH2 0x2778 DUP2 DUP5 PUSH2 0x1969 JUMP JUMPDEST SWAP1 POP SWAP5 SWAP4 POP POP POP POP JUMP INVALID LOG2 PUSH5 0x6970667358 0x22 SLT KECCAK256 0xDB 0xD1 0xF7 PUSH2 0x2C0E 0x2B SLT EQ 0xAE OR 0xC3 SWAP2 PUSH21 0xA8F2FB01E1D0227604932C3D8E1BA886603164736F PUSH13 0x63430008160033000000000000 "
				},
				"gasEstimates": {
					"creation": {
						"codeDepositCost": "2033600",
						"executionCost": "infinite",
						"totalCost": "infinite"
					},
					"external": {
						"N()": "2513",
						"T1()": "2469",
						"T2()": "2448",
						"T3()": "2492",
						"awardLottery()": "infinite",
						"commitHashedLottery(bytes32)": "infinite",
						"getGameStage()": "infinite",
						"getSaltedHash(uint16,string)": "infinite",
						"isOwner()": "2557",
						"lotteries(uint256)": "infinite",
						"owner()": "2560",
						"revealLottery(uint256,uint16,string)": "infinite",
						"startStageTime()": "2447",
						"withdraw(uint256)": "infinite"
					},
					"internal": {
						"_resetGame()": "56413",
						"_rewardWinner(address)": "infinite",
						"_withdrawBadLottery(uint256)": "infinite"
					}
				},
				"methodIdentifiers": {
					"N()": "c9e525df",
					"T1()": "a11efef4",
					"T2()": "84c9ad6e",
					"T3()": "31081d7e",
					"awardLottery()": "15753ec0",
					"commitHashedLottery(bytes32)": "218e8a9e",
					"getGameStage()": "2f0bca26",
					"getSaltedHash(uint16,string)": "5a07ec0b",
					"isOwner()": "8f32d59b",
					"lotteries(uint256)": "1398e076",
					"owner()": "8da5cb5b",
					"revealLottery(uint256,uint16,string)": "acf1a0ac",
					"startStageTime()": "99023f1b",
					"withdraw(uint256)": "2e1a7d4d"
				}
			},
			"storageLayout": {
				"storage": [
					{
						"astId": 152,
						"contract": "lottery.sol:MultiPartyLottery",
						"label": "_owner",
						"offset": 0,
						"slot": "0",
						"type": "t_address"
					},
					{
						"astId": 13,
						"contract": "lottery.sol:MultiPartyLottery",
						"label": "commits",
						"offset": 0,
						"slot": "1",
						"type": "t_mapping(t_uint256,t_struct(Commit)8_storage)"
					},
					{
						"astId": 202,
						"contract": "lottery.sol:MultiPartyLottery",
						"label": "_gameStage",
						"offset": 0,
						"slot": "2",
						"type": "t_uint16"
					},
					{
						"astId": 206,
						"contract": "lottery.sol:MultiPartyLottery",
						"label": "startStageTime",
						"offset": 0,
						"slot": "3",
						"type": "t_uint256"
					},
					{
						"astId": 208,
						"contract": "lottery.sol:MultiPartyLottery",
						"label": "T1",
						"offset": 0,
						"slot": "4",
						"type": "t_uint256"
					},
					{
						"astId": 210,
						"contract": "lottery.sol:MultiPartyLottery",
						"label": "T2",
						"offset": 0,
						"slot": "5",
						"type": "t_uint256"
					},
					{
						"astId": 212,
						"contract": "lottery.sol:MultiPartyLottery",
						"label": "T3",
						"offset": 0,
						"slot": "6",
						"type": "t_uint256"
					},
					{
						"astId": 214,
						"contract": "lottery.sol:MultiPartyLottery",
						"label": "N",
						"offset": 0,
						"slot": "7",
						"type": "t_uint256"
					},
					{
						"astId": 217,
						"contract": "lottery.sol:MultiPartyLottery",
						"label": "_num_participants",
						"offset": 0,
						"slot": "8",
						"type": "t_uint256"
					},
					{
						"astId": 220,
						"contract": "lottery.sol:MultiPartyLottery",
						"label": "_num_revealed",
						"offset": 0,
						"slot": "9",
						"type": "t_uint256"
					},
					{
						"astId": 245,
						"contract": "lottery.sol:MultiPartyLottery",
						"label": "lotteries",
						"offset": 0,
						"slot": "10",
						"type": "t_mapping(t_uint256,t_struct(Lottery)240_storage)"
					}
				],
				"types": {
					"t_address": {
						"encoding": "inplace",
						"label": "address",
						"numberOfBytes": "20"
					},
					"t_bool": {
						"encoding": "inplace",
						"label": "bool",
						"numberOfBytes": "1"
					},
					"t_bytes32": {
						"encoding": "inplace",
						"label": "bytes32",
						"numberOfBytes": "32"
					},
					"t_mapping(t_uint256,t_struct(Commit)8_storage)": {
						"encoding": "mapping",
						"key": "t_uint256",
						"label": "mapping(uint256 => struct CommitReveal.Commit)",
						"numberOfBytes": "32",
						"value": "t_struct(Commit)8_storage"
					},
					"t_mapping(t_uint256,t_struct(Lottery)240_storage)": {
						"encoding": "mapping",
						"key": "t_uint256",
						"label": "mapping(uint256 => struct MultiPartyLottery.Lottery)",
						"numberOfBytes": "32",
						"value": "t_struct(Lottery)240_storage"
					},
					"t_struct(Commit)8_storage": {
						"encoding": "inplace",
						"label": "struct CommitReveal.Commit",
						"members": [
							{
								"astId": 3,
								"contract": "lottery.sol:MultiPartyLottery",
								"label": "commit",
								"offset": 0,
								"slot": "0",
								"type": "t_bytes32"
							},
							{
								"astId": 5,
								"contract": "lottery.sol:MultiPartyLottery",
								"label": "block",
								"offset": 0,
								"slot": "1",
								"type": "t_uint64"
							},
							{
								"astId": 7,
								"contract": "lottery.sol:MultiPartyLottery",
								"label": "revealed",
								"offset": 8,
								"slot": "1",
								"type": "t_bool"
							}
						],
						"numberOfBytes": "64"
					},
					"t_struct(Lottery)240_storage": {
						"encoding": "inplace",
						"label": "struct MultiPartyLottery.Lottery",
						"members": [
							{
								"astId": 231,
								"contract": "lottery.sol:MultiPartyLottery",
								"label": "choice",
								"offset": 0,
								"slot": "0",
								"type": "t_uint16"
							},
							{
								"astId": 233,
								"contract": "lottery.sol:MultiPartyLottery",
								"label": "isCommitted",
								"offset": 2,
								"slot": "0",
								"type": "t_bool"
							},
							{
								"astId": 235,
								"contract": "lottery.sol:MultiPartyLottery",
								"label": "isRevealed",
								"offset": 3,
								"slot": "0",
								"type": "t_bool"
							},
							{
								"astId": 237,
								"contract": "lottery.sol:MultiPartyLottery",
								"label": "isWithdrawn",
								"offset": 4,
								"slot": "0",
								"type": "t_bool"
							},
							{
								"astId": 239,
								"contract": "lottery.sol:MultiPartyLottery",
								"label": "addr",
								"offset": 5,
								"slot": "0",
								"type": "t_address"
							}
						],
						"numberOfBytes": "32"
					},
					"t_uint16": {
						"encoding": "inplace",
						"label": "uint16",
						"numberOfBytes": "2"
					},
					"t_uint256": {
						"encoding": "inplace",
						"label": "uint256",
						"numberOfBytes": "32"
					},
					"t_uint64": {
						"encoding": "inplace",
						"label": "uint64",
						"numberOfBytes": "8"
					}
				}
			},
			"userdoc": {
				"kind": "user",
				"methods": {},
				"version": 1
			}
		}
	}
}