{
	"CommitReveal.sol": {
		"CommitReveal": {
			"abi": [
				{
					"anonymous": false,
					"inputs": [
						{
							"indexed": false,
							"internalType": "address",
							"name": "sender",
							"type": "address"
						},
						{
							"indexed": false,
							"internalType": "uint256",
							"name": "lotteryId",
							"type": "uint256"
						},
						{
							"indexed": false,
							"internalType": "bytes32",
							"name": "dataHash",
							"type": "bytes32"
						},
						{
							"indexed": false,
							"internalType": "uint64",
							"name": "block",
							"type": "uint64"
						}
					],
					"name": "CommitHash",
					"type": "event"
				},
				{
					"anonymous": false,
					"inputs": [
						{
							"indexed": false,
							"internalType": "address",
							"name": "sender",
							"type": "address"
						},
						{
							"indexed": false,
							"internalType": "uint16",
							"name": "choice",
							"type": "uint16"
						},
						{
							"indexed": false,
							"internalType": "string",
							"name": "salt",
							"type": "string"
						}
					],
					"name": "RevealChoice",
					"type": "event"
				},
				{
					"inputs": [
						{
							"internalType": "uint16",
							"name": "choice",
							"type": "uint16"
						},
						{
							"internalType": "string",
							"name": "salt",
							"type": "string"
						}
					],
					"name": "getSaltedHash",
					"outputs": [
						{
							"internalType": "bytes32",
							"name": "",
							"type": "bytes32"
						}
					],
					"stateMutability": "view",
					"type": "function"
				}
			],
			"devdoc": {
				"kind": "dev",
				"methods": {},
				"version": 1
			},
			"evm": {
				"assembly": "    /* \"CommitReveal.sol\":68:1732  contract CommitReveal {... */\n  mstore(0x40, 0x80)\n  callvalue\n  dup1\n  iszero\n  tag_1\n  jumpi\n  0x00\n  dup1\n  revert\ntag_1:\n  pop\n  dataSize(sub_0)\n  dup1\n  dataOffset(sub_0)\n  0x00\n  codecopy\n  0x00\n  return\nstop\n\nsub_0: assembly {\n        /* \"CommitReveal.sol\":68:1732  contract CommitReveal {... */\n      mstore(0x40, 0x80)\n      callvalue\n      dup1\n      iszero\n      tag_1\n      jumpi\n      0x00\n      dup1\n      revert\n    tag_1:\n      pop\n      jumpi(tag_2, lt(calldatasize, 0x04))\n      shr(0xe0, calldataload(0x00))\n      dup1\n      0x5a07ec0b\n      eq\n      tag_3\n      jumpi\n    tag_2:\n      0x00\n      dup1\n      revert\n        /* \"CommitReveal.sol\":1534:1729  function getSaltedHash(... */\n    tag_3:\n      tag_4\n      0x04\n      dup1\n      calldatasize\n      sub\n      dup2\n      add\n      swap1\n      tag_5\n      swap2\n      swap1\n      tag_6\n      jump\t// in\n    tag_5:\n      tag_7\n      jump\t// in\n    tag_4:\n      mload(0x40)\n      tag_8\n      swap2\n      swap1\n      tag_9\n      jump\t// in\n    tag_8:\n      mload(0x40)\n      dup1\n      swap2\n      sub\n      swap1\n      return\n    tag_7:\n        /* \"CommitReveal.sol\":1638:1645  bytes32 */\n      0x00\n        /* \"CommitReveal.sol\":1700:1704  this */\n      address\n        /* \"CommitReveal.sol\":1707:1713  choice */\n      dup4\n        /* \"CommitReveal.sol\":1715:1719  salt */\n      dup4\n        /* \"CommitReveal.sol\":1675:1720  abi.encodePacked(address(this), choice, salt) */\n      add(0x20, mload(0x40))\n      tag_11\n      swap4\n      swap3\n      swap2\n      swap1\n      tag_12\n      jump\t// in\n    tag_11:\n      mload(0x40)\n      0x20\n      dup2\n      dup4\n      sub\n      sub\n      dup2\n      mstore\n      swap1\n      0x40\n      mstore\n        /* \"CommitReveal.sol\":1665:1721  keccak256(abi.encodePacked(address(this), choice, salt)) */\n      dup1\n      mload\n      swap1\n      0x20\n      add\n      keccak256\n        /* \"CommitReveal.sol\":1658:1721  return keccak256(abi.encodePacked(address(this), choice, salt)) */\n      swap1\n      pop\n        /* \"CommitReveal.sol\":1534:1729  function getSaltedHash(... */\n      swap3\n      swap2\n      pop\n      pop\n      jump\t// out\n        /* \"#utility.yul\":7:82   */\n    tag_13:\n        /* \"#utility.yul\":40:46   */\n      0x00\n        /* \"#utility.yul\":73:75   */\n      0x40\n        /* \"#utility.yul\":67:76   */\n      mload\n        /* \"#utility.yul\":57:76   */\n      swap1\n      pop\n        /* \"#utility.yul\":7:82   */\n      swap1\n      jump\t// out\n        /* \"#utility.yul\":88:205   */\n    tag_14:\n        /* \"#utility.yul\":197:198   */\n      0x00\n        /* \"#utility.yul\":194:195   */\n      dup1\n        /* \"#utility.yul\":187:199   */\n      revert\n        /* \"#utility.yul\":211:328   */\n    tag_15:\n        /* \"#utility.yul\":320:321   */\n      0x00\n        /* \"#utility.yul\":317:318   */\n      dup1\n        /* \"#utility.yul\":310:322   */\n      revert\n        /* \"#utility.yul\":334:423   */\n    tag_16:\n        /* \"#utility.yul\":370:377   */\n      0x00\n        /* \"#utility.yul\":410:416   */\n      0xffff\n        /* \"#utility.yul\":403:408   */\n      dup3\n        /* \"#utility.yul\":399:417   */\n      and\n        /* \"#utility.yul\":388:417   */\n      swap1\n      pop\n        /* \"#utility.yul\":334:423   */\n      swap2\n      swap1\n      pop\n      jump\t// out\n        /* \"#utility.yul\":429:549   */\n    tag_17:\n        /* \"#utility.yul\":501:524   */\n      tag_50\n        /* \"#utility.yul\":518:523   */\n      dup2\n        /* \"#utility.yul\":501:524   */\n      tag_16\n      jump\t// in\n    tag_50:\n        /* \"#utility.yul\":494:499   */\n      dup2\n        /* \"#utility.yul\":491:525   */\n      eq\n        /* \"#utility.yul\":481:543   */\n      tag_51\n      jumpi\n        /* \"#utility.yul\":539:540   */\n      0x00\n        /* \"#utility.yul\":536:537   */\n      dup1\n        /* \"#utility.yul\":529:541   */\n      revert\n        /* \"#utility.yul\":481:543   */\n    tag_51:\n        /* \"#utility.yul\":429:549   */\n      pop\n      jump\t// out\n        /* \"#utility.yul\":555:692   */\n    tag_18:\n        /* \"#utility.yul\":600:605   */\n      0x00\n        /* \"#utility.yul\":638:644   */\n      dup2\n        /* \"#utility.yul\":625:645   */\n      calldataload\n        /* \"#utility.yul\":616:645   */\n      swap1\n      pop\n        /* \"#utility.yul\":654:686   */\n      tag_53\n        /* \"#utility.yul\":680:685   */\n      dup2\n        /* \"#utility.yul\":654:686   */\n      tag_17\n      jump\t// in\n    tag_53:\n        /* \"#utility.yul\":555:692   */\n      swap3\n      swap2\n      pop\n      pop\n      jump\t// out\n        /* \"#utility.yul\":698:815   */\n    tag_19:\n        /* \"#utility.yul\":807:808   */\n      0x00\n        /* \"#utility.yul\":804:805   */\n      dup1\n        /* \"#utility.yul\":797:809   */\n      revert\n        /* \"#utility.yul\":821:938   */\n    tag_20:\n        /* \"#utility.yul\":930:931   */\n      0x00\n        /* \"#utility.yul\":927:928   */\n      dup1\n        /* \"#utility.yul\":920:932   */\n      revert\n        /* \"#utility.yul\":944:1046   */\n    tag_21:\n        /* \"#utility.yul\":985:991   */\n      0x00\n        /* \"#utility.yul\":1036:1038   */\n      0x1f\n        /* \"#utility.yul\":1032:1039   */\n      not\n        /* \"#utility.yul\":1027:1029   */\n      0x1f\n        /* \"#utility.yul\":1020:1025   */\n      dup4\n        /* \"#utility.yul\":1016:1030   */\n      add\n        /* \"#utility.yul\":1012:1040   */\n      and\n        /* \"#utility.yul\":1002:1040   */\n      swap1\n      pop\n        /* \"#utility.yul\":944:1046   */\n      swap2\n      swap1\n      pop\n      jump\t// out\n        /* \"#utility.yul\":1052:1232   */\n    tag_22:\n        /* \"#utility.yul\":1100:1177   */\n      0x4e487b7100000000000000000000000000000000000000000000000000000000\n        /* \"#utility.yul\":1097:1098   */\n      0x00\n        /* \"#utility.yul\":1090:1178   */\n      mstore\n        /* \"#utility.yul\":1197:1201   */\n      0x41\n        /* \"#utility.yul\":1194:1195   */\n      0x04\n        /* \"#utility.yul\":1187:1202   */\n      mstore\n        /* \"#utility.yul\":1221:1225   */\n      0x24\n        /* \"#utility.yul\":1218:1219   */\n      0x00\n        /* \"#utility.yul\":1211:1226   */\n      revert\n        /* \"#utility.yul\":1238:1519   */\n    tag_23:\n        /* \"#utility.yul\":1321:1348   */\n      tag_59\n        /* \"#utility.yul\":1343:1347   */\n      dup3\n        /* \"#utility.yul\":1321:1348   */\n      tag_21\n      jump\t// in\n    tag_59:\n        /* \"#utility.yul\":1313:1319   */\n      dup2\n        /* \"#utility.yul\":1309:1349   */\n      add\n        /* \"#utility.yul\":1451:1457   */\n      dup2\n        /* \"#utility.yul\":1439:1449   */\n      dup2\n        /* \"#utility.yul\":1436:1458   */\n      lt\n        /* \"#utility.yul\":1415:1433   */\n      0xffffffffffffffff\n        /* \"#utility.yul\":1403:1413   */\n      dup3\n        /* \"#utility.yul\":1400:1434   */\n      gt\n        /* \"#utility.yul\":1397:1459   */\n      or\n        /* \"#utility.yul\":1394:1482   */\n      iszero\n      tag_60\n      jumpi\n        /* \"#utility.yul\":1462:1480   */\n      tag_61\n      tag_22\n      jump\t// in\n    tag_61:\n        /* \"#utility.yul\":1394:1482   */\n    tag_60:\n        /* \"#utility.yul\":1502:1512   */\n      dup1\n        /* \"#utility.yul\":1498:1500   */\n      0x40\n        /* \"#utility.yul\":1491:1513   */\n      mstore\n        /* \"#utility.yul\":1281:1519   */\n      pop\n        /* \"#utility.yul\":1238:1519   */\n      pop\n      pop\n      jump\t// out\n        /* \"#utility.yul\":1525:1654   */\n    tag_24:\n        /* \"#utility.yul\":1559:1565   */\n      0x00\n        /* \"#utility.yul\":1586:1606   */\n      tag_63\n      tag_13\n      jump\t// in\n    tag_63:\n        /* \"#utility.yul\":1576:1606   */\n      swap1\n      pop\n        /* \"#utility.yul\":1615:1648   */\n      tag_64\n        /* \"#utility.yul\":1643:1647   */\n      dup3\n        /* \"#utility.yul\":1635:1641   */\n      dup3\n        /* \"#utility.yul\":1615:1648   */\n      tag_23\n      jump\t// in\n    tag_64:\n        /* \"#utility.yul\":1525:1654   */\n      swap2\n      swap1\n      pop\n      jump\t// out\n        /* \"#utility.yul\":1660:1968   */\n    tag_25:\n        /* \"#utility.yul\":1722:1726   */\n      0x00\n        /* \"#utility.yul\":1812:1830   */\n      0xffffffffffffffff\n        /* \"#utility.yul\":1804:1810   */\n      dup3\n        /* \"#utility.yul\":1801:1831   */\n      gt\n        /* \"#utility.yul\":1798:1854   */\n      iszero\n      tag_66\n      jumpi\n        /* \"#utility.yul\":1834:1852   */\n      tag_67\n      tag_22\n      jump\t// in\n    tag_67:\n        /* \"#utility.yul\":1798:1854   */\n    tag_66:\n        /* \"#utility.yul\":1872:1901   */\n      tag_68\n        /* \"#utility.yul\":1894:1900   */\n      dup3\n        /* \"#utility.yul\":1872:1901   */\n      tag_21\n      jump\t// in\n    tag_68:\n        /* \"#utility.yul\":1864:1901   */\n      swap1\n      pop\n        /* \"#utility.yul\":1956:1960   */\n      0x20\n        /* \"#utility.yul\":1950:1954   */\n      dup2\n        /* \"#utility.yul\":1946:1961   */\n      add\n        /* \"#utility.yul\":1938:1961   */\n      swap1\n      pop\n        /* \"#utility.yul\":1660:1968   */\n      swap2\n      swap1\n      pop\n      jump\t// out\n        /* \"#utility.yul\":1974:2120   */\n    tag_26:\n        /* \"#utility.yul\":2071:2077   */\n      dup3\n        /* \"#utility.yul\":2066:2069   */\n      dup2\n        /* \"#utility.yul\":2061:2064   */\n      dup4\n        /* \"#utility.yul\":2048:2078   */\n      calldatacopy\n        /* \"#utility.yul\":2112:2113   */\n      0x00\n        /* \"#utility.yul\":2103:2109   */\n      dup4\n        /* \"#utility.yul\":2098:2101   */\n      dup4\n        /* \"#utility.yul\":2094:2110   */\n      add\n        /* \"#utility.yul\":2087:2114   */\n      mstore\n        /* \"#utility.yul\":1974:2120   */\n      pop\n      pop\n      pop\n      jump\t// out\n        /* \"#utility.yul\":2126:2551   */\n    tag_27:\n        /* \"#utility.yul\":2204:2209   */\n      0x00\n        /* \"#utility.yul\":2229:2295   */\n      tag_71\n        /* \"#utility.yul\":2245:2294   */\n      tag_72\n        /* \"#utility.yul\":2287:2293   */\n      dup5\n        /* \"#utility.yul\":2245:2294   */\n      tag_25\n      jump\t// in\n    tag_72:\n        /* \"#utility.yul\":2229:2295   */\n      tag_24\n      jump\t// in\n    tag_71:\n        /* \"#utility.yul\":2220:2295   */\n      swap1\n      pop\n        /* \"#utility.yul\":2318:2324   */\n      dup3\n        /* \"#utility.yul\":2311:2316   */\n      dup2\n        /* \"#utility.yul\":2304:2325   */\n      mstore\n        /* \"#utility.yul\":2356:2360   */\n      0x20\n        /* \"#utility.yul\":2349:2354   */\n      dup2\n        /* \"#utility.yul\":2345:2361   */\n      add\n        /* \"#utility.yul\":2394:2397   */\n      dup5\n        /* \"#utility.yul\":2385:2391   */\n      dup5\n        /* \"#utility.yul\":2380:2383   */\n      dup5\n        /* \"#utility.yul\":2376:2392   */\n      add\n        /* \"#utility.yul\":2373:2398   */\n      gt\n        /* \"#utility.yul\":2370:2482   */\n      iszero\n      tag_73\n      jumpi\n        /* \"#utility.yul\":2401:2480   */\n      tag_74\n      tag_20\n      jump\t// in\n    tag_74:\n        /* \"#utility.yul\":2370:2482   */\n    tag_73:\n        /* \"#utility.yul\":2491:2545   */\n      tag_75\n        /* \"#utility.yul\":2538:2544   */\n      dup5\n        /* \"#utility.yul\":2533:2536   */\n      dup3\n        /* \"#utility.yul\":2528:2531   */\n      dup6\n        /* \"#utility.yul\":2491:2545   */\n      tag_26\n      jump\t// in\n    tag_75:\n        /* \"#utility.yul\":2210:2551   */\n      pop\n        /* \"#utility.yul\":2126:2551   */\n      swap4\n      swap3\n      pop\n      pop\n      pop\n      jump\t// out\n        /* \"#utility.yul\":2571:2911   */\n    tag_28:\n        /* \"#utility.yul\":2627:2632   */\n      0x00\n        /* \"#utility.yul\":2676:2679   */\n      dup3\n        /* \"#utility.yul\":2669:2673   */\n      0x1f\n        /* \"#utility.yul\":2661:2667   */\n      dup4\n        /* \"#utility.yul\":2657:2674   */\n      add\n        /* \"#utility.yul\":2653:2680   */\n      slt\n        /* \"#utility.yul\":2643:2765   */\n      tag_77\n      jumpi\n        /* \"#utility.yul\":2684:2763   */\n      tag_78\n      tag_19\n      jump\t// in\n    tag_78:\n        /* \"#utility.yul\":2643:2765   */\n    tag_77:\n        /* \"#utility.yul\":2801:2807   */\n      dup2\n        /* \"#utility.yul\":2788:2808   */\n      calldataload\n        /* \"#utility.yul\":2826:2905   */\n      tag_79\n        /* \"#utility.yul\":2901:2904   */\n      dup5\n        /* \"#utility.yul\":2893:2899   */\n      dup3\n        /* \"#utility.yul\":2886:2890   */\n      0x20\n        /* \"#utility.yul\":2878:2884   */\n      dup7\n        /* \"#utility.yul\":2874:2891   */\n      add\n        /* \"#utility.yul\":2826:2905   */\n      tag_27\n      jump\t// in\n    tag_79:\n        /* \"#utility.yul\":2817:2905   */\n      swap2\n      pop\n        /* \"#utility.yul\":2633:2911   */\n      pop\n        /* \"#utility.yul\":2571:2911   */\n      swap3\n      swap2\n      pop\n      pop\n      jump\t// out\n        /* \"#utility.yul\":2917:3569   */\n    tag_6:\n        /* \"#utility.yul\":2994:3000   */\n      0x00\n        /* \"#utility.yul\":3002:3008   */\n      dup1\n        /* \"#utility.yul\":3051:3053   */\n      0x40\n        /* \"#utility.yul\":3039:3048   */\n      dup4\n        /* \"#utility.yul\":3030:3037   */\n      dup6\n        /* \"#utility.yul\":3026:3049   */\n      sub\n        /* \"#utility.yul\":3022:3054   */\n      slt\n        /* \"#utility.yul\":3019:3138   */\n      iszero\n      tag_81\n      jumpi\n        /* \"#utility.yul\":3057:3136   */\n      tag_82\n      tag_14\n      jump\t// in\n    tag_82:\n        /* \"#utility.yul\":3019:3138   */\n    tag_81:\n        /* \"#utility.yul\":3177:3178   */\n      0x00\n        /* \"#utility.yul\":3202:3254   */\n      tag_83\n        /* \"#utility.yul\":3246:3253   */\n      dup6\n        /* \"#utility.yul\":3237:3243   */\n      dup3\n        /* \"#utility.yul\":3226:3235   */\n      dup7\n        /* \"#utility.yul\":3222:3244   */\n      add\n        /* \"#utility.yul\":3202:3254   */\n      tag_18\n      jump\t// in\n    tag_83:\n        /* \"#utility.yul\":3192:3254   */\n      swap3\n      pop\n        /* \"#utility.yul\":3148:3264   */\n      pop\n        /* \"#utility.yul\":3331:3333   */\n      0x20\n        /* \"#utility.yul\":3320:3329   */\n      dup4\n        /* \"#utility.yul\":3316:3334   */\n      add\n        /* \"#utility.yul\":3303:3335   */\n      calldataload\n        /* \"#utility.yul\":3362:3380   */\n      0xffffffffffffffff\n        /* \"#utility.yul\":3354:3360   */\n      dup2\n        /* \"#utility.yul\":3351:3381   */\n      gt\n        /* \"#utility.yul\":3348:3465   */\n      iszero\n      tag_84\n      jumpi\n        /* \"#utility.yul\":3384:3463   */\n      tag_85\n      tag_15\n      jump\t// in\n    tag_85:\n        /* \"#utility.yul\":3348:3465   */\n    tag_84:\n        /* \"#utility.yul\":3489:3552   */\n      tag_86\n        /* \"#utility.yul\":3544:3551   */\n      dup6\n        /* \"#utility.yul\":3535:3541   */\n      dup3\n        /* \"#utility.yul\":3524:3533   */\n      dup7\n        /* \"#utility.yul\":3520:3542   */\n      add\n        /* \"#utility.yul\":3489:3552   */\n      tag_28\n      jump\t// in\n    tag_86:\n        /* \"#utility.yul\":3479:3552   */\n      swap2\n      pop\n        /* \"#utility.yul\":3274:3562   */\n      pop\n        /* \"#utility.yul\":2917:3569   */\n      swap3\n      pop\n      swap3\n      swap1\n      pop\n      jump\t// out\n        /* \"#utility.yul\":3575:3652   */\n    tag_29:\n        /* \"#utility.yul\":3612:3619   */\n      0x00\n        /* \"#utility.yul\":3641:3646   */\n      dup2\n        /* \"#utility.yul\":3630:3646   */\n      swap1\n      pop\n        /* \"#utility.yul\":3575:3652   */\n      swap2\n      swap1\n      pop\n      jump\t// out\n        /* \"#utility.yul\":3658:3776   */\n    tag_30:\n        /* \"#utility.yul\":3745:3769   */\n      tag_89\n        /* \"#utility.yul\":3763:3768   */\n      dup2\n        /* \"#utility.yul\":3745:3769   */\n      tag_29\n      jump\t// in\n    tag_89:\n        /* \"#utility.yul\":3740:3743   */\n      dup3\n        /* \"#utility.yul\":3733:3770   */\n      mstore\n        /* \"#utility.yul\":3658:3776   */\n      pop\n      pop\n      jump\t// out\n        /* \"#utility.yul\":3782:4004   */\n    tag_9:\n        /* \"#utility.yul\":3875:3879   */\n      0x00\n        /* \"#utility.yul\":3913:3915   */\n      0x20\n        /* \"#utility.yul\":3902:3911   */\n      dup3\n        /* \"#utility.yul\":3898:3916   */\n      add\n        /* \"#utility.yul\":3890:3916   */\n      swap1\n      pop\n        /* \"#utility.yul\":3926:3997   */\n      tag_91\n        /* \"#utility.yul\":3994:3995   */\n      0x00\n        /* \"#utility.yul\":3983:3992   */\n      dup4\n        /* \"#utility.yul\":3979:3996   */\n      add\n        /* \"#utility.yul\":3970:3976   */\n      dup5\n        /* \"#utility.yul\":3926:3997   */\n      tag_30\n      jump\t// in\n    tag_91:\n        /* \"#utility.yul\":3782:4004   */\n      swap3\n      swap2\n      pop\n      pop\n      jump\t// out\n        /* \"#utility.yul\":4010:4136   */\n    tag_31:\n        /* \"#utility.yul\":4047:4054   */\n      0x00\n        /* \"#utility.yul\":4087:4129   */\n      0xffffffffffffffffffffffffffffffffffffffff\n        /* \"#utility.yul\":4080:4085   */\n      dup3\n        /* \"#utility.yul\":4076:4130   */\n      and\n        /* \"#utility.yul\":4065:4130   */\n      swap1\n      pop\n        /* \"#utility.yul\":4010:4136   */\n      swap2\n      swap1\n      pop\n      jump\t// out\n        /* \"#utility.yul\":4142:4238   */\n    tag_32:\n        /* \"#utility.yul\":4179:4186   */\n      0x00\n        /* \"#utility.yul\":4208:4232   */\n      tag_94\n        /* \"#utility.yul\":4226:4231   */\n      dup3\n        /* \"#utility.yul\":4208:4232   */\n      tag_31\n      jump\t// in\n    tag_94:\n        /* \"#utility.yul\":4197:4232   */\n      swap1\n      pop\n        /* \"#utility.yul\":4142:4238   */\n      swap2\n      swap1\n      pop\n      jump\t// out\n        /* \"#utility.yul\":4244:4338   */\n    tag_33:\n        /* \"#utility.yul\":4277:4285   */\n      0x00\n        /* \"#utility.yul\":4325:4330   */\n      dup2\n        /* \"#utility.yul\":4321:4323   */\n      0x60\n        /* \"#utility.yul\":4317:4331   */\n      shl\n        /* \"#utility.yul\":4296:4331   */\n      swap1\n      pop\n        /* \"#utility.yul\":4244:4338   */\n      swap2\n      swap1\n      pop\n      jump\t// out\n        /* \"#utility.yul\":4344:4438   */\n    tag_34:\n        /* \"#utility.yul\":4383:4390   */\n      0x00\n        /* \"#utility.yul\":4412:4432   */\n      tag_97\n        /* \"#utility.yul\":4426:4431   */\n      dup3\n        /* \"#utility.yul\":4412:4432   */\n      tag_33\n      jump\t// in\n    tag_97:\n        /* \"#utility.yul\":4401:4432   */\n      swap1\n      pop\n        /* \"#utility.yul\":4344:4438   */\n      swap2\n      swap1\n      pop\n      jump\t// out\n        /* \"#utility.yul\":4444:4544   */\n    tag_35:\n        /* \"#utility.yul\":4483:4490   */\n      0x00\n        /* \"#utility.yul\":4512:4538   */\n      tag_99\n        /* \"#utility.yul\":4532:4537   */\n      dup3\n        /* \"#utility.yul\":4512:4538   */\n      tag_34\n      jump\t// in\n    tag_99:\n        /* \"#utility.yul\":4501:4538   */\n      swap1\n      pop\n        /* \"#utility.yul\":4444:4544   */\n      swap2\n      swap1\n      pop\n      jump\t// out\n        /* \"#utility.yul\":4550:4707   */\n    tag_36:\n        /* \"#utility.yul\":4655:4700   */\n      tag_101\n        /* \"#utility.yul\":4675:4699   */\n      tag_102\n        /* \"#utility.yul\":4693:4698   */\n      dup3\n        /* \"#utility.yul\":4675:4699   */\n      tag_32\n      jump\t// in\n    tag_102:\n        /* \"#utility.yul\":4655:4700   */\n      tag_35\n      jump\t// in\n    tag_101:\n        /* \"#utility.yul\":4650:4653   */\n      dup3\n        /* \"#utility.yul\":4643:4701   */\n      mstore\n        /* \"#utility.yul\":4550:4707   */\n      pop\n      pop\n      jump\t// out\n        /* \"#utility.yul\":4713:4809   */\n    tag_37:\n        /* \"#utility.yul\":4747:4755   */\n      0x00\n        /* \"#utility.yul\":4796:4801   */\n      dup2\n        /* \"#utility.yul\":4791:4794   */\n      0xf0\n        /* \"#utility.yul\":4787:4802   */\n      shl\n        /* \"#utility.yul\":4766:4802   */\n      swap1\n      pop\n        /* \"#utility.yul\":4713:4809   */\n      swap2\n      swap1\n      pop\n      jump\t// out\n        /* \"#utility.yul\":4815:4909   */\n    tag_38:\n        /* \"#utility.yul\":4853:4860   */\n      0x00\n        /* \"#utility.yul\":4882:4903   */\n      tag_105\n        /* \"#utility.yul\":4897:4902   */\n      dup3\n        /* \"#utility.yul\":4882:4903   */\n      tag_37\n      jump\t// in\n    tag_105:\n        /* \"#utility.yul\":4871:4903   */\n      swap1\n      pop\n        /* \"#utility.yul\":4815:4909   */\n      swap2\n      swap1\n      pop\n      jump\t// out\n        /* \"#utility.yul\":4915:5068   */\n    tag_39:\n        /* \"#utility.yul\":5018:5061   */\n      tag_107\n        /* \"#utility.yul\":5037:5060   */\n      tag_108\n        /* \"#utility.yul\":5054:5059   */\n      dup3\n        /* \"#utility.yul\":5037:5060   */\n      tag_16\n      jump\t// in\n    tag_108:\n        /* \"#utility.yul\":5018:5061   */\n      tag_38\n      jump\t// in\n    tag_107:\n        /* \"#utility.yul\":5013:5016   */\n      dup3\n        /* \"#utility.yul\":5006:5062   */\n      mstore\n        /* \"#utility.yul\":4915:5068   */\n      pop\n      pop\n      jump\t// out\n        /* \"#utility.yul\":5074:5173   */\n    tag_40:\n        /* \"#utility.yul\":5126:5132   */\n      0x00\n        /* \"#utility.yul\":5160:5165   */\n      dup2\n        /* \"#utility.yul\":5154:5166   */\n      mload\n        /* \"#utility.yul\":5144:5166   */\n      swap1\n      pop\n        /* \"#utility.yul\":5074:5173   */\n      swap2\n      swap1\n      pop\n      jump\t// out\n        /* \"#utility.yul\":5179:5327   */\n    tag_41:\n        /* \"#utility.yul\":5281:5292   */\n      0x00\n        /* \"#utility.yul\":5318:5321   */\n      dup2\n        /* \"#utility.yul\":5303:5321   */\n      swap1\n      pop\n        /* \"#utility.yul\":5179:5327   */\n      swap3\n      swap2\n      pop\n      pop\n      jump\t// out\n        /* \"#utility.yul\":5333:5579   */\n    tag_42:\n        /* \"#utility.yul\":5414:5415   */\n      0x00\n        /* \"#utility.yul\":5424:5537   */\n    tag_112:\n        /* \"#utility.yul\":5438:5444   */\n      dup4\n        /* \"#utility.yul\":5435:5436   */\n      dup2\n        /* \"#utility.yul\":5432:5445   */\n      lt\n        /* \"#utility.yul\":5424:5537   */\n      iszero\n      tag_114\n      jumpi\n        /* \"#utility.yul\":5523:5524   */\n      dup1\n        /* \"#utility.yul\":5518:5521   */\n      dup3\n        /* \"#utility.yul\":5514:5525   */\n      add\n        /* \"#utility.yul\":5508:5526   */\n      mload\n        /* \"#utility.yul\":5504:5505   */\n      dup2\n        /* \"#utility.yul\":5499:5502   */\n      dup5\n        /* \"#utility.yul\":5495:5506   */\n      add\n        /* \"#utility.yul\":5488:5527   */\n      mstore\n        /* \"#utility.yul\":5460:5462   */\n      0x20\n        /* \"#utility.yul\":5457:5458   */\n      dup2\n        /* \"#utility.yul\":5453:5463   */\n      add\n        /* \"#utility.yul\":5448:5463   */\n      swap1\n      pop\n        /* \"#utility.yul\":5424:5537   */\n      jump(tag_112)\n    tag_114:\n        /* \"#utility.yul\":5571:5572   */\n      0x00\n        /* \"#utility.yul\":5562:5568   */\n      dup5\n        /* \"#utility.yul\":5557:5560   */\n      dup5\n        /* \"#utility.yul\":5553:5569   */\n      add\n        /* \"#utility.yul\":5546:5573   */\n      mstore\n        /* \"#utility.yul\":5395:5579   */\n      pop\n        /* \"#utility.yul\":5333:5579   */\n      pop\n      pop\n      pop\n      jump\t// out\n        /* \"#utility.yul\":5585:5975   */\n    tag_43:\n        /* \"#utility.yul\":5691:5694   */\n      0x00\n        /* \"#utility.yul\":5719:5758   */\n      tag_116\n        /* \"#utility.yul\":5752:5757   */\n      dup3\n        /* \"#utility.yul\":5719:5758   */\n      tag_40\n      jump\t// in\n    tag_116:\n        /* \"#utility.yul\":5774:5863   */\n      tag_117\n        /* \"#utility.yul\":5856:5862   */\n      dup2\n        /* \"#utility.yul\":5851:5854   */\n      dup6\n        /* \"#utility.yul\":5774:5863   */\n      tag_41\n      jump\t// in\n    tag_117:\n        /* \"#utility.yul\":5767:5863   */\n      swap4\n      pop\n        /* \"#utility.yul\":5872:5937   */\n      tag_118\n        /* \"#utility.yul\":5930:5936   */\n      dup2\n        /* \"#utility.yul\":5925:5928   */\n      dup6\n        /* \"#utility.yul\":5918:5922   */\n      0x20\n        /* \"#utility.yul\":5911:5916   */\n      dup7\n        /* \"#utility.yul\":5907:5923   */\n      add\n        /* \"#utility.yul\":5872:5937   */\n      tag_42\n      jump\t// in\n    tag_118:\n        /* \"#utility.yul\":5962:5968   */\n      dup1\n        /* \"#utility.yul\":5957:5960   */\n      dup5\n        /* \"#utility.yul\":5953:5969   */\n      add\n        /* \"#utility.yul\":5946:5969   */\n      swap2\n      pop\n        /* \"#utility.yul\":5695:5975   */\n      pop\n        /* \"#utility.yul\":5585:5975   */\n      swap3\n      swap2\n      pop\n      pop\n      jump\t// out\n        /* \"#utility.yul\":5981:6533   */\n    tag_12:\n        /* \"#utility.yul\":6167:6170   */\n      0x00\n        /* \"#utility.yul\":6182:6257   */\n      tag_120\n        /* \"#utility.yul\":6253:6256   */\n      dup3\n        /* \"#utility.yul\":6244:6250   */\n      dup7\n        /* \"#utility.yul\":6182:6257   */\n      tag_36\n      jump\t// in\n    tag_120:\n        /* \"#utility.yul\":6282:6284   */\n      0x14\n        /* \"#utility.yul\":6277:6280   */\n      dup3\n        /* \"#utility.yul\":6273:6285   */\n      add\n        /* \"#utility.yul\":6266:6285   */\n      swap2\n      pop\n        /* \"#utility.yul\":6295:6368   */\n      tag_121\n        /* \"#utility.yul\":6364:6367   */\n      dup3\n        /* \"#utility.yul\":6355:6361   */\n      dup6\n        /* \"#utility.yul\":6295:6368   */\n      tag_39\n      jump\t// in\n    tag_121:\n        /* \"#utility.yul\":6393:6394   */\n      0x02\n        /* \"#utility.yul\":6388:6391   */\n      dup3\n        /* \"#utility.yul\":6384:6395   */\n      add\n        /* \"#utility.yul\":6377:6395   */\n      swap2\n      pop\n        /* \"#utility.yul\":6412:6507   */\n      tag_122\n        /* \"#utility.yul\":6503:6506   */\n      dup3\n        /* \"#utility.yul\":6494:6500   */\n      dup5\n        /* \"#utility.yul\":6412:6507   */\n      tag_43\n      jump\t// in\n    tag_122:\n        /* \"#utility.yul\":6405:6507   */\n      swap2\n      pop\n        /* \"#utility.yul\":6524:6527   */\n      dup2\n        /* \"#utility.yul\":6517:6527   */\n      swap1\n      pop\n        /* \"#utility.yul\":5981:6533   */\n      swap5\n      swap4\n      pop\n      pop\n      pop\n      pop\n      jump\t// out\n\n    auxdata: 0xa2646970667358221220d4c3f5dc7a9d42ecb1500c5f6f45cec2a33c8360befd2b586170b8e9f68ef0af64736f6c63430008160033\n}\n",
				"bytecode": {
					"linkReferences": {},
					"object": "608060405234801561000f575f80fd5b506104238061001d5f395ff3fe608060405234801561000f575f80fd5b5060043610610029575f3560e01c80635a07ec0b1461002d575b5f80fd5b61004760048036038101906100429190610215565b61005d565b6040516100549190610287565b60405180910390f35b5f308383604051602001610073939291906103b5565b60405160208183030381529060405280519060200120905092915050565b5f604051905090565b5f80fd5b5f80fd5b5f61ffff82169050919050565b6100b8816100a2565b81146100c2575f80fd5b50565b5f813590506100d3816100af565b92915050565b5f80fd5b5f80fd5b5f601f19601f8301169050919050565b7f4e487b71000000000000000000000000000000000000000000000000000000005f52604160045260245ffd5b610127826100e1565b810181811067ffffffffffffffff82111715610146576101456100f1565b5b80604052505050565b5f610158610091565b9050610164828261011e565b919050565b5f67ffffffffffffffff821115610183576101826100f1565b5b61018c826100e1565b9050602081019050919050565b828183375f83830152505050565b5f6101b96101b484610169565b61014f565b9050828152602081018484840111156101d5576101d46100dd565b5b6101e0848285610199565b509392505050565b5f82601f8301126101fc576101fb6100d9565b5b813561020c8482602086016101a7565b91505092915050565b5f806040838503121561022b5761022a61009a565b5b5f610238858286016100c5565b925050602083013567ffffffffffffffff8111156102595761025861009e565b5b610265858286016101e8565b9150509250929050565b5f819050919050565b6102818161026f565b82525050565b5f60208201905061029a5f830184610278565b92915050565b5f73ffffffffffffffffffffffffffffffffffffffff82169050919050565b5f6102c9826102a0565b9050919050565b5f8160601b9050919050565b5f6102e6826102d0565b9050919050565b5f6102f7826102dc565b9050919050565b61030f61030a826102bf565b6102ed565b82525050565b5f8160f01b9050919050565b5f61032b82610315565b9050919050565b61034361033e826100a2565b610321565b82525050565b5f81519050919050565b5f81905092915050565b5f5b8381101561037a57808201518184015260208101905061035f565b5f8484015250505050565b5f61038f82610349565b6103998185610353565b93506103a981856020860161035d565b80840191505092915050565b5f6103c082866102fe565b6014820191506103d08285610332565b6002820191506103e08284610385565b915081905094935050505056fea2646970667358221220d4c3f5dc7a9d42ecb1500c5f6f45cec2a33c8360befd2b586170b8e9f68ef0af64736f6c63430008160033",
					"opcodes": "PUSH1 0x80 PUSH1 0x40 MSTORE CALLVALUE DUP1 ISZERO PUSH2 0xF JUMPI PUSH0 DUP1 REVERT JUMPDEST POP PUSH2 0x423 DUP1 PUSH2 0x1D PUSH0 CODECOPY PUSH0 RETURN INVALID PUSH1 0x80 PUSH1 0x40 MSTORE CALLVALUE DUP1 ISZERO PUSH2 0xF JUMPI PUSH0 DUP1 REVERT JUMPDEST POP PUSH1 0x4 CALLDATASIZE LT PUSH2 0x29 JUMPI PUSH0 CALLDATALOAD PUSH1 0xE0 SHR DUP1 PUSH4 0x5A07EC0B EQ PUSH2 0x2D JUMPI JUMPDEST PUSH0 DUP1 REVERT JUMPDEST PUSH2 0x47 PUSH1 0x4 DUP1 CALLDATASIZE SUB DUP2 ADD SWAP1 PUSH2 0x42 SWAP2 SWAP1 PUSH2 0x215 JUMP JUMPDEST PUSH2 0x5D JUMP JUMPDEST PUSH1 0x40 MLOAD PUSH2 0x54 SWAP2 SWAP1 PUSH2 0x287 JUMP JUMPDEST PUSH1 0x40 MLOAD DUP1 SWAP2 SUB SWAP1 RETURN JUMPDEST PUSH0 ADDRESS DUP4 DUP4 PUSH1 0x40 MLOAD PUSH1 0x20 ADD PUSH2 0x73 SWAP4 SWAP3 SWAP2 SWAP1 PUSH2 0x3B5 JUMP JUMPDEST PUSH1 0x40 MLOAD PUSH1 0x20 DUP2 DUP4 SUB SUB DUP2 MSTORE SWAP1 PUSH1 0x40 MSTORE DUP1 MLOAD SWAP1 PUSH1 0x20 ADD KECCAK256 SWAP1 POP SWAP3 SWAP2 POP POP JUMP JUMPDEST PUSH0 PUSH1 0x40 MLOAD SWAP1 POP SWAP1 JUMP JUMPDEST PUSH0 DUP1 REVERT JUMPDEST PUSH0 DUP1 REVERT JUMPDEST PUSH0 PUSH2 0xFFFF DUP3 AND SWAP1 POP SWAP2 SWAP1 POP JUMP JUMPDEST PUSH2 0xB8 DUP2 PUSH2 0xA2 JUMP JUMPDEST DUP2 EQ PUSH2 0xC2 JUMPI PUSH0 DUP1 REVERT JUMPDEST POP JUMP JUMPDEST PUSH0 DUP2 CALLDATALOAD SWAP1 POP PUSH2 0xD3 DUP2 PUSH2 0xAF JUMP JUMPDEST SWAP3 SWAP2 POP POP JUMP JUMPDEST PUSH0 DUP1 REVERT JUMPDEST PUSH0 DUP1 REVERT JUMPDEST PUSH0 PUSH1 0x1F NOT PUSH1 0x1F DUP4 ADD AND SWAP1 POP SWAP2 SWAP1 POP JUMP JUMPDEST PUSH32 0x4E487B7100000000000000000000000000000000000000000000000000000000 PUSH0 MSTORE PUSH1 0x41 PUSH1 0x4 MSTORE PUSH1 0x24 PUSH0 REVERT JUMPDEST PUSH2 0x127 DUP3 PUSH2 0xE1 JUMP JUMPDEST DUP2 ADD DUP2 DUP2 LT PUSH8 0xFFFFFFFFFFFFFFFF DUP3 GT OR ISZERO PUSH2 0x146 JUMPI PUSH2 0x145 PUSH2 0xF1 JUMP JUMPDEST JUMPDEST DUP1 PUSH1 0x40 MSTORE POP POP POP JUMP JUMPDEST PUSH0 PUSH2 0x158 PUSH2 0x91 JUMP JUMPDEST SWAP1 POP PUSH2 0x164 DUP3 DUP3 PUSH2 0x11E JUMP JUMPDEST SWAP2 SWAP1 POP JUMP JUMPDEST PUSH0 PUSH8 0xFFFFFFFFFFFFFFFF DUP3 GT ISZERO PUSH2 0x183 JUMPI PUSH2 0x182 PUSH2 0xF1 JUMP JUMPDEST JUMPDEST PUSH2 0x18C DUP3 PUSH2 0xE1 JUMP JUMPDEST SWAP1 POP PUSH1 0x20 DUP2 ADD SWAP1 POP SWAP2 SWAP1 POP JUMP JUMPDEST DUP3 DUP2 DUP4 CALLDATACOPY PUSH0 DUP4 DUP4 ADD MSTORE POP POP POP JUMP JUMPDEST PUSH0 PUSH2 0x1B9 PUSH2 0x1B4 DUP5 PUSH2 0x169 JUMP JUMPDEST PUSH2 0x14F JUMP JUMPDEST SWAP1 POP DUP3 DUP2 MSTORE PUSH1 0x20 DUP2 ADD DUP5 DUP5 DUP5 ADD GT ISZERO PUSH2 0x1D5 JUMPI PUSH2 0x1D4 PUSH2 0xDD JUMP JUMPDEST JUMPDEST PUSH2 0x1E0 DUP5 DUP3 DUP6 PUSH2 0x199 JUMP JUMPDEST POP SWAP4 SWAP3 POP POP POP JUMP JUMPDEST PUSH0 DUP3 PUSH1 0x1F DUP4 ADD SLT PUSH2 0x1FC JUMPI PUSH2 0x1FB PUSH2 0xD9 JUMP JUMPDEST JUMPDEST DUP2 CALLDATALOAD PUSH2 0x20C DUP5 DUP3 PUSH1 0x20 DUP7 ADD PUSH2 0x1A7 JUMP JUMPDEST SWAP2 POP POP SWAP3 SWAP2 POP POP JUMP JUMPDEST PUSH0 DUP1 PUSH1 0x40 DUP4 DUP6 SUB SLT ISZERO PUSH2 0x22B JUMPI PUSH2 0x22A PUSH2 0x9A JUMP JUMPDEST JUMPDEST PUSH0 PUSH2 0x238 DUP6 DUP3 DUP7 ADD PUSH2 0xC5 JUMP JUMPDEST SWAP3 POP POP PUSH1 0x20 DUP4 ADD CALLDATALOAD PUSH8 0xFFFFFFFFFFFFFFFF DUP2 GT ISZERO PUSH2 0x259 JUMPI PUSH2 0x258 PUSH2 0x9E JUMP JUMPDEST JUMPDEST PUSH2 0x265 DUP6 DUP3 DUP7 ADD PUSH2 0x1E8 JUMP JUMPDEST SWAP2 POP POP SWAP3 POP SWAP3 SWAP1 POP JUMP JUMPDEST PUSH0 DUP2 SWAP1 POP SWAP2 SWAP1 POP JUMP JUMPDEST PUSH2 0x281 DUP2 PUSH2 0x26F JUMP JUMPDEST DUP3 MSTORE POP POP JUMP JUMPDEST PUSH0 PUSH1 0x20 DUP3 ADD SWAP1 POP PUSH2 0x29A PUSH0 DUP4 ADD DUP5 PUSH2 0x278 JUMP JUMPDEST SWAP3 SWAP2 POP POP JUMP JUMPDEST PUSH0 PUSH20 0xFFFFFFFFFFFFFFFFFFFFFFFFFFFFFFFFFFFFFFFF DUP3 AND SWAP1 POP SWAP2 SWAP1 POP JUMP JUMPDEST PUSH0 PUSH2 0x2C9 DUP3 PUSH2 0x2A0 JUMP JUMPDEST SWAP1 POP SWAP2 SWAP1 POP JUMP JUMPDEST PUSH0 DUP2 PUSH1 0x60 SHL SWAP1 POP SWAP2 SWAP1 POP JUMP JUMPDEST PUSH0 PUSH2 0x2E6 DUP3 PUSH2 0x2D0 JUMP JUMPDEST SWAP1 POP SWAP2 SWAP1 POP JUMP JUMPDEST PUSH0 PUSH2 0x2F7 DUP3 PUSH2 0x2DC JUMP JUMPDEST SWAP1 POP SWAP2 SWAP1 POP JUMP JUMPDEST PUSH2 0x30F PUSH2 0x30A DUP3 PUSH2 0x2BF JUMP JUMPDEST PUSH2 0x2ED JUMP JUMPDEST DUP3 MSTORE POP POP JUMP JUMPDEST PUSH0 DUP2 PUSH1 0xF0 SHL SWAP1 POP SWAP2 SWAP1 POP JUMP JUMPDEST PUSH0 PUSH2 0x32B DUP3 PUSH2 0x315 JUMP JUMPDEST SWAP1 POP SWAP2 SWAP1 POP JUMP JUMPDEST PUSH2 0x343 PUSH2 0x33E DUP3 PUSH2 0xA2 JUMP JUMPDEST PUSH2 0x321 JUMP JUMPDEST DUP3 MSTORE POP POP JUMP JUMPDEST PUSH0 DUP2 MLOAD SWAP1 POP SWAP2 SWAP1 POP JUMP JUMPDEST PUSH0 DUP2 SWAP1 POP SWAP3 SWAP2 POP POP JUMP JUMPDEST PUSH0 JUMPDEST DUP4 DUP2 LT ISZERO PUSH2 0x37A JUMPI DUP1 DUP3 ADD MLOAD DUP2 DUP5 ADD MSTORE PUSH1 0x20 DUP2 ADD SWAP1 POP PUSH2 0x35F JUMP JUMPDEST PUSH0 DUP5 DUP5 ADD MSTORE POP POP POP POP JUMP JUMPDEST PUSH0 PUSH2 0x38F DUP3 PUSH2 0x349 JUMP JUMPDEST PUSH2 0x399 DUP2 DUP6 PUSH2 0x353 JUMP JUMPDEST SWAP4 POP PUSH2 0x3A9 DUP2 DUP6 PUSH1 0x20 DUP7 ADD PUSH2 0x35D JUMP JUMPDEST DUP1 DUP5 ADD SWAP2 POP POP SWAP3 SWAP2 POP POP JUMP JUMPDEST PUSH0 PUSH2 0x3C0 DUP3 DUP7 PUSH2 0x2FE JUMP JUMPDEST PUSH1 0x14 DUP3 ADD SWAP2 POP PUSH2 0x3D0 DUP3 DUP6 PUSH2 0x332 JUMP JUMPDEST PUSH1 0x2 DUP3 ADD SWAP2 POP PUSH2 0x3E0 DUP3 DUP5 PUSH2 0x385 JUMP JUMPDEST SWAP2 POP DUP2 SWAP1 POP SWAP5 SWAP4 POP POP POP POP JUMP INVALID LOG2 PUSH5 0x6970667358 0x22 SLT KECCAK256 0xD4 0xC3 CREATE2 0xDC PUSH27 0x9D42ECB1500C5F6F45CEC2A33C8360BEFD2B586170B8E9F68EF0AF PUSH5 0x736F6C6343 STOP ADDMOD AND STOP CALLER "
				},
				"gasEstimates": {
					"creation": {
						"codeDepositCost": "211800",
						"executionCost": "255",
						"totalCost": "212055"
					},
					"external": {
						"getSaltedHash(uint16,string)": "infinite"
					},
					"internal": {
						"commit(uint256,bytes32)": "infinite",
						"revealChoice(uint256,uint16,string memory)": "infinite"
					}
				},
				"methodIdentifiers": {
					"getSaltedHash(uint16,string)": "5a07ec0b"
				}
			},
			"storageLayout": {
				"storage": [
					{
						"astId": 13,
						"contract": "CommitReveal.sol:CommitReveal",
						"label": "commits",
						"offset": 0,
						"slot": "0",
						"type": "t_mapping(t_uint256,t_struct(Commit)8_storage)"
					}
				],
				"types": {
					"t_bool": {
						"encoding": "inplace",
						"label": "bool",
						"numberOfBytes": "1"
					},
					"t_bytes32": {
						"encoding": "inplace",
						"label": "bytes32",
						"numberOfBytes": "32"
					},
					"t_mapping(t_uint256,t_struct(Commit)8_storage)": {
						"encoding": "mapping",
						"key": "t_uint256",
						"label": "mapping(uint256 => struct CommitReveal.Commit)",
						"numberOfBytes": "32",
						"value": "t_struct(Commit)8_storage"
					},
					"t_struct(Commit)8_storage": {
						"encoding": "inplace",
						"label": "struct CommitReveal.Commit",
						"members": [
							{
								"astId": 3,
								"contract": "CommitReveal.sol:CommitReveal",
								"label": "commit",
								"offset": 0,
								"slot": "0",
								"type": "t_bytes32"
							},
							{
								"astId": 5,
								"contract": "CommitReveal.sol:CommitReveal",
								"label": "block",
								"offset": 0,
								"slot": "1",
								"type": "t_uint64"
							},
							{
								"astId": 7,
								"contract": "CommitReveal.sol:CommitReveal",
								"label": "revealed",
								"offset": 8,
								"slot": "1",
								"type": "t_bool"
							}
						],
						"numberOfBytes": "64"
					},
					"t_uint256": {
						"encoding": "inplace",
						"label": "uint256",
						"numberOfBytes": "32"
					},
					"t_uint64": {
						"encoding": "inplace",
						"label": "uint64",
						"numberOfBytes": "8"
					}
				}
			},
			"userdoc": {
				"kind": "user",
				"methods": {},
				"version": 1
			}
		}
	}
}