{
	"CommitReveal.sol": {
		"CommitReveal": {
			"abi": [
				{
					"anonymous": false,
					"inputs": [
						{
							"indexed": false,
							"internalType": "address",
							"name": "sender",
							"type": "address"
						},
						{
							"indexed": false,
							"internalType": "bytes32",
							"name": "dataHash",
							"type": "bytes32"
						},
						{
							"indexed": false,
							"internalType": "uint64",
							"name": "block",
							"type": "uint64"
						}
					],
					"name": "CommitHash",
					"type": "event"
				},
				{
					"anonymous": false,
					"inputs": [
						{
							"indexed": false,
							"internalType": "address",
							"name": "sender",
							"type": "address"
						},
						{
							"indexed": false,
							"internalType": "bytes32",
							"name": "answer",
							"type": "bytes32"
						},
						{
							"indexed": false,
							"internalType": "bytes32",
							"name": "salt",
							"type": "bytes32"
						}
					],
					"name": "RevealAnswer",
					"type": "event"
				},
				{
					"inputs": [
						{
							"internalType": "bytes32",
							"name": "data",
							"type": "bytes32"
						},
						{
							"internalType": "bytes32",
							"name": "salt",
							"type": "bytes32"
						}
					],
					"name": "getSaltedHash",
					"outputs": [
						{
							"internalType": "bytes32",
							"name": "",
							"type": "bytes32"
						}
					],
					"stateMutability": "view",
					"type": "function"
				}
			],
			"devdoc": {
				"kind": "dev",
				"methods": {},
				"version": 1
			},
			"evm": {
				"assembly": "    /* \"CommitReveal.sol\":68:1331  contract CommitReveal {... */\n  mstore(0x40, 0x80)\n  callvalue\n  dup1\n  iszero\n  tag_1\n  jumpi\n  0x00\n  dup1\n  revert\ntag_1:\n  pop\n  dataSize(sub_0)\n  dup1\n  dataOffset(sub_0)\n  0x00\n  codecopy\n  0x00\n  return\nstop\n\nsub_0: assembly {\n        /* \"CommitReveal.sol\":68:1331  contract CommitReveal {... */\n      mstore(0x40, 0x80)\n      callvalue\n      dup1\n      iszero\n      tag_1\n      jumpi\n      0x00\n      dup1\n      revert\n    tag_1:\n      pop\n      jumpi(tag_2, lt(calldatasize, 0x04))\n      shr(0xe0, calldataload(0x00))\n      dup1\n      0x8dddbf36\n      eq\n      tag_3\n      jumpi\n    tag_2:\n      0x00\n      dup1\n      revert\n        /* \"CommitReveal.sol\":1174:1326  function getSaltedHash(bytes32 data,bytes32 salt) public view returns(bytes32){... */\n    tag_3:\n      tag_4\n      0x04\n      dup1\n      calldatasize\n      sub\n      dup2\n      add\n      swap1\n      tag_5\n      swap2\n      swap1\n      tag_6\n      jump\t// in\n    tag_5:\n      tag_7\n      jump\t// in\n    tag_4:\n      mload(0x40)\n      tag_8\n      swap2\n      swap1\n      tag_9\n      jump\t// in\n    tag_8:\n      mload(0x40)\n      dup1\n      swap2\n      sub\n      swap1\n      return\n    tag_7:\n        /* \"CommitReveal.sol\":1244:1251  bytes32 */\n      0x00\n        /* \"CommitReveal.sol\":1301:1305  this */\n      address\n        /* \"CommitReveal.sol\":1308:1312  data */\n      dup4\n        /* \"CommitReveal.sol\":1314:1318  salt */\n      dup4\n        /* \"CommitReveal.sol\":1276:1319  abi.encodePacked(address(this), data, salt) */\n      add(0x20, mload(0x40))\n      tag_11\n      swap4\n      swap3\n      swap2\n      swap1\n      tag_12\n      jump\t// in\n    tag_11:\n      mload(0x40)\n      0x20\n      dup2\n      dup4\n      sub\n      sub\n      dup2\n      mstore\n      swap1\n      0x40\n      mstore\n        /* \"CommitReveal.sol\":1266:1320  keccak256(abi.encodePacked(address(this), data, salt)) */\n      dup1\n      mload\n      swap1\n      0x20\n      add\n      keccak256\n        /* \"CommitReveal.sol\":1259:1320  return keccak256(abi.encodePacked(address(this), data, salt)) */\n      swap1\n      pop\n        /* \"CommitReveal.sol\":1174:1326  function getSaltedHash(bytes32 data,bytes32 salt) public view returns(bytes32){... */\n      swap3\n      swap2\n      pop\n      pop\n      jump\t// out\n        /* \"#utility.yul\":88:205   */\n    tag_14:\n        /* \"#utility.yul\":197:198   */\n      0x00\n        /* \"#utility.yul\":194:195   */\n      dup1\n        /* \"#utility.yul\":187:199   */\n      revert\n        /* \"#utility.yul\":334:411   */\n    tag_16:\n        /* \"#utility.yul\":371:378   */\n      0x00\n        /* \"#utility.yul\":400:405   */\n      dup2\n        /* \"#utility.yul\":389:405   */\n      swap1\n      pop\n        /* \"#utility.yul\":334:411   */\n      swap2\n      swap1\n      pop\n      jump\t// out\n        /* \"#utility.yul\":417:539   */\n    tag_17:\n        /* \"#utility.yul\":490:514   */\n      tag_34\n        /* \"#utility.yul\":508:513   */\n      dup2\n        /* \"#utility.yul\":490:514   */\n      tag_16\n      jump\t// in\n    tag_34:\n        /* \"#utility.yul\":483:488   */\n      dup2\n        /* \"#utility.yul\":480:515   */\n      eq\n        /* \"#utility.yul\":470:533   */\n      tag_35\n      jumpi\n        /* \"#utility.yul\":529:530   */\n      0x00\n        /* \"#utility.yul\":526:527   */\n      dup1\n        /* \"#utility.yul\":519:531   */\n      revert\n        /* \"#utility.yul\":470:533   */\n    tag_35:\n        /* \"#utility.yul\":417:539   */\n      pop\n      jump\t// out\n        /* \"#utility.yul\":545:684   */\n    tag_18:\n        /* \"#utility.yul\":591:596   */\n      0x00\n        /* \"#utility.yul\":629:635   */\n      dup2\n        /* \"#utility.yul\":616:636   */\n      calldataload\n        /* \"#utility.yul\":607:636   */\n      swap1\n      pop\n        /* \"#utility.yul\":645:678   */\n      tag_37\n        /* \"#utility.yul\":672:677   */\n      dup2\n        /* \"#utility.yul\":645:678   */\n      tag_17\n      jump\t// in\n    tag_37:\n        /* \"#utility.yul\":545:684   */\n      swap3\n      swap2\n      pop\n      pop\n      jump\t// out\n        /* \"#utility.yul\":690:1164   */\n    tag_6:\n        /* \"#utility.yul\":758:764   */\n      0x00\n        /* \"#utility.yul\":766:772   */\n      dup1\n        /* \"#utility.yul\":815:817   */\n      0x40\n        /* \"#utility.yul\":803:812   */\n      dup4\n        /* \"#utility.yul\":794:801   */\n      dup6\n        /* \"#utility.yul\":790:813   */\n      sub\n        /* \"#utility.yul\":786:818   */\n      slt\n        /* \"#utility.yul\":783:902   */\n      iszero\n      tag_39\n      jumpi\n        /* \"#utility.yul\":821:900   */\n      tag_40\n      tag_14\n      jump\t// in\n    tag_40:\n        /* \"#utility.yul\":783:902   */\n    tag_39:\n        /* \"#utility.yul\":941:942   */\n      0x00\n        /* \"#utility.yul\":966:1019   */\n      tag_41\n        /* \"#utility.yul\":1011:1018   */\n      dup6\n        /* \"#utility.yul\":1002:1008   */\n      dup3\n        /* \"#utility.yul\":991:1000   */\n      dup7\n        /* \"#utility.yul\":987:1009   */\n      add\n        /* \"#utility.yul\":966:1019   */\n      tag_18\n      jump\t// in\n    tag_41:\n        /* \"#utility.yul\":956:1019   */\n      swap3\n      pop\n        /* \"#utility.yul\":912:1029   */\n      pop\n        /* \"#utility.yul\":1068:1070   */\n      0x20\n        /* \"#utility.yul\":1094:1147   */\n      tag_42\n        /* \"#utility.yul\":1139:1146   */\n      dup6\n        /* \"#utility.yul\":1130:1136   */\n      dup3\n        /* \"#utility.yul\":1119:1128   */\n      dup7\n        /* \"#utility.yul\":1115:1137   */\n      add\n        /* \"#utility.yul\":1094:1147   */\n      tag_18\n      jump\t// in\n    tag_42:\n        /* \"#utility.yul\":1084:1147   */\n      swap2\n      pop\n        /* \"#utility.yul\":1039:1157   */\n      pop\n        /* \"#utility.yul\":690:1164   */\n      swap3\n      pop\n      swap3\n      swap1\n      pop\n      jump\t// out\n        /* \"#utility.yul\":1170:1288   */\n    tag_19:\n        /* \"#utility.yul\":1257:1281   */\n      tag_44\n        /* \"#utility.yul\":1275:1280   */\n      dup2\n        /* \"#utility.yul\":1257:1281   */\n      tag_16\n      jump\t// in\n    tag_44:\n        /* \"#utility.yul\":1252:1255   */\n      dup3\n        /* \"#utility.yul\":1245:1282   */\n      mstore\n        /* \"#utility.yul\":1170:1288   */\n      pop\n      pop\n      jump\t// out\n        /* \"#utility.yul\":1294:1516   */\n    tag_9:\n        /* \"#utility.yul\":1387:1391   */\n      0x00\n        /* \"#utility.yul\":1425:1427   */\n      0x20\n        /* \"#utility.yul\":1414:1423   */\n      dup3\n        /* \"#utility.yul\":1410:1428   */\n      add\n        /* \"#utility.yul\":1402:1428   */\n      swap1\n      pop\n        /* \"#utility.yul\":1438:1509   */\n      tag_46\n        /* \"#utility.yul\":1506:1507   */\n      0x00\n        /* \"#utility.yul\":1495:1504   */\n      dup4\n        /* \"#utility.yul\":1491:1508   */\n      add\n        /* \"#utility.yul\":1482:1488   */\n      dup5\n        /* \"#utility.yul\":1438:1509   */\n      tag_19\n      jump\t// in\n    tag_46:\n        /* \"#utility.yul\":1294:1516   */\n      swap3\n      swap2\n      pop\n      pop\n      jump\t// out\n        /* \"#utility.yul\":1522:1648   */\n    tag_20:\n        /* \"#utility.yul\":1559:1566   */\n      0x00\n        /* \"#utility.yul\":1599:1641   */\n      0xffffffffffffffffffffffffffffffffffffffff\n        /* \"#utility.yul\":1592:1597   */\n      dup3\n        /* \"#utility.yul\":1588:1642   */\n      and\n        /* \"#utility.yul\":1577:1642   */\n      swap1\n      pop\n        /* \"#utility.yul\":1522:1648   */\n      swap2\n      swap1\n      pop\n      jump\t// out\n        /* \"#utility.yul\":1654:1750   */\n    tag_21:\n        /* \"#utility.yul\":1691:1698   */\n      0x00\n        /* \"#utility.yul\":1720:1744   */\n      tag_49\n        /* \"#utility.yul\":1738:1743   */\n      dup3\n        /* \"#utility.yul\":1720:1744   */\n      tag_20\n      jump\t// in\n    tag_49:\n        /* \"#utility.yul\":1709:1744   */\n      swap1\n      pop\n        /* \"#utility.yul\":1654:1750   */\n      swap2\n      swap1\n      pop\n      jump\t// out\n        /* \"#utility.yul\":1756:1850   */\n    tag_22:\n        /* \"#utility.yul\":1789:1797   */\n      0x00\n        /* \"#utility.yul\":1837:1842   */\n      dup2\n        /* \"#utility.yul\":1833:1835   */\n      0x60\n        /* \"#utility.yul\":1829:1843   */\n      shl\n        /* \"#utility.yul\":1808:1843   */\n      swap1\n      pop\n        /* \"#utility.yul\":1756:1850   */\n      swap2\n      swap1\n      pop\n      jump\t// out\n        /* \"#utility.yul\":1856:1950   */\n    tag_23:\n        /* \"#utility.yul\":1895:1902   */\n      0x00\n        /* \"#utility.yul\":1924:1944   */\n      tag_52\n        /* \"#utility.yul\":1938:1943   */\n      dup3\n        /* \"#utility.yul\":1924:1944   */\n      tag_22\n      jump\t// in\n    tag_52:\n        /* \"#utility.yul\":1913:1944   */\n      swap1\n      pop\n        /* \"#utility.yul\":1856:1950   */\n      swap2\n      swap1\n      pop\n      jump\t// out\n        /* \"#utility.yul\":1956:2056   */\n    tag_24:\n        /* \"#utility.yul\":1995:2002   */\n      0x00\n        /* \"#utility.yul\":2024:2050   */\n      tag_54\n        /* \"#utility.yul\":2044:2049   */\n      dup3\n        /* \"#utility.yul\":2024:2050   */\n      tag_23\n      jump\t// in\n    tag_54:\n        /* \"#utility.yul\":2013:2050   */\n      swap1\n      pop\n        /* \"#utility.yul\":1956:2056   */\n      swap2\n      swap1\n      pop\n      jump\t// out\n        /* \"#utility.yul\":2062:2219   */\n    tag_25:\n        /* \"#utility.yul\":2167:2212   */\n      tag_56\n        /* \"#utility.yul\":2187:2211   */\n      tag_57\n        /* \"#utility.yul\":2205:2210   */\n      dup3\n        /* \"#utility.yul\":2187:2211   */\n      tag_21\n      jump\t// in\n    tag_57:\n        /* \"#utility.yul\":2167:2212   */\n      tag_24\n      jump\t// in\n    tag_56:\n        /* \"#utility.yul\":2162:2165   */\n      dup3\n        /* \"#utility.yul\":2155:2213   */\n      mstore\n        /* \"#utility.yul\":2062:2219   */\n      pop\n      pop\n      jump\t// out\n        /* \"#utility.yul\":2225:2304   */\n    tag_26:\n        /* \"#utility.yul\":2264:2271   */\n      0x00\n        /* \"#utility.yul\":2293:2298   */\n      dup2\n        /* \"#utility.yul\":2282:2298   */\n      swap1\n      pop\n        /* \"#utility.yul\":2225:2304   */\n      swap2\n      swap1\n      pop\n      jump\t// out\n        /* \"#utility.yul\":2310:2467   */\n    tag_27:\n        /* \"#utility.yul\":2415:2460   */\n      tag_60\n        /* \"#utility.yul\":2435:2459   */\n      tag_61\n        /* \"#utility.yul\":2453:2458   */\n      dup3\n        /* \"#utility.yul\":2435:2459   */\n      tag_16\n      jump\t// in\n    tag_61:\n        /* \"#utility.yul\":2415:2460   */\n      tag_26\n      jump\t// in\n    tag_60:\n        /* \"#utility.yul\":2410:2413   */\n      dup3\n        /* \"#utility.yul\":2403:2461   */\n      mstore\n        /* \"#utility.yul\":2310:2467   */\n      pop\n      pop\n      jump\t// out\n        /* \"#utility.yul\":2473:3011   */\n    tag_12:\n        /* \"#utility.yul\":2641:2644   */\n      0x00\n        /* \"#utility.yul\":2656:2731   */\n      tag_63\n        /* \"#utility.yul\":2727:2730   */\n      dup3\n        /* \"#utility.yul\":2718:2724   */\n      dup7\n        /* \"#utility.yul\":2656:2731   */\n      tag_25\n      jump\t// in\n    tag_63:\n        /* \"#utility.yul\":2756:2758   */\n      0x14\n        /* \"#utility.yul\":2751:2754   */\n      dup3\n        /* \"#utility.yul\":2747:2759   */\n      add\n        /* \"#utility.yul\":2740:2759   */\n      swap2\n      pop\n        /* \"#utility.yul\":2769:2844   */\n      tag_64\n        /* \"#utility.yul\":2840:2843   */\n      dup3\n        /* \"#utility.yul\":2831:2837   */\n      dup6\n        /* \"#utility.yul\":2769:2844   */\n      tag_27\n      jump\t// in\n    tag_64:\n        /* \"#utility.yul\":2869:2871   */\n      0x20\n        /* \"#utility.yul\":2864:2867   */\n      dup3\n        /* \"#utility.yul\":2860:2872   */\n      add\n        /* \"#utility.yul\":2853:2872   */\n      swap2\n      pop\n        /* \"#utility.yul\":2882:2957   */\n      tag_65\n        /* \"#utility.yul\":2953:2956   */\n      dup3\n        /* \"#utility.yul\":2944:2950   */\n      dup5\n        /* \"#utility.yul\":2882:2957   */\n      tag_27\n      jump\t// in\n    tag_65:\n        /* \"#utility.yul\":2982:2984   */\n      0x20\n        /* \"#utility.yul\":2977:2980   */\n      dup3\n        /* \"#utility.yul\":2973:2985   */\n      add\n        /* \"#utility.yul\":2966:2985   */\n      swap2\n      pop\n        /* \"#utility.yul\":3002:3005   */\n      dup2\n        /* \"#utility.yul\":2995:3005   */\n      swap1\n      pop\n        /* \"#utility.yul\":2473:3011   */\n      swap5\n      swap4\n      pop\n      pop\n      pop\n      pop\n      jump\t// out\n\n    auxdata: 0xa2646970667358221220c89578d988dd36ecd34b2ba25626aa5eee2ea92cce40073a0ddcd7ac422da14264736f6c63430008160033\n}\n",
				"bytecode": {
					"linkReferences": {},
					"object": "608060405234801561000f575f80fd5b506102358061001d5f395ff3fe608060405234801561000f575f80fd5b5060043610610029575f3560e01c80638dddbf361461002d575b5f80fd5b610047600480360381019061004291906100c8565b61005d565b6040516100549190610115565b60405180910390f35b5f308383604051602001610073939291906101c3565b60405160208183030381529060405280519060200120905092915050565b5f80fd5b5f819050919050565b6100a781610095565b81146100b1575f80fd5b50565b5f813590506100c28161009e565b92915050565b5f80604083850312156100de576100dd610091565b5b5f6100eb858286016100b4565b92505060206100fc858286016100b4565b9150509250929050565b61010f81610095565b82525050565b5f6020820190506101285f830184610106565b92915050565b5f73ffffffffffffffffffffffffffffffffffffffff82169050919050565b5f6101578261012e565b9050919050565b5f8160601b9050919050565b5f6101748261015e565b9050919050565b5f6101858261016a565b9050919050565b61019d6101988261014d565b61017b565b82525050565b5f819050919050565b6101bd6101b882610095565b6101a3565b82525050565b5f6101ce828661018c565b6014820191506101de82856101ac565b6020820191506101ee82846101ac565b60208201915081905094935050505056fea2646970667358221220c89578d988dd36ecd34b2ba25626aa5eee2ea92cce40073a0ddcd7ac422da14264736f6c63430008160033",
					"opcodes": "PUSH1 0x80 PUSH1 0x40 MSTORE CALLVALUE DUP1 ISZERO PUSH2 0xF JUMPI PUSH0 DUP1 REVERT JUMPDEST POP PUSH2 0x235 DUP1 PUSH2 0x1D PUSH0 CODECOPY PUSH0 RETURN INVALID PUSH1 0x80 PUSH1 0x40 MSTORE CALLVALUE DUP1 ISZERO PUSH2 0xF JUMPI PUSH0 DUP1 REVERT JUMPDEST POP PUSH1 0x4 CALLDATASIZE LT PUSH2 0x29 JUMPI PUSH0 CALLDATALOAD PUSH1 0xE0 SHR DUP1 PUSH4 0x8DDDBF36 EQ PUSH2 0x2D JUMPI JUMPDEST PUSH0 DUP1 REVERT JUMPDEST PUSH2 0x47 PUSH1 0x4 DUP1 CALLDATASIZE SUB DUP2 ADD SWAP1 PUSH2 0x42 SWAP2 SWAP1 PUSH2 0xC8 JUMP JUMPDEST PUSH2 0x5D JUMP JUMPDEST PUSH1 0x40 MLOAD PUSH2 0x54 SWAP2 SWAP1 PUSH2 0x115 JUMP JUMPDEST PUSH1 0x40 MLOAD DUP1 SWAP2 SUB SWAP1 RETURN JUMPDEST PUSH0 ADDRESS DUP4 DUP4 PUSH1 0x40 MLOAD PUSH1 0x20 ADD PUSH2 0x73 SWAP4 SWAP3 SWAP2 SWAP1 PUSH2 0x1C3 JUMP JUMPDEST PUSH1 0x40 MLOAD PUSH1 0x20 DUP2 DUP4 SUB SUB DUP2 MSTORE SWAP1 PUSH1 0x40 MSTORE DUP1 MLOAD SWAP1 PUSH1 0x20 ADD KECCAK256 SWAP1 POP SWAP3 SWAP2 POP POP JUMP JUMPDEST PUSH0 DUP1 REVERT JUMPDEST PUSH0 DUP2 SWAP1 POP SWAP2 SWAP1 POP JUMP JUMPDEST PUSH2 0xA7 DUP2 PUSH2 0x95 JUMP JUMPDEST DUP2 EQ PUSH2 0xB1 JUMPI PUSH0 DUP1 REVERT JUMPDEST POP JUMP JUMPDEST PUSH0 DUP2 CALLDATALOAD SWAP1 POP PUSH2 0xC2 DUP2 PUSH2 0x9E JUMP JUMPDEST SWAP3 SWAP2 POP POP JUMP JUMPDEST PUSH0 DUP1 PUSH1 0x40 DUP4 DUP6 SUB SLT ISZERO PUSH2 0xDE JUMPI PUSH2 0xDD PUSH2 0x91 JUMP JUMPDEST JUMPDEST PUSH0 PUSH2 0xEB DUP6 DUP3 DUP7 ADD PUSH2 0xB4 JUMP JUMPDEST SWAP3 POP POP PUSH1 0x20 PUSH2 0xFC DUP6 DUP3 DUP7 ADD PUSH2 0xB4 JUMP JUMPDEST SWAP2 POP POP SWAP3 POP SWAP3 SWAP1 POP JUMP JUMPDEST PUSH2 0x10F DUP2 PUSH2 0x95 JUMP JUMPDEST DUP3 MSTORE POP POP JUMP JUMPDEST PUSH0 PUSH1 0x20 DUP3 ADD SWAP1 POP PUSH2 0x128 PUSH0 DUP4 ADD DUP5 PUSH2 0x106 JUMP JUMPDEST SWAP3 SWAP2 POP POP JUMP JUMPDEST PUSH0 PUSH20 0xFFFFFFFFFFFFFFFFFFFFFFFFFFFFFFFFFFFFFFFF DUP3 AND SWAP1 POP SWAP2 SWAP1 POP JUMP JUMPDEST PUSH0 PUSH2 0x157 DUP3 PUSH2 0x12E JUMP JUMPDEST SWAP1 POP SWAP2 SWAP1 POP JUMP JUMPDEST PUSH0 DUP2 PUSH1 0x60 SHL SWAP1 POP SWAP2 SWAP1 POP JUMP JUMPDEST PUSH0 PUSH2 0x174 DUP3 PUSH2 0x15E JUMP JUMPDEST SWAP1 POP SWAP2 SWAP1 POP JUMP JUMPDEST PUSH0 PUSH2 0x185 DUP3 PUSH2 0x16A JUMP JUMPDEST SWAP1 POP SWAP2 SWAP1 POP JUMP JUMPDEST PUSH2 0x19D PUSH2 0x198 DUP3 PUSH2 0x14D JUMP JUMPDEST PUSH2 0x17B JUMP JUMPDEST DUP3 MSTORE POP POP JUMP JUMPDEST PUSH0 DUP2 SWAP1 POP SWAP2 SWAP1 POP JUMP JUMPDEST PUSH2 0x1BD PUSH2 0x1B8 DUP3 PUSH2 0x95 JUMP JUMPDEST PUSH2 0x1A3 JUMP JUMPDEST DUP3 MSTORE POP POP JUMP JUMPDEST PUSH0 PUSH2 0x1CE DUP3 DUP7 PUSH2 0x18C JUMP JUMPDEST PUSH1 0x14 DUP3 ADD SWAP2 POP PUSH2 0x1DE DUP3 DUP6 PUSH2 0x1AC JUMP JUMPDEST PUSH1 0x20 DUP3 ADD SWAP2 POP PUSH2 0x1EE DUP3 DUP5 PUSH2 0x1AC JUMP JUMPDEST PUSH1 0x20 DUP3 ADD SWAP2 POP DUP2 SWAP1 POP SWAP5 SWAP4 POP POP POP POP JUMP INVALID LOG2 PUSH5 0x6970667358 0x22 SLT KECCAK256 0xC8 SWAP6 PUSH25 0xD988DD36ECD34B2BA25626AA5EEE2EA92CCE40073A0DDCD7AC TIMESTAMP 0x2D LOG1 TIMESTAMP PUSH5 0x736F6C6343 STOP ADDMOD AND STOP CALLER "
				},
				"gasEstimates": {
					"creation": {
						"codeDepositCost": "113000",
						"executionCost": "157",
						"totalCost": "113157"
					},
					"external": {
						"getSaltedHash(bytes32,bytes32)": "infinite"
					},
					"internal": {
						"commit(bytes32)": "infinite",
						"revealAnswer(bytes32,bytes32)": "infinite"
					}
				},
				"methodIdentifiers": {
					"getSaltedHash(bytes32,bytes32)": "8dddbf36"
				}
			},
			"storageLayout": {
				"storage": [
					{
						"astId": 13,
						"contract": "CommitReveal.sol:CommitReveal",
						"label": "commits",
						"offset": 0,
						"slot": "0",
						"type": "t_mapping(t_address,t_struct(Commit)8_storage)"
					}
				],
				"types": {
					"t_address": {
						"encoding": "inplace",
						"label": "address",
						"numberOfBytes": "20"
					},
					"t_bool": {
						"encoding": "inplace",
						"label": "bool",
						"numberOfBytes": "1"
					},
					"t_bytes32": {
						"encoding": "inplace",
						"label": "bytes32",
						"numberOfBytes": "32"
					},
					"t_mapping(t_address,t_struct(Commit)8_storage)": {
						"encoding": "mapping",
						"key": "t_address",
						"label": "mapping(address => struct CommitReveal.Commit)",
						"numberOfBytes": "32",
						"value": "t_struct(Commit)8_storage"
					},
					"t_struct(Commit)8_storage": {
						"encoding": "inplace",
						"label": "struct CommitReveal.Commit",
						"members": [
							{
								"astId": 3,
								"contract": "CommitReveal.sol:CommitReveal",
								"label": "commit",
								"offset": 0,
								"slot": "0",
								"type": "t_bytes32"
							},
							{
								"astId": 5,
								"contract": "CommitReveal.sol:CommitReveal",
								"label": "block",
								"offset": 0,
								"slot": "1",
								"type": "t_uint64"
							},
							{
								"astId": 7,
								"contract": "CommitReveal.sol:CommitReveal",
								"label": "revealed",
								"offset": 8,
								"slot": "1",
								"type": "t_bool"
							}
						],
						"numberOfBytes": "64"
					},
					"t_uint64": {
						"encoding": "inplace",
						"label": "uint64",
						"numberOfBytes": "8"
					}
				}
			},
			"userdoc": {
				"kind": "user",
				"methods": {},
				"version": 1
			}
		}
	}
}