{
	"data": {
		"bytecode": {
			"linkReferences": {},
			"object": "60806040525f60025f6101000a81548161ffff021916908361ffff160217905550426003555f6008555f60095534801562000038575f80fd5b50604051620029343803806200293483398181016040528101906200005e9190620000ff565b335f806101000a81548173ffffffffffffffffffffffffffffffffffffffff021916908373ffffffffffffffffffffffffffffffffffffffff16021790555083600781905550826004819055508160058190555080600681905550505050506200016e565b5f80fd5b5f819050919050565b620000db81620000c7565b8114620000e6575f80fd5b50565b5f81519050620000f981620000d0565b92915050565b5f805f80608085870312156200011a5762000119620000c3565b5b5f6200012987828801620000e9565b94505060206200013c87828801620000e9565b93505060406200014f87828801620000e9565b92505060606200016287828801620000e9565b91505092959194509250565b6127b8806200017c5f395ff3fe6080604052600436106100dc575f3560e01c806384c9ad6e1161007e57806399023f1b1161005857806399023f1b1461029e578063a11efef4146102c8578063acf1a0ac146102f2578063c9e525df1461031a576100dc565b806384c9ad6e146102205780638da5cb5b1461024a5780638f32d59b14610274576100dc565b80632e1a7d4d116100ba5780632e1a7d4d146101665780632f0bca261461018e57806331081d7e146101ba5780635a07ec0b146101e4576100dc565b80631398e076146100e057806315753ec014610120578063218e8a9e14610136575b5f80fd5b3480156100eb575f80fd5b50610106600480360381019061010191906117a0565b610344565b604051610117959493929190611840565b60405180910390f35b34801561012b575f80fd5b506101346103c6565b005b610150600480360381019061014b91906118c4565b610843565b60405161015d91906118fe565b60405180910390f35b348015610171575f80fd5b5061018c600480360381019061018791906117a0565b610ab3565b005b348015610199575f80fd5b506101a2610cc8565b6040516101b1939291906119a1565b60405180910390f35b3480156101c5575f80fd5b506101ce61104d565b6040516101db91906118fe565b60405180910390f35b3480156101ef575f80fd5b5061020a60048036038101906102059190611b3a565b611053565b6040516102179190611ba3565b60405180910390f35b34801561022b575f80fd5b50610234611087565b60405161024191906118fe565b60405180910390f35b348015610255575f80fd5b5061025e61108d565b60405161026b9190611bbc565b60405180910390f35b34801561027f575f80fd5b506102886110b4565b6040516102959190611bd5565b60405180910390f35b3480156102a9575f80fd5b506102b2611109565b6040516102bf91906118fe565b60405180910390f35b3480156102d3575f80fd5b506102dc61110f565b6040516102e991906118fe565b60405180910390f35b3480156102fd575f80fd5b5061031860048036038101906103139190611bee565b611115565b005b348015610325575f80fd5b5061032e6112ae565b60405161033b91906118fe565b60405180910390f35b600a602052805f5260405f205f91509050805f015f9054906101000a900461ffff1690805f0160029054906101000a900460ff1690805f0160039054906101000a900460ff1690805f0160049054906101000a900460ff1690805f0160059054906101000a900473ffffffffffffffffffffffffffffffffffffffff16905085565b6103ce6110b4565b61040d576040517f08c379a000000000000000000000000000000000000000000000000000000000815260040161040490611cca565b60405180910390fd5b426005546004546003546104219190611d15565b61042b9190611d15565b10801561046057506006546005546004546003546104499190611d15565b6104539190611d15565b61045d9190611d15565b42105b61049f576040517f08c379a000000000000000000000000000000000000000000000000000000000815260040161049690611db8565b60405180910390fd5b5f60085467ffffffffffffffff8111156104bc576104bb611a16565b5b6040519080825280602002602001820160405280156104f557816020015b6104e2611712565b8152602001906001900390816104da5790505b5090505f805b60085481101561076f57600a5f8281526020019081526020015f205f0160039054906101000a900460ff16801561055a57505f61ffff16600a5f8381526020019081526020015f205f015f9054906101000a900461ffff1661ffff1610155b801561059057506103e761ffff16600a5f8381526020019081526020015f205f015f9054906101000a900461ffff1661ffff1611155b1561075857600a5f8281526020019081526020015f205f015f9054906101000a900461ffff168383815181106105c9576105c8611dd6565b5b60200260200101515f019061ffff16908161ffff1681525050600a5f8281526020019081526020015f205f0160059054906101000a900473ffffffffffffffffffffffffffffffffffffffff1683838151811061062957610628611dd6565b5b60200260200101516080019073ffffffffffffffffffffffffffffffffffffffff16908173ffffffffffffffffffffffffffffffffffffffff1681525050600a5f8281526020019081526020015f205f0160029054906101000a900460ff1683838151811061069b5761069a611dd6565b5b60200260200101516020019015159081151581525050600a5f8281526020019081526020015f205f0160039054906101000a900460ff168383815181106106e5576106e4611dd6565b5b60200260200101516040019015159081151581525050600a5f8281526020019081526020015f205f0160049054906101000a900460ff1683838151811061072f5761072e611dd6565b5b60200260200101516060019015159081151581525050818061075090611e03565b925050610762565b610761816112b4565b5b80806001019150506104fb565b505f825f8151811061078457610783611dd6565b5b60200260200101515f015161ffff1690505f600190505b828110156107d6578381815181106107b6576107b5611dd6565b5b60200260200101515f015161ffff1682189150808060010191505061079b565b505f82826040516020016107ea9190611e6a565b604051602081830303815290604052805190602001205f1c61080c9190611eb1565b905061083584828151811061082457610823611dd6565b5b6020026020010151608001516113c1565b61083d6114b5565b50505050565b5f66038d7ea4c68000341461088d576040517f08c379a000000000000000000000000000000000000000000000000000000000815260040161088490611f51565b60405180910390fd5b600754600854106108d3576040517f08c379a00000000000000000000000000000000000000000000000000000000081526004016108ca90612005565b60405180910390fd5b5f60025f9054906101000a900461ffff1661ffff160361091257600160025f6101000a81548161ffff021916908361ffff160217905550426003819055505b6004546003546109229190611d15565b421115610964576040517f08c379a000000000000000000000000000000000000000000000000000000000815260040161095b906120b9565b60405180910390fd5b5f60085490506040518060a001604052805f61ffff1681526020016001151581526020015f151581526020015f151581526020013373ffffffffffffffffffffffffffffffffffffffff16815250600a5f8381526020019081526020015f205f820151815f015f6101000a81548161ffff021916908361ffff1602179055506020820151815f0160026101000a81548160ff0219169083151502179055506040820151815f0160036101000a81548160ff0219169083151502179055506060820151815f0160046101000a81548160ff0219169083151502179055506080820151815f0160056101000a81548173ffffffffffffffffffffffffffffffffffffffff021916908373ffffffffffffffffffffffffffffffffffffffff160217905550905050610a9381846114e8565b60085f815480929190610aa590611e03565b919050555080915050919050565b42600654600554600454600354610aca9190611d15565b610ad49190611d15565b610ade9190611d15565b10610b1e576040517f08c379a0000000000000000000000000000000000000000000000000000000008152600401610b1590612147565b60405180910390fd5b3373ffffffffffffffffffffffffffffffffffffffff16600a5f8381526020019081526020015f205f0160059054906101000a900473ffffffffffffffffffffffffffffffffffffffff1673ffffffffffffffffffffffffffffffffffffffff1614610bbf576040517f08c379a0000000000000000000000000000000000000000000000000000000008152600401610bb6906121fb565b60405180910390fd5b5f1515600a5f8381526020019081526020015f205f0160049054906101000a900460ff16151514610c25576040517f08c379a0000000000000000000000000000000000000000000000000000000008152600401610c1c906122af565b60405180910390fd5b6001600a5f8381526020019081526020015f205f0160046101000a81548160ff0219169083151502179055503373ffffffffffffffffffffffffffffffffffffffff166108fc66038d7ea4c6800090811502906040515f60405180830381858888f19350505050158015610c9b573d5f803e3d5ffd5b5060085f815480929190610cae906122cd565b91905055505f60085403610cc557610cc46114b5565b5b50565b60605f60605f60025f9054906101000a900461ffff1661ffff1603610d39575f6040518060400160405280600481526020017f49646c65000000000000000000000000000000000000000000000000000000008152509060405180602001604052805f815250925092509250611048565b600160025f9054906101000a900461ffff1661ffff160361102157600454600354610d649190611d15565b4211610dfd5742600454600354610d7b9190611d15565b610d8591906122f4565b6040518060400160405280601681526020017f436f6d6d6974205374616765203a20656e6420696e2000000000000000000000815250906040518060400160405280600881526020017f207365636f6e6473000000000000000000000000000000000000000000000000815250925092509250611048565b600554600454600354610e109190611d15565b610e1a9190611d15565b4211610ec05742600554600454600354610e349190611d15565b610e3e9190611d15565b610e4891906122f4565b6040518060400160405280601681526020017f52657665616c205374616765203a20656e6420696e2000000000000000000000815250906040518060400160405280600881526020017f207365636f6e6473000000000000000000000000000000000000000000000000815250925092509250611048565b600654600554600454600354610ed69190611d15565b610ee09190611d15565b610eea9190611d15565b4211610f9d5742600654600554600454600354610f079190611d15565b610f119190611d15565b610f1b9190611d15565b610f2591906122f4565b6040518060400160405280601581526020017f4177617264205374616765203a20656e6420696e200000000000000000000000815250906040518060400160405280600881526020017f207365636f6e6473000000000000000000000000000000000000000000000000815250925092509250611048565b600654600554600454600354610fb39190611d15565b610fbd9190611d15565b610fc79190611d15565b421115611020575f6040518060400160405280600d81526020017f41776172642054696d656f7574000000000000000000000000000000000000008152509060405180602001604052805f815250925092509250611048565b5b5f60405180602001604052805f8152509060405180602001604052805f8152509250925092505b909192565b60065481565b5f308383604051602001611069939291906123da565b60405160208183030381529060405280519060200120905092915050565b60055481565b5f805f9054906101000a900473ffffffffffffffffffffffffffffffffffffffff16905090565b5f805f9054906101000a900473ffffffffffffffffffffffffffffffffffffffff1673ffffffffffffffffffffffffffffffffffffffff163373ffffffffffffffffffffffffffffffffffffffff1614905090565b60035481565b60045481565b426004546003546111269190611d15565b10801561114e57506005546004546003546111419190611d15565b61114b9190611d15565b42105b61118d576040517f08c379a000000000000000000000000000000000000000000000000000000000815260040161118490612482565b60405180910390fd5b3373ffffffffffffffffffffffffffffffffffffffff16600a5f8581526020019081526020015f205f0160059054906101000a900473ffffffffffffffffffffffffffffffffffffffff1673ffffffffffffffffffffffffffffffffffffffff161461122e576040517f08c379a000000000000000000000000000000000000000000000000000000000815260040161122590612536565b60405180910390fd5b6112398383836115e1565b81600a5f8581526020019081526020015f205f015f6101000a81548161ffff021916908361ffff1602179055506001600a5f8581526020019081526020015f205f0160036101000a81548160ff02191690831515021790555060095f8154809291906112a490611e03565b9190505550505050565b60075481565b5f6064606266038d7ea4c680006112cb9190612554565b6112d59190612595565b90505f6064600266038d7ea4c680006112ee9190612554565b6112f89190612595565b9050600a5f8481526020019081526020015f205f0160059054906101000a900473ffffffffffffffffffffffffffffffffffffffff1673ffffffffffffffffffffffffffffffffffffffff166108fc8390811502906040515f60405180830381858888f19350505050158015611370573d5f803e3d5ffd5b5061137961108d565b73ffffffffffffffffffffffffffffffffffffffff166108fc8290811502906040515f60405180830381858888f193505050501580156113bb573d5f803e3d5ffd5b50505050565b5f6064606260095466038d7ea4c680006113db9190612554565b6113e59190612554565b6113ef9190612595565b90505f6064600260095466038d7ea4c6800061140b9190612554565b6114159190612554565b61141f9190612595565b90508273ffffffffffffffffffffffffffffffffffffffff166108fc8390811502906040515f60405180830381858888f19350505050158015611464573d5f803e3d5ffd5b5061146d61108d565b73ffffffffffffffffffffffffffffffffffffffff166108fc8290811502906040515f60405180830381858888f193505050501580156114af573d5f803e3d5ffd5b50505050565b5f60025f6101000a81548161ffff021916908361ffff1602179055505f6008819055505f60098190555042600381905550565b8060015f8481526020019081526020015f205f01819055504360015f8481526020019081526020015f206001015f6101000a81548167ffffffffffffffff021916908367ffffffffffffffff1602179055505f60015f8481526020019081526020015f2060010160086101000a81548160ff0219169083151502179055507fb7ce637f0652efa186adedccc22b6809dc1c12dc3b3bf096df581f3b1fe1b3db338360015f8681526020019081526020015f205f015460015f8781526020019081526020015f206001015f9054906101000a900467ffffffffffffffff166040516115d594939291906125e7565b60405180910390a15050565b5f151560015f8581526020019081526020015f2060010160089054906101000a900460ff16151514611648576040517f08c379a000000000000000000000000000000000000000000000000000000000815260040161163f9061269a565b60405180910390fd5b6001805f8581526020019081526020015f2060010160086101000a81548160ff02191690831515021790555060015f8481526020019081526020015f205f01546116928383611053565b146116d2576040517f08c379a00000000000000000000000000000000000000000000000000000000081526004016116c990612728565b60405180910390fd5b7fd59eb094a5bc7d37ee78628b6a471a4a62c3148908d3efdae106802c4698b13433838360405161170593929190612746565b60405180910390a1505050565b6040518060a001604052805f61ffff1681526020015f151581526020015f151581526020015f151581526020015f73ffffffffffffffffffffffffffffffffffffffff1681525090565b5f604051905090565b5f80fd5b5f80fd5b5f819050919050565b61177f8161176d565b8114611789575f80fd5b50565b5f8135905061179a81611776565b92915050565b5f602082840312156117b5576117b4611765565b5b5f6117c28482850161178c565b91505092915050565b5f61ffff82169050919050565b6117e1816117cb565b82525050565b5f8115159050919050565b6117fb816117e7565b82525050565b5f73ffffffffffffffffffffffffffffffffffffffff82169050919050565b5f61182a82611801565b9050919050565b61183a81611820565b82525050565b5f60a0820190506118535f8301886117d8565b61186060208301876117f2565b61186d60408301866117f2565b61187a60608301856117f2565b6118876080830184611831565b9695505050505050565b5f819050919050565b6118a381611891565b81146118ad575f80fd5b50565b5f813590506118be8161189a565b92915050565b5f602082840312156118d9576118d8611765565b5b5f6118e6848285016118b0565b91505092915050565b6118f88161176d565b82525050565b5f6020820190506119115f8301846118ef565b92915050565b5f81519050919050565b5f82825260208201905092915050565b5f5b8381101561194e578082015181840152602081019050611933565b5f8484015250505050565b5f601f19601f8301169050919050565b5f61197382611917565b61197d8185611921565b935061198d818560208601611931565b61199681611959565b840191505092915050565b5f6060820190508181035f8301526119b98186611969565b90506119c860208301856118ef565b81810360408301526119da8184611969565b9050949350505050565b6119ed816117cb565b81146119f7575f80fd5b50565b5f81359050611a08816119e4565b92915050565b5f80fd5b5f80fd5b7f4e487b71000000000000000000000000000000000000000000000000000000005f52604160045260245ffd5b611a4c82611959565b810181811067ffffffffffffffff82111715611a6b57611a6a611a16565b5b80604052505050565b5f611a7d61175c565b9050611a898282611a43565b919050565b5f67ffffffffffffffff821115611aa857611aa7611a16565b5b611ab182611959565b9050602081019050919050565b828183375f83830152505050565b5f611ade611ad984611a8e565b611a74565b905082815260208101848484011115611afa57611af9611a12565b5b611b05848285611abe565b509392505050565b5f82601f830112611b2157611b20611a0e565b5b8135611b31848260208601611acc565b91505092915050565b5f8060408385031215611b5057611b4f611765565b5b5f611b5d858286016119fa565b925050602083013567ffffffffffffffff811115611b7e57611b7d611769565b5b611b8a85828601611b0d565b9150509250929050565b611b9d81611891565b82525050565b5f602082019050611bb65f830184611b94565b92915050565b5f602082019050611bcf5f830184611831565b92915050565b5f602082019050611be85f8301846117f2565b92915050565b5f805f60608486031215611c0557611c04611765565b5b5f611c128682870161178c565b9350506020611c23868287016119fa565b925050604084013567ffffffffffffffff811115611c4457611c43611769565b5b611c5086828701611b0d565b9150509250925092565b7f4f776e61626c653a206f6e6c79206f776e65722063616e2063616c6c207468695f8201527f732066756e6374696f6e00000000000000000000000000000000000000000000602082015250565b5f611cb4602a83611921565b9150611cbf82611c5a565b604082019050919050565b5f6020820190508181035f830152611ce181611ca8565b9050919050565b7f4e487b71000000000000000000000000000000000000000000000000000000005f52601160045260245ffd5b5f611d1f8261176d565b9150611d2a8361176d565b9250828201905080821115611d4257611d41611ce8565b5b92915050565b7f4d756c746950617274794c6f74746572793a3a61776172644c6f74746572793a5f8201527f2047616d65206973206e6f7420696e2061776172642073746167650000000000602082015250565b5f611da2603b83611921565b9150611dad82611d48565b604082019050919050565b5f6020820190508181035f830152611dcf81611d96565b9050919050565b7f4e487b71000000000000000000000000000000000000000000000000000000005f52603260045260245ffd5b5f611e0d8261176d565b91507fffffffffffffffffffffffffffffffffffffffffffffffffffffffffffffffff8203611e3f57611e3e611ce8565b5b600182019050919050565b5f819050919050565b611e64611e5f8261176d565b611e4a565b82525050565b5f611e758284611e53565b60208201915081905092915050565b7f4e487b71000000000000000000000000000000000000000000000000000000005f52601260045260245ffd5b5f611ebb8261176d565b9150611ec68361176d565b925082611ed657611ed5611e84565b5b828206905092915050565b7f72657175697265204c6f74746572794665652028302e303031206574686572295f8201527f20746f2070617274696369706174650000000000000000000000000000000000602082015250565b5f611f3b602f83611921565b9150611f4682611ee1565b604082019050919050565b5f6020820190508181035f830152611f6881611f2f565b9050919050565b7f4d756c746950617274794c6f74746572793a3a636f6d6d6974486173684c6f745f8201527f746572793a204d6178696d756d206e756d626572206f6620706c61796572732060208201527f6c696d6974206578636565646564000000000000000000000000000000000000604082015250565b5f611fef604e83611921565b9150611ffa82611f6f565b606082019050919050565b5f6020820190508181035f83015261201c81611fe3565b9050919050565b7f4d756c746950617274794c6f74746572793a3a636f6d6d6974486173684c6f745f8201527f746572793a2047616d65206973206e6f7420696e20636f6d6d6974207374616760208201527f6500000000000000000000000000000000000000000000000000000000000000604082015250565b5f6120a3604183611921565b91506120ae82612023565b606082019050919050565b5f6020820190508181035f8301526120d081612097565b9050919050565b7f4d756c746950617274794c6f74746572793a3a77697468647261773a2047616d5f8201527f65206973206e6f7420696e2061776172642074696d656f757420737461676500602082015250565b5f612131603f83611921565b915061213c826120d7565b604082019050919050565b5f6020820190508181035f83015261215e81612125565b9050919050565b7f4d756c746950617274794c6f74746572793a3a77697468647261773a20596f755f8201527f20617265206e6f7420746865206f776e6572206f662074686973206c6f74746560208201527f7279000000000000000000000000000000000000000000000000000000000000604082015250565b5f6121e5604283611921565b91506121f082612165565b606082019050919050565b5f6020820190508181035f830152612212816121d9565b9050919050565b7f4d756c746950617274794c6f74746572793a3a77697468647261773a20596f755f8201527f206861766520616c72656164792077697468647261776e2074686973206c6f7460208201527f7465727900000000000000000000000000000000000000000000000000000000604082015250565b5f612299604483611921565b91506122a482612219565b606082019050919050565b5f6020820190508181035f8301526122c68161228d565b9050919050565b5f6122d78261176d565b91505f82036122e9576122e8611ce8565b5b600182039050919050565b5f6122fe8261176d565b91506123098361176d565b925082820390508181111561232157612320611ce8565b5b92915050565b5f8160601b9050919050565b5f61233d82612327565b9050919050565b5f61234e82612333565b9050919050565b61236661236182611820565b612344565b82525050565b5f8160f01b9050919050565b5f6123828261236c565b9050919050565b61239a612395826117cb565b612378565b82525050565b5f81905092915050565b5f6123b482611917565b6123be81856123a0565b93506123ce818560208601611931565b80840191505092915050565b5f6123e58286612355565b6014820191506123f58285612389565b60028201915061240582846123aa565b9150819050949350505050565b7f4d756c746950617274794c6f74746572793a3a72657665616c4c6f74746572795f8201527f3a2047616d65206973206e6f7420696e2072657665616c207374616765000000602082015250565b5f61246c603d83611921565b915061247782612412565b604082019050919050565b5f6020820190508181035f83015261249981612460565b9050919050565b7f4d756c746950617274794c6f74746572793a3a72657665616c4c6f74746572795f8201527f3a20596f7520617265206e6f7420746865206f776e6572206f6620746869732060208201527f6c6f747465727900000000000000000000000000000000000000000000000000604082015250565b5f612520604783611921565b915061252b826124a0565b606082019050919050565b5f6020820190508181035f83015261254d81612514565b9050919050565b5f61255e8261176d565b91506125698361176d565b92508282026125778161176d565b9150828204841483151761258e5761258d611ce8565b5b5092915050565b5f61259f8261176d565b91506125aa8361176d565b9250826125ba576125b9611e84565b5b828204905092915050565b5f67ffffffffffffffff82169050919050565b6125e1816125c5565b82525050565b5f6080820190506125fa5f830187611831565b61260760208301866118ef565b6126146040830185611b94565b61262160608301846125d8565b95945050505050565b7f436f6d6d697452657665616c3a3a72657665616c43686f6963653a20416c72655f8201527f6164792072657665616c65640000000000000000000000000000000000000000602082015250565b5f612684602c83611921565b915061268f8261262a565b604082019050919050565b5f6020820190508181035f8301526126b181612678565b9050919050565b7f436f6d6d697452657665616c3a3a72657665616c43686f6963653a20526576655f8201527f616c6564206861736820646f6573206e6f74206d6174636820636f6d6d697400602082015250565b5f612712603f83611921565b915061271d826126b8565b604082019050919050565b5f6020820190508181035f83015261273f81612706565b9050919050565b5f6060820190506127595f830186611831565b61276660208301856117d8565b81810360408301526127788184611969565b905094935050505056fea2646970667358221220dbd1f7612c0e2b1214ae17c39174a8f2fb01e1d0227604932c3d8e1ba886603164736f6c63430008160033",
			"opcodes": "PUSH1 0x80 PUSH1 0x40 MSTORE PUSH0 PUSH1 0x2 PUSH0 PUSH2 0x100 EXP DUP2 SLOAD DUP2 PUSH2 0xFFFF MUL NOT AND SWAP1 DUP4 PUSH2 0xFFFF AND MUL OR SWAP1 SSTORE POP TIMESTAMP PUSH1 0x3 SSTORE PUSH0 PUSH1 0x8 SSTORE PUSH0 PUSH1 0x9 SSTORE CALLVALUE DUP1 ISZERO PUSH3 0x38 JUMPI PUSH0 DUP1 REVERT JUMPDEST POP PUSH1 0x40 MLOAD PUSH3 0x2934 CODESIZE SUB DUP1 PUSH3 0x2934 DUP4 CODECOPY DUP2 DUP2 ADD PUSH1 0x40 MSTORE DUP2 ADD SWAP1 PUSH3 0x5E SWAP2 SWAP1 PUSH3 0xFF JUMP JUMPDEST CALLER PUSH0 DUP1 PUSH2 0x100 EXP DUP2 SLOAD DUP2 PUSH20 0xFFFFFFFFFFFFFFFFFFFFFFFFFFFFFFFFFFFFFFFF MUL NOT AND SWAP1 DUP4 PUSH20 0xFFFFFFFFFFFFFFFFFFFFFFFFFFFFFFFFFFFFFFFF AND MUL OR SWAP1 SSTORE POP DUP4 PUSH1 0x7 DUP2 SWAP1 SSTORE POP DUP3 PUSH1 0x4 DUP2 SWAP1 SSTORE POP DUP2 PUSH1 0x5 DUP2 SWAP1 SSTORE POP DUP1 PUSH1 0x6 DUP2 SWAP1 SSTORE POP POP POP POP POP PUSH3 0x16E JUMP JUMPDEST PUSH0 DUP1 REVERT JUMPDEST PUSH0 DUP2 SWAP1 POP SWAP2 SWAP1 POP JUMP JUMPDEST PUSH3 0xDB DUP2 PUSH3 0xC7 JUMP JUMPDEST DUP2 EQ PUSH3 0xE6 JUMPI PUSH0 DUP1 REVERT JUMPDEST POP JUMP JUMPDEST PUSH0 DUP2 MLOAD SWAP1 POP PUSH3 0xF9 DUP2 PUSH3 0xD0 JUMP JUMPDEST SWAP3 SWAP2 POP POP JUMP JUMPDEST PUSH0 DUP1 PUSH0 DUP1 PUSH1 0x80 DUP6 DUP8 SUB SLT ISZERO PUSH3 0x11A JUMPI PUSH3 0x119 PUSH3 0xC3 JUMP JUMPDEST JUMPDEST PUSH0 PUSH3 0x129 DUP8 DUP3 DUP9 ADD PUSH3 0xE9 JUMP JUMPDEST SWAP5 POP POP PUSH1 0x20 PUSH3 0x13C DUP8 DUP3 DUP9 ADD PUSH3 0xE9 JUMP JUMPDEST SWAP4 POP POP PUSH1 0x40 PUSH3 0x14F DUP8 DUP3 DUP9 ADD PUSH3 0xE9 JUMP JUMPDEST SWAP3 POP POP PUSH1 0x60 PUSH3 0x162 DUP8 DUP3 DUP9 ADD PUSH3 0xE9 JUMP JUMPDEST SWAP2 POP POP SWAP3 SWAP6 SWAP2 SWAP5 POP SWAP3 POP JUMP JUMPDEST PUSH2 0x27B8 DUP1 PUSH3 0x17C PUSH0 CODECOPY PUSH0 RETURN INVALID PUSH1 0x80 PUSH1 0x40 MSTORE PUSH1 0x4 CALLDATASIZE LT PUSH2 0xDC JUMPI PUSH0 CALLDATALOAD PUSH1 0xE0 SHR DUP1 PUSH4 0x84C9AD6E GT PUSH2 0x7E JUMPI DUP1 PUSH4 0x99023F1B GT PUSH2 0x58 JUMPI DUP1 PUSH4 0x99023F1B EQ PUSH2 0x29E JUMPI DUP1 PUSH4 0xA11EFEF4 EQ PUSH2 0x2C8 JUMPI DUP1 PUSH4 0xACF1A0AC EQ PUSH2 0x2F2 JUMPI DUP1 PUSH4 0xC9E525DF EQ PUSH2 0x31A JUMPI PUSH2 0xDC JUMP JUMPDEST DUP1 PUSH4 0x84C9AD6E EQ PUSH2 0x220 JUMPI DUP1 PUSH4 0x8DA5CB5B EQ PUSH2 0x24A JUMPI DUP1 PUSH4 0x8F32D59B EQ PUSH2 0x274 JUMPI PUSH2 0xDC JUMP JUMPDEST DUP1 PUSH4 0x2E1A7D4D GT PUSH2 0xBA JUMPI DUP1 PUSH4 0x2E1A7D4D EQ PUSH2 0x166 JUMPI DUP1 PUSH4 0x2F0BCA26 EQ PUSH2 0x18E JUMPI DUP1 PUSH4 0x31081D7E EQ PUSH2 0x1BA JUMPI DUP1 PUSH4 0x5A07EC0B EQ PUSH2 0x1E4 JUMPI PUSH2 0xDC JUMP JUMPDEST DUP1 PUSH4 0x1398E076 EQ PUSH2 0xE0 JUMPI DUP1 PUSH4 0x15753EC0 EQ PUSH2 0x120 JUMPI DUP1 PUSH4 0x218E8A9E EQ PUSH2 0x136 JUMPI JUMPDEST PUSH0 DUP1 REVERT JUMPDEST CALLVALUE DUP1 ISZERO PUSH2 0xEB JUMPI PUSH0 DUP1 REVERT JUMPDEST POP PUSH2 0x106 PUSH1 0x4 DUP1 CALLDATASIZE SUB DUP2 ADD SWAP1 PUSH2 0x101 SWAP2 SWAP1 PUSH2 0x17A0 JUMP JUMPDEST PUSH2 0x344 JUMP JUMPDEST PUSH1 0x40 MLOAD PUSH2 0x117 SWAP6 SWAP5 SWAP4 SWAP3 SWAP2 SWAP1 PUSH2 0x1840 JUMP JUMPDEST PUSH1 0x40 MLOAD DUP1 SWAP2 SUB SWAP1 RETURN JUMPDEST CALLVALUE DUP1 ISZERO PUSH2 0x12B JUMPI PUSH0 DUP1 REVERT JUMPDEST POP PUSH2 0x134 PUSH2 0x3C6 JUMP JUMPDEST STOP JUMPDEST PUSH2 0x150 PUSH1 0x4 DUP1 CALLDATASIZE SUB DUP2 ADD SWAP1 PUSH2 0x14B SWAP2 SWAP1 PUSH2 0x18C4 JUMP JUMPDEST PUSH2 0x843 JUMP JUMPDEST PUSH1 0x40 MLOAD PUSH2 0x15D SWAP2 SWAP1 PUSH2 0x18FE JUMP JUMPDEST PUSH1 0x40 MLOAD DUP1 SWAP2 SUB SWAP1 RETURN JUMPDEST CALLVALUE DUP1 ISZERO PUSH2 0x171 JUMPI PUSH0 DUP1 REVERT JUMPDEST POP PUSH2 0x18C PUSH1 0x4 DUP1 CALLDATASIZE SUB DUP2 ADD SWAP1 PUSH2 0x187 SWAP2 SWAP1 PUSH2 0x17A0 JUMP JUMPDEST PUSH2 0xAB3 JUMP JUMPDEST STOP JUMPDEST CALLVALUE DUP1 ISZERO PUSH2 0x199 JUMPI PUSH0 DUP1 REVERT JUMPDEST POP PUSH2 0x1A2 PUSH2 0xCC8 JUMP JUMPDEST PUSH1 0x40 MLOAD PUSH2 0x1B1 SWAP4 SWAP3 SWAP2 SWAP1 PUSH2 0x19A1 JUMP JUMPDEST PUSH1 0x40 MLOAD DUP1 SWAP2 SUB SWAP1 RETURN JUMPDEST CALLVALUE DUP1 ISZERO PUSH2 0x1C5 JUMPI PUSH0 DUP1 REVERT JUMPDEST POP PUSH2 0x1CE PUSH2 0x104D JUMP JUMPDEST PUSH1 0x40 MLOAD PUSH2 0x1DB SWAP2 SWAP1 PUSH2 0x18FE JUMP JUMPDEST PUSH1 0x40 MLOAD DUP1 SWAP2 SUB SWAP1 RETURN JUMPDEST CALLVALUE DUP1 ISZERO PUSH2 0x1EF JUMPI PUSH0 DUP1 REVERT JUMPDEST POP PUSH2 0x20A PUSH1 0x4 DUP1 CALLDATASIZE SUB DUP2 ADD SWAP1 PUSH2 0x205 SWAP2 SWAP1 PUSH2 0x1B3A JUMP JUMPDEST PUSH2 0x1053 JUMP JUMPDEST PUSH1 0x40 MLOAD PUSH2 0x217 SWAP2 SWAP1 PUSH2 0x1BA3 JUMP JUMPDEST PUSH1 0x40 MLOAD DUP1 SWAP2 SUB SWAP1 RETURN JUMPDEST CALLVALUE DUP1 ISZERO PUSH2 0x22B JUMPI PUSH0 DUP1 REVERT JUMPDEST POP PUSH2 0x234 PUSH2 0x1087 JUMP JUMPDEST PUSH1 0x40 MLOAD PUSH2 0x241 SWAP2 SWAP1 PUSH2 0x18FE JUMP JUMPDEST PUSH1 0x40 MLOAD DUP1 SWAP2 SUB SWAP1 RETURN JUMPDEST CALLVALUE DUP1 ISZERO PUSH2 0x255 JUMPI PUSH0 DUP1 REVERT JUMPDEST POP PUSH2 0x25E PUSH2 0x108D JUMP JUMPDEST PUSH1 0x40 MLOAD PUSH2 0x26B SWAP2 SWAP1 PUSH2 0x1BBC JUMP JUMPDEST PUSH1 0x40 MLOAD DUP1 SWAP2 SUB SWAP1 RETURN JUMPDEST CALLVALUE DUP1 ISZERO PUSH2 0x27F JUMPI PUSH0 DUP1 REVERT JUMPDEST POP PUSH2 0x288 PUSH2 0x10B4 JUMP JUMPDEST PUSH1 0x40 MLOAD PUSH2 0x295 SWAP2 SWAP1 PUSH2 0x1BD5 JUMP JUMPDEST PUSH1 0x40 MLOAD DUP1 SWAP2 SUB SWAP1 RETURN JUMPDEST CALLVALUE DUP1 ISZERO PUSH2 0x2A9 JUMPI PUSH0 DUP1 REVERT JUMPDEST POP PUSH2 0x2B2 PUSH2 0x1109 JUMP JUMPDEST PUSH1 0x40 MLOAD PUSH2 0x2BF SWAP2 SWAP1 PUSH2 0x18FE JUMP JUMPDEST PUSH1 0x40 MLOAD DUP1 SWAP2 SUB SWAP1 RETURN JUMPDEST CALLVALUE DUP1 ISZERO PUSH2 0x2D3 JUMPI PUSH0 DUP1 REVERT JUMPDEST POP PUSH2 0x2DC PUSH2 0x110F JUMP JUMPDEST PUSH1 0x40 MLOAD PUSH2 0x2E9 SWAP2 SWAP1 PUSH2 0x18FE JUMP JUMPDEST PUSH1 0x40 MLOAD DUP1 SWAP2 SUB SWAP1 RETURN JUMPDEST CALLVALUE DUP1 ISZERO PUSH2 0x2FD JUMPI PUSH0 DUP1 REVERT JUMPDEST POP PUSH2 0x318 PUSH1 0x4 DUP1 CALLDATASIZE SUB DUP2 ADD SWAP1 PUSH2 0x313 SWAP2 SWAP1 PUSH2 0x1BEE JUMP JUMPDEST PUSH2 0x1115 JUMP JUMPDEST STOP JUMPDEST CALLVALUE DUP1 ISZERO PUSH2 0x325 JUMPI PUSH0 DUP1 REVERT JUMPDEST POP PUSH2 0x32E PUSH2 0x12AE JUMP JUMPDEST PUSH1 0x40 MLOAD PUSH2 0x33B SWAP2 SWAP1 PUSH2 0x18FE JUMP JUMPDEST PUSH1 0x40 MLOAD DUP1 SWAP2 SUB SWAP1 RETURN JUMPDEST PUSH1 0xA PUSH1 0x20 MSTORE DUP1 PUSH0 MSTORE PUSH1 0x40 PUSH0 KECCAK256 PUSH0 SWAP2 POP SWAP1 POP DUP1 PUSH0 ADD PUSH0 SWAP1 SLOAD SWAP1 PUSH2 0x100 EXP SWAP1 DIV PUSH2 0xFFFF AND SWAP1 DUP1 PUSH0 ADD PUSH1 0x2 SWAP1 SLOAD SWAP1 PUSH2 0x100 EXP SWAP1 DIV PUSH1 0xFF AND SWAP1 DUP1 PUSH0 ADD PUSH1 0x3 SWAP1 SLOAD SWAP1 PUSH2 0x100 EXP SWAP1 DIV PUSH1 0xFF AND SWAP1 DUP1 PUSH0 ADD PUSH1 0x4 SWAP1 SLOAD SWAP1 PUSH2 0x100 EXP SWAP1 DIV PUSH1 0xFF AND SWAP1 DUP1 PUSH0 ADD PUSH1 0x5 SWAP1 SLOAD SWAP1 PUSH2 0x100 EXP SWAP1 DIV PUSH20 0xFFFFFFFFFFFFFFFFFFFFFFFFFFFFFFFFFFFFFFFF AND SWAP1 POP DUP6 JUMP JUMPDEST PUSH2 0x3CE PUSH2 0x10B4 JUMP JUMPDEST PUSH2 0x40D JUMPI PUSH1 0x40 MLOAD PUSH32 0x8C379A000000000000000000000000000000000000000000000000000000000 DUP2 MSTORE PUSH1 0x4 ADD PUSH2 0x404 SWAP1 PUSH2 0x1CCA JUMP JUMPDEST PUSH1 0x40 MLOAD DUP1 SWAP2 SUB SWAP1 REVERT JUMPDEST TIMESTAMP PUSH1 0x5 SLOAD PUSH1 0x4 SLOAD PUSH1 0x3 SLOAD PUSH2 0x421 SWAP2 SWAP1 PUSH2 0x1D15 JUMP JUMPDEST PUSH2 0x42B SWAP2 SWAP1 PUSH2 0x1D15 JUMP JUMPDEST LT DUP1 ISZERO PUSH2 0x460 JUMPI POP PUSH1 0x6 SLOAD PUSH1 0x5 SLOAD PUSH1 0x4 SLOAD PUSH1 0x3 SLOAD PUSH2 0x449 SWAP2 SWAP1 PUSH2 0x1D15 JUMP JUMPDEST PUSH2 0x453 SWAP2 SWAP1 PUSH2 0x1D15 JUMP JUMPDEST PUSH2 0x45D SWAP2 SWAP1 PUSH2 0x1D15 JUMP JUMPDEST TIMESTAMP LT JUMPDEST PUSH2 0x49F JUMPI PUSH1 0x40 MLOAD PUSH32 0x8C379A000000000000000000000000000000000000000000000000000000000 DUP2 MSTORE PUSH1 0x4 ADD PUSH2 0x496 SWAP1 PUSH2 0x1DB8 JUMP JUMPDEST PUSH1 0x40 MLOAD DUP1 SWAP2 SUB SWAP1 REVERT JUMPDEST PUSH0 PUSH1 0x8 SLOAD PUSH8 0xFFFFFFFFFFFFFFFF DUP2 GT ISZERO PUSH2 0x4BC JUMPI PUSH2 0x4BB PUSH2 0x1A16 JUMP JUMPDEST JUMPDEST PUSH1 0x40 MLOAD SWAP1 DUP1 DUP3 MSTORE DUP1 PUSH1 0x20 MUL PUSH1 0x20 ADD DUP3 ADD PUSH1 0x40 MSTORE DUP1 ISZERO PUSH2 0x4F5 JUMPI DUP2 PUSH1 0x20 ADD JUMPDEST PUSH2 0x4E2 PUSH2 0x1712 JUMP JUMPDEST DUP2 MSTORE PUSH1 0x20 ADD SWAP1 PUSH1 0x1 SWAP1 SUB SWAP1 DUP2 PUSH2 0x4DA JUMPI SWAP1 POP JUMPDEST POP SWAP1 POP PUSH0 DUP1 JUMPDEST PUSH1 0x8 SLOAD DUP2 LT ISZERO PUSH2 0x76F JUMPI PUSH1 0xA PUSH0 DUP3 DUP2 MSTORE PUSH1 0x20 ADD SWAP1 DUP2 MSTORE PUSH1 0x20 ADD PUSH0 KECCAK256 PUSH0 ADD PUSH1 0x3 SWAP1 SLOAD SWAP1 PUSH2 0x100 EXP SWAP1 DIV PUSH1 0xFF AND DUP1 ISZERO PUSH2 0x55A JUMPI POP PUSH0 PUSH2 0xFFFF AND PUSH1 0xA PUSH0 DUP4 DUP2 MSTORE PUSH1 0x20 ADD SWAP1 DUP2 MSTORE PUSH1 0x20 ADD PUSH0 KECCAK256 PUSH0 ADD PUSH0 SWAP1 SLOAD SWAP1 PUSH2 0x100 EXP SWAP1 DIV PUSH2 0xFFFF AND PUSH2 0xFFFF AND LT ISZERO JUMPDEST DUP1 ISZERO PUSH2 0x590 JUMPI POP PUSH2 0x3E7 PUSH2 0xFFFF AND PUSH1 0xA PUSH0 DUP4 DUP2 MSTORE PUSH1 0x20 ADD SWAP1 DUP2 MSTORE PUSH1 0x20 ADD PUSH0 KECCAK256 PUSH0 ADD PUSH0 SWAP1 SLOAD SWAP1 PUSH2 0x100 EXP SWAP1 DIV PUSH2 0xFFFF AND PUSH2 0xFFFF AND GT ISZERO JUMPDEST ISZERO PUSH2 0x758 JUMPI PUSH1 0xA PUSH0 DUP3 DUP2 MSTORE PUSH1 0x20 ADD SWAP1 DUP2 MSTORE PUSH1 0x20 ADD PUSH0 KECCAK256 PUSH0 ADD PUSH0 SWAP1 SLOAD SWAP1 PUSH2 0x100 EXP SWAP1 DIV PUSH2 0xFFFF AND DUP4 DUP4 DUP2 MLOAD DUP2 LT PUSH2 0x5C9 JUMPI PUSH2 0x5C8 PUSH2 0x1DD6 JUMP JUMPDEST JUMPDEST PUSH1 0x20 MUL PUSH1 0x20 ADD ADD MLOAD PUSH0 ADD SWAP1 PUSH2 0xFFFF AND SWAP1 DUP2 PUSH2 0xFFFF AND DUP2 MSTORE POP POP PUSH1 0xA PUSH0 DUP3 DUP2 MSTORE PUSH1 0x20 ADD SWAP1 DUP2 MSTORE PUSH1 0x20 ADD PUSH0 KECCAK256 PUSH0 ADD PUSH1 0x5 SWAP1 SLOAD SWAP1 PUSH2 0x100 EXP SWAP1 DIV PUSH20 0xFFFFFFFFFFFFFFFFFFFFFFFFFFFFFFFFFFFFFFFF AND DUP4 DUP4 DUP2 MLOAD DUP2 LT PUSH2 0x629 JUMPI PUSH2 0x628 PUSH2 0x1DD6 JUMP JUMPDEST JUMPDEST PUSH1 0x20 MUL PUSH1 0x20 ADD ADD MLOAD PUSH1 0x80 ADD SWAP1 PUSH20 0xFFFFFFFFFFFFFFFFFFFFFFFFFFFFFFFFFFFFFFFF AND SWAP1 DUP2 PUSH20 0xFFFFFFFFFFFFFFFFFFFFFFFFFFFFFFFFFFFFFFFF AND DUP2 MSTORE POP POP PUSH1 0xA PUSH0 DUP3 DUP2 MSTORE PUSH1 0x20 ADD SWAP1 DUP2 MSTORE PUSH1 0x20 ADD PUSH0 KECCAK256 PUSH0 ADD PUSH1 0x2 SWAP1 SLOAD SWAP1 PUSH2 0x100 EXP SWAP1 DIV PUSH1 0xFF AND DUP4 DUP4 DUP2 MLOAD DUP2 LT PUSH2 0x69B JUMPI PUSH2 0x69A PUSH2 0x1DD6 JUMP JUMPDEST JUMPDEST PUSH1 0x20 MUL PUSH1 0x20 ADD ADD MLOAD PUSH1 0x20 ADD SWAP1 ISZERO ISZERO SWAP1 DUP2 ISZERO ISZERO DUP2 MSTORE POP POP PUSH1 0xA PUSH0 DUP3 DUP2 MSTORE PUSH1 0x20 ADD SWAP1 DUP2 MSTORE PUSH1 0x20 ADD PUSH0 KECCAK256 PUSH0 ADD PUSH1 0x3 SWAP1 SLOAD SWAP1 PUSH2 0x100 EXP SWAP1 DIV PUSH1 0xFF AND DUP4 DUP4 DUP2 MLOAD DUP2 LT PUSH2 0x6E5 JUMPI PUSH2 0x6E4 PUSH2 0x1DD6 JUMP JUMPDEST JUMPDEST PUSH1 0x20 MUL PUSH1 0x20 ADD ADD MLOAD PUSH1 0x40 ADD SWAP1 ISZERO ISZERO SWAP1 DUP2 ISZERO ISZERO DUP2 MSTORE POP POP PUSH1 0xA PUSH0 DUP3 DUP2 MSTORE PUSH1 0x20 ADD SWAP1 DUP2 MSTORE PUSH1 0x20 ADD PUSH0 KECCAK256 PUSH0 ADD PUSH1 0x4 SWAP1 SLOAD SWAP1 PUSH2 0x100 EXP SWAP1 DIV PUSH1 0xFF AND DUP4 DUP4 DUP2 MLOAD DUP2 LT PUSH2 0x72F JUMPI PUSH2 0x72E PUSH2 0x1DD6 JUMP JUMPDEST JUMPDEST PUSH1 0x20 MUL PUSH1 0x20 ADD ADD MLOAD PUSH1 0x60 ADD SWAP1 ISZERO ISZERO SWAP1 DUP2 ISZERO ISZERO DUP2 MSTORE POP POP DUP2 DUP1 PUSH2 0x750 SWAP1 PUSH2 0x1E03 JUMP JUMPDEST SWAP3 POP POP PUSH2 0x762 JUMP JUMPDEST PUSH2 0x761 DUP2 PUSH2 0x12B4 JUMP JUMPDEST JUMPDEST DUP1 DUP1 PUSH1 0x1 ADD SWAP2 POP POP PUSH2 0x4FB JUMP JUMPDEST POP PUSH0 DUP3 PUSH0 DUP2 MLOAD DUP2 LT PUSH2 0x784 JUMPI PUSH2 0x783 PUSH2 0x1DD6 JUMP JUMPDEST JUMPDEST PUSH1 0x20 MUL PUSH1 0x20 ADD ADD MLOAD PUSH0 ADD MLOAD PUSH2 0xFFFF AND SWAP1 POP PUSH0 PUSH1 0x1 SWAP1 POP JUMPDEST DUP3 DUP2 LT ISZERO PUSH2 0x7D6 JUMPI DUP4 DUP2 DUP2 MLOAD DUP2 LT PUSH2 0x7B6 JUMPI PUSH2 0x7B5 PUSH2 0x1DD6 JUMP JUMPDEST JUMPDEST PUSH1 0x20 MUL PUSH1 0x20 ADD ADD MLOAD PUSH0 ADD MLOAD PUSH2 0xFFFF AND DUP3 XOR SWAP2 POP DUP1 DUP1 PUSH1 0x1 ADD SWAP2 POP POP PUSH2 0x79B JUMP JUMPDEST POP PUSH0 DUP3 DUP3 PUSH1 0x40 MLOAD PUSH1 0x20 ADD PUSH2 0x7EA SWAP2 SWAP1 PUSH2 0x1E6A JUMP JUMPDEST PUSH1 0x40 MLOAD PUSH1 0x20 DUP2 DUP4 SUB SUB DUP2 MSTORE SWAP1 PUSH1 0x40 MSTORE DUP1 MLOAD SWAP1 PUSH1 0x20 ADD KECCAK256 PUSH0 SHR PUSH2 0x80C SWAP2 SWAP1 PUSH2 0x1EB1 JUMP JUMPDEST SWAP1 POP PUSH2 0x835 DUP5 DUP3 DUP2 MLOAD DUP2 LT PUSH2 0x824 JUMPI PUSH2 0x823 PUSH2 0x1DD6 JUMP JUMPDEST JUMPDEST PUSH1 0x20 MUL PUSH1 0x20 ADD ADD MLOAD PUSH1 0x80 ADD MLOAD PUSH2 0x13C1 JUMP JUMPDEST PUSH2 0x83D PUSH2 0x14B5 JUMP JUMPDEST POP POP POP POP JUMP JUMPDEST PUSH0 PUSH7 0x38D7EA4C68000 CALLVALUE EQ PUSH2 0x88D JUMPI PUSH1 0x40 MLOAD PUSH32 0x8C379A000000000000000000000000000000000000000000000000000000000 DUP2 MSTORE PUSH1 0x4 ADD PUSH2 0x884 SWAP1 PUSH2 0x1F51 JUMP JUMPDEST PUSH1 0x40 MLOAD DUP1 SWAP2 SUB SWAP1 REVERT JUMPDEST PUSH1 0x7 SLOAD PUSH1 0x8 SLOAD LT PUSH2 0x8D3 JUMPI PUSH1 0x40 MLOAD PUSH32 0x8C379A000000000000000000000000000000000000000000000000000000000 DUP2 MSTORE PUSH1 0x4 ADD PUSH2 0x8CA SWAP1 PUSH2 0x2005 JUMP JUMPDEST PUSH1 0x40 MLOAD DUP1 SWAP2 SUB SWAP1 REVERT JUMPDEST PUSH0 PUSH1 0x2 PUSH0 SWAP1 SLOAD SWAP1 PUSH2 0x100 EXP SWAP1 DIV PUSH2 0xFFFF AND PUSH2 0xFFFF AND SUB PUSH2 0x912 JUMPI PUSH1 0x1 PUSH1 0x2 PUSH0 PUSH2 0x100 EXP DUP2 SLOAD DUP2 PUSH2 0xFFFF MUL NOT AND SWAP1 DUP4 PUSH2 0xFFFF AND MUL OR SWAP1 SSTORE POP TIMESTAMP PUSH1 0x3 DUP2 SWAP1 SSTORE POP JUMPDEST PUSH1 0x4 SLOAD PUSH1 0x3 SLOAD PUSH2 0x922 SWAP2 SWAP1 PUSH2 0x1D15 JUMP JUMPDEST TIMESTAMP GT ISZERO PUSH2 0x964 JUMPI PUSH1 0x40 MLOAD PUSH32 0x8C379A000000000000000000000000000000000000000000000000000000000 DUP2 MSTORE PUSH1 0x4 ADD PUSH2 0x95B SWAP1 PUSH2 0x20B9 JUMP JUMPDEST PUSH1 0x40 MLOAD DUP1 SWAP2 SUB SWAP1 REVERT JUMPDEST PUSH0 PUSH1 0x8 SLOAD SWAP1 POP PUSH1 0x40 MLOAD DUP1 PUSH1 0xA0 ADD PUSH1 0x40 MSTORE DUP1 PUSH0 PUSH2 0xFFFF AND DUP2 MSTORE PUSH1 0x20 ADD PUSH1 0x1 ISZERO ISZERO DUP2 MSTORE PUSH1 0x20 ADD PUSH0 ISZERO ISZERO DUP2 MSTORE PUSH1 0x20 ADD PUSH0 ISZERO ISZERO DUP2 MSTORE PUSH1 0x20 ADD CALLER PUSH20 0xFFFFFFFFFFFFFFFFFFFFFFFFFFFFFFFFFFFFFFFF AND DUP2 MSTORE POP PUSH1 0xA PUSH0 DUP4 DUP2 MSTORE PUSH1 0x20 ADD SWAP1 DUP2 MSTORE PUSH1 0x20 ADD PUSH0 KECCAK256 PUSH0 DUP3 ADD MLOAD DUP2 PUSH0 ADD PUSH0 PUSH2 0x100 EXP DUP2 SLOAD DUP2 PUSH2 0xFFFF MUL NOT AND SWAP1 DUP4 PUSH2 0xFFFF AND MUL OR SWAP1 SSTORE POP PUSH1 0x20 DUP3 ADD MLOAD DUP2 PUSH0 ADD PUSH1 0x2 PUSH2 0x100 EXP DUP2 SLOAD DUP2 PUSH1 0xFF MUL NOT AND SWAP1 DUP4 ISZERO ISZERO MUL OR SWAP1 SSTORE POP PUSH1 0x40 DUP3 ADD MLOAD DUP2 PUSH0 ADD PUSH1 0x3 PUSH2 0x100 EXP DUP2 SLOAD DUP2 PUSH1 0xFF MUL NOT AND SWAP1 DUP4 ISZERO ISZERO MUL OR SWAP1 SSTORE POP PUSH1 0x60 DUP3 ADD MLOAD DUP2 PUSH0 ADD PUSH1 0x4 PUSH2 0x100 EXP DUP2 SLOAD DUP2 PUSH1 0xFF MUL NOT AND SWAP1 DUP4 ISZERO ISZERO MUL OR SWAP1 SSTORE POP PUSH1 0x80 DUP3 ADD MLOAD DUP2 PUSH0 ADD PUSH1 0x5 PUSH2 0x100 EXP DUP2 SLOAD DUP2 PUSH20 0xFFFFFFFFFFFFFFFFFFFFFFFFFFFFFFFFFFFFFFFF MUL NOT AND SWAP1 DUP4 PUSH20 0xFFFFFFFFFFFFFFFFFFFFFFFFFFFFFFFFFFFFFFFF AND MUL OR SWAP1 SSTORE POP SWAP1 POP POP PUSH2 0xA93 DUP2 DUP5 PUSH2 0x14E8 JUMP JUMPDEST PUSH1 0x8 PUSH0 DUP2 SLOAD DUP1 SWAP3 SWAP2 SWAP1 PUSH2 0xAA5 SWAP1 PUSH2 0x1E03 JUMP JUMPDEST SWAP2 SWAP1 POP SSTORE POP DUP1 SWAP2 POP POP SWAP2 SWAP1 POP JUMP JUMPDEST TIMESTAMP PUSH1 0x6 SLOAD PUSH1 0x5 SLOAD PUSH1 0x4 SLOAD PUSH1 0x3 SLOAD PUSH2 0xACA SWAP2 SWAP1 PUSH2 0x1D15 JUMP JUMPDEST PUSH2 0xAD4 SWAP2 SWAP1 PUSH2 0x1D15 JUMP JUMPDEST PUSH2 0xADE SWAP2 SWAP1 PUSH2 0x1D15 JUMP JUMPDEST LT PUSH2 0xB1E JUMPI PUSH1 0x40 MLOAD PUSH32 0x8C379A000000000000000000000000000000000000000000000000000000000 DUP2 MSTORE PUSH1 0x4 ADD PUSH2 0xB15 SWAP1 PUSH2 0x2147 JUMP JUMPDEST PUSH1 0x40 MLOAD DUP1 SWAP2 SUB SWAP1 REVERT JUMPDEST CALLER PUSH20 0xFFFFFFFFFFFFFFFFFFFFFFFFFFFFFFFFFFFFFFFF AND PUSH1 0xA PUSH0 DUP4 DUP2 MSTORE PUSH1 0x20 ADD SWAP1 DUP2 MSTORE PUSH1 0x20 ADD PUSH0 KECCAK256 PUSH0 ADD PUSH1 0x5 SWAP1 SLOAD SWAP1 PUSH2 0x100 EXP SWAP1 DIV PUSH20 0xFFFFFFFFFFFFFFFFFFFFFFFFFFFFFFFFFFFFFFFF AND PUSH20 0xFFFFFFFFFFFFFFFFFFFFFFFFFFFFFFFFFFFFFFFF AND EQ PUSH2 0xBBF JUMPI PUSH1 0x40 MLOAD PUSH32 0x8C379A000000000000000000000000000000000000000000000000000000000 DUP2 MSTORE PUSH1 0x4 ADD PUSH2 0xBB6 SWAP1 PUSH2 0x21FB JUMP JUMPDEST PUSH1 0x40 MLOAD DUP1 SWAP2 SUB SWAP1 REVERT JUMPDEST PUSH0 ISZERO ISZERO PUSH1 0xA PUSH0 DUP4 DUP2 MSTORE PUSH1 0x20 ADD SWAP1 DUP2 MSTORE PUSH1 0x20 ADD PUSH0 KECCAK256 PUSH0 ADD PUSH1 0x4 SWAP1 SLOAD SWAP1 PUSH2 0x100 EXP SWAP1 DIV PUSH1 0xFF AND ISZERO ISZERO EQ PUSH2 0xC25 JUMPI PUSH1 0x40 MLOAD PUSH32 0x8C379A000000000000000000000000000000000000000000000000000000000 DUP2 MSTORE PUSH1 0x4 ADD PUSH2 0xC1C SWAP1 PUSH2 0x22AF JUMP JUMPDEST PUSH1 0x40 MLOAD DUP1 SWAP2 SUB SWAP1 REVERT JUMPDEST PUSH1 0x1 PUSH1 0xA PUSH0 DUP4 DUP2 MSTORE PUSH1 0x20 ADD SWAP1 DUP2 MSTORE PUSH1 0x20 ADD PUSH0 KECCAK256 PUSH0 ADD PUSH1 0x4 PUSH2 0x100 EXP DUP2 SLOAD DUP2 PUSH1 0xFF MUL NOT AND SWAP1 DUP4 ISZERO ISZERO MUL OR SWAP1 SSTORE POP CALLER PUSH20 0xFFFFFFFFFFFFFFFFFFFFFFFFFFFFFFFFFFFFFFFF AND PUSH2 0x8FC PUSH7 0x38D7EA4C68000 SWAP1 DUP2 ISZERO MUL SWAP1 PUSH1 0x40 MLOAD PUSH0 PUSH1 0x40 MLOAD DUP1 DUP4 SUB DUP2 DUP6 DUP9 DUP9 CALL SWAP4 POP POP POP POP ISZERO DUP1 ISZERO PUSH2 0xC9B JUMPI RETURNDATASIZE PUSH0 DUP1 RETURNDATACOPY RETURNDATASIZE PUSH0 REVERT JUMPDEST POP PUSH1 0x8 PUSH0 DUP2 SLOAD DUP1 SWAP3 SWAP2 SWAP1 PUSH2 0xCAE SWAP1 PUSH2 0x22CD JUMP JUMPDEST SWAP2 SWAP1 POP SSTORE POP PUSH0 PUSH1 0x8 SLOAD SUB PUSH2 0xCC5 JUMPI PUSH2 0xCC4 PUSH2 0x14B5 JUMP JUMPDEST JUMPDEST POP JUMP JUMPDEST PUSH1 0x60 PUSH0 PUSH1 0x60 PUSH0 PUSH1 0x2 PUSH0 SWAP1 SLOAD SWAP1 PUSH2 0x100 EXP SWAP1 DIV PUSH2 0xFFFF AND PUSH2 0xFFFF AND SUB PUSH2 0xD39 JUMPI PUSH0 PUSH1 0x40 MLOAD DUP1 PUSH1 0x40 ADD PUSH1 0x40 MSTORE DUP1 PUSH1 0x4 DUP2 MSTORE PUSH1 0x20 ADD PUSH32 0x49646C6500000000000000000000000000000000000000000000000000000000 DUP2 MSTORE POP SWAP1 PUSH1 0x40 MLOAD DUP1 PUSH1 0x20 ADD PUSH1 0x40 MSTORE DUP1 PUSH0 DUP2 MSTORE POP SWAP3 POP SWAP3 POP SWAP3 POP PUSH2 0x1048 JUMP JUMPDEST PUSH1 0x1 PUSH1 0x2 PUSH0 SWAP1 SLOAD SWAP1 PUSH2 0x100 EXP SWAP1 DIV PUSH2 0xFFFF AND PUSH2 0xFFFF AND SUB PUSH2 0x1021 JUMPI PUSH1 0x4 SLOAD PUSH1 0x3 SLOAD PUSH2 0xD64 SWAP2 SWAP1 PUSH2 0x1D15 JUMP JUMPDEST TIMESTAMP GT PUSH2 0xDFD JUMPI TIMESTAMP PUSH1 0x4 SLOAD PUSH1 0x3 SLOAD PUSH2 0xD7B SWAP2 SWAP1 PUSH2 0x1D15 JUMP JUMPDEST PUSH2 0xD85 SWAP2 SWAP1 PUSH2 0x22F4 JUMP JUMPDEST PUSH1 0x40 MLOAD DUP1 PUSH1 0x40 ADD PUSH1 0x40 MSTORE DUP1 PUSH1 0x16 DUP2 MSTORE PUSH1 0x20 ADD PUSH32 0x436F6D6D6974205374616765203A20656E6420696E2000000000000000000000 DUP2 MSTORE POP SWAP1 PUSH1 0x40 MLOAD DUP1 PUSH1 0x40 ADD PUSH1 0x40 MSTORE DUP1 PUSH1 0x8 DUP2 MSTORE PUSH1 0x20 ADD PUSH32 0x207365636F6E6473000000000000000000000000000000000000000000000000 DUP2 MSTORE POP SWAP3 POP SWAP3 POP SWAP3 POP PUSH2 0x1048 JUMP JUMPDEST PUSH1 0x5 SLOAD PUSH1 0x4 SLOAD PUSH1 0x3 SLOAD PUSH2 0xE10 SWAP2 SWAP1 PUSH2 0x1D15 JUMP JUMPDEST PUSH2 0xE1A SWAP2 SWAP1 PUSH2 0x1D15 JUMP JUMPDEST TIMESTAMP GT PUSH2 0xEC0 JUMPI TIMESTAMP PUSH1 0x5 SLOAD PUSH1 0x4 SLOAD PUSH1 0x3 SLOAD PUSH2 0xE34 SWAP2 SWAP1 PUSH2 0x1D15 JUMP JUMPDEST PUSH2 0xE3E SWAP2 SWAP1 PUSH2 0x1D15 JUMP JUMPDEST PUSH2 0xE48 SWAP2 SWAP1 PUSH2 0x22F4 JUMP JUMPDEST PUSH1 0x40 MLOAD DUP1 PUSH1 0x40 ADD PUSH1 0x40 MSTORE DUP1 PUSH1 0x16 DUP2 MSTORE PUSH1 0x20 ADD PUSH32 0x52657665616C205374616765203A20656E6420696E2000000000000000000000 DUP2 MSTORE POP SWAP1 PUSH1 0x40 MLOAD DUP1 PUSH1 0x40 ADD PUSH1 0x40 MSTORE DUP1 PUSH1 0x8 DUP2 MSTORE PUSH1 0x20 ADD PUSH32 0x207365636F6E6473000000000000000000000000000000000000000000000000 DUP2 MSTORE POP SWAP3 POP SWAP3 POP SWAP3 POP PUSH2 0x1048 JUMP JUMPDEST PUSH1 0x6 SLOAD PUSH1 0x5 SLOAD PUSH1 0x4 SLOAD PUSH1 0x3 SLOAD PUSH2 0xED6 SWAP2 SWAP1 PUSH2 0x1D15 JUMP JUMPDEST PUSH2 0xEE0 SWAP2 SWAP1 PUSH2 0x1D15 JUMP JUMPDEST PUSH2 0xEEA SWAP2 SWAP1 PUSH2 0x1D15 JUMP JUMPDEST TIMESTAMP GT PUSH2 0xF9D JUMPI TIMESTAMP PUSH1 0x6 SLOAD PUSH1 0x5 SLOAD PUSH1 0x4 SLOAD PUSH1 0x3 SLOAD PUSH2 0xF07 SWAP2 SWAP1 PUSH2 0x1D15 JUMP JUMPDEST PUSH2 0xF11 SWAP2 SWAP1 PUSH2 0x1D15 JUMP JUMPDEST PUSH2 0xF1B SWAP2 SWAP1 PUSH2 0x1D15 JUMP JUMPDEST PUSH2 0xF25 SWAP2 SWAP1 PUSH2 0x22F4 JUMP JUMPDEST PUSH1 0x40 MLOAD DUP1 PUSH1 0x40 ADD PUSH1 0x40 MSTORE DUP1 PUSH1 0x15 DUP2 MSTORE PUSH1 0x20 ADD PUSH32 0x4177617264205374616765203A20656E6420696E200000000000000000000000 DUP2 MSTORE POP SWAP1 PUSH1 0x40 MLOAD DUP1 PUSH1 0x40 ADD PUSH1 0x40 MSTORE DUP1 PUSH1 0x8 DUP2 MSTORE PUSH1 0x20 ADD PUSH32 0x207365636F6E6473000000000000000000000000000000000000000000000000 DUP2 MSTORE POP SWAP3 POP SWAP3 POP SWAP3 POP PUSH2 0x1048 JUMP JUMPDEST PUSH1 0x6 SLOAD PUSH1 0x5 SLOAD PUSH1 0x4 SLOAD PUSH1 0x3 SLOAD PUSH2 0xFB3 SWAP2 SWAP1 PUSH2 0x1D15 JUMP JUMPDEST PUSH2 0xFBD SWAP2 SWAP1 PUSH2 0x1D15 JUMP JUMPDEST PUSH2 0xFC7 SWAP2 SWAP1 PUSH2 0x1D15 JUMP JUMPDEST TIMESTAMP GT ISZERO PUSH2 0x1020 JUMPI PUSH0 PUSH1 0x40 MLOAD DUP1 PUSH1 0x40 ADD PUSH1 0x40 MSTORE DUP1 PUSH1 0xD DUP2 MSTORE PUSH1 0x20 ADD PUSH32 0x41776172642054696D656F757400000000000000000000000000000000000000 DUP2 MSTORE POP SWAP1 PUSH1 0x40 MLOAD DUP1 PUSH1 0x20 ADD PUSH1 0x40 MSTORE DUP1 PUSH0 DUP2 MSTORE POP SWAP3 POP SWAP3 POP SWAP3 POP PUSH2 0x1048 JUMP JUMPDEST JUMPDEST PUSH0 PUSH1 0x40 MLOAD DUP1 PUSH1 0x20 ADD PUSH1 0x40 MSTORE DUP1 PUSH0 DUP2 MSTORE POP SWAP1 PUSH1 0x40 MLOAD DUP1 PUSH1 0x20 ADD PUSH1 0x40 MSTORE DUP1 PUSH0 DUP2 MSTORE POP SWAP3 POP SWAP3 POP SWAP3 POP JUMPDEST SWAP1 SWAP2 SWAP3 JUMP JUMPDEST PUSH1 0x6 SLOAD DUP2 JUMP JUMPDEST PUSH0 ADDRESS DUP4 DUP4 PUSH1 0x40 MLOAD PUSH1 0x20 ADD PUSH2 0x1069 SWAP4 SWAP3 SWAP2 SWAP1 PUSH2 0x23DA JUMP JUMPDEST PUSH1 0x40 MLOAD PUSH1 0x20 DUP2 DUP4 SUB SUB DUP2 MSTORE SWAP1 PUSH1 0x40 MSTORE DUP1 MLOAD SWAP1 PUSH1 0x20 ADD KECCAK256 SWAP1 POP SWAP3 SWAP2 POP POP JUMP JUMPDEST PUSH1 0x5 SLOAD DUP2 JUMP JUMPDEST PUSH0 DUP1 PUSH0 SWAP1 SLOAD SWAP1 PUSH2 0x100 EXP SWAP1 DIV PUSH20 0xFFFFFFFFFFFFFFFFFFFFFFFFFFFFFFFFFFFFFFFF AND SWAP1 POP SWAP1 JUMP JUMPDEST PUSH0 DUP1 PUSH0 SWAP1 SLOAD SWAP1 PUSH2 0x100 EXP SWAP1 DIV PUSH20 0xFFFFFFFFFFFFFFFFFFFFFFFFFFFFFFFFFFFFFFFF AND PUSH20 0xFFFFFFFFFFFFFFFFFFFFFFFFFFFFFFFFFFFFFFFF AND CALLER PUSH20 0xFFFFFFFFFFFFFFFFFFFFFFFFFFFFFFFFFFFFFFFF AND EQ SWAP1 POP SWAP1 JUMP JUMPDEST PUSH1 0x3 SLOAD DUP2 JUMP JUMPDEST PUSH1 0x4 SLOAD DUP2 JUMP JUMPDEST TIMESTAMP PUSH1 0x4 SLOAD PUSH1 0x3 SLOAD PUSH2 0x1126 SWAP2 SWAP1 PUSH2 0x1D15 JUMP JUMPDEST LT DUP1 ISZERO PUSH2 0x114E JUMPI POP PUSH1 0x5 SLOAD PUSH1 0x4 SLOAD PUSH1 0x3 SLOAD PUSH2 0x1141 SWAP2 SWAP1 PUSH2 0x1D15 JUMP JUMPDEST PUSH2 0x114B SWAP2 SWAP1 PUSH2 0x1D15 JUMP JUMPDEST TIMESTAMP LT JUMPDEST PUSH2 0x118D JUMPI PUSH1 0x40 MLOAD PUSH32 0x8C379A000000000000000000000000000000000000000000000000000000000 DUP2 MSTORE PUSH1 0x4 ADD PUSH2 0x1184 SWAP1 PUSH2 0x2482 JUMP JUMPDEST PUSH1 0x40 MLOAD DUP1 SWAP2 SUB SWAP1 REVERT JUMPDEST CALLER PUSH20 0xFFFFFFFFFFFFFFFFFFFFFFFFFFFFFFFFFFFFFFFF AND PUSH1 0xA PUSH0 DUP6 DUP2 MSTORE PUSH1 0x20 ADD SWAP1 DUP2 MSTORE PUSH1 0x20 ADD PUSH0 KECCAK256 PUSH0 ADD PUSH1 0x5 SWAP1 SLOAD SWAP1 PUSH2 0x100 EXP SWAP1 DIV PUSH20 0xFFFFFFFFFFFFFFFFFFFFFFFFFFFFFFFFFFFFFFFF AND PUSH20 0xFFFFFFFFFFFFFFFFFFFFFFFFFFFFFFFFFFFFFFFF AND EQ PUSH2 0x122E JUMPI PUSH1 0x40 MLOAD PUSH32 0x8C379A000000000000000000000000000000000000000000000000000000000 DUP2 MSTORE PUSH1 0x4 ADD PUSH2 0x1225 SWAP1 PUSH2 0x2536 JUMP JUMPDEST PUSH1 0x40 MLOAD DUP1 SWAP2 SUB SWAP1 REVERT JUMPDEST PUSH2 0x1239 DUP4 DUP4 DUP4 PUSH2 0x15E1 JUMP JUMPDEST DUP2 PUSH1 0xA PUSH0 DUP6 DUP2 MSTORE PUSH1 0x20 ADD SWAP1 DUP2 MSTORE PUSH1 0x20 ADD PUSH0 KECCAK256 PUSH0 ADD PUSH0 PUSH2 0x100 EXP DUP2 SLOAD DUP2 PUSH2 0xFFFF MUL NOT AND SWAP1 DUP4 PUSH2 0xFFFF AND MUL OR SWAP1 SSTORE POP PUSH1 0x1 PUSH1 0xA PUSH0 DUP6 DUP2 MSTORE PUSH1 0x20 ADD SWAP1 DUP2 MSTORE PUSH1 0x20 ADD PUSH0 KECCAK256 PUSH0 ADD PUSH1 0x3 PUSH2 0x100 EXP DUP2 SLOAD DUP2 PUSH1 0xFF MUL NOT AND SWAP1 DUP4 ISZERO ISZERO MUL OR SWAP1 SSTORE POP PUSH1 0x9 PUSH0 DUP2 SLOAD DUP1 SWAP3 SWAP2 SWAP1 PUSH2 0x12A4 SWAP1 PUSH2 0x1E03 JUMP JUMPDEST SWAP2 SWAP1 POP SSTORE POP POP POP POP JUMP JUMPDEST PUSH1 0x7 SLOAD DUP2 JUMP JUMPDEST PUSH0 PUSH1 0x64 PUSH1 0x62 PUSH7 0x38D7EA4C68000 PUSH2 0x12CB SWAP2 SWAP1 PUSH2 0x2554 JUMP JUMPDEST PUSH2 0x12D5 SWAP2 SWAP1 PUSH2 0x2595 JUMP JUMPDEST SWAP1 POP PUSH0 PUSH1 0x64 PUSH1 0x2 PUSH7 0x38D7EA4C68000 PUSH2 0x12EE SWAP2 SWAP1 PUSH2 0x2554 JUMP JUMPDEST PUSH2 0x12F8 SWAP2 SWAP1 PUSH2 0x2595 JUMP JUMPDEST SWAP1 POP PUSH1 0xA PUSH0 DUP5 DUP2 MSTORE PUSH1 0x20 ADD SWAP1 DUP2 MSTORE PUSH1 0x20 ADD PUSH0 KECCAK256 PUSH0 ADD PUSH1 0x5 SWAP1 SLOAD SWAP1 PUSH2 0x100 EXP SWAP1 DIV PUSH20 0xFFFFFFFFFFFFFFFFFFFFFFFFFFFFFFFFFFFFFFFF AND PUSH20 0xFFFFFFFFFFFFFFFFFFFFFFFFFFFFFFFFFFFFFFFF AND PUSH2 0x8FC DUP4 SWAP1 DUP2 ISZERO MUL SWAP1 PUSH1 0x40 MLOAD PUSH0 PUSH1 0x40 MLOAD DUP1 DUP4 SUB DUP2 DUP6 DUP9 DUP9 CALL SWAP4 POP POP POP POP ISZERO DUP1 ISZERO PUSH2 0x1370 JUMPI RETURNDATASIZE PUSH0 DUP1 RETURNDATACOPY RETURNDATASIZE PUSH0 REVERT JUMPDEST POP PUSH2 0x1379 PUSH2 0x108D JUMP JUMPDEST PUSH20 0xFFFFFFFFFFFFFFFFFFFFFFFFFFFFFFFFFFFFFFFF AND PUSH2 0x8FC DUP3 SWAP1 DUP2 ISZERO MUL SWAP1 PUSH1 0x40 MLOAD PUSH0 PUSH1 0x40 MLOAD DUP1 DUP4 SUB DUP2 DUP6 DUP9 DUP9 CALL SWAP4 POP POP POP POP ISZERO DUP1 ISZERO PUSH2 0x13BB JUMPI RETURNDATASIZE PUSH0 DUP1 RETURNDATACOPY RETURNDATASIZE PUSH0 REVERT JUMPDEST POP POP POP POP JUMP JUMPDEST PUSH0 PUSH1 0x64 PUSH1 0x62 PUSH1 0x9 SLOAD PUSH7 0x38D7EA4C68000 PUSH2 0x13DB SWAP2 SWAP1 PUSH2 0x2554 JUMP JUMPDEST PUSH2 0x13E5 SWAP2 SWAP1 PUSH2 0x2554 JUMP JUMPDEST PUSH2 0x13EF SWAP2 SWAP1 PUSH2 0x2595 JUMP JUMPDEST SWAP1 POP PUSH0 PUSH1 0x64 PUSH1 0x2 PUSH1 0x9 SLOAD PUSH7 0x38D7EA4C68000 PUSH2 0x140B SWAP2 SWAP1 PUSH2 0x2554 JUMP JUMPDEST PUSH2 0x1415 SWAP2 SWAP1 PUSH2 0x2554 JUMP JUMPDEST PUSH2 0x141F SWAP2 SWAP1 PUSH2 0x2595 JUMP JUMPDEST SWAP1 POP DUP3 PUSH20 0xFFFFFFFFFFFFFFFFFFFFFFFFFFFFFFFFFFFFFFFF AND PUSH2 0x8FC DUP4 SWAP1 DUP2 ISZERO MUL SWAP1 PUSH1 0x40 MLOAD PUSH0 PUSH1 0x40 MLOAD DUP1 DUP4 SUB DUP2 DUP6 DUP9 DUP9 CALL SWAP4 POP POP POP POP ISZERO DUP1 ISZERO PUSH2 0x1464 JUMPI RETURNDATASIZE PUSH0 DUP1 RETURNDATACOPY RETURNDATASIZE PUSH0 REVERT JUMPDEST POP PUSH2 0x146D PUSH2 0x108D JUMP JUMPDEST PUSH20 0xFFFFFFFFFFFFFFFFFFFFFFFFFFFFFFFFFFFFFFFF AND PUSH2 0x8FC DUP3 SWAP1 DUP2 ISZERO MUL SWAP1 PUSH1 0x40 MLOAD PUSH0 PUSH1 0x40 MLOAD DUP1 DUP4 SUB DUP2 DUP6 DUP9 DUP9 CALL SWAP4 POP POP POP POP ISZERO DUP1 ISZERO PUSH2 0x14AF JUMPI RETURNDATASIZE PUSH0 DUP1 RETURNDATACOPY RETURNDATASIZE PUSH0 REVERT JUMPDEST POP POP POP POP JUMP JUMPDEST PUSH0 PUSH1 0x2 PUSH0 PUSH2 0x100 EXP DUP2 SLOAD DUP2 PUSH2 0xFFFF MUL NOT AND SWAP1 DUP4 PUSH2 0xFFFF AND MUL OR SWAP1 SSTORE POP PUSH0 PUSH1 0x8 DUP2 SWAP1 SSTORE POP PUSH0 PUSH1 0x9 DUP2 SWAP1 SSTORE POP TIMESTAMP PUSH1 0x3 DUP2 SWAP1 SSTORE POP JUMP JUMPDEST DUP1 PUSH1 0x1 PUSH0 DUP5 DUP2 MSTORE PUSH1 0x20 ADD SWAP1 DUP2 MSTORE PUSH1 0x20 ADD PUSH0 KECCAK256 PUSH0 ADD DUP2 SWAP1 SSTORE POP NUMBER PUSH1 0x1 PUSH0 DUP5 DUP2 MSTORE PUSH1 0x20 ADD SWAP1 DUP2 MSTORE PUSH1 0x20 ADD PUSH0 KECCAK256 PUSH1 0x1 ADD PUSH0 PUSH2 0x100 EXP DUP2 SLOAD DUP2 PUSH8 0xFFFFFFFFFFFFFFFF MUL NOT AND SWAP1 DUP4 PUSH8 0xFFFFFFFFFFFFFFFF AND MUL OR SWAP1 SSTORE POP PUSH0 PUSH1 0x1 PUSH0 DUP5 DUP2 MSTORE PUSH1 0x20 ADD SWAP1 DUP2 MSTORE PUSH1 0x20 ADD PUSH0 KECCAK256 PUSH1 0x1 ADD PUSH1 0x8 PUSH2 0x100 EXP DUP2 SLOAD DUP2 PUSH1 0xFF MUL NOT AND SWAP1 DUP4 ISZERO ISZERO MUL OR SWAP1 SSTORE POP PUSH32 0xB7CE637F0652EFA186ADEDCCC22B6809DC1C12DC3B3BF096DF581F3B1FE1B3DB CALLER DUP4 PUSH1 0x1 PUSH0 DUP7 DUP2 MSTORE PUSH1 0x20 ADD SWAP1 DUP2 MSTORE PUSH1 0x20 ADD PUSH0 KECCAK256 PUSH0 ADD SLOAD PUSH1 0x1 PUSH0 DUP8 DUP2 MSTORE PUSH1 0x20 ADD SWAP1 DUP2 MSTORE PUSH1 0x20 ADD PUSH0 KECCAK256 PUSH1 0x1 ADD PUSH0 SWAP1 SLOAD SWAP1 PUSH2 0x100 EXP SWAP1 DIV PUSH8 0xFFFFFFFFFFFFFFFF AND PUSH1 0x40 MLOAD PUSH2 0x15D5 SWAP5 SWAP4 SWAP3 SWAP2 SWAP1 PUSH2 0x25E7 JUMP JUMPDEST PUSH1 0x40 MLOAD DUP1 SWAP2 SUB SWAP1 LOG1 POP POP JUMP JUMPDEST PUSH0 ISZERO ISZERO PUSH1 0x1 PUSH0 DUP6 DUP2 MSTORE PUSH1 0x20 ADD SWAP1 DUP2 MSTORE PUSH1 0x20 ADD PUSH0 KECCAK256 PUSH1 0x1 ADD PUSH1 0x8 SWAP1 SLOAD SWAP1 PUSH2 0x100 EXP SWAP1 DIV PUSH1 0xFF AND ISZERO ISZERO EQ PUSH2 0x1648 JUMPI PUSH1 0x40 MLOAD PUSH32 0x8C379A000000000000000000000000000000000000000000000000000000000 DUP2 MSTORE PUSH1 0x4 ADD PUSH2 0x163F SWAP1 PUSH2 0x269A JUMP JUMPDEST PUSH1 0x40 MLOAD DUP1 SWAP2 SUB SWAP1 REVERT JUMPDEST PUSH1 0x1 DUP1 PUSH0 DUP6 DUP2 MSTORE PUSH1 0x20 ADD SWAP1 DUP2 MSTORE PUSH1 0x20 ADD PUSH0 KECCAK256 PUSH1 0x1 ADD PUSH1 0x8 PUSH2 0x100 EXP DUP2 SLOAD DUP2 PUSH1 0xFF MUL NOT AND SWAP1 DUP4 ISZERO ISZERO MUL OR SWAP1 SSTORE POP PUSH1 0x1 PUSH0 DUP5 DUP2 MSTORE PUSH1 0x20 ADD SWAP1 DUP2 MSTORE PUSH1 0x20 ADD PUSH0 KECCAK256 PUSH0 ADD SLOAD PUSH2 0x1692 DUP4 DUP4 PUSH2 0x1053 JUMP JUMPDEST EQ PUSH2 0x16D2 JUMPI PUSH1 0x40 MLOAD PUSH32 0x8C379A000000000000000000000000000000000000000000000000000000000 DUP2 MSTORE PUSH1 0x4 ADD PUSH2 0x16C9 SWAP1 PUSH2 0x2728 JUMP JUMPDEST PUSH1 0x40 MLOAD DUP1 SWAP2 SUB SWAP1 REVERT JUMPDEST PUSH32 0xD59EB094A5BC7D37EE78628B6A471A4A62C3148908D3EFDAE106802C4698B134 CALLER DUP4 DUP4 PUSH1 0x40 MLOAD PUSH2 0x1705 SWAP4 SWAP3 SWAP2 SWAP1 PUSH2 0x2746 JUMP JUMPDEST PUSH1 0x40 MLOAD DUP1 SWAP2 SUB SWAP1 LOG1 POP POP POP JUMP JUMPDEST PUSH1 0x40 MLOAD DUP1 PUSH1 0xA0 ADD PUSH1 0x40 MSTORE DUP1 PUSH0 PUSH2 0xFFFF AND DUP2 MSTORE PUSH1 0x20 ADD PUSH0 ISZERO ISZERO DUP2 MSTORE PUSH1 0x20 ADD PUSH0 ISZERO ISZERO DUP2 MSTORE PUSH1 0x20 ADD PUSH0 ISZERO ISZERO DUP2 MSTORE PUSH1 0x20 ADD PUSH0 PUSH20 0xFFFFFFFFFFFFFFFFFFFFFFFFFFFFFFFFFFFFFFFF AND DUP2 MSTORE POP SWAP1 JUMP JUMPDEST PUSH0 PUSH1 0x40 MLOAD SWAP1 POP SWAP1 JUMP JUMPDEST PUSH0 DUP1 REVERT JUMPDEST PUSH0 DUP1 REVERT JUMPDEST PUSH0 DUP2 SWAP1 POP SWAP2 SWAP1 POP JUMP JUMPDEST PUSH2 0x177F DUP2 PUSH2 0x176D JUMP JUMPDEST DUP2 EQ PUSH2 0x1789 JUMPI PUSH0 DUP1 REVERT JUMPDEST POP JUMP JUMPDEST PUSH0 DUP2 CALLDATALOAD SWAP1 POP PUSH2 0x179A DUP2 PUSH2 0x1776 JUMP JUMPDEST SWAP3 SWAP2 POP POP JUMP JUMPDEST PUSH0 PUSH1 0x20 DUP3 DUP5 SUB SLT ISZERO PUSH2 0x17B5 JUMPI PUSH2 0x17B4 PUSH2 0x1765 JUMP JUMPDEST JUMPDEST PUSH0 PUSH2 0x17C2 DUP5 DUP3 DUP6 ADD PUSH2 0x178C JUMP JUMPDEST SWAP2 POP POP SWAP3 SWAP2 POP POP JUMP JUMPDEST PUSH0 PUSH2 0xFFFF DUP3 AND SWAP1 POP SWAP2 SWAP1 POP JUMP JUMPDEST PUSH2 0x17E1 DUP2 PUSH2 0x17CB JUMP JUMPDEST DUP3 MSTORE POP POP JUMP JUMPDEST PUSH0 DUP2 ISZERO ISZERO SWAP1 POP SWAP2 SWAP1 POP JUMP JUMPDEST PUSH2 0x17FB DUP2 PUSH2 0x17E7 JUMP JUMPDEST DUP3 MSTORE POP POP JUMP JUMPDEST PUSH0 PUSH20 0xFFFFFFFFFFFFFFFFFFFFFFFFFFFFFFFFFFFFFFFF DUP3 AND SWAP1 POP SWAP2 SWAP1 POP JUMP JUMPDEST PUSH0 PUSH2 0x182A DUP3 PUSH2 0x1801 JUMP JUMPDEST SWAP1 POP SWAP2 SWAP1 POP JUMP JUMPDEST PUSH2 0x183A DUP2 PUSH2 0x1820 JUMP JUMPDEST DUP3 MSTORE POP POP JUMP JUMPDEST PUSH0 PUSH1 0xA0 DUP3 ADD SWAP1 POP PUSH2 0x1853 PUSH0 DUP4 ADD DUP9 PUSH2 0x17D8 JUMP JUMPDEST PUSH2 0x1860 PUSH1 0x20 DUP4 ADD DUP8 PUSH2 0x17F2 JUMP JUMPDEST PUSH2 0x186D PUSH1 0x40 DUP4 ADD DUP7 PUSH2 0x17F2 JUMP JUMPDEST PUSH2 0x187A PUSH1 0x60 DUP4 ADD DUP6 PUSH2 0x17F2 JUMP JUMPDEST PUSH2 0x1887 PUSH1 0x80 DUP4 ADD DUP5 PUSH2 0x1831 JUMP JUMPDEST SWAP7 SWAP6 POP POP POP POP POP POP JUMP JUMPDEST PUSH0 DUP2 SWAP1 POP SWAP2 SWAP1 POP JUMP JUMPDEST PUSH2 0x18A3 DUP2 PUSH2 0x1891 JUMP JUMPDEST DUP2 EQ PUSH2 0x18AD JUMPI PUSH0 DUP1 REVERT JUMPDEST POP JUMP JUMPDEST PUSH0 DUP2 CALLDATALOAD SWAP1 POP PUSH2 0x18BE DUP2 PUSH2 0x189A JUMP JUMPDEST SWAP3 SWAP2 POP POP JUMP JUMPDEST PUSH0 PUSH1 0x20 DUP3 DUP5 SUB SLT ISZERO PUSH2 0x18D9 JUMPI PUSH2 0x18D8 PUSH2 0x1765 JUMP JUMPDEST JUMPDEST PUSH0 PUSH2 0x18E6 DUP5 DUP3 DUP6 ADD PUSH2 0x18B0 JUMP JUMPDEST SWAP2 POP POP SWAP3 SWAP2 POP POP JUMP JUMPDEST PUSH2 0x18F8 DUP2 PUSH2 0x176D JUMP JUMPDEST DUP3 MSTORE POP POP JUMP JUMPDEST PUSH0 PUSH1 0x20 DUP3 ADD SWAP1 POP PUSH2 0x1911 PUSH0 DUP4 ADD DUP5 PUSH2 0x18EF JUMP JUMPDEST SWAP3 SWAP2 POP POP JUMP JUMPDEST PUSH0 DUP2 MLOAD SWAP1 POP SWAP2 SWAP1 POP JUMP JUMPDEST PUSH0 DUP3 DUP3 MSTORE PUSH1 0x20 DUP3 ADD SWAP1 POP SWAP3 SWAP2 POP POP JUMP JUMPDEST PUSH0 JUMPDEST DUP4 DUP2 LT ISZERO PUSH2 0x194E JUMPI DUP1 DUP3 ADD MLOAD DUP2 DUP5 ADD MSTORE PUSH1 0x20 DUP2 ADD SWAP1 POP PUSH2 0x1933 JUMP JUMPDEST PUSH0 DUP5 DUP5 ADD MSTORE POP POP POP POP JUMP JUMPDEST PUSH0 PUSH1 0x1F NOT PUSH1 0x1F DUP4 ADD AND SWAP1 POP SWAP2 SWAP1 POP JUMP JUMPDEST PUSH0 PUSH2 0x1973 DUP3 PUSH2 0x1917 JUMP JUMPDEST PUSH2 0x197D DUP2 DUP6 PUSH2 0x1921 JUMP JUMPDEST SWAP4 POP PUSH2 0x198D DUP2 DUP6 PUSH1 0x20 DUP7 ADD PUSH2 0x1931 JUMP JUMPDEST PUSH2 0x1996 DUP2 PUSH2 0x1959 JUMP JUMPDEST DUP5 ADD SWAP2 POP POP SWAP3 SWAP2 POP POP JUMP JUMPDEST PUSH0 PUSH1 0x60 DUP3 ADD SWAP1 POP DUP2 DUP2 SUB PUSH0 DUP4 ADD MSTORE PUSH2 0x19B9 DUP2 DUP7 PUSH2 0x1969 JUMP JUMPDEST SWAP1 POP PUSH2 0x19C8 PUSH1 0x20 DUP4 ADD DUP6 PUSH2 0x18EF JUMP JUMPDEST DUP2 DUP2 SUB PUSH1 0x40 DUP4 ADD MSTORE PUSH2 0x19DA DUP2 DUP5 PUSH2 0x1969 JUMP JUMPDEST SWAP1 POP SWAP5 SWAP4 POP POP POP POP JUMP JUMPDEST PUSH2 0x19ED DUP2 PUSH2 0x17CB JUMP JUMPDEST DUP2 EQ PUSH2 0x19F7 JUMPI PUSH0 DUP1 REVERT JUMPDEST POP JUMP JUMPDEST PUSH0 DUP2 CALLDATALOAD SWAP1 POP PUSH2 0x1A08 DUP2 PUSH2 0x19E4 JUMP JUMPDEST SWAP3 SWAP2 POP POP JUMP JUMPDEST PUSH0 DUP1 REVERT JUMPDEST PUSH0 DUP1 REVERT JUMPDEST PUSH32 0x4E487B7100000000000000000000000000000000000000000000000000000000 PUSH0 MSTORE PUSH1 0x41 PUSH1 0x4 MSTORE PUSH1 0x24 PUSH0 REVERT JUMPDEST PUSH2 0x1A4C DUP3 PUSH2 0x1959 JUMP JUMPDEST DUP2 ADD DUP2 DUP2 LT PUSH8 0xFFFFFFFFFFFFFFFF DUP3 GT OR ISZERO PUSH2 0x1A6B JUMPI PUSH2 0x1A6A PUSH2 0x1A16 JUMP JUMPDEST JUMPDEST DUP1 PUSH1 0x40 MSTORE POP POP POP JUMP JUMPDEST PUSH0 PUSH2 0x1A7D PUSH2 0x175C JUMP JUMPDEST SWAP1 POP PUSH2 0x1A89 DUP3 DUP3 PUSH2 0x1A43 JUMP JUMPDEST SWAP2 SWAP1 POP JUMP JUMPDEST PUSH0 PUSH8 0xFFFFFFFFFFFFFFFF DUP3 GT ISZERO PUSH2 0x1AA8 JUMPI PUSH2 0x1AA7 PUSH2 0x1A16 JUMP JUMPDEST JUMPDEST PUSH2 0x1AB1 DUP3 PUSH2 0x1959 JUMP JUMPDEST SWAP1 POP PUSH1 0x20 DUP2 ADD SWAP1 POP SWAP2 SWAP1 POP JUMP JUMPDEST DUP3 DUP2 DUP4 CALLDATACOPY PUSH0 DUP4 DUP4 ADD MSTORE POP POP POP JUMP JUMPDEST PUSH0 PUSH2 0x1ADE PUSH2 0x1AD9 DUP5 PUSH2 0x1A8E JUMP JUMPDEST PUSH2 0x1A74 JUMP JUMPDEST SWAP1 POP DUP3 DUP2 MSTORE PUSH1 0x20 DUP2 ADD DUP5 DUP5 DUP5 ADD GT ISZERO PUSH2 0x1AFA JUMPI PUSH2 0x1AF9 PUSH2 0x1A12 JUMP JUMPDEST JUMPDEST PUSH2 0x1B05 DUP5 DUP3 DUP6 PUSH2 0x1ABE JUMP JUMPDEST POP SWAP4 SWAP3 POP POP POP JUMP JUMPDEST PUSH0 DUP3 PUSH1 0x1F DUP4 ADD SLT PUSH2 0x1B21 JUMPI PUSH2 0x1B20 PUSH2 0x1A0E JUMP JUMPDEST JUMPDEST DUP2 CALLDATALOAD PUSH2 0x1B31 DUP5 DUP3 PUSH1 0x20 DUP7 ADD PUSH2 0x1ACC JUMP JUMPDEST SWAP2 POP POP SWAP3 SWAP2 POP POP JUMP JUMPDEST PUSH0 DUP1 PUSH1 0x40 DUP4 DUP6 SUB SLT ISZERO PUSH2 0x1B50 JUMPI PUSH2 0x1B4F PUSH2 0x1765 JUMP JUMPDEST JUMPDEST PUSH0 PUSH2 0x1B5D DUP6 DUP3 DUP7 ADD PUSH2 0x19FA JUMP JUMPDEST SWAP3 POP POP PUSH1 0x20 DUP4 ADD CALLDATALOAD PUSH8 0xFFFFFFFFFFFFFFFF DUP2 GT ISZERO PUSH2 0x1B7E JUMPI PUSH2 0x1B7D PUSH2 0x1769 JUMP JUMPDEST JUMPDEST PUSH2 0x1B8A DUP6 DUP3 DUP7 ADD PUSH2 0x1B0D JUMP JUMPDEST SWAP2 POP POP SWAP3 POP SWAP3 SWAP1 POP JUMP JUMPDEST PUSH2 0x1B9D DUP2 PUSH2 0x1891 JUMP JUMPDEST DUP3 MSTORE POP POP JUMP JUMPDEST PUSH0 PUSH1 0x20 DUP3 ADD SWAP1 POP PUSH2 0x1BB6 PUSH0 DUP4 ADD DUP5 PUSH2 0x1B94 JUMP JUMPDEST SWAP3 SWAP2 POP POP JUMP JUMPDEST PUSH0 PUSH1 0x20 DUP3 ADD SWAP1 POP PUSH2 0x1BCF PUSH0 DUP4 ADD DUP5 PUSH2 0x1831 JUMP JUMPDEST SWAP3 SWAP2 POP POP JUMP JUMPDEST PUSH0 PUSH1 0x20 DUP3 ADD SWAP1 POP PUSH2 0x1BE8 PUSH0 DUP4 ADD DUP5 PUSH2 0x17F2 JUMP JUMPDEST SWAP3 SWAP2 POP POP JUMP JUMPDEST PUSH0 DUP1 PUSH0 PUSH1 0x60 DUP5 DUP7 SUB SLT ISZERO PUSH2 0x1C05 JUMPI PUSH2 0x1C04 PUSH2 0x1765 JUMP JUMPDEST JUMPDEST PUSH0 PUSH2 0x1C12 DUP7 DUP3 DUP8 ADD PUSH2 0x178C JUMP JUMPDEST SWAP4 POP POP PUSH1 0x20 PUSH2 0x1C23 DUP7 DUP3 DUP8 ADD PUSH2 0x19FA JUMP JUMPDEST SWAP3 POP POP PUSH1 0x40 DUP5 ADD CALLDATALOAD PUSH8 0xFFFFFFFFFFFFFFFF DUP2 GT ISZERO PUSH2 0x1C44 JUMPI PUSH2 0x1C43 PUSH2 0x1769 JUMP JUMPDEST JUMPDEST PUSH2 0x1C50 DUP7 DUP3 DUP8 ADD PUSH2 0x1B0D JUMP JUMPDEST SWAP2 POP POP SWAP3 POP SWAP3 POP SWAP3 JUMP JUMPDEST PUSH32 0x4F776E61626C653A206F6E6C79206F776E65722063616E2063616C6C20746869 PUSH0 DUP3 ADD MSTORE PUSH32 0x732066756E6374696F6E00000000000000000000000000000000000000000000 PUSH1 0x20 DUP3 ADD MSTORE POP JUMP JUMPDEST PUSH0 PUSH2 0x1CB4 PUSH1 0x2A DUP4 PUSH2 0x1921 JUMP JUMPDEST SWAP2 POP PUSH2 0x1CBF DUP3 PUSH2 0x1C5A JUMP JUMPDEST PUSH1 0x40 DUP3 ADD SWAP1 POP SWAP2 SWAP1 POP JUMP JUMPDEST PUSH0 PUSH1 0x20 DUP3 ADD SWAP1 POP DUP2 DUP2 SUB PUSH0 DUP4 ADD MSTORE PUSH2 0x1CE1 DUP2 PUSH2 0x1CA8 JUMP JUMPDEST SWAP1 POP SWAP2 SWAP1 POP JUMP JUMPDEST PUSH32 0x4E487B7100000000000000000000000000000000000000000000000000000000 PUSH0 MSTORE PUSH1 0x11 PUSH1 0x4 MSTORE PUSH1 0x24 PUSH0 REVERT JUMPDEST PUSH0 PUSH2 0x1D1F DUP3 PUSH2 0x176D JUMP JUMPDEST SWAP2 POP PUSH2 0x1D2A DUP4 PUSH2 0x176D JUMP JUMPDEST SWAP3 POP DUP3 DUP3 ADD SWAP1 POP DUP1 DUP3 GT ISZERO PUSH2 0x1D42 JUMPI PUSH2 0x1D41 PUSH2 0x1CE8 JUMP JUMPDEST JUMPDEST SWAP3 SWAP2 POP POP JUMP JUMPDEST PUSH32 0x4D756C746950617274794C6F74746572793A3A61776172644C6F74746572793A PUSH0 DUP3 ADD MSTORE PUSH32 0x2047616D65206973206E6F7420696E2061776172642073746167650000000000 PUSH1 0x20 DUP3 ADD MSTORE POP JUMP JUMPDEST PUSH0 PUSH2 0x1DA2 PUSH1 0x3B DUP4 PUSH2 0x1921 JUMP JUMPDEST SWAP2 POP PUSH2 0x1DAD DUP3 PUSH2 0x1D48 JUMP JUMPDEST PUSH1 0x40 DUP3 ADD SWAP1 POP SWAP2 SWAP1 POP JUMP JUMPDEST PUSH0 PUSH1 0x20 DUP3 ADD SWAP1 POP DUP2 DUP2 SUB PUSH0 DUP4 ADD MSTORE PUSH2 0x1DCF DUP2 PUSH2 0x1D96 JUMP JUMPDEST SWAP1 POP SWAP2 SWAP1 POP JUMP JUMPDEST PUSH32 0x4E487B7100000000000000000000000000000000000000000000000000000000 PUSH0 MSTORE PUSH1 0x32 PUSH1 0x4 MSTORE PUSH1 0x24 PUSH0 REVERT JUMPDEST PUSH0 PUSH2 0x1E0D DUP3 PUSH2 0x176D JUMP JUMPDEST SWAP2 POP PUSH32 0xFFFFFFFFFFFFFFFFFFFFFFFFFFFFFFFFFFFFFFFFFFFFFFFFFFFFFFFFFFFFFFFF DUP3 SUB PUSH2 0x1E3F JUMPI PUSH2 0x1E3E PUSH2 0x1CE8 JUMP JUMPDEST JUMPDEST PUSH1 0x1 DUP3 ADD SWAP1 POP SWAP2 SWAP1 POP JUMP JUMPDEST PUSH0 DUP2 SWAP1 POP SWAP2 SWAP1 POP JUMP JUMPDEST PUSH2 0x1E64 PUSH2 0x1E5F DUP3 PUSH2 0x176D JUMP JUMPDEST PUSH2 0x1E4A JUMP JUMPDEST DUP3 MSTORE POP POP JUMP JUMPDEST PUSH0 PUSH2 0x1E75 DUP3 DUP5 PUSH2 0x1E53 JUMP JUMPDEST PUSH1 0x20 DUP3 ADD SWAP2 POP DUP2 SWAP1 POP SWAP3 SWAP2 POP POP JUMP JUMPDEST PUSH32 0x4E487B7100000000000000000000000000000000000000000000000000000000 PUSH0 MSTORE PUSH1 0x12 PUSH1 0x4 MSTORE PUSH1 0x24 PUSH0 REVERT JUMPDEST PUSH0 PUSH2 0x1EBB DUP3 PUSH2 0x176D JUMP JUMPDEST SWAP2 POP PUSH2 0x1EC6 DUP4 PUSH2 0x176D JUMP JUMPDEST SWAP3 POP DUP3 PUSH2 0x1ED6 JUMPI PUSH2 0x1ED5 PUSH2 0x1E84 JUMP JUMPDEST JUMPDEST DUP3 DUP3 MOD SWAP1 POP SWAP3 SWAP2 POP POP JUMP JUMPDEST PUSH32 0x72657175697265204C6F74746572794665652028302E30303120657468657229 PUSH0 DUP3 ADD MSTORE PUSH32 0x20746F2070617274696369706174650000000000000000000000000000000000 PUSH1 0x20 DUP3 ADD MSTORE POP JUMP JUMPDEST PUSH0 PUSH2 0x1F3B PUSH1 0x2F DUP4 PUSH2 0x1921 JUMP JUMPDEST SWAP2 POP PUSH2 0x1F46 DUP3 PUSH2 0x1EE1 JUMP JUMPDEST PUSH1 0x40 DUP3 ADD SWAP1 POP SWAP2 SWAP1 POP JUMP JUMPDEST PUSH0 PUSH1 0x20 DUP3 ADD SWAP1 POP DUP2 DUP2 SUB PUSH0 DUP4 ADD MSTORE PUSH2 0x1F68 DUP2 PUSH2 0x1F2F JUMP JUMPDEST SWAP1 POP SWAP2 SWAP1 POP JUMP JUMPDEST PUSH32 0x4D756C746950617274794C6F74746572793A3A636F6D6D6974486173684C6F74 PUSH0 DUP3 ADD MSTORE PUSH32 0x746572793A204D6178696D756D206E756D626572206F6620706C617965727320 PUSH1 0x20 DUP3 ADD MSTORE PUSH32 0x6C696D6974206578636565646564000000000000000000000000000000000000 PUSH1 0x40 DUP3 ADD MSTORE POP JUMP JUMPDEST PUSH0 PUSH2 0x1FEF PUSH1 0x4E DUP4 PUSH2 0x1921 JUMP JUMPDEST SWAP2 POP PUSH2 0x1FFA DUP3 PUSH2 0x1F6F JUMP JUMPDEST PUSH1 0x60 DUP3 ADD SWAP1 POP SWAP2 SWAP1 POP JUMP JUMPDEST PUSH0 PUSH1 0x20 DUP3 ADD SWAP1 POP DUP2 DUP2 SUB PUSH0 DUP4 ADD MSTORE PUSH2 0x201C DUP2 PUSH2 0x1FE3 JUMP JUMPDEST SWAP1 POP SWAP2 SWAP1 POP JUMP JUMPDEST PUSH32 0x4D756C746950617274794C6F74746572793A3A636F6D6D6974486173684C6F74 PUSH0 DUP3 ADD MSTORE PUSH32 0x746572793A2047616D65206973206E6F7420696E20636F6D6D69742073746167 PUSH1 0x20 DUP3 ADD MSTORE PUSH32 0x6500000000000000000000000000000000000000000000000000000000000000 PUSH1 0x40 DUP3 ADD MSTORE POP JUMP JUMPDEST PUSH0 PUSH2 0x20A3 PUSH1 0x41 DUP4 PUSH2 0x1921 JUMP JUMPDEST SWAP2 POP PUSH2 0x20AE DUP3 PUSH2 0x2023 JUMP JUMPDEST PUSH1 0x60 DUP3 ADD SWAP1 POP SWAP2 SWAP1 POP JUMP JUMPDEST PUSH0 PUSH1 0x20 DUP3 ADD SWAP1 POP DUP2 DUP2 SUB PUSH0 DUP4 ADD MSTORE PUSH2 0x20D0 DUP2 PUSH2 0x2097 JUMP JUMPDEST SWAP1 POP SWAP2 SWAP1 POP JUMP JUMPDEST PUSH32 0x4D756C746950617274794C6F74746572793A3A77697468647261773A2047616D PUSH0 DUP3 ADD MSTORE PUSH32 0x65206973206E6F7420696E2061776172642074696D656F757420737461676500 PUSH1 0x20 DUP3 ADD MSTORE POP JUMP JUMPDEST PUSH0 PUSH2 0x2131 PUSH1 0x3F DUP4 PUSH2 0x1921 JUMP JUMPDEST SWAP2 POP PUSH2 0x213C DUP3 PUSH2 0x20D7 JUMP JUMPDEST PUSH1 0x40 DUP3 ADD SWAP1 POP SWAP2 SWAP1 POP JUMP JUMPDEST PUSH0 PUSH1 0x20 DUP3 ADD SWAP1 POP DUP2 DUP2 SUB PUSH0 DUP4 ADD MSTORE PUSH2 0x215E DUP2 PUSH2 0x2125 JUMP JUMPDEST SWAP1 POP SWAP2 SWAP1 POP JUMP JUMPDEST PUSH32 0x4D756C746950617274794C6F74746572793A3A77697468647261773A20596F75 PUSH0 DUP3 ADD MSTORE PUSH32 0x20617265206E6F7420746865206F776E6572206F662074686973206C6F747465 PUSH1 0x20 DUP3 ADD MSTORE PUSH32 0x7279000000000000000000000000000000000000000000000000000000000000 PUSH1 0x40 DUP3 ADD MSTORE POP JUMP JUMPDEST PUSH0 PUSH2 0x21E5 PUSH1 0x42 DUP4 PUSH2 0x1921 JUMP JUMPDEST SWAP2 POP PUSH2 0x21F0 DUP3 PUSH2 0x2165 JUMP JUMPDEST PUSH1 0x60 DUP3 ADD SWAP1 POP SWAP2 SWAP1 POP JUMP JUMPDEST PUSH0 PUSH1 0x20 DUP3 ADD SWAP1 POP DUP2 DUP2 SUB PUSH0 DUP4 ADD MSTORE PUSH2 0x2212 DUP2 PUSH2 0x21D9 JUMP JUMPDEST SWAP1 POP SWAP2 SWAP1 POP JUMP JUMPDEST PUSH32 0x4D756C746950617274794C6F74746572793A3A77697468647261773A20596F75 PUSH0 DUP3 ADD MSTORE PUSH32 0x206861766520616C72656164792077697468647261776E2074686973206C6F74 PUSH1 0x20 DUP3 ADD MSTORE PUSH32 0x7465727900000000000000000000000000000000000000000000000000000000 PUSH1 0x40 DUP3 ADD MSTORE POP JUMP JUMPDEST PUSH0 PUSH2 0x2299 PUSH1 0x44 DUP4 PUSH2 0x1921 JUMP JUMPDEST SWAP2 POP PUSH2 0x22A4 DUP3 PUSH2 0x2219 JUMP JUMPDEST PUSH1 0x60 DUP3 ADD SWAP1 POP SWAP2 SWAP1 POP JUMP JUMPDEST PUSH0 PUSH1 0x20 DUP3 ADD SWAP1 POP DUP2 DUP2 SUB PUSH0 DUP4 ADD MSTORE PUSH2 0x22C6 DUP2 PUSH2 0x228D JUMP JUMPDEST SWAP1 POP SWAP2 SWAP1 POP JUMP JUMPDEST PUSH0 PUSH2 0x22D7 DUP3 PUSH2 0x176D JUMP JUMPDEST SWAP2 POP PUSH0 DUP3 SUB PUSH2 0x22E9 JUMPI PUSH2 0x22E8 PUSH2 0x1CE8 JUMP JUMPDEST JUMPDEST PUSH1 0x1 DUP3 SUB SWAP1 POP SWAP2 SWAP1 POP JUMP JUMPDEST PUSH0 PUSH2 0x22FE DUP3 PUSH2 0x176D JUMP JUMPDEST SWAP2 POP PUSH2 0x2309 DUP4 PUSH2 0x176D JUMP JUMPDEST SWAP3 POP DUP3 DUP3 SUB SWAP1 POP DUP2 DUP2 GT ISZERO PUSH2 0x2321 JUMPI PUSH2 0x2320 PUSH2 0x1CE8 JUMP JUMPDEST JUMPDEST SWAP3 SWAP2 POP POP JUMP JUMPDEST PUSH0 DUP2 PUSH1 0x60 SHL SWAP1 POP SWAP2 SWAP1 POP JUMP JUMPDEST PUSH0 PUSH2 0x233D DUP3 PUSH2 0x2327 JUMP JUMPDEST SWAP1 POP SWAP2 SWAP1 POP JUMP JUMPDEST PUSH0 PUSH2 0x234E DUP3 PUSH2 0x2333 JUMP JUMPDEST SWAP1 POP SWAP2 SWAP1 POP JUMP JUMPDEST PUSH2 0x2366 PUSH2 0x2361 DUP3 PUSH2 0x1820 JUMP JUMPDEST PUSH2 0x2344 JUMP JUMPDEST DUP3 MSTORE POP POP JUMP JUMPDEST PUSH0 DUP2 PUSH1 0xF0 SHL SWAP1 POP SWAP2 SWAP1 POP JUMP JUMPDEST PUSH0 PUSH2 0x2382 DUP3 PUSH2 0x236C JUMP JUMPDEST SWAP1 POP SWAP2 SWAP1 POP JUMP JUMPDEST PUSH2 0x239A PUSH2 0x2395 DUP3 PUSH2 0x17CB JUMP JUMPDEST PUSH2 0x2378 JUMP JUMPDEST DUP3 MSTORE POP POP JUMP JUMPDEST PUSH0 DUP2 SWAP1 POP SWAP3 SWAP2 POP POP JUMP JUMPDEST PUSH0 PUSH2 0x23B4 DUP3 PUSH2 0x1917 JUMP JUMPDEST PUSH2 0x23BE DUP2 DUP6 PUSH2 0x23A0 JUMP JUMPDEST SWAP4 POP PUSH2 0x23CE DUP2 DUP6 PUSH1 0x20 DUP7 ADD PUSH2 0x1931 JUMP JUMPDEST DUP1 DUP5 ADD SWAP2 POP POP SWAP3 SWAP2 POP POP JUMP JUMPDEST PUSH0 PUSH2 0x23E5 DUP3 DUP7 PUSH2 0x2355 JUMP JUMPDEST PUSH1 0x14 DUP3 ADD SWAP2 POP PUSH2 0x23F5 DUP3 DUP6 PUSH2 0x2389 JUMP JUMPDEST PUSH1 0x2 DUP3 ADD SWAP2 POP PUSH2 0x2405 DUP3 DUP5 PUSH2 0x23AA JUMP JUMPDEST SWAP2 POP DUP2 SWAP1 POP SWAP5 SWAP4 POP POP POP POP JUMP JUMPDEST PUSH32 0x4D756C746950617274794C6F74746572793A3A72657665616C4C6F7474657279 PUSH0 DUP3 ADD MSTORE PUSH32 0x3A2047616D65206973206E6F7420696E2072657665616C207374616765000000 PUSH1 0x20 DUP3 ADD MSTORE POP JUMP JUMPDEST PUSH0 PUSH2 0x246C PUSH1 0x3D DUP4 PUSH2 0x1921 JUMP JUMPDEST SWAP2 POP PUSH2 0x2477 DUP3 PUSH2 0x2412 JUMP JUMPDEST PUSH1 0x40 DUP3 ADD SWAP1 POP SWAP2 SWAP1 POP JUMP JUMPDEST PUSH0 PUSH1 0x20 DUP3 ADD SWAP1 POP DUP2 DUP2 SUB PUSH0 DUP4 ADD MSTORE PUSH2 0x2499 DUP2 PUSH2 0x2460 JUMP JUMPDEST SWAP1 POP SWAP2 SWAP1 POP JUMP JUMPDEST PUSH32 0x4D756C746950617274794C6F74746572793A3A72657665616C4C6F7474657279 PUSH0 DUP3 ADD MSTORE PUSH32 0x3A20596F7520617265206E6F7420746865206F776E6572206F66207468697320 PUSH1 0x20 DUP3 ADD MSTORE PUSH32 0x6C6F747465727900000000000000000000000000000000000000000000000000 PUSH1 0x40 DUP3 ADD MSTORE POP JUMP JUMPDEST PUSH0 PUSH2 0x2520 PUSH1 0x47 DUP4 PUSH2 0x1921 JUMP JUMPDEST SWAP2 POP PUSH2 0x252B DUP3 PUSH2 0x24A0 JUMP JUMPDEST PUSH1 0x60 DUP3 ADD SWAP1 POP SWAP2 SWAP1 POP JUMP JUMPDEST PUSH0 PUSH1 0x20 DUP3 ADD SWAP1 POP DUP2 DUP2 SUB PUSH0 DUP4 ADD MSTORE PUSH2 0x254D DUP2 PUSH2 0x2514 JUMP JUMPDEST SWAP1 POP SWAP2 SWAP1 POP JUMP JUMPDEST PUSH0 PUSH2 0x255E DUP3 PUSH2 0x176D JUMP JUMPDEST SWAP2 POP PUSH2 0x2569 DUP4 PUSH2 0x176D JUMP JUMPDEST SWAP3 POP DUP3 DUP3 MUL PUSH2 0x2577 DUP2 PUSH2 0x176D JUMP JUMPDEST SWAP2 POP DUP3 DUP3 DIV DUP5 EQ DUP4 ISZERO OR PUSH2 0x258E JUMPI PUSH2 0x258D PUSH2 0x1CE8 JUMP JUMPDEST JUMPDEST POP SWAP3 SWAP2 POP POP JUMP JUMPDEST PUSH0 PUSH2 0x259F DUP3 PUSH2 0x176D JUMP JUMPDEST SWAP2 POP PUSH2 0x25AA DUP4 PUSH2 0x176D JUMP JUMPDEST SWAP3 POP DUP3 PUSH2 0x25BA JUMPI PUSH2 0x25B9 PUSH2 0x1E84 JUMP JUMPDEST JUMPDEST DUP3 DUP3 DIV SWAP1 POP SWAP3 SWAP2 POP POP JUMP JUMPDEST PUSH0 PUSH8 0xFFFFFFFFFFFFFFFF DUP3 AND SWAP1 POP SWAP2 SWAP1 POP JUMP JUMPDEST PUSH2 0x25E1 DUP2 PUSH2 0x25C5 JUMP JUMPDEST DUP3 MSTORE POP POP JUMP JUMPDEST PUSH0 PUSH1 0x80 DUP3 ADD SWAP1 POP PUSH2 0x25FA PUSH0 DUP4 ADD DUP8 PUSH2 0x1831 JUMP JUMPDEST PUSH2 0x2607 PUSH1 0x20 DUP4 ADD DUP7 PUSH2 0x18EF JUMP JUMPDEST PUSH2 0x2614 PUSH1 0x40 DUP4 ADD DUP6 PUSH2 0x1B94 JUMP JUMPDEST PUSH2 0x2621 PUSH1 0x60 DUP4 ADD DUP5 PUSH2 0x25D8 JUMP JUMPDEST SWAP6 SWAP5 POP POP POP POP POP JUMP JUMPDEST PUSH32 0x436F6D6D697452657665616C3A3A72657665616C43686F6963653A20416C7265 PUSH0 DUP3 ADD MSTORE PUSH32 0x6164792072657665616C65640000000000000000000000000000000000000000 PUSH1 0x20 DUP3 ADD MSTORE POP JUMP JUMPDEST PUSH0 PUSH2 0x2684 PUSH1 0x2C DUP4 PUSH2 0x1921 JUMP JUMPDEST SWAP2 POP PUSH2 0x268F DUP3 PUSH2 0x262A JUMP JUMPDEST PUSH1 0x40 DUP3 ADD SWAP1 POP SWAP2 SWAP1 POP JUMP JUMPDEST PUSH0 PUSH1 0x20 DUP3 ADD SWAP1 POP DUP2 DUP2 SUB PUSH0 DUP4 ADD MSTORE PUSH2 0x26B1 DUP2 PUSH2 0x2678 JUMP JUMPDEST SWAP1 POP SWAP2 SWAP1 POP JUMP JUMPDEST PUSH32 0x436F6D6D697452657665616C3A3A72657665616C43686F6963653A2052657665 PUSH0 DUP3 ADD MSTORE PUSH32 0x616C6564206861736820646F6573206E6F74206D6174636820636F6D6D697400 PUSH1 0x20 DUP3 ADD MSTORE POP JUMP JUMPDEST PUSH0 PUSH2 0x2712 PUSH1 0x3F DUP4 PUSH2 0x1921 JUMP JUMPDEST SWAP2 POP PUSH2 0x271D DUP3 PUSH2 0x26B8 JUMP JUMPDEST PUSH1 0x40 DUP3 ADD SWAP1 POP SWAP2 SWAP1 POP JUMP JUMPDEST PUSH0 PUSH1 0x20 DUP3 ADD SWAP1 POP DUP2 DUP2 SUB PUSH0 DUP4 ADD MSTORE PUSH2 0x273F DUP2 PUSH2 0x2706 JUMP JUMPDEST SWAP1 POP SWAP2 SWAP1 POP JUMP JUMPDEST PUSH0 PUSH1 0x60 DUP3 ADD SWAP1 POP PUSH2 0x2759 PUSH0 DUP4 ADD DUP7 PUSH2 0x1831 JUMP JUMPDEST PUSH2 0x2766 PUSH1 0x20 DUP4 ADD DUP6 PUSH2 0x17D8 JUMP JUMPDEST DUP2 DUP2 SUB PUSH1 0x40 DUP4 ADD MSTORE PUSH2 0x2778 DUP2 DUP5 PUSH2 0x1969 JUMP JUMPDEST SWAP1 POP SWAP5 SWAP4 POP POP POP POP JUMP INVALID LOG2 PUSH5 0x6970667358 0x22 SLT KECCAK256 0xDB 0xD1 0xF7 PUSH2 0x2C0E 0x2B SLT EQ 0xAE OR 0xC3 SWAP2 PUSH21 0xA8F2FB01E1D0227604932C3D8E1BA886603164736F PUSH13 0x63430008160033000000000000 "
		},
		"gasEstimates": {
			"creation": {
				"codeDepositCost": "2033600",
				"executionCost": "infinite",
				"totalCost": "infinite"
			},
			"external": {
				"N()": "2513",
				"T1()": "2469",
				"T2()": "2448",
				"T3()": "2492",
				"awardLottery()": "infinite",
				"commitHashedLottery(bytes32)": "infinite",
				"getGameStage()": "infinite",
				"getSaltedHash(uint16,string)": "infinite",
				"isOwner()": "2557",
				"lotteries(uint256)": "infinite",
				"owner()": "2560",
				"revealLottery(uint256,uint16,string)": "infinite",
				"startStageTime()": "2447",
				"withdraw(uint256)": "infinite"
			},
			"internal": {
				"_resetGame()": "56413",
				"_rewardWinner(address)": "infinite",
				"_withdrawBadLottery(uint256)": "infinite"
			}
		},
		"methodIdentifiers": {
			"N()": "c9e525df",
			"T1()": "a11efef4",
			"T2()": "84c9ad6e",
			"T3()": "31081d7e",
			"awardLottery()": "15753ec0",
			"commitHashedLottery(bytes32)": "218e8a9e",
			"getGameStage()": "2f0bca26",
			"getSaltedHash(uint16,string)": "5a07ec0b",
			"isOwner()": "8f32d59b",
			"lotteries(uint256)": "1398e076",
			"owner()": "8da5cb5b",
			"revealLottery(uint256,uint16,string)": "acf1a0ac",
			"startStageTime()": "99023f1b",
			"withdraw(uint256)": "2e1a7d4d"
		}
	},
	"abi": [
		{
			"inputs": [
				{
					"internalType": "uint256",
					"name": "_maximumPlayerLimit",
					"type": "uint256"
				},
				{
					"internalType": "uint256",
					"name": "_commitLotteryStageDuration",
					"type": "uint256"
				},
				{
					"internalType": "uint256",
					"name": "_revealStageDuration",
					"type": "uint256"
				},
				{
					"internalType": "uint256",
					"name": "_awardStageDuration",
					"type": "uint256"
				}
			],
			"stateMutability": "nonpayable",
			"type": "constructor"
		},
		{
			"anonymous": false,
			"inputs": [
				{
					"indexed": false,
					"internalType": "address",
					"name": "sender",
					"type": "address"
				},
				{
					"indexed": false,
					"internalType": "uint256",
					"name": "lotteryId",
					"type": "uint256"
				},
				{
					"indexed": false,
					"internalType": "bytes32",
					"name": "dataHash",
					"type": "bytes32"
				},
				{
					"indexed": false,
					"internalType": "uint64",
					"name": "block",
					"type": "uint64"
				}
			],
			"name": "CommitHash",
			"type": "event"
		},
		{
			"anonymous": false,
			"inputs": [
				{
					"indexed": false,
					"internalType": "address",
					"name": "sender",
					"type": "address"
				},
				{
					"indexed": false,
					"internalType": "uint16",
					"name": "choice",
					"type": "uint16"
				},
				{
					"indexed": false,
					"internalType": "string",
					"name": "salt",
					"type": "string"
				}
			],
			"name": "RevealChoice",
			"type": "event"
		},
		{
			"inputs": [],
			"name": "N",
			"outputs": [
				{
					"internalType": "uint256",
					"name": "",
					"type": "uint256"
				}
			],
			"stateMutability": "view",
			"type": "function"
		},
		{
			"inputs": [],
			"name": "T1",
			"outputs": [
				{
					"internalType": "uint256",
					"name": "",
					"type": "uint256"
				}
			],
			"stateMutability": "view",
			"type": "function"
		},
		{
			"inputs": [],
			"name": "T2",
			"outputs": [
				{
					"internalType": "uint256",
					"name": "",
					"type": "uint256"
				}
			],
			"stateMutability": "view",
			"type": "function"
		},
		{
			"inputs": [],
			"name": "T3",
			"outputs": [
				{
					"internalType": "uint256",
					"name": "",
					"type": "uint256"
				}
			],
			"stateMutability": "view",
			"type": "function"
		},
		{
			"inputs": [],
			"name": "awardLottery",
			"outputs": [],
			"stateMutability": "nonpayable",
			"type": "function"
		},
		{
			"inputs": [
				{
					"internalType": "bytes32",
					"name": "_hashedLottery",
					"type": "bytes32"
				}
			],
			"name": "commitHashedLottery",
			"outputs": [
				{
					"internalType": "uint256",
					"name": "",
					"type": "uint256"
				}
			],
			"stateMutability": "payable",
			"type": "function"
		},
		{
			"inputs": [],
			"name": "getGameStage",
			"outputs": [
				{
					"internalType": "string",
					"name": "",
					"type": "string"
				},
				{
					"internalType": "uint256",
					"name": "",
					"type": "uint256"
				},
				{
					"internalType": "string",
					"name": "",
					"type": "string"
				}
			],
			"stateMutability": "view",
			"type": "function"
		},
		{
			"inputs": [
				{
					"internalType": "uint16",
					"name": "choice",
					"type": "uint16"
				},
				{
					"internalType": "string",
					"name": "salt",
					"type": "string"
				}
			],
			"name": "getSaltedHash",
			"outputs": [
				{
					"internalType": "bytes32",
					"name": "",
					"type": "bytes32"
				}
			],
			"stateMutability": "view",
			"type": "function"
		},
		{
			"inputs": [],
			"name": "isOwner",
			"outputs": [
				{
					"internalType": "bool",
					"name": "",
					"type": "bool"
				}
			],
			"stateMutability": "view",
			"type": "function"
		},
		{
			"inputs": [
				{
					"internalType": "uint256",
					"name": "",
					"type": "uint256"
				}
			],
			"name": "lotteries",
			"outputs": [
				{
					"internalType": "uint16",
					"name": "choice",
					"type": "uint16"
				},
				{
					"internalType": "bool",
					"name": "isCommitted",
					"type": "bool"
				},
				{
					"internalType": "bool",
					"name": "isRevealed",
					"type": "bool"
				},
				{
					"internalType": "bool",
					"name": "isWithdrawn",
					"type": "bool"
				},
				{
					"internalType": "address",
					"name": "addr",
					"type": "address"
				}
			],
			"stateMutability": "view",
			"type": "function"
		},
		{
			"inputs": [],
			"name": "owner",
			"outputs": [
				{
					"internalType": "address",
					"name": "",
					"type": "address"
				}
			],
			"stateMutability": "view",
			"type": "function"
		},
		{
			"inputs": [
				{
					"internalType": "uint256",
					"name": "_lotteryId",
					"type": "uint256"
				},
				{
					"internalType": "uint16",
					"name": "_choice",
					"type": "uint16"
				},
				{
					"internalType": "string",
					"name": "_salt",
					"type": "string"
				}
			],
			"name": "revealLottery",
			"outputs": [],
			"stateMutability": "nonpayable",
			"type": "function"
		},
		{
			"inputs": [],
			"name": "startStageTime",
			"outputs": [
				{
					"internalType": "uint256",
					"name": "",
					"type": "uint256"
				}
			],
			"stateMutability": "view",
			"type": "function"
		},
		{
			"inputs": [
				{
					"internalType": "uint256",
					"name": "lotteryId",
					"type": "uint256"
				}
			],
			"name": "withdraw",
			"outputs": [],
			"stateMutability": "nonpayable",
			"type": "function"
		}
	]
}